{
  "contractName": "Expression",
  "abi": [
    {
      "inputs": [
        {
          "internalType": "contract Token",
          "name": "token",
          "type": "address"
        }
      ],
      "stateMutability": "nonpayable",
      "type": "constructor"
    },
    {
      "inputs": [
        {
          "internalType": "uint256[]",
          "name": "tokens",
          "type": "uint256[]"
        }
      ],
      "name": "calculate",
      "outputs": [
        {
          "internalType": "int64",
          "name": "",
          "type": "int64"
        }
      ],
      "stateMutability": "view",
      "type": "function"
    },
    {
      "inputs": [
        {
          "internalType": "string",
          "name": "uri",
          "type": "string"
        },
        {
          "internalType": "uint256[]",
          "name": "tokens",
          "type": "uint256[]"
        }
      ],
      "name": "mint",
      "outputs": [
        {
          "internalType": "uint256",
          "name": "",
          "type": "uint256"
        }
      ],
      "stateMutability": "nonpayable",
      "type": "function"
    }
  ],
  "bytecode": "0x60806040523480156200001157600080fd5b506040516200151d3803806200151d833981810160405281019062000037919062000095565b806000806101000a81548173ffffffffffffffffffffffffffffffffffffffff021916908373ffffffffffffffffffffffffffffffffffffffff1602179055505062000123565b6000815190506200008f8162000109565b92915050565b600060208284031215620000a857600080fd5b6000620000b8848285016200007e565b91505092915050565b6000620000ce82620000e9565b9050919050565b6000620000e282620000c1565b9050919050565b600073ffffffffffffffffffffffffffffffffffffffff82169050919050565b6200011481620000d5565b81146200012057600080fd5b50565b6113ea80620001336000396000f3fe608060405234801561001057600080fd5b50600436106100365760003560e01c806304956e611461003b578063ba19bdb21461006b575b600080fd5b61005560048036038101906100509190610e30565b61009b565b604051610062919061100d565b60405180910390f35b61008560048036038101906100809190610d74565b6102db565b6040516100929190610fd2565b60405180910390f35b600080600090505b8251811015610215573373ffffffffffffffffffffffffffffffffffffffff1660008054906101000a900473ffffffffffffffffffffffffffffffffffffffff1673ffffffffffffffffffffffffffffffffffffffff16636352211e858481518110610138577f4e487b7100000000000000000000000000000000000000000000000000000000600052603260045260246000fd5b60200260200101516040518263ffffffff1660e01b815260040161015c919061100d565b60206040518083038186803b15801561017457600080fd5b505afa158015610188573d6000803e3d6000fd5b505050506040513d601f19601f820116820180604052508101906101ac9190610d4b565b73ffffffffffffffffffffffffffffffffffffffff1614610202576040517f08c379a00000000000000000000000000000000000000000000000000000000081526004016101f990610fed565b60405180910390fd5b808061020d90611205565b9150506100a3565b506000610221836102db565b905060008054906101000a900473ffffffffffffffffffffffffffffffffffffffff1673ffffffffffffffffffffffffffffffffffffffff16638940fd9d3386846040518463ffffffff1660e01b815260040161028093929190610f5d565b602060405180830381600087803b15801561029a57600080fd5b505af11580156102ae573d6000803e3d6000fd5b505050506040513d601f19601f820116820180604052508101906102d29190610e9c565b91505092915050565b60006102e5610b9b565b6102ed610bb5565b6102f88285516106cf565b610303818551610755565b60005b845181101561069b57600085828151811061034a577f4e487b7100000000000000000000000000000000000000000000000000000000600052603260045260246000fd5b6020026020010151905060018081111561038d577f4e487b7100000000000000000000000000000000000000000000000000000000600052602160045260246000fd5b60008054906101000a900473ffffffffffffffffffffffffffffffffffffffff1673ffffffffffffffffffffffffffffffffffffffff16634036ab78836040518263ffffffff1660e01b81526004016103e6919061100d565b60206040518083038186803b1580156103fe57600080fd5b505afa158015610412573d6000803e3d6000fd5b505050506040513d601f19601f820116820180604052508101906104369190610dde565b600181111561046e577f4e487b7100000000000000000000000000000000000000000000000000000000600052602160045260246000fd5b141561052b576105268460008054906101000a900473ffffffffffffffffffffffffffffffffffffffff1673ffffffffffffffffffffffffffffffffffffffff1663fc563658846040518263ffffffff1660e01b81526004016104d1919061100d565b60206040518083038186803b1580156104e957600080fd5b505afa1580156104fd573d6000803e3d6000fd5b505050506040513d601f19601f820116820180604052508101906105219190610e07565b6107db565b610687565b60008060009054906101000a900473ffffffffffffffffffffffffffffffffffffffff1673ffffffffffffffffffffffffffffffffffffffff1663202e3924836040518263ffffffff1660e01b8152600401610587919061100d565b60206040518083038186803b15801561059f57600080fd5b505afa1580156105b3573d6000803e3d6000fd5b505050506040513d601f19601f820116820180604052508101906105d79190610db5565b905060006105e48561084b565b111561067b5760006105f585610859565b9050806004811115610630577f4e487b7100000000000000000000000000000000000000000000000000000000600052602160045260246000fd5b826004811115610669577f4e487b7100000000000000000000000000000000000000000000000000000000600052602160045260246000fd5b116106795761067886866108b7565b5b505b61068584826109a2565b505b50808061069390611205565b915050610306565b505b60006106a88261084b565b11156106bd576106b882826108b7565b61069d565b6106c682610a7c565b92505050919050565b8067ffffffffffffffff81111561070f577f4e487b7100000000000000000000000000000000000000000000000000000000600052604160045260246000fd5b60405190808252806020026020018201604052801561073d5781602001602082028036833780820191505090505b50826000018190525060008260200181815250505050565b8067ffffffffffffffff811115610795577f4e487b7100000000000000000000000000000000000000000000000000000000600052604160045260246000fd5b6040519080825280602002602001820160405280156107c35781602001602082028036833780820191505090505b50826000018190525060008260200181815250505050565b80826000015183602001518151811061081d577f4e487b7100000000000000000000000000000000000000000000000000000000600052603260045260246000fd5b602002602001019060070b908160070b8152505081602001805180919061084390611205565b815250505050565b600081602001519050919050565b600081600001516001836020015161087191906110c6565b815181106108a8577f4e487b7100000000000000000000000000000000000000000000000000000000600052603260045260246000fd5b60200260200101519050919050565b60006108c282610acb565b905060006108cf84610b33565b905060006108dc85610b33565b905060008060009054906101000a900473ffffffffffffffffffffffffffffffffffffffff1673ffffffffffffffffffffffffffffffffffffffff1663dc3804178584866040518463ffffffff1660e01b815260040161093e93929190610f9b565b60206040518083038186803b15801561095657600080fd5b505afa15801561096a573d6000803e3d6000fd5b505050506040513d601f19601f8201168201806040525081019061098e9190610e07565b905061099a86826107db565b505050505050565b8082600001518360200151815181106109e4577f4e487b7100000000000000000000000000000000000000000000000000000000600052603260045260246000fd5b60200260200101906004811115610a24577f4e487b7100000000000000000000000000000000000000000000000000000000600052602160045260246000fd5b90816004811115610a5e577f4e487b7100000000000000000000000000000000000000000000000000000000600052602160045260246000fd5b81525050816020018051809190610a7490611205565b815250505050565b60008160000151600081518110610abc577f4e487b7100000000000000000000000000000000000000000000000000000000600052603260045260246000fd5b60200260200101519050919050565b6000816020018051809190610adf906111aa565b815250508160000151826020015181518110610b24577f4e487b7100000000000000000000000000000000000000000000000000000000600052603260045260246000fd5b60200260200101519050919050565b6000816020018051809190610b47906111aa565b815250508160000151826020015181518110610b8c577f4e487b7100000000000000000000000000000000000000000000000000000000600052603260045260246000fd5b60200260200101519050919050565b604051806040016040528060608152602001600081525090565b604051806040016040528060608152602001600081525090565b6000610be2610bdd8461104d565b611028565b90508083825260208201905082856020860282011115610c0157600080fd5b60005b85811015610c315781610c178882610d21565b845260208401935060208301925050600181019050610c04565b5050509392505050565b6000610c4e610c4984611079565b611028565b905082815260208101848484011115610c6657600080fd5b610c71848285611168565b509392505050565b600081519050610c888161134f565b92915050565b600082601f830112610c9f57600080fd5b8135610caf848260208601610bcf565b91505092915050565b600081519050610cc781611366565b92915050565b600081519050610cdc81611376565b92915050565b600081519050610cf181611386565b92915050565b600082601f830112610d0857600080fd5b8135610d18848260208601610c3b565b91505092915050565b600081359050610d308161139d565b92915050565b600081519050610d458161139d565b92915050565b600060208284031215610d5d57600080fd5b6000610d6b84828501610c79565b91505092915050565b600060208284031215610d8657600080fd5b600082013567ffffffffffffffff811115610da057600080fd5b610dac84828501610c8e565b91505092915050565b600060208284031215610dc757600080fd5b6000610dd584828501610cb8565b91505092915050565b600060208284031215610df057600080fd5b6000610dfe84828501610ccd565b91505092915050565b600060208284031215610e1957600080fd5b6000610e2784828501610ce2565b91505092915050565b60008060408385031215610e4357600080fd5b600083013567ffffffffffffffff811115610e5d57600080fd5b610e6985828601610cf7565b925050602083013567ffffffffffffffff811115610e8657600080fd5b610e9285828601610c8e565b9150509250929050565b600060208284031215610eae57600080fd5b6000610ebc84828501610d36565b91505092915050565b610ece816110fa565b82525050565b610edd81611156565b82525050565b610eec8161111f565b82525050565b6000610efd826110aa565b610f0781856110b5565b9350610f17818560208601611177565b610f20816112db565b840191505092915050565b6000610f38603e836110b5565b9150610f43826112ec565b604082019050919050565b610f578161114c565b82525050565b6000606082019050610f726000830186610ec5565b8181036020830152610f848185610ef2565b9050610f936040830184610ee3565b949350505050565b6000606082019050610fb06000830186610ed4565b610fbd6020830185610ee3565b610fca6040830184610ee3565b949350505050565b6000602082019050610fe76000830184610ee3565b92915050565b6000602082019050818103600083015261100681610f2b565b9050919050565b60006020820190506110226000830184610f4e565b92915050565b6000611032611043565b905061103e82826111d4565b919050565b6000604051905090565b600067ffffffffffffffff821115611068576110676112ac565b5b602082029050602081019050919050565b600067ffffffffffffffff821115611094576110936112ac565b5b61109d826112db565b9050602081019050919050565b600081519050919050565b600082825260208201905092915050565b60006110d18261114c565b91506110dc8361114c565b9250828210156110ef576110ee61124e565b5b828203905092915050565b60006111058261112c565b9050919050565b600081905061111a8261133b565b919050565b60008160070b9050919050565b600073ffffffffffffffffffffffffffffffffffffffff82169050919050565b6000819050919050565b60006111618261110c565b9050919050565b82818337600083830152505050565b60005b8381101561119557808201518184015260208101905061117a565b838111156111a4576000848401525b50505050565b60006111b58261114c565b915060008214156111c9576111c861124e565b5b600182039050919050565b6111dd826112db565b810181811067ffffffffffffffff821117156111fc576111fb6112ac565b5b80604052505050565b60006112108261114c565b91507fffffffffffffffffffffffffffffffffffffffffffffffffffffffffffffffff8214156112435761124261124e565b5b600182019050919050565b7f4e487b7100000000000000000000000000000000000000000000000000000000600052601160045260246000fd5b7f4e487b7100000000000000000000000000000000000000000000000000000000600052602160045260246000fd5b7f4e487b7100000000000000000000000000000000000000000000000000000000600052604160045260246000fd5b6000601f19601f8301169050919050565b7f416c6c20746f6b656e7320696e2065787072657373696f6e206861766520746f60008201527f2062656c6f6e6720746f207468652063616c6c657220616464726573732e0000602082015250565b6005811061134c5761134b61127d565b5b50565b611358816110fa565b811461136357600080fd5b50565b6005811061137357600080fd5b50565b6002811061138357600080fd5b50565b61138f8161111f565b811461139a57600080fd5b50565b6113a68161114c565b81146113b157600080fd5b5056fea2646970667358221220c0a0ab297e1da0786fed20687f6627638488b85cce44f494bf1c67df49b7532a64736f6c63430008010033",
  "immutableReferences": {},
  "source": "// SPDX-License-Identifier: MIT\r\npragma solidity ^0.8.0;\r\n\r\nimport \"./Token.sol\";\r\n\r\nstruct NumStack {\r\n    int64[] nums;\r\n    uint256 head;\r\n}\r\n\r\nfunction NumStackInit(NumStack memory stack, uint256 len) pure\r\n{\r\n    stack.nums = new int64[](len);\r\n    stack.head = 0;\r\n}\r\n\r\nfunction NumStackPush(NumStack memory stack, int64 num) pure\r\n{\r\n    //TODO: test size?\r\n    stack.nums[stack.head] = num;\r\n    stack.head++;\r\n}\r\n\r\nfunction NumStackPop(NumStack memory stack) pure returns (int64)\r\n{\r\n    //TODO: test if len is zero\r\n    stack.head--;\r\n    return stack.nums[stack.head];\r\n}\r\n\r\nfunction NumStackHead(NumStack memory stack) pure returns (int64)\r\n{\r\n    //TODO: test if len is zero\r\n    return stack.nums[stack.head - 1];\r\n}\r\n\r\nfunction NumStackTail(NumStack memory stack) pure returns (int64)\r\n{\r\n    //TODO: test if len is zero\r\n    return stack.nums[0];\r\n}\r\n\r\nfunction NumStackLen(NumStack memory stack) pure returns (uint256)\r\n{\r\n    return stack.head;\r\n}\r\n\r\nstruct OpStack {\r\n    Token.Operation[] ops;\r\n    uint256 head;\r\n}\r\n\r\nfunction OpStackInit(OpStack memory stack, uint256 len) pure\r\n{\r\n    stack.ops = new Token.Operation[](len);\r\n    stack.head = 0;\r\n}\r\n\r\nfunction OpStackPush(OpStack memory stack, Token.Operation op) pure\r\n{\r\n    //TODO: test size?\r\n    stack.ops[stack.head] = op;\r\n    stack.head++;\r\n}\r\n\r\nfunction OpStackPop(OpStack memory stack) pure returns (Token.Operation)\r\n{\r\n    //TODO: test if len is zero\r\n    stack.head--;\r\n    return stack.ops[stack.head];\r\n}\r\n\r\nfunction OpStackHead(OpStack memory stack) pure returns (Token.Operation)\r\n{\r\n    //TODO: test if len is zero\r\n    return stack.ops[stack.head - 1];\r\n}\r\n\r\nfunction OpStackTail(OpStack memory stack) pure returns (Token.Operation)\r\n{\r\n    //TODO: test if len is zero\r\n    return stack.ops[0];\r\n}\r\n\r\nfunction OpStackLen(OpStack memory stack) pure returns (uint256)\r\n{\r\n    return stack.head;\r\n}\r\n\r\ncontract Expression {\r\n    Token private _token;\r\n\r\n    constructor(Token token) {\r\n        _token = token;\r\n    }\r\n\r\n    function _runTopOp(NumStack memory numStack, OpStack memory opStack) internal view\r\n    {\r\n        Token.Operation op = OpStackPop(opStack);\r\n\r\n        int64 v2 = NumStackPop(numStack);\r\n        int64 v1 = NumStackPop(numStack);\r\n\r\n        int64 v = _token.runOperation(op, v1, v2);\r\n        NumStackPush(numStack, v);\r\n    }\r\n\r\n    function calculate(uint256[] memory tokens) public view returns (int64)\r\n    {\r\n        NumStack memory numStack;\r\n        OpStack memory opStack;\r\n\r\n        //TODO: Better sizes?\r\n        NumStackInit(numStack, tokens.length);\r\n        OpStackInit(opStack, tokens.length);\r\n\r\n        for (uint i=0; i < tokens.length; i++) {\r\n            uint256 tokenId = tokens[i];\r\n\r\n            if (_token.getType(tokenId) == Token.Type.Number) {\r\n                // Add to the operand stack\r\n                NumStackPush(numStack, _token.getNumber(tokenId));\r\n            } else {\r\n                Token.Operation op = _token.getOperation(tokenId);\r\n\r\n                if (OpStackLen(opStack) >  0) {\r\n                    Token.Operation topOp = OpStackHead(opStack);\r\n\r\n                    if (op <= topOp) {\r\n                        _runTopOp(numStack, opStack);\r\n                    }\r\n                }\r\n\r\n                OpStackPush(opStack, op);\r\n            }\r\n        }\r\n\r\n        // Iterate through the operations in the stack and process them\r\n        while (OpStackLen(opStack) > 0) {\r\n            _runTopOp(numStack, opStack);\r\n        }\r\n\r\n        // Return the first number in the stack, which should be the result.\r\n        return NumStackTail(numStack);\r\n    }\r\n\r\n    //todo add test\r\n    function mint(string memory uri, uint256[] memory tokens) public returns(uint256) {\r\n        // Make sure all tokens belong to the account\r\n        for (uint i=0; i < tokens.length; i++) {\r\n            require(_token.ownerOf(tokens[i]) == msg.sender,\r\n                    \"All tokens in expression have to belong to the caller address.\");\r\n        }\r\n\r\n        int64 num = calculate(tokens);\r\n        return _token.mintNumber(msg.sender, uri, num);\r\n    }\r\n\r\n}",
  "sourcePath": "D:/Blockchain/Ethereum/Projects/arithmetoken/src/contracts/Expression.sol",
  "compiler": {
    "name": "solc",
    "version": "0.8.1+commit.df193b15.Emscripten.clang"
  },
  "schemaVersion": "3.4.1",
  "updatedAt": "2021-07-20T04:06:42.145Z",
  "devdoc": {
    "kind": "dev",
    "methods": {},
    "version": 1
  },
  "userdoc": {
    "kind": "user",
    "methods": {},
    "version": 1
  }
}