{
  "contractName": "Expression",
  "abi": [
    {
      "inputs": [
        {
          "internalType": "contract Token",
          "name": "token",
          "type": "address"
        }
      ],
      "stateMutability": "nonpayable",
      "type": "constructor"
    },
    {
      "inputs": [
        {
          "internalType": "uint256[]",
          "name": "_tokens",
          "type": "uint256[]"
        }
      ],
      "name": "calculate",
      "outputs": [
        {
          "internalType": "int64",
          "name": "",
          "type": "int64"
        }
      ],
      "stateMutability": "view",
      "type": "function",
      "constant": true
    },
    {
      "inputs": [
        {
          "internalType": "address",
          "name": "account",
          "type": "address"
        },
        {
          "internalType": "string",
          "name": "uri",
          "type": "string"
        },
        {
          "internalType": "uint256[]",
          "name": "tokens",
          "type": "uint256[]"
        }
      ],
      "name": "mint",
      "outputs": [
        {
          "internalType": "uint256",
          "name": "",
          "type": "uint256"
        }
      ],
      "stateMutability": "nonpayable",
      "type": "function"
    }
  ],
  "bytecode": "0x60806040523480156200001157600080fd5b50604051620012fc380380620012fc833981810160405281019062000037919062000095565b806000806101000a81548173ffffffffffffffffffffffffffffffffffffffff021916908373ffffffffffffffffffffffffffffffffffffffff1602179055505062000123565b6000815190506200008f8162000109565b92915050565b600060208284031215620000a857600080fd5b6000620000b8848285016200007e565b91505092915050565b6000620000ce82620000e9565b9050919050565b6000620000e282620000c1565b9050919050565b600073ffffffffffffffffffffffffffffffffffffffff82169050919050565b6200011481620000d5565b81146200012057600080fd5b50565b6111c980620001336000396000f3fe608060405234801561001057600080fd5b50600436106100365760003560e01c80638ff142eb1461003b578063ba19bdb21461006b575b600080fd5b61005560048036038101906100509190610bd2565b61009b565b6040516100629190610e3b565b60405180910390f35b61008560048036038101906100809190610c51565b610162565b6040516100929190610e20565b60405180910390f35b6000806100a783610162565b905060008054906101000a900473ffffffffffffffffffffffffffffffffffffffff1673ffffffffffffffffffffffffffffffffffffffff16638940fd9d8686846040518463ffffffff1660e01b815260040161010693929190610dab565b602060405180830381600087803b15801561012057600080fd5b505af1158015610134573d6000803e3d6000fd5b505050506040513d601f19601f820116820180604052508101906101589190610d0d565b9150509392505050565b600061016c610a22565b610174610a3c565b61017f828551610556565b61018a8185516105dc565b60005b84518110156105225760008582815181106101d1577f4e487b7100000000000000000000000000000000000000000000000000000000600052603260045260246000fd5b60200260200101519050600180811115610214577f4e487b7100000000000000000000000000000000000000000000000000000000600052602160045260246000fd5b60008054906101000a900473ffffffffffffffffffffffffffffffffffffffff1673ffffffffffffffffffffffffffffffffffffffff16634036ab78836040518263ffffffff1660e01b815260040161026d9190610e3b565b60206040518083038186803b15801561028557600080fd5b505afa158015610299573d6000803e3d6000fd5b505050506040513d601f19601f820116820180604052508101906102bd9190610cbb565b60018111156102f5577f4e487b7100000000000000000000000000000000000000000000000000000000600052602160045260246000fd5b14156103b2576103ad8460008054906101000a900473ffffffffffffffffffffffffffffffffffffffff1673ffffffffffffffffffffffffffffffffffffffff1663fc563658846040518263ffffffff1660e01b81526004016103589190610e3b565b60206040518083038186803b15801561037057600080fd5b505afa158015610384573d6000803e3d6000fd5b505050506040513d601f19601f820116820180604052508101906103a89190610ce4565b610662565b61050e565b60008060009054906101000a900473ffffffffffffffffffffffffffffffffffffffff1673ffffffffffffffffffffffffffffffffffffffff1663202e3924836040518263ffffffff1660e01b815260040161040e9190610e3b565b60206040518083038186803b15801561042657600080fd5b505afa15801561043a573d6000803e3d6000fd5b505050506040513d601f19601f8201168201806040525081019061045e9190610c92565b9050600061046b856106d2565b111561050257600061047c856106e0565b90508060048111156104b7577f4e487b7100000000000000000000000000000000000000000000000000000000600052602160045260246000fd5b8260048111156104f0577f4e487b7100000000000000000000000000000000000000000000000000000000600052602160045260246000fd5b11610500576104ff868661073e565b5b505b61050c8482610829565b505b50808061051a90611033565b91505061018d565b505b600061052f826106d2565b11156105445761053f828261073e565b610524565b61054d82610903565b92505050919050565b8067ffffffffffffffff811115610596577f4e487b7100000000000000000000000000000000000000000000000000000000600052604160045260246000fd5b6040519080825280602002602001820160405280156105c45781602001602082028036833780820191505090505b50826000018190525060008260200181815250505050565b8067ffffffffffffffff81111561061c577f4e487b7100000000000000000000000000000000000000000000000000000000600052604160045260246000fd5b60405190808252806020026020018201604052801561064a5781602001602082028036833780820191505090505b50826000018190525060008260200181815250505050565b8082600001518360200151815181106106a4577f4e487b7100000000000000000000000000000000000000000000000000000000600052603260045260246000fd5b602002602001019060070b908160070b815250508160200180518091906106ca90611033565b815250505050565b600081602001519050919050565b60008160000151600183602001516106f89190610ef4565b8151811061072f577f4e487b7100000000000000000000000000000000000000000000000000000000600052603260045260246000fd5b60200260200101519050919050565b600061074982610952565b90506000610756846109ba565b90506000610763856109ba565b905060008060009054906101000a900473ffffffffffffffffffffffffffffffffffffffff1673ffffffffffffffffffffffffffffffffffffffff1663dc3804178584866040518463ffffffff1660e01b81526004016107c593929190610de9565b60206040518083038186803b1580156107dd57600080fd5b505afa1580156107f1573d6000803e3d6000fd5b505050506040513d601f19601f820116820180604052508101906108159190610ce4565b90506108218682610662565b505050505050565b80826000015183602001518151811061086b577f4e487b7100000000000000000000000000000000000000000000000000000000600052603260045260246000fd5b602002602001019060048111156108ab577f4e487b7100000000000000000000000000000000000000000000000000000000600052602160045260246000fd5b908160048111156108e5577f4e487b7100000000000000000000000000000000000000000000000000000000600052602160045260246000fd5b815250508160200180518091906108fb90611033565b815250505050565b60008160000151600081518110610943577f4e487b7100000000000000000000000000000000000000000000000000000000600052603260045260246000fd5b60200260200101519050919050565b600081602001805180919061096690610fd8565b8152505081600001518260200151815181106109ab577f4e487b7100000000000000000000000000000000000000000000000000000000600052603260045260246000fd5b60200260200101519050919050565b60008160200180518091906109ce90610fd8565b815250508160000151826020015181518110610a13577f4e487b7100000000000000000000000000000000000000000000000000000000600052603260045260246000fd5b60200260200101519050919050565b604051806040016040528060608152602001600081525090565b604051806040016040528060608152602001600081525090565b6000610a69610a6484610e7b565b610e56565b90508083825260208201905082856020860282011115610a8857600080fd5b60005b85811015610ab85781610a9e8882610ba8565b845260208401935060208301925050600181019050610a8b565b5050509392505050565b6000610ad5610ad084610ea7565b610e56565b905082815260208101848484011115610aed57600080fd5b610af8848285610f96565b509392505050565b600081359050610b0f8161112e565b92915050565b600082601f830112610b2657600080fd5b8135610b36848260208601610a56565b91505092915050565b600081519050610b4e81611145565b92915050565b600081519050610b6381611155565b92915050565b600081519050610b7881611165565b92915050565b600082601f830112610b8f57600080fd5b8135610b9f848260208601610ac2565b91505092915050565b600081359050610bb78161117c565b92915050565b600081519050610bcc8161117c565b92915050565b600080600060608486031215610be757600080fd5b6000610bf586828701610b00565b935050602084013567ffffffffffffffff811115610c1257600080fd5b610c1e86828701610b7e565b925050604084013567ffffffffffffffff811115610c3b57600080fd5b610c4786828701610b15565b9150509250925092565b600060208284031215610c6357600080fd5b600082013567ffffffffffffffff811115610c7d57600080fd5b610c8984828501610b15565b91505092915050565b600060208284031215610ca457600080fd5b6000610cb284828501610b3f565b91505092915050565b600060208284031215610ccd57600080fd5b6000610cdb84828501610b54565b91505092915050565b600060208284031215610cf657600080fd5b6000610d0484828501610b69565b91505092915050565b600060208284031215610d1f57600080fd5b6000610d2d84828501610bbd565b91505092915050565b610d3f81610f28565b82525050565b610d4e81610f84565b82525050565b610d5d81610f4d565b82525050565b6000610d6e82610ed8565b610d788185610ee3565b9350610d88818560208601610fa5565b610d9181611109565b840191505092915050565b610da581610f7a565b82525050565b6000606082019050610dc06000830186610d36565b8181036020830152610dd28185610d63565b9050610de16040830184610d54565b949350505050565b6000606082019050610dfe6000830186610d45565b610e0b6020830185610d54565b610e186040830184610d54565b949350505050565b6000602082019050610e356000830184610d54565b92915050565b6000602082019050610e506000830184610d9c565b92915050565b6000610e60610e71565b9050610e6c8282611002565b919050565b6000604051905090565b600067ffffffffffffffff821115610e9657610e956110da565b5b602082029050602081019050919050565b600067ffffffffffffffff821115610ec257610ec16110da565b5b610ecb82611109565b9050602081019050919050565b600081519050919050565b600082825260208201905092915050565b6000610eff82610f7a565b9150610f0a83610f7a565b925082821015610f1d57610f1c61107c565b5b828203905092915050565b6000610f3382610f5a565b9050919050565b6000819050610f488261111a565b919050565b60008160070b9050919050565b600073ffffffffffffffffffffffffffffffffffffffff82169050919050565b6000819050919050565b6000610f8f82610f3a565b9050919050565b82818337600083830152505050565b60005b83811015610fc3578082015181840152602081019050610fa8565b83811115610fd2576000848401525b50505050565b6000610fe382610f7a565b91506000821415610ff757610ff661107c565b5b600182039050919050565b61100b82611109565b810181811067ffffffffffffffff8211171561102a576110296110da565b5b80604052505050565b600061103e82610f7a565b91507fffffffffffffffffffffffffffffffffffffffffffffffffffffffffffffffff8214156110715761107061107c565b5b600182019050919050565b7f4e487b7100000000000000000000000000000000000000000000000000000000600052601160045260246000fd5b7f4e487b7100000000000000000000000000000000000000000000000000000000600052602160045260246000fd5b7f4e487b7100000000000000000000000000000000000000000000000000000000600052604160045260246000fd5b6000601f19601f8301169050919050565b6005811061112b5761112a6110ab565b5b50565b61113781610f28565b811461114257600080fd5b50565b6005811061115257600080fd5b50565b6002811061116257600080fd5b50565b61116e81610f4d565b811461117957600080fd5b50565b61118581610f7a565b811461119057600080fd5b5056fea2646970667358221220a09e7661b5f0d7ffd2d6420baf4fb3c6ffc97f5c1207199b87682da7ab78a6d964736f6c63430008010033",
  "immutableReferences": {},
  "source": "// SPDX-License-Identifier: MIT\r\npragma solidity ^0.8.0;\r\n\r\nimport \"./Token.sol\";\r\n\r\nstruct NumStack {\r\n    int64[] nums;\r\n    uint256 head;\r\n}\r\n\r\nfunction NumStackInit(NumStack memory stack, uint256 len) pure\r\n{\r\n    stack.nums = new int64[](len);\r\n    stack.head = 0;\r\n}\r\n\r\nfunction NumStackPush(NumStack memory stack, int64 num) pure\r\n{\r\n    //TODO: test size?\r\n    stack.nums[stack.head] = num;\r\n    stack.head++;\r\n}\r\n\r\nfunction NumStackPop(NumStack memory stack) pure returns (int64)\r\n{\r\n    //TODO: test if len is zero\r\n    stack.head--;\r\n    return stack.nums[stack.head];\r\n}\r\n\r\nfunction NumStackHead(NumStack memory stack) pure returns (int64)\r\n{\r\n    //TODO: test if len is zero\r\n    return stack.nums[stack.head - 1];\r\n}\r\n\r\nfunction NumStackTail(NumStack memory stack) pure returns (int64)\r\n{\r\n    //TODO: test if len is zero\r\n    return stack.nums[0];\r\n}\r\n\r\nfunction NumStackLen(NumStack memory stack) pure returns (uint256)\r\n{\r\n    return stack.head;\r\n}\r\n\r\nstruct OpStack {\r\n    Token.Operation[] ops;\r\n    uint256 head;\r\n}\r\n\r\nfunction OpStackInit(OpStack memory stack, uint256 len) pure\r\n{\r\n    stack.ops = new Token.Operation[](len);\r\n    stack.head = 0;\r\n}\r\n\r\nfunction OpStackPush(OpStack memory stack, Token.Operation op) pure\r\n{\r\n    //TODO: test size?\r\n    stack.ops[stack.head] = op;\r\n    stack.head++;\r\n}\r\n\r\nfunction OpStackPop(OpStack memory stack) pure returns (Token.Operation)\r\n{\r\n    //TODO: test if len is zero\r\n    stack.head--;\r\n    return stack.ops[stack.head];\r\n}\r\n\r\nfunction OpStackHead(OpStack memory stack) pure returns (Token.Operation)\r\n{\r\n    //TODO: test if len is zero\r\n    return stack.ops[stack.head - 1];\r\n}\r\n\r\nfunction OpStackTail(OpStack memory stack) pure returns (Token.Operation)\r\n{\r\n    //TODO: test if len is zero\r\n    return stack.ops[0];\r\n}\r\n\r\nfunction OpStackLen(OpStack memory stack) pure returns (uint256)\r\n{\r\n    return stack.head;\r\n}\r\n\r\ncontract Expression {\r\n    Token private _token;\r\n\r\n    constructor(Token token) {\r\n        _token = token;\r\n    }\r\n\r\n    function _runTopOp(NumStack memory numStack, OpStack memory opStack) internal view\r\n    {\r\n        Token.Operation op = OpStackPop(opStack);\r\n\r\n        int64 v2 = NumStackPop(numStack);\r\n        int64 v1 = NumStackPop(numStack);\r\n\r\n        int64 v = _token.runOperation(op, v1, v2);\r\n        NumStackPush(numStack, v);\r\n    }\r\n\r\n    function calculate(uint256[] memory _tokens) public view returns (int64)\r\n    {\r\n        NumStack memory numStack;\r\n        OpStack memory opStack;\r\n\r\n        //TODO: Better sizes?\r\n        NumStackInit(numStack, _tokens.length);\r\n        OpStackInit(opStack, _tokens.length);\r\n\r\n        for (uint i=0; i < _tokens.length; i++) {\r\n            uint256 tokenId = _tokens[i];\r\n\r\n            if (_token.getType(tokenId) == Token.Type.Number) {\r\n                // Add to the operand stack\r\n                NumStackPush(numStack, _token.getNumber(tokenId));\r\n            } else {\r\n                Token.Operation op = _token.getOperation(tokenId);\r\n\r\n                if (OpStackLen(opStack) >  0) {\r\n                    Token.Operation topOp = OpStackHead(opStack);\r\n\r\n                    if (op <= topOp) {\r\n                        _runTopOp(numStack, opStack);\r\n                    }\r\n                }\r\n\r\n                OpStackPush(opStack, op);\r\n            }\r\n        }\r\n\r\n        // Iterate through the operations in the stack and process them\r\n        while (OpStackLen(opStack) > 0) {\r\n            _runTopOp(numStack, opStack);\r\n        }\r\n\r\n        // Return the first number in the stack, which should be the result.\r\n        return NumStackTail(numStack);\r\n    }\r\n\r\n    //TODO: test\r\n    function mint(address account, string memory uri, uint256[] memory tokens) public returns(uint256) {\r\n        int64 num = calculate(tokens);\r\n        return _token.mintNumber(account, uri, num);\r\n    }\r\n\r\n}",
  "sourcePath": "D:/Blockchain/Ethereum/Projects/arithmetoken/src/contracts/Expression.sol",
  "compiler": {
    "name": "solc",
    "version": "0.8.1+commit.df193b15.Emscripten.clang"
  },
  "schemaVersion": "3.4.1",
  "updatedAt": "2021-06-15T06:27:34.085Z",
  "networkType": "ethereum",
  "devdoc": {
    "kind": "dev",
    "methods": {},
    "version": 1
  },
  "userdoc": {
    "kind": "user",
    "methods": {},
    "version": 1
  }
}