{
  "contractName": "Expression",
  "abi": [
    {
      "inputs": [
        {
          "internalType": "contract Token",
          "name": "token",
          "type": "address"
        }
      ],
      "stateMutability": "nonpayable",
      "type": "constructor"
    },
    {
      "inputs": [
        {
          "internalType": "uint256[]",
          "name": "tokens",
          "type": "uint256[]"
        }
      ],
      "name": "calculate",
      "outputs": [
        {
          "internalType": "int64",
          "name": "",
          "type": "int64"
        }
      ],
      "stateMutability": "view",
      "type": "function",
      "constant": true
    },
    {
      "inputs": [
        {
          "internalType": "string",
          "name": "uri",
          "type": "string"
        },
        {
          "internalType": "uint256[]",
          "name": "tokens",
          "type": "uint256[]"
        }
      ],
      "name": "mint",
      "outputs": [
        {
          "internalType": "uint256",
          "name": "",
          "type": "uint256"
        }
      ],
      "stateMutability": "nonpayable",
      "type": "function"
    }
  ],
  "bytecode": "0x60806040523480156200001157600080fd5b506040516200151f3803806200151f833981810160405281019062000037919062000095565b806000806101000a81548173ffffffffffffffffffffffffffffffffffffffff021916908373ffffffffffffffffffffffffffffffffffffffff1602179055505062000123565b6000815190506200008f8162000109565b92915050565b600060208284031215620000a857600080fd5b6000620000b8848285016200007e565b91505092915050565b6000620000ce82620000e9565b9050919050565b6000620000e282620000c1565b9050919050565b600073ffffffffffffffffffffffffffffffffffffffff82169050919050565b6200011481620000d5565b81146200012057600080fd5b50565b6113ec80620001336000396000f3fe608060405234801561001057600080fd5b50600436106100365760003560e01c806304956e611461003b578063ba19bdb21461006b575b600080fd5b61005560048036038101906100509190610e32565b61009b565b604051610062919061100f565b60405180910390f35b61008560048036038101906100809190610d76565b6102dd565b6040516100929190610fd4565b60405180910390f35b60008033905060005b8351811015610216578173ffffffffffffffffffffffffffffffffffffffff1660008054906101000a900473ffffffffffffffffffffffffffffffffffffffff1673ffffffffffffffffffffffffffffffffffffffff16636352211e868481518110610139577f4e487b7100000000000000000000000000000000000000000000000000000000600052603260045260246000fd5b60200260200101516040518263ffffffff1660e01b815260040161015d919061100f565b60206040518083038186803b15801561017557600080fd5b505afa158015610189573d6000803e3d6000fd5b505050506040513d601f19601f820116820180604052508101906101ad9190610d4d565b73ffffffffffffffffffffffffffffffffffffffff1614610203576040517f08c379a00000000000000000000000000000000000000000000000000000000081526004016101fa90610fef565b60405180910390fd5b808061020e90611207565b9150506100a4565b506000610222846102dd565b905060008054906101000a900473ffffffffffffffffffffffffffffffffffffffff1673ffffffffffffffffffffffffffffffffffffffff16638940fd9d8387846040518463ffffffff1660e01b815260040161028193929190610f5f565b602060405180830381600087803b15801561029b57600080fd5b505af11580156102af573d6000803e3d6000fd5b505050506040513d601f19601f820116820180604052508101906102d39190610e9e565b9250505092915050565b60006102e7610b9d565b6102ef610bb7565b6102fa8285516106d1565b610305818551610757565b60005b845181101561069d57600085828151811061034c577f4e487b7100000000000000000000000000000000000000000000000000000000600052603260045260246000fd5b6020026020010151905060018081111561038f577f4e487b7100000000000000000000000000000000000000000000000000000000600052602160045260246000fd5b60008054906101000a900473ffffffffffffffffffffffffffffffffffffffff1673ffffffffffffffffffffffffffffffffffffffff16634036ab78836040518263ffffffff1660e01b81526004016103e8919061100f565b60206040518083038186803b15801561040057600080fd5b505afa158015610414573d6000803e3d6000fd5b505050506040513d601f19601f820116820180604052508101906104389190610de0565b6001811115610470577f4e487b7100000000000000000000000000000000000000000000000000000000600052602160045260246000fd5b141561052d576105288460008054906101000a900473ffffffffffffffffffffffffffffffffffffffff1673ffffffffffffffffffffffffffffffffffffffff1663fc563658846040518263ffffffff1660e01b81526004016104d3919061100f565b60206040518083038186803b1580156104eb57600080fd5b505afa1580156104ff573d6000803e3d6000fd5b505050506040513d601f19601f820116820180604052508101906105239190610e09565b6107dd565b610689565b60008060009054906101000a900473ffffffffffffffffffffffffffffffffffffffff1673ffffffffffffffffffffffffffffffffffffffff1663202e3924836040518263ffffffff1660e01b8152600401610589919061100f565b60206040518083038186803b1580156105a157600080fd5b505afa1580156105b5573d6000803e3d6000fd5b505050506040513d601f19601f820116820180604052508101906105d99190610db7565b905060006105e68561084d565b111561067d5760006105f78561085b565b9050806004811115610632577f4e487b7100000000000000000000000000000000000000000000000000000000600052602160045260246000fd5b82600481111561066b577f4e487b7100000000000000000000000000000000000000000000000000000000600052602160045260246000fd5b1161067b5761067a86866108b9565b5b505b61068784826109a4565b505b50808061069590611207565b915050610308565b505b60006106aa8261084d565b11156106bf576106ba82826108b9565b61069f565b6106c882610a7e565b92505050919050565b8067ffffffffffffffff811115610711577f4e487b7100000000000000000000000000000000000000000000000000000000600052604160045260246000fd5b60405190808252806020026020018201604052801561073f5781602001602082028036833780820191505090505b50826000018190525060008260200181815250505050565b8067ffffffffffffffff811115610797577f4e487b7100000000000000000000000000000000000000000000000000000000600052604160045260246000fd5b6040519080825280602002602001820160405280156107c55781602001602082028036833780820191505090505b50826000018190525060008260200181815250505050565b80826000015183602001518151811061081f577f4e487b7100000000000000000000000000000000000000000000000000000000600052603260045260246000fd5b602002602001019060070b908160070b8152505081602001805180919061084590611207565b815250505050565b600081602001519050919050565b600081600001516001836020015161087391906110c8565b815181106108aa577f4e487b7100000000000000000000000000000000000000000000000000000000600052603260045260246000fd5b60200260200101519050919050565b60006108c482610acd565b905060006108d184610b35565b905060006108de85610b35565b905060008060009054906101000a900473ffffffffffffffffffffffffffffffffffffffff1673ffffffffffffffffffffffffffffffffffffffff1663dc3804178584866040518463ffffffff1660e01b815260040161094093929190610f9d565b60206040518083038186803b15801561095857600080fd5b505afa15801561096c573d6000803e3d6000fd5b505050506040513d601f19601f820116820180604052508101906109909190610e09565b905061099c86826107dd565b505050505050565b8082600001518360200151815181106109e6577f4e487b7100000000000000000000000000000000000000000000000000000000600052603260045260246000fd5b60200260200101906004811115610a26577f4e487b7100000000000000000000000000000000000000000000000000000000600052602160045260246000fd5b90816004811115610a60577f4e487b7100000000000000000000000000000000000000000000000000000000600052602160045260246000fd5b81525050816020018051809190610a7690611207565b815250505050565b60008160000151600081518110610abe577f4e487b7100000000000000000000000000000000000000000000000000000000600052603260045260246000fd5b60200260200101519050919050565b6000816020018051809190610ae1906111ac565b815250508160000151826020015181518110610b26577f4e487b7100000000000000000000000000000000000000000000000000000000600052603260045260246000fd5b60200260200101519050919050565b6000816020018051809190610b49906111ac565b815250508160000151826020015181518110610b8e577f4e487b7100000000000000000000000000000000000000000000000000000000600052603260045260246000fd5b60200260200101519050919050565b604051806040016040528060608152602001600081525090565b604051806040016040528060608152602001600081525090565b6000610be4610bdf8461104f565b61102a565b90508083825260208201905082856020860282011115610c0357600080fd5b60005b85811015610c335781610c198882610d23565b845260208401935060208301925050600181019050610c06565b5050509392505050565b6000610c50610c4b8461107b565b61102a565b905082815260208101848484011115610c6857600080fd5b610c7384828561116a565b509392505050565b600081519050610c8a81611351565b92915050565b600082601f830112610ca157600080fd5b8135610cb1848260208601610bd1565b91505092915050565b600081519050610cc981611368565b92915050565b600081519050610cde81611378565b92915050565b600081519050610cf381611388565b92915050565b600082601f830112610d0a57600080fd5b8135610d1a848260208601610c3d565b91505092915050565b600081359050610d328161139f565b92915050565b600081519050610d478161139f565b92915050565b600060208284031215610d5f57600080fd5b6000610d6d84828501610c7b565b91505092915050565b600060208284031215610d8857600080fd5b600082013567ffffffffffffffff811115610da257600080fd5b610dae84828501610c90565b91505092915050565b600060208284031215610dc957600080fd5b6000610dd784828501610cba565b91505092915050565b600060208284031215610df257600080fd5b6000610e0084828501610ccf565b91505092915050565b600060208284031215610e1b57600080fd5b6000610e2984828501610ce4565b91505092915050565b60008060408385031215610e4557600080fd5b600083013567ffffffffffffffff811115610e5f57600080fd5b610e6b85828601610cf9565b925050602083013567ffffffffffffffff811115610e8857600080fd5b610e9485828601610c90565b9150509250929050565b600060208284031215610eb057600080fd5b6000610ebe84828501610d38565b91505092915050565b610ed0816110fc565b82525050565b610edf81611158565b82525050565b610eee81611121565b82525050565b6000610eff826110ac565b610f0981856110b7565b9350610f19818560208601611179565b610f22816112dd565b840191505092915050565b6000610f3a603e836110b7565b9150610f45826112ee565b604082019050919050565b610f598161114e565b82525050565b6000606082019050610f746000830186610ec7565b8181036020830152610f868185610ef4565b9050610f956040830184610ee5565b949350505050565b6000606082019050610fb26000830186610ed6565b610fbf6020830185610ee5565b610fcc6040830184610ee5565b949350505050565b6000602082019050610fe96000830184610ee5565b92915050565b6000602082019050818103600083015261100881610f2d565b9050919050565b60006020820190506110246000830184610f50565b92915050565b6000611034611045565b905061104082826111d6565b919050565b6000604051905090565b600067ffffffffffffffff82111561106a576110696112ae565b5b602082029050602081019050919050565b600067ffffffffffffffff821115611096576110956112ae565b5b61109f826112dd565b9050602081019050919050565b600081519050919050565b600082825260208201905092915050565b60006110d38261114e565b91506110de8361114e565b9250828210156110f1576110f0611250565b5b828203905092915050565b60006111078261112e565b9050919050565b600081905061111c8261133d565b919050565b60008160070b9050919050565b600073ffffffffffffffffffffffffffffffffffffffff82169050919050565b6000819050919050565b60006111638261110e565b9050919050565b82818337600083830152505050565b60005b8381101561119757808201518184015260208101905061117c565b838111156111a6576000848401525b50505050565b60006111b78261114e565b915060008214156111cb576111ca611250565b5b600182039050919050565b6111df826112dd565b810181811067ffffffffffffffff821117156111fe576111fd6112ae565b5b80604052505050565b60006112128261114e565b91507fffffffffffffffffffffffffffffffffffffffffffffffffffffffffffffffff82141561124557611244611250565b5b600182019050919050565b7f4e487b7100000000000000000000000000000000000000000000000000000000600052601160045260246000fd5b7f4e487b7100000000000000000000000000000000000000000000000000000000600052602160045260246000fd5b7f4e487b7100000000000000000000000000000000000000000000000000000000600052604160045260246000fd5b6000601f19601f8301169050919050565b7f416c6c20746f6b656e7320696e2065787072657373696f6e206861766520746f60008201527f2062656c6f6e6720746f207468652063616c6c657220616464726573732e0000602082015250565b6005811061134e5761134d61127f565b5b50565b61135a816110fc565b811461136557600080fd5b50565b6005811061137557600080fd5b50565b6002811061138557600080fd5b50565b61139181611121565b811461139c57600080fd5b50565b6113a88161114e565b81146113b357600080fd5b5056fea264697066735822122029e1ca252833fbd205f31fc85e1fece88916d682b62a5705da5298f6b7c83acb64736f6c63430008010033",
  "immutableReferences": {},
  "source": "// SPDX-License-Identifier: MIT\r\npragma solidity ^0.8.0;\r\n\r\nimport \"./Token.sol\";\r\n\r\nstruct NumStack {\r\n    int64[] nums;\r\n    uint256 head;\r\n}\r\n\r\nfunction NumStackInit(NumStack memory stack, uint256 len) pure\r\n{\r\n    stack.nums = new int64[](len);\r\n    stack.head = 0;\r\n}\r\n\r\nfunction NumStackPush(NumStack memory stack, int64 num) pure\r\n{\r\n    //TODO: test size?\r\n    stack.nums[stack.head] = num;\r\n    stack.head++;\r\n}\r\n\r\nfunction NumStackPop(NumStack memory stack) pure returns (int64)\r\n{\r\n    //TODO: test if len is zero\r\n    stack.head--;\r\n    return stack.nums[stack.head];\r\n}\r\n\r\nfunction NumStackHead(NumStack memory stack) pure returns (int64)\r\n{\r\n    //TODO: test if len is zero\r\n    return stack.nums[stack.head - 1];\r\n}\r\n\r\nfunction NumStackTail(NumStack memory stack) pure returns (int64)\r\n{\r\n    //TODO: test if len is zero\r\n    return stack.nums[0];\r\n}\r\n\r\nfunction NumStackLen(NumStack memory stack) pure returns (uint256)\r\n{\r\n    return stack.head;\r\n}\r\n\r\nstruct OpStack {\r\n    Token.Operation[] ops;\r\n    uint256 head;\r\n}\r\n\r\nfunction OpStackInit(OpStack memory stack, uint256 len) pure\r\n{\r\n    stack.ops = new Token.Operation[](len);\r\n    stack.head = 0;\r\n}\r\n\r\nfunction OpStackPush(OpStack memory stack, Token.Operation op) pure\r\n{\r\n    //TODO: test size?\r\n    stack.ops[stack.head] = op;\r\n    stack.head++;\r\n}\r\n\r\nfunction OpStackPop(OpStack memory stack) pure returns (Token.Operation)\r\n{\r\n    //TODO: test if len is zero\r\n    stack.head--;\r\n    return stack.ops[stack.head];\r\n}\r\n\r\nfunction OpStackHead(OpStack memory stack) pure returns (Token.Operation)\r\n{\r\n    //TODO: test if len is zero\r\n    return stack.ops[stack.head - 1];\r\n}\r\n\r\nfunction OpStackTail(OpStack memory stack) pure returns (Token.Operation)\r\n{\r\n    //TODO: test if len is zero\r\n    return stack.ops[0];\r\n}\r\n\r\nfunction OpStackLen(OpStack memory stack) pure returns (uint256)\r\n{\r\n    return stack.head;\r\n}\r\n\r\ncontract Expression {\r\n    Token private _token;\r\n\r\n    constructor(Token token) {\r\n        _token = token;\r\n    }\r\n\r\n    function _runTopOp(NumStack memory numStack, OpStack memory opStack) internal view\r\n    {\r\n        Token.Operation op = OpStackPop(opStack);\r\n\r\n        int64 v2 = NumStackPop(numStack);\r\n        int64 v1 = NumStackPop(numStack);\r\n\r\n        int64 v = _token.runOperation(op, v1, v2);\r\n        NumStackPush(numStack, v);\r\n    }\r\n\r\n    function calculate(uint256[] memory tokens) public view returns (int64)\r\n    {\r\n        NumStack memory numStack;\r\n        OpStack memory opStack;\r\n\r\n        //TODO: Better sizes?\r\n        NumStackInit(numStack, tokens.length);\r\n        OpStackInit(opStack, tokens.length);\r\n\r\n        for (uint i=0; i < tokens.length; i++) {\r\n            uint256 tokenId = tokens[i];\r\n\r\n            if (_token.getType(tokenId) == Token.Type.Number) {\r\n                // Add to the operand stack\r\n                NumStackPush(numStack, _token.getNumber(tokenId));\r\n            } else {\r\n                Token.Operation op = _token.getOperation(tokenId);\r\n\r\n                if (OpStackLen(opStack) >  0) {\r\n                    Token.Operation topOp = OpStackHead(opStack);\r\n\r\n                    if (op <= topOp) {\r\n                        _runTopOp(numStack, opStack);\r\n                    }\r\n                }\r\n\r\n                OpStackPush(opStack, op);\r\n            }\r\n        }\r\n\r\n        // Iterate through the operations in the stack and process them\r\n        while (OpStackLen(opStack) > 0) {\r\n            _runTopOp(numStack, opStack);\r\n        }\r\n\r\n        // Return the first number in the stack, which should be the result.\r\n        return NumStackTail(numStack);\r\n    }\r\n\r\n    //todo add test\r\n    function mint(string memory uri, uint256[] memory tokens) public returns(uint256) {\r\n        address account = msg.sender;\r\n\r\n        // Make sure all tokens belong to the account\r\n        for (uint i=0; i < tokens.length; i++) {\r\n            require(_token.ownerOf(tokens[i]) == account,\r\n                    \"All tokens in expression have to belong to the caller address.\");\r\n        }\r\n\r\n        int64 num = calculate(tokens);\r\n        return _token.mintNumber(account, uri, num);\r\n    }\r\n\r\n}",
  "sourcePath": "D:/Blockchain/Ethereum/Projects/arithmetoken/src/contracts/Expression.sol",
  "compiler": {
    "name": "solc",
    "version": "0.8.1+commit.df193b15.Emscripten.clang"
  },
  "schemaVersion": "3.4.1",
  "updatedAt": "2021-07-02T06:54:51.239Z",
  "networkType": "ethereum",
  "devdoc": {
    "kind": "dev",
    "methods": {},
    "version": 1
  },
  "userdoc": {
    "kind": "user",
    "methods": {},
    "version": 1
  }
}