{
  "contractName": "MathContract",
  "abi": [
    {
      "inputs": [
        {
          "internalType": "contract Token",
          "name": "_token",
          "type": "address"
        }
      ],
      "stateMutability": "nonpayable",
      "type": "constructor"
    },
    {
      "inputs": [
        {
          "internalType": "uint256[]",
          "name": "tokens",
          "type": "uint256[]"
        }
      ],
      "name": "calculate",
      "outputs": [
        {
          "internalType": "int64",
          "name": "",
          "type": "int64"
        }
      ],
      "stateMutability": "view",
      "type": "function",
      "constant": true
    }
  ],
  "bytecode": "0x608060405234801561001057600080fd5b50604051610f4f380380610f4f8339818101604052810190610032919061008d565b806000806101000a81548173ffffffffffffffffffffffffffffffffffffffff021916908373ffffffffffffffffffffffffffffffffffffffff16021790555050610111565b600081519050610087816100fa565b92915050565b60006020828403121561009f57600080fd5b60006100ad84828501610078565b91505092915050565b60006100c1826100da565b9050919050565b60006100d3826100b6565b9050919050565b600073ffffffffffffffffffffffffffffffffffffffff82169050919050565b610103816100c8565b811461010e57600080fd5b50565b610e2f806101206000396000f3fe608060405234801561001057600080fd5b506004361061002b5760003560e01c8063ba19bdb214610030575b600080fd5b61004a60048036038101906100459190610a3e565b610060565b6040516100579190610b5e565b60405180910390f35b600061006a610920565b61007261093a565b61007d828551610454565b6100888185516104da565b60005b84518110156104205760008582815181106100cf577f4e487b7100000000000000000000000000000000000000000000000000000000600052603260045260246000fd5b60200260200101519050600180811115610112577f4e487b7100000000000000000000000000000000000000000000000000000000600052602160045260246000fd5b60008054906101000a900473ffffffffffffffffffffffffffffffffffffffff1673ffffffffffffffffffffffffffffffffffffffff16634036ab78836040518263ffffffff1660e01b815260040161016b9190610b79565b60206040518083038186803b15801561018357600080fd5b505afa158015610197573d6000803e3d6000fd5b505050506040513d601f19601f820116820180604052508101906101bb9190610aa8565b60018111156101f3577f4e487b7100000000000000000000000000000000000000000000000000000000600052602160045260246000fd5b14156102b0576102ab8460008054906101000a900473ffffffffffffffffffffffffffffffffffffffff1673ffffffffffffffffffffffffffffffffffffffff1663fc563658846040518263ffffffff1660e01b81526004016102569190610b79565b60206040518083038186803b15801561026e57600080fd5b505afa158015610282573d6000803e3d6000fd5b505050506040513d601f19601f820116820180604052508101906102a69190610ad1565b610560565b61040c565b60008060009054906101000a900473ffffffffffffffffffffffffffffffffffffffff1673ffffffffffffffffffffffffffffffffffffffff1663202e3924836040518263ffffffff1660e01b815260040161030c9190610b79565b60206040518083038186803b15801561032457600080fd5b505afa158015610338573d6000803e3d6000fd5b505050506040513d601f19601f8201168201806040525081019061035c9190610a7f565b90506000610369856105d0565b111561040057600061037a856105de565b90508060038111156103b5577f4e487b7100000000000000000000000000000000000000000000000000000000600052602160045260246000fd5b8260038111156103ee577f4e487b7100000000000000000000000000000000000000000000000000000000600052602160045260246000fd5b116103fe576103fd868661063c565b5b505b61040a8482610727565b505b50808061041890610cb0565b91505061008b565b505b600061042d826105d0565b11156104425761043d828261063c565b610422565b61044b82610801565b92505050919050565b8067ffffffffffffffff811115610494577f4e487b7100000000000000000000000000000000000000000000000000000000600052604160045260246000fd5b6040519080825280602002602001820160405280156104c25781602001602082028036833780820191505090505b50826000018190525060008260200181815250505050565b8067ffffffffffffffff81111561051a577f4e487b7100000000000000000000000000000000000000000000000000000000600052604160045260246000fd5b6040519080825280602002602001820160405280156105485781602001602082028036833780820191505090505b50826000018190525060008260200181815250505050565b8082600001518360200151815181106105a2577f4e487b7100000000000000000000000000000000000000000000000000000000600052603260045260246000fd5b602002602001019060070b908160070b815250508160200180518091906105c890610cb0565b815250505050565b600081602001519050919050565b60008160000151600183602001516105f69190610be5565b8151811061062d577f4e487b7100000000000000000000000000000000000000000000000000000000600052603260045260246000fd5b60200260200101519050919050565b600061064782610850565b90506000610654846108b8565b90506000610661856108b8565b905060008060009054906101000a900473ffffffffffffffffffffffffffffffffffffffff1673ffffffffffffffffffffffffffffffffffffffff1663dc3804178584866040518463ffffffff1660e01b81526004016106c393929190610b27565b60206040518083038186803b1580156106db57600080fd5b505afa1580156106ef573d6000803e3d6000fd5b505050506040513d601f19601f820116820180604052508101906107139190610ad1565b905061071f8682610560565b505050505050565b808260000151836020015181518110610769577f4e487b7100000000000000000000000000000000000000000000000000000000600052603260045260246000fd5b602002602001019060038111156107a9577f4e487b7100000000000000000000000000000000000000000000000000000000600052602160045260246000fd5b908160038111156107e3577f4e487b7100000000000000000000000000000000000000000000000000000000600052602160045260246000fd5b815250508160200180518091906107f990610cb0565b815250505050565b60008160000151600081518110610841577f4e487b7100000000000000000000000000000000000000000000000000000000600052603260045260246000fd5b60200260200101519050919050565b600081602001805180919061086490610c55565b8152505081600001518260200151815181106108a9577f4e487b7100000000000000000000000000000000000000000000000000000000600052603260045260246000fd5b60200260200101519050919050565b60008160200180518091906108cc90610c55565b815250508160000151826020015181518110610911577f4e487b7100000000000000000000000000000000000000000000000000000000600052603260045260246000fd5b60200260200101519050919050565b604051806040016040528060608152602001600081525090565b604051806040016040528060608152602001600081525090565b600061096761096284610bb9565b610b94565b9050808382526020820190508285602086028201111561098657600080fd5b60005b858110156109b6578161099c8882610a29565b845260208401935060208301925050600181019050610989565b5050509392505050565b600082601f8301126109d157600080fd5b81356109e1848260208601610954565b91505092915050565b6000815190506109f981610dab565b92915050565b600081519050610a0e81610dbb565b92915050565b600081519050610a2381610dcb565b92915050565b600081359050610a3881610de2565b92915050565b600060208284031215610a5057600080fd5b600082013567ffffffffffffffff811115610a6a57600080fd5b610a76848285016109c0565b91505092915050565b600060208284031215610a9157600080fd5b6000610a9f848285016109ea565b91505092915050565b600060208284031215610aba57600080fd5b6000610ac8848285016109ff565b91505092915050565b600060208284031215610ae357600080fd5b6000610af184828501610a14565b91505092915050565b610b0381610c43565b82525050565b610b1281610c2c565b82525050565b610b2181610c39565b82525050565b6000606082019050610b3c6000830186610afa565b610b496020830185610b09565b610b566040830184610b09565b949350505050565b6000602082019050610b736000830184610b09565b92915050565b6000602082019050610b8e6000830184610b18565b92915050565b6000610b9e610baf565b9050610baa8282610c7f565b919050565b6000604051905090565b600067ffffffffffffffff821115610bd457610bd3610d57565b5b602082029050602081019050919050565b6000610bf082610c39565b9150610bfb83610c39565b925082821015610c0e57610c0d610cf9565b5b828203905092915050565b6000819050610c2782610d97565b919050565b60008160070b9050919050565b6000819050919050565b6000610c4e82610c19565b9050919050565b6000610c6082610c39565b91506000821415610c7457610c73610cf9565b5b600182039050919050565b610c8882610d86565b810181811067ffffffffffffffff82111715610ca757610ca6610d57565b5b80604052505050565b6000610cbb82610c39565b91507fffffffffffffffffffffffffffffffffffffffffffffffffffffffffffffffff821415610cee57610ced610cf9565b5b600182019050919050565b7f4e487b7100000000000000000000000000000000000000000000000000000000600052601160045260246000fd5b7f4e487b7100000000000000000000000000000000000000000000000000000000600052602160045260246000fd5b7f4e487b7100000000000000000000000000000000000000000000000000000000600052604160045260246000fd5b6000601f19601f8301169050919050565b60048110610da857610da7610d28565b5b50565b60048110610db857600080fd5b50565b60028110610dc857600080fd5b50565b610dd481610c2c565b8114610ddf57600080fd5b50565b610deb81610c39565b8114610df657600080fd5b5056fea26469706673582212207812d86ed6a924393cc84321b0258e4415c11ca35fc7271b6ec2c9708d09028c64736f6c63430008010033",
  "immutableReferences": {},
  "source": "// SPDX-License-Identifier: MIT\r\npragma solidity ^0.8.0;\r\n\r\nimport \"./Token.sol\";\r\n\r\nstruct NumStack {\r\n    int64[] nums;\r\n    uint256 head;\r\n}\r\n\r\nfunction NumStackInit(NumStack memory stack, uint256 len) pure\r\n{\r\n    stack.nums = new int64[](len);\r\n    stack.head = 0;\r\n}\r\n\r\nfunction NumStackPush(NumStack memory stack, int64 num) pure\r\n{\r\n    //TODO: test size?\r\n    stack.nums[stack.head] = num;\r\n    stack.head++;\r\n}\r\n\r\nfunction NumStackPop(NumStack memory stack) pure returns (int64)\r\n{\r\n    //TODO: test if len is zero\r\n    stack.head--;\r\n    return stack.nums[stack.head];\r\n}\r\n\r\nfunction NumStackHead(NumStack memory stack) pure returns (int64)\r\n{\r\n    //TODO: test if len is zero\r\n    return stack.nums[stack.head - 1];\r\n}\r\n\r\nfunction NumStackTail(NumStack memory stack) pure returns (int64)\r\n{\r\n    //TODO: test if len is zero\r\n    return stack.nums[0];\r\n}\r\n\r\nfunction NumStackLen(NumStack memory stack) pure returns (uint256)\r\n{\r\n    return stack.head;\r\n}\r\n\r\nstruct OpStack {\r\n    Token.Operation[] ops;\r\n    uint256 head;\r\n}\r\n\r\nfunction OpStackInit(OpStack memory stack, uint256 len) pure\r\n{\r\n    stack.ops = new Token.Operation[](len);\r\n    stack.head = 0;\r\n}\r\n\r\nfunction OpStackPush(OpStack memory stack, Token.Operation op) pure\r\n{\r\n    //TODO: test size?\r\n    stack.ops[stack.head] = op;\r\n    stack.head++;\r\n}\r\n\r\nfunction OpStackPop(OpStack memory stack) pure returns (Token.Operation)\r\n{\r\n    //TODO: test if len is zero\r\n    stack.head--;\r\n    return stack.ops[stack.head];\r\n}\r\n\r\nfunction OpStackHead(OpStack memory stack) pure returns (Token.Operation)\r\n{\r\n    //TODO: test if len is zero\r\n    return stack.ops[stack.head - 1];\r\n}\r\n\r\nfunction OpStackTail(OpStack memory stack) pure returns (Token.Operation)\r\n{\r\n    //TODO: test if len is zero\r\n    return stack.ops[0];\r\n}\r\n\r\nfunction OpStackLen(OpStack memory stack) pure returns (uint256)\r\n{\r\n    return stack.head;\r\n}\r\n\r\ncontract MathContract {\r\n    Token private token;\r\n\r\n    constructor(Token _token) {\r\n        token = _token;\r\n    }\r\n\r\n    // TODO: mint with the result of calculate\r\n\r\n    function calculate(uint256[] memory tokens) public view returns (int64)\r\n    {\r\n        NumStack memory numStack;\r\n        OpStack memory opStack;\r\n\r\n        //TODO: Better sizes?\r\n        NumStackInit(numStack, tokens.length);\r\n        OpStackInit(opStack, tokens.length);\r\n\r\n        for (uint i=0; i < tokens.length; i++) {\r\n            uint256 tokenId = tokens[i];\r\n\r\n            if (token.getType(tokenId) == Token.Type.Number) {\r\n                // Add to the operand stack\r\n                NumStackPush(numStack, token.getNumber(tokenId));\r\n            } else {\r\n                Token.Operation op = token.getOperation(tokenId);\r\n\r\n                if (OpStackLen(opStack) >  0) {\r\n                    Token.Operation topOp = OpStackHead(opStack);\r\n\r\n                    if (op <= topOp) {\r\n                        _runTopOp(numStack, opStack);\r\n                    }\r\n                }\r\n\r\n                OpStackPush(opStack, op);\r\n            }\r\n        }\r\n\r\n        // Iterate through the operations in the stack and process them\r\n        while (OpStackLen(opStack) > 0) {\r\n            _runTopOp(numStack, opStack);\r\n        }\r\n\r\n        // Return the first number in the stack, which should be the result.\r\n        return NumStackTail(numStack);\r\n    }\r\n\r\n    function _runTopOp(NumStack memory numStack, OpStack memory opStack) internal view\r\n    {\r\n        Token.Operation op = OpStackPop(opStack);\r\n\r\n        int64 v2 = NumStackPop(numStack);\r\n        int64 v1 = NumStackPop(numStack);\r\n\r\n        int64 v = token.runOperation(op, v1, v2);\r\n        NumStackPush(numStack, v);\r\n    }\r\n}",
  "sourcePath": "D:/Blockchain/Ethereum/Projects/arithmetoken/src/contracts/MathContract.sol",
  "compiler": {
    "name": "solc",
    "version": "0.8.1+commit.df193b15.Emscripten.clang"
  },
  "schemaVersion": "3.4.1",
  "updatedAt": "2021-06-08T05:43:34.643Z",
  "networkType": "ethereum",
  "devdoc": {
    "kind": "dev",
    "methods": {},
    "version": 1
  },
  "userdoc": {
    "kind": "user",
    "methods": {},
    "version": 1
  }
}