{
  "contractName": "Token",
  "abi": [
    {
      "inputs": [],
      "stateMutability": "nonpayable",
      "type": "constructor"
    },
    {
      "anonymous": false,
      "inputs": [
        {
          "indexed": true,
          "internalType": "address",
          "name": "owner",
          "type": "address"
        },
        {
          "indexed": true,
          "internalType": "address",
          "name": "approved",
          "type": "address"
        },
        {
          "indexed": true,
          "internalType": "uint256",
          "name": "tokenId",
          "type": "uint256"
        }
      ],
      "name": "Approval",
      "type": "event"
    },
    {
      "anonymous": false,
      "inputs": [
        {
          "indexed": true,
          "internalType": "address",
          "name": "owner",
          "type": "address"
        },
        {
          "indexed": true,
          "internalType": "address",
          "name": "operator",
          "type": "address"
        },
        {
          "indexed": false,
          "internalType": "bool",
          "name": "approved",
          "type": "bool"
        }
      ],
      "name": "ApprovalForAll",
      "type": "event"
    },
    {
      "anonymous": false,
      "inputs": [
        {
          "indexed": true,
          "internalType": "address",
          "name": "addr",
          "type": "address"
        },
        {
          "indexed": true,
          "internalType": "uint256",
          "name": "tokenId",
          "type": "uint256"
        }
      ],
      "name": "Minted",
      "type": "event"
    },
    {
      "anonymous": false,
      "inputs": [
        {
          "indexed": true,
          "internalType": "address",
          "name": "from",
          "type": "address"
        },
        {
          "indexed": true,
          "internalType": "address",
          "name": "to",
          "type": "address"
        },
        {
          "indexed": true,
          "internalType": "uint256",
          "name": "tokenId",
          "type": "uint256"
        }
      ],
      "name": "Transfer",
      "type": "event"
    },
    {
      "inputs": [
        {
          "internalType": "address",
          "name": "to",
          "type": "address"
        },
        {
          "internalType": "uint256",
          "name": "tokenId",
          "type": "uint256"
        }
      ],
      "name": "approve",
      "outputs": [],
      "stateMutability": "nonpayable",
      "type": "function"
    },
    {
      "inputs": [
        {
          "internalType": "address",
          "name": "owner",
          "type": "address"
        }
      ],
      "name": "balanceOf",
      "outputs": [
        {
          "internalType": "uint256",
          "name": "",
          "type": "uint256"
        }
      ],
      "stateMutability": "view",
      "type": "function",
      "constant": true
    },
    {
      "inputs": [
        {
          "internalType": "uint256",
          "name": "tokenId",
          "type": "uint256"
        }
      ],
      "name": "getApproved",
      "outputs": [
        {
          "internalType": "address",
          "name": "",
          "type": "address"
        }
      ],
      "stateMutability": "view",
      "type": "function",
      "constant": true
    },
    {
      "inputs": [
        {
          "internalType": "address",
          "name": "owner",
          "type": "address"
        },
        {
          "internalType": "address",
          "name": "operator",
          "type": "address"
        }
      ],
      "name": "isApprovedForAll",
      "outputs": [
        {
          "internalType": "bool",
          "name": "",
          "type": "bool"
        }
      ],
      "stateMutability": "view",
      "type": "function",
      "constant": true
    },
    {
      "inputs": [],
      "name": "name",
      "outputs": [
        {
          "internalType": "string",
          "name": "",
          "type": "string"
        }
      ],
      "stateMutability": "view",
      "type": "function",
      "constant": true
    },
    {
      "inputs": [
        {
          "internalType": "uint256",
          "name": "tokenId",
          "type": "uint256"
        }
      ],
      "name": "ownerOf",
      "outputs": [
        {
          "internalType": "address",
          "name": "",
          "type": "address"
        }
      ],
      "stateMutability": "view",
      "type": "function",
      "constant": true
    },
    {
      "inputs": [
        {
          "internalType": "address",
          "name": "from",
          "type": "address"
        },
        {
          "internalType": "address",
          "name": "to",
          "type": "address"
        },
        {
          "internalType": "uint256",
          "name": "tokenId",
          "type": "uint256"
        }
      ],
      "name": "safeTransferFrom",
      "outputs": [],
      "stateMutability": "nonpayable",
      "type": "function"
    },
    {
      "inputs": [
        {
          "internalType": "address",
          "name": "from",
          "type": "address"
        },
        {
          "internalType": "address",
          "name": "to",
          "type": "address"
        },
        {
          "internalType": "uint256",
          "name": "tokenId",
          "type": "uint256"
        },
        {
          "internalType": "bytes",
          "name": "_data",
          "type": "bytes"
        }
      ],
      "name": "safeTransferFrom",
      "outputs": [],
      "stateMutability": "nonpayable",
      "type": "function"
    },
    {
      "inputs": [
        {
          "internalType": "address",
          "name": "operator",
          "type": "address"
        },
        {
          "internalType": "bool",
          "name": "approved",
          "type": "bool"
        }
      ],
      "name": "setApprovalForAll",
      "outputs": [],
      "stateMutability": "nonpayable",
      "type": "function"
    },
    {
      "inputs": [
        {
          "internalType": "bytes4",
          "name": "interfaceId",
          "type": "bytes4"
        }
      ],
      "name": "supportsInterface",
      "outputs": [
        {
          "internalType": "bool",
          "name": "",
          "type": "bool"
        }
      ],
      "stateMutability": "view",
      "type": "function",
      "constant": true
    },
    {
      "inputs": [],
      "name": "symbol",
      "outputs": [
        {
          "internalType": "string",
          "name": "",
          "type": "string"
        }
      ],
      "stateMutability": "view",
      "type": "function",
      "constant": true
    },
    {
      "inputs": [
        {
          "internalType": "uint256",
          "name": "tokenId",
          "type": "uint256"
        }
      ],
      "name": "tokenURI",
      "outputs": [
        {
          "internalType": "string",
          "name": "",
          "type": "string"
        }
      ],
      "stateMutability": "view",
      "type": "function",
      "constant": true
    },
    {
      "inputs": [
        {
          "internalType": "address",
          "name": "from",
          "type": "address"
        },
        {
          "internalType": "address",
          "name": "to",
          "type": "address"
        },
        {
          "internalType": "uint256",
          "name": "tokenId",
          "type": "uint256"
        }
      ],
      "name": "transferFrom",
      "outputs": [],
      "stateMutability": "nonpayable",
      "type": "function"
    },
    {
      "inputs": [
        {
          "internalType": "uint256",
          "name": "tokenId",
          "type": "uint256"
        }
      ],
      "name": "getTokenInfo",
      "outputs": [
        {
          "components": [
            {
              "internalType": "uint256",
              "name": "id",
              "type": "uint256"
            },
            {
              "internalType": "enum Token.Operation",
              "name": "operation",
              "type": "uint8"
            },
            {
              "internalType": "int64",
              "name": "number",
              "type": "int64"
            },
            {
              "internalType": "string",
              "name": "uri",
              "type": "string"
            }
          ],
          "internalType": "struct Token.TokenInfo",
          "name": "",
          "type": "tuple"
        }
      ],
      "stateMutability": "view",
      "type": "function",
      "constant": true
    },
    {
      "inputs": [
        {
          "internalType": "address",
          "name": "addr",
          "type": "address"
        }
      ],
      "name": "getTokenInfos",
      "outputs": [
        {
          "components": [
            {
              "internalType": "uint256",
              "name": "id",
              "type": "uint256"
            },
            {
              "internalType": "enum Token.Operation",
              "name": "operation",
              "type": "uint8"
            },
            {
              "internalType": "int64",
              "name": "number",
              "type": "int64"
            },
            {
              "internalType": "string",
              "name": "uri",
              "type": "string"
            }
          ],
          "internalType": "struct Token.TokenInfo[]",
          "name": "",
          "type": "tuple[]"
        }
      ],
      "stateMutability": "view",
      "type": "function",
      "constant": true
    },
    {
      "inputs": [
        {
          "internalType": "uint256",
          "name": "tokenId",
          "type": "uint256"
        }
      ],
      "name": "getType",
      "outputs": [
        {
          "internalType": "enum Token.Type",
          "name": "",
          "type": "uint8"
        }
      ],
      "stateMutability": "view",
      "type": "function",
      "constant": true
    },
    {
      "inputs": [
        {
          "internalType": "uint256",
          "name": "tokenId",
          "type": "uint256"
        }
      ],
      "name": "getNumber",
      "outputs": [
        {
          "internalType": "int64",
          "name": "",
          "type": "int64"
        }
      ],
      "stateMutability": "view",
      "type": "function",
      "constant": true
    },
    {
      "inputs": [
        {
          "internalType": "uint256",
          "name": "tokenId",
          "type": "uint256"
        }
      ],
      "name": "getOperation",
      "outputs": [
        {
          "internalType": "enum Token.Operation",
          "name": "",
          "type": "uint8"
        }
      ],
      "stateMutability": "view",
      "type": "function",
      "constant": true
    },
    {
      "inputs": [
        {
          "internalType": "uint256",
          "name": "tokenId",
          "type": "uint256"
        }
      ],
      "name": "getOperationText",
      "outputs": [
        {
          "internalType": "string",
          "name": "",
          "type": "string"
        }
      ],
      "stateMutability": "view",
      "type": "function",
      "constant": true
    },
    {
      "inputs": [
        {
          "internalType": "uint256",
          "name": "tokenId",
          "type": "uint256"
        },
        {
          "internalType": "int64",
          "name": "v1",
          "type": "int64"
        },
        {
          "internalType": "int64",
          "name": "v2",
          "type": "int64"
        }
      ],
      "name": "runOperation",
      "outputs": [
        {
          "internalType": "int64",
          "name": "",
          "type": "int64"
        }
      ],
      "stateMutability": "view",
      "type": "function",
      "constant": true
    },
    {
      "inputs": [
        {
          "internalType": "enum Token.Operation",
          "name": "op",
          "type": "uint8"
        },
        {
          "internalType": "int64",
          "name": "v1",
          "type": "int64"
        },
        {
          "internalType": "int64",
          "name": "v2",
          "type": "int64"
        }
      ],
      "name": "runOperation",
      "outputs": [
        {
          "internalType": "int64",
          "name": "",
          "type": "int64"
        }
      ],
      "stateMutability": "pure",
      "type": "function",
      "constant": true
    },
    {
      "inputs": [
        {
          "internalType": "address",
          "name": "acct",
          "type": "address"
        },
        {
          "internalType": "string",
          "name": "uri",
          "type": "string"
        },
        {
          "internalType": "int64",
          "name": "number",
          "type": "int64"
        }
      ],
      "name": "mintNumber",
      "outputs": [
        {
          "internalType": "uint256",
          "name": "",
          "type": "uint256"
        }
      ],
      "stateMutability": "nonpayable",
      "type": "function"
    },
    {
      "inputs": [
        {
          "internalType": "address",
          "name": "acct",
          "type": "address"
        },
        {
          "internalType": "string",
          "name": "uri",
          "type": "string"
        },
        {
          "internalType": "enum Token.Operation",
          "name": "operation",
          "type": "uint8"
        }
      ],
      "name": "mintOperation",
      "outputs": [
        {
          "internalType": "uint256",
          "name": "",
          "type": "uint256"
        }
      ],
      "stateMutability": "nonpayable",
      "type": "function"
    }
  ],
  "bytecode": "0x60806040523480156200001157600080fd5b506040518060400160405280600c81526020017f41726974686d65546f6b656e00000000000000000000000000000000000000008152506040518060400160405280600381526020017f4152490000000000000000000000000000000000000000000000000000000000815250816000908051906020019062000096929190620000b8565b508060019080519060200190620000af929190620000b8565b505050620001cd565b828054620000c69062000168565b90600052602060002090601f016020900481019282620000ea576000855562000136565b82601f106200010557805160ff191683800117855562000136565b8280016001018555821562000136579182015b828111156200013557825182559160200191906001019062000118565b5b50905062000145919062000149565b5090565b5b80821115620001645760008160009055506001016200014a565b5090565b600060028204905060018216806200018157607f821691505b602082108114156200019857620001976200019e565b5b50919050565b7f4e487b7100000000000000000000000000000000000000000000000000000000600052602260045260246000fd5b61464980620001dd6000396000f3fe608060405234801561001057600080fd5b506004361061014d5760003560e01c80638940fd9d116100c3578063bd2ff8c51161007c578063bd2ff8c5146103fa578063c87b56dd1461042a578063cdae31301461045a578063dc3804171461048a578063e985e9c5146104ba578063fc563658146104ea5761014d565b80638940fd9d146103145780638c7a63ae1461034457806395d89b4114610374578063a22cb46514610392578063a8802def146103ae578063b88d4fde146103de5761014d565b806323b872dd1161011557806323b872dd1461021c5780634036ab781461023857806342842e0e146102685780636352211e1461028457806370a08231146102b457806382960f98146102e45761014d565b806301ffc9a71461015257806306fdde0314610182578063081812fc146101a0578063095ea7b3146101d0578063202e3924146101ec575b600080fd5b61016c60048036038101906101679190612be9565b61051a565b60405161017991906133a9565b60405180910390f35b61018a6105fc565b6040516101979190613415565b60405180910390f35b6101ba60048036038101906101b59190612c8a565b61068e565b6040516101c79190613320565b60405180910390f35b6101ea60048036038101906101e59190612bad565b610713565b005b61020660048036038101906102019190612c8a565b61082b565b60405161021391906133c4565b60405180910390f35b610236600480360381019061023191906129d9565b61089d565b005b610252600480360381019061024d9190612c8a565b6108fd565b60405161025f91906133df565b60405180910390f35b610282600480360381019061027d91906129d9565b6109da565b005b61029e60048036038101906102999190612c8a565b6109fa565b6040516102ab9190613320565b60405180910390f35b6102ce60048036038101906102c99190612974565b610aac565b6040516102db9190613759565b60405180910390f35b6102fe60048036038101906102f99190612adf565b610b64565b60405161030b9190613759565b60405180910390f35b61032e60048036038101906103299190612b46565b610bdf565b60405161033b9190613759565b60405180910390f35b61035e60048036038101906103599190612c8a565b610c36565b60405161036b9190613737565b60405180910390f35b61037c610d50565b6040516103899190613415565b60405180910390f35b6103ac60048036038101906103a79190612aa3565b610de2565b005b6103c860048036038101906103c39190612c8a565b610f63565b6040516103d59190613415565b60405180910390f35b6103f860048036038101906103f39190612a28565b611369565b005b610414600480360381019061040f9190612cb3565b6113cb565b60405161042191906133fa565b60405180910390f35b610444600480360381019061043f9190612c8a565b6114ec565b6040516104519190613415565b60405180910390f35b610474600480360381019061046f9190612974565b61163e565b6040516104819190613387565b60405180910390f35b6104a4600480360381019061049f9190612c3b565b61179f565b6040516104b191906133fa565b60405180910390f35b6104d460048036038101906104cf919061299d565b6119dc565b6040516104e191906133a9565b60405180910390f35b61050460048036038101906104ff9190612c8a565b611a70565b60405161051191906133fa565b60405180910390f35b60007f80ac58cd000000000000000000000000000000000000000000000000000000007bffffffffffffffffffffffffffffffffffffffffffffffffffffffff1916827bffffffffffffffffffffffffffffffffffffffffffffffffffffffff191614806105e557507f5b5e139f000000000000000000000000000000000000000000000000000000007bffffffffffffffffffffffffffffffffffffffffffffffffffffffff1916827bffffffffffffffffffffffffffffffffffffffffffffffffffffffff1916145b806105f557506105f482611ae2565b5b9050919050565b60606000805461060b90613c99565b80601f016020809104026020016040519081016040528092919081815260200182805461063790613c99565b80156106845780601f1061065957610100808354040283529160200191610684565b820191906000526020600020905b81548152906001019060200180831161066757829003601f168201915b5050505050905090565b600061069982611b4c565b6106d8576040517f08c379a00000000000000000000000000000000000000000000000000000000081526004016106cf90613617565b60405180910390fd5b6004600083815260200190815260200160002060009054906101000a900473ffffffffffffffffffffffffffffffffffffffff169050919050565b600061071e826109fa565b90508073ffffffffffffffffffffffffffffffffffffffff168373ffffffffffffffffffffffffffffffffffffffff16141561078f576040517f08c379a0000000000000000000000000000000000000000000000000000000008152600401610786906136d7565b60405180910390fd5b8073ffffffffffffffffffffffffffffffffffffffff166107ae611bb8565b73ffffffffffffffffffffffffffffffffffffffff1614806107dd57506107dc816107d7611bb8565b6119dc565b5b61081c576040517f08c379a000000000000000000000000000000000000000000000000000000000815260040161081390613557565b60405180910390fd5b6108268383611bc0565b505050565b600061083682611b4c565b610875576040517f08c379a000000000000000000000000000000000000000000000000000000000815260040161086c90613537565b60405180910390fd5b6008600083815260200190815260200160002060009054906101000a900460ff169050919050565b6108ae6108a8611bb8565b82611c79565b6108ed576040517f08c379a00000000000000000000000000000000000000000000000000000000081526004016108e4906136f7565b60405180910390fd5b6108f8838383611d57565b505050565b600061090882611b4c565b610947576040517f08c379a000000000000000000000000000000000000000000000000000000000815260040161093e90613437565b60405180910390fd5b60006004811115610981577f4e487b7100000000000000000000000000000000000000000000000000000000600052602160045260246000fd5b61098a8361082b565b60048111156109c2577f4e487b7100000000000000000000000000000000000000000000000000000000600052602160045260246000fd5b146109d057600090506109d5565b600190505b919050565b6109f583838360405180602001604052806000815250611369565b505050565b6000806002600084815260200190815260200160002060009054906101000a900473ffffffffffffffffffffffffffffffffffffffff169050600073ffffffffffffffffffffffffffffffffffffffff168173ffffffffffffffffffffffffffffffffffffffff161415610aa3576040517f08c379a0000000000000000000000000000000000000000000000000000000008152600401610a9a90613597565b60405180910390fd5b80915050919050565b60008073ffffffffffffffffffffffffffffffffffffffff168273ffffffffffffffffffffffffffffffffffffffff161415610b1d576040517f08c379a0000000000000000000000000000000000000000000000000000000008152600401610b1490613577565b60405180910390fd5b600360008373ffffffffffffffffffffffffffffffffffffffff1673ffffffffffffffffffffffffffffffffffffffff168152602001908152602001600020549050919050565b600080610b718585611fb3565b9050826008600083815260200190815260200160002060006101000a81548160ff02191690836004811115610bcf577f4e487b7100000000000000000000000000000000000000000000000000000000600052602160045260246000fd5b0217905550809150509392505050565b600080610bec8585611fb3565b9050826009600083815260200190815260200160002060006101000a81548167ffffffffffffffff021916908360070b67ffffffffffffffff160217905550809150509392505050565b610c3e61270b565b610c4782611b4c565b610c86576040517f08c379a0000000000000000000000000000000000000000000000000000000008152600401610c7d90613697565b60405180910390fd5b610c8e61270b565b82816000018181525050610ca18361082b565b81602001906004811115610cde577f4e487b7100000000000000000000000000000000000000000000000000000000600052602160045260246000fd5b90816004811115610d18577f4e487b7100000000000000000000000000000000000000000000000000000000600052602160045260246000fd5b81525050610d2583611a70565b816040019060070b908160070b81525050610d3f836114ec565b816060018190525080915050919050565b606060018054610d5f90613c99565b80601f0160208091040260200160405190810160405280929190818152602001828054610d8b90613c99565b8015610dd85780601f10610dad57610100808354040283529160200191610dd8565b820191906000526020600020905b815481529060010190602001808311610dbb57829003601f168201915b5050505050905090565b610dea611bb8565b73ffffffffffffffffffffffffffffffffffffffff168273ffffffffffffffffffffffffffffffffffffffff161415610e58576040517f08c379a0000000000000000000000000000000000000000000000000000000008152600401610e4f906134f7565b60405180910390fd5b8060056000610e65611bb8565b73ffffffffffffffffffffffffffffffffffffffff1673ffffffffffffffffffffffffffffffffffffffff16815260200190815260200160002060008473ffffffffffffffffffffffffffffffffffffffff1673ffffffffffffffffffffffffffffffffffffffff16815260200190815260200160002060006101000a81548160ff0219169083151502179055508173ffffffffffffffffffffffffffffffffffffffff16610f12611bb8565b73ffffffffffffffffffffffffffffffffffffffff167f17307eab39ab6107e8899845ad3d59bd9653f200f220920489ca2b5937696c3183604051610f5791906133a9565b60405180910390a35050565b6060610f6e82611b4c565b610fad576040517f08c379a0000000000000000000000000000000000000000000000000000000008152600401610fa490613637565b60405180910390fd5b60006001811115610fe7577f4e487b7100000000000000000000000000000000000000000000000000000000600052602160045260246000fd5b610ff0836108fd565b6001811115611028577f4e487b7100000000000000000000000000000000000000000000000000000000600052602160045260246000fd5b14611068576040517f08c379a000000000000000000000000000000000000000000000000000000000815260040161105f90613717565b60405180910390fd5b60006110738361082b565b9050600160048111156110af577f4e487b7100000000000000000000000000000000000000000000000000000000600052602160045260246000fd5b8160048111156110e8577f4e487b7100000000000000000000000000000000000000000000000000000000600052602160045260246000fd5b141561112c576040518060400160405280600181526020017f2b00000000000000000000000000000000000000000000000000000000000000815250915050611364565b60026004811115611166577f4e487b7100000000000000000000000000000000000000000000000000000000600052602160045260246000fd5b81600481111561119f577f4e487b7100000000000000000000000000000000000000000000000000000000600052602160045260246000fd5b14156111e3576040518060400160405280600181526020017f2d00000000000000000000000000000000000000000000000000000000000000815250915050611364565b6003600481111561121d577f4e487b7100000000000000000000000000000000000000000000000000000000600052602160045260246000fd5b816004811115611256577f4e487b7100000000000000000000000000000000000000000000000000000000600052602160045260246000fd5b141561129a576040518060400160405280600181526020017f2a00000000000000000000000000000000000000000000000000000000000000815250915050611364565b6004808111156112d3577f4e487b7100000000000000000000000000000000000000000000000000000000600052602160045260246000fd5b81600481111561130c577f4e487b7100000000000000000000000000000000000000000000000000000000600052602160045260246000fd5b1415611350576040518060400160405280600181526020017f2f00000000000000000000000000000000000000000000000000000000000000815250915050611364565b604051806020016040528060008152509150505b919050565b61137a611374611bb8565b83611c79565b6113b9576040517f08c379a00000000000000000000000000000000000000000000000000000000081526004016113b0906136f7565b60405180910390fd5b6113c58484848461202f565b50505050565b60006113d684611b4c565b611415576040517f08c379a000000000000000000000000000000000000000000000000000000000815260040161140c906134b7565b60405180910390fd5b6000600181111561144f577f4e487b7100000000000000000000000000000000000000000000000000000000600052602160045260246000fd5b611458856108fd565b6001811115611490577f4e487b7100000000000000000000000000000000000000000000000000000000600052602160045260246000fd5b146114d0576040517f08c379a00000000000000000000000000000000000000000000000000000000081526004016114c790613497565b60405180910390fd5b6114e36114dc8561082b565b848461179f565b90509392505050565b60606114f782611b4c565b611536576040517f08c379a000000000000000000000000000000000000000000000000000000000815260040161152d906135f7565b60405180910390fd5b600060066000848152602001908152602001600020805461155690613c99565b80601f016020809104026020016040519081016040528092919081815260200182805461158290613c99565b80156115cf5780601f106115a4576101008083540402835291602001916115cf565b820191906000526020600020905b8154815290600101906020018083116115b257829003601f168201915b5050505050905060006115e061208b565b90506000815114156115f6578192505050611639565b60008251111561162b5780826040516020016116139291906132fc565b60405160208183030381529060405292505050611639565b611634846120a2565b925050505b919050565b6060600061164b83610aac565b905060008167ffffffffffffffff81111561168f577f4e487b7100000000000000000000000000000000000000000000000000000000600052604160045260246000fd5b6040519080825280602002602001820160405280156116c857816020015b6116b561270b565b8152602001906001900390816116ad5790505b5090506000805b83821015611793576116e081611b4c565b801561171f57508573ffffffffffffffffffffffffffffffffffffffff16611707826109fa565b73ffffffffffffffffffffffffffffffffffffffff16145b156117805761172d81610c36565b838381518110611766577f4e487b7100000000000000000000000000000000000000000000000000000000600052603260045260246000fd5b6020026020010181905250818061177c90613cfc565b9250505b808061178b90613cfc565b9150506116cf565b50819350505050919050565b6000600160048111156117db577f4e487b7100000000000000000000000000000000000000000000000000000000600052602160045260246000fd5b846004811115611814577f4e487b7100000000000000000000000000000000000000000000000000000000600052602160045260246000fd5b141561182d5781836118269190613888565b90506119d5565b60026004811115611867577f4e487b7100000000000000000000000000000000000000000000000000000000600052602160045260246000fd5b8460048111156118a0577f4e487b7100000000000000000000000000000000000000000000000000000000600052602160045260246000fd5b14156118b95781836118b29190613adc565b90506119d5565b600360048111156118f3577f4e487b7100000000000000000000000000000000000000000000000000000000600052602160045260246000fd5b84600481111561192c577f4e487b7100000000000000000000000000000000000000000000000000000000600052602160045260246000fd5b141561194557818361193e91906139f5565b90506119d5565b60048081111561197e577f4e487b7100000000000000000000000000000000000000000000000000000000600052602160045260246000fd5b8460048111156119b7577f4e487b7100000000000000000000000000000000000000000000000000000000600052602160045260246000fd5b14156119d05781836119c9919061395a565b90506119d5565b600090505b9392505050565b6000600560008473ffffffffffffffffffffffffffffffffffffffff1673ffffffffffffffffffffffffffffffffffffffff16815260200190815260200160002060008373ffffffffffffffffffffffffffffffffffffffff1673ffffffffffffffffffffffffffffffffffffffff16815260200190815260200160002060009054906101000a900460ff16905092915050565b6000611a7b82611b4c565b611aba576040517f08c379a0000000000000000000000000000000000000000000000000000000008152600401611ab1906136b7565b60405180910390fd5b6009600083815260200190815260200160002060009054906101000a900460070b9050919050565b60007f01ffc9a7000000000000000000000000000000000000000000000000000000007bffffffffffffffffffffffffffffffffffffffffffffffffffffffff1916827bffffffffffffffffffffffffffffffffffffffffffffffffffffffff1916149050919050565b60008073ffffffffffffffffffffffffffffffffffffffff166002600084815260200190815260200160002060009054906101000a900473ffffffffffffffffffffffffffffffffffffffff1673ffffffffffffffffffffffffffffffffffffffff1614159050919050565b600033905090565b816004600083815260200190815260200160002060006101000a81548173ffffffffffffffffffffffffffffffffffffffff021916908373ffffffffffffffffffffffffffffffffffffffff160217905550808273ffffffffffffffffffffffffffffffffffffffff16611c33836109fa565b73ffffffffffffffffffffffffffffffffffffffff167f8c5be1e5ebec7d5bd14f71427d1e84f3dd0314c0f7b2291e5b200ac8c7c3b92560405160405180910390a45050565b6000611c8482611b4c565b611cc3576040517f08c379a0000000000000000000000000000000000000000000000000000000008152600401611cba90613517565b60405180910390fd5b6000611cce836109fa565b90508073ffffffffffffffffffffffffffffffffffffffff168473ffffffffffffffffffffffffffffffffffffffff161480611d3d57508373ffffffffffffffffffffffffffffffffffffffff16611d258461068e565b73ffffffffffffffffffffffffffffffffffffffff16145b80611d4e5750611d4d81856119dc565b5b91505092915050565b8273ffffffffffffffffffffffffffffffffffffffff16611d77826109fa565b73ffffffffffffffffffffffffffffffffffffffff1614611dcd576040517f08c379a0000000000000000000000000000000000000000000000000000000008152600401611dc490613657565b60405180910390fd5b600073ffffffffffffffffffffffffffffffffffffffff168273ffffffffffffffffffffffffffffffffffffffff161415611e3d576040517f08c379a0000000000000000000000000000000000000000000000000000000008152600401611e34906134d7565b60405180910390fd5b611e48838383612149565b611e53600082611bc0565b6001600360008573ffffffffffffffffffffffffffffffffffffffff1673ffffffffffffffffffffffffffffffffffffffff1681526020019081526020016000206000828254611ea39190613b58565b925050819055506001600360008473ffffffffffffffffffffffffffffffffffffffff1673ffffffffffffffffffffffffffffffffffffffff1681526020019081526020016000206000828254611efa9190613904565b92505081905550816002600083815260200190815260200160002060006101000a81548173ffffffffffffffffffffffffffffffffffffffff021916908373ffffffffffffffffffffffffffffffffffffffff160217905550808273ffffffffffffffffffffffffffffffffffffffff168473ffffffffffffffffffffffffffffffffffffffff167fddf252ad1be2c89b69c2b068fc378daa952ba7f163c4a11628f55a4df523b3ef60405160405180910390a4505050565b6000611fbf600761214e565b6000611fcb6007612164565b9050611fd78482612172565b611fe18184612340565b808473ffffffffffffffffffffffffffffffffffffffff167f30385c845b448a36257a6a1716e6ad2e1bc2cbe333cde1e69fe849ad6511adfe60405160405180910390a38091505092915050565b61203a848484611d57565b612046848484846123b4565b612085576040517f08c379a000000000000000000000000000000000000000000000000000000000815260040161207c90613457565b60405180910390fd5b50505050565b606060405180602001604052806000815250905090565b60606120ad82611b4c565b6120ec576040517f08c379a00000000000000000000000000000000000000000000000000000000081526004016120e390613677565b60405180910390fd5b60006120f661208b565b905060008151116121165760405180602001604052806000815250612141565b806121208461254b565b6040516020016121319291906132fc565b6040516020818303038152906040525b915050919050565b505050565b6001816000016000828254019250508190555050565b600081600001549050919050565b600073ffffffffffffffffffffffffffffffffffffffff168273ffffffffffffffffffffffffffffffffffffffff1614156121e2576040517f08c379a00000000000000000000000000000000000000000000000000000000081526004016121d9906135d7565b60405180910390fd5b6121eb81611b4c565b1561222b576040517f08c379a000000000000000000000000000000000000000000000000000000000815260040161222290613477565b60405180910390fd5b61223760008383612149565b6001600360008473ffffffffffffffffffffffffffffffffffffffff1673ffffffffffffffffffffffffffffffffffffffff16815260200190815260200160002060008282546122879190613904565b92505081905550816002600083815260200190815260200160002060006101000a81548173ffffffffffffffffffffffffffffffffffffffff021916908373ffffffffffffffffffffffffffffffffffffffff160217905550808273ffffffffffffffffffffffffffffffffffffffff16600073ffffffffffffffffffffffffffffffffffffffff167fddf252ad1be2c89b69c2b068fc378daa952ba7f163c4a11628f55a4df523b3ef60405160405180910390a45050565b61234982611b4c565b612388576040517f08c379a000000000000000000000000000000000000000000000000000000000815260040161237f906135b7565b60405180910390fd5b806006600084815260200190815260200160002090805190602001906123af92919061276e565b505050565b60006123d58473ffffffffffffffffffffffffffffffffffffffff166126f8565b1561253e578373ffffffffffffffffffffffffffffffffffffffff1663150b7a026123fe611bb8565b8786866040518563ffffffff1660e01b8152600401612420949392919061333b565b602060405180830381600087803b15801561243a57600080fd5b505af192505050801561246b57506040513d601f19601f820116820180604052508101906124689190612c12565b60015b6124ee573d806000811461249b576040519150601f19603f3d011682016040523d82523d6000602084013e6124a0565b606091505b506000815114156124e6576040517f08c379a00000000000000000000000000000000000000000000000000000000081526004016124dd90613457565b60405180910390fd5b805181602001fd5b63150b7a0260e01b7bffffffffffffffffffffffffffffffffffffffffffffffffffffffff1916817bffffffffffffffffffffffffffffffffffffffffffffffffffffffff191614915050612543565b600190505b949350505050565b60606000821415612593576040518060400160405280600181526020017f300000000000000000000000000000000000000000000000000000000000000081525090506126f3565b600082905060005b600082146125c55780806125ae90613cfc565b915050600a826125be91906139c4565b915061259b565b60008167ffffffffffffffff811115612607577f4e487b7100000000000000000000000000000000000000000000000000000000600052604160045260246000fd5b6040519080825280601f01601f1916602001820160405280156126395781602001600182028036833780820191505090505b5090505b600085146126ec576001826126529190613b58565b9150600a856126619190613d45565b603061266d9190613904565b60f81b8183815181106126a9577f4e487b7100000000000000000000000000000000000000000000000000000000600052603260045260246000fd5b60200101907effffffffffffffffffffffffffffffffffffffffffffffffffffffffffffff1916908160001a905350600a856126e591906139c4565b945061263d565b8093505050505b919050565b600080823b905060008111915050919050565b60405180608001604052806000815260200160006004811115612757577f4e487b7100000000000000000000000000000000000000000000000000000000600052602160045260246000fd5b8152602001600060070b8152602001606081525090565b82805461277a90613c99565b90600052602060002090601f01602090048101928261279c57600085556127e3565b82601f106127b557805160ff19168380011785556127e3565b828001600101855582156127e3579182015b828111156127e25782518255916020019190600101906127c7565b5b5090506127f091906127f4565b5090565b5b8082111561280d5760008160009055506001016127f5565b5090565b600061282461281f84613799565b613774565b90508281526020810184848401111561283c57600080fd5b612847848285613c57565b509392505050565b600061286261285d846137ca565b613774565b90508281526020810184848401111561287a57600080fd5b612885848285613c57565b509392505050565b60008135905061289c81614590565b92915050565b6000813590506128b1816145a7565b92915050565b6000813590506128c6816145be565b92915050565b6000815190506128db816145be565b92915050565b600082601f8301126128f257600080fd5b8135612902848260208601612811565b91505092915050565b60008135905061291a816145d5565b92915050565b60008135905061292f816145e5565b92915050565b600082601f83011261294657600080fd5b813561295684826020860161284f565b91505092915050565b60008135905061296e816145fc565b92915050565b60006020828403121561298657600080fd5b60006129948482850161288d565b91505092915050565b600080604083850312156129b057600080fd5b60006129be8582860161288d565b92505060206129cf8582860161288d565b9150509250929050565b6000806000606084860312156129ee57600080fd5b60006129fc8682870161288d565b9350506020612a0d8682870161288d565b9250506040612a1e8682870161295f565b9150509250925092565b60008060008060808587031215612a3e57600080fd5b6000612a4c8782880161288d565b9450506020612a5d8782880161288d565b9350506040612a6e8782880161295f565b925050606085013567ffffffffffffffff811115612a8b57600080fd5b612a97878288016128e1565b91505092959194509250565b60008060408385031215612ab657600080fd5b6000612ac48582860161288d565b9250506020612ad5858286016128a2565b9150509250929050565b600080600060608486031215612af457600080fd5b6000612b028682870161288d565b935050602084013567ffffffffffffffff811115612b1f57600080fd5b612b2b86828701612935565b9250506040612b3c8682870161290b565b9150509250925092565b600080600060608486031215612b5b57600080fd5b6000612b698682870161288d565b935050602084013567ffffffffffffffff811115612b8657600080fd5b612b9286828701612935565b9250506040612ba386828701612920565b9150509250925092565b60008060408385031215612bc057600080fd5b6000612bce8582860161288d565b9250506020612bdf8582860161295f565b9150509250929050565b600060208284031215612bfb57600080fd5b6000612c09848285016128b7565b91505092915050565b600060208284031215612c2457600080fd5b6000612c32848285016128cc565b91505092915050565b600080600060608486031215612c5057600080fd5b6000612c5e8682870161290b565b9350506020612c6f86828701612920565b9250506040612c8086828701612920565b9150509250925092565b600060208284031215612c9c57600080fd5b6000612caa8482850161295f565b91505092915050565b600080600060608486031215612cc857600080fd5b6000612cd68682870161295f565b9350506020612ce786828701612920565b9250506040612cf886828701612920565b9150509250925092565b6000612d0e8383613218565b905092915050565b612d1f81613b8c565b82525050565b6000612d308261380b565b612d3a8185613839565b935083602082028501612d4c856137fb565b8060005b85811015612d885784840389528151612d698582612d02565b9450612d748361382c565b925060208a01995050600181019050612d50565b50829750879550505050505092915050565b612da381613b9e565b82525050565b6000612db482613816565b612dbe818561384a565b9350612dce818560208601613c66565b612dd781613e61565b840191505092915050565b612deb81613c33565b82525050565b612dfa81613c33565b82525050565b612e0981613c45565b82525050565b612e1881613bfc565b82525050565b612e2781613bfc565b82525050565b6000612e3882613821565b612e42818561385b565b9350612e52818560208601613c66565b612e5b81613e61565b840191505092915050565b6000612e7182613821565b612e7b818561386c565b9350612e8b818560208601613c66565b612e9481613e61565b840191505092915050565b6000612eaa82613821565b612eb4818561387d565b9350612ec4818560208601613c66565b80840191505092915050565b6000612edd60288361386c565b9150612ee882613e72565b604082019050919050565b6000612f0060328361386c565b9150612f0b82613ec1565b604082019050919050565b6000612f23601c8361386c565b9150612f2e82613f10565b602082019050919050565b6000612f4660278361386c565b9150612f5182613f39565b604082019050919050565b6000612f69602c8361386c565b9150612f7482613f88565b604082019050919050565b6000612f8c60248361386c565b9150612f9782613fd7565b604082019050919050565b6000612faf60198361386c565b9150612fba82614026565b602082019050919050565b6000612fd2602c8361386c565b9150612fdd8261404f565b604082019050919050565b6000612ff560268361386c565b91506130008261409e565b604082019050919050565b600061301860388361386c565b9150613023826140ed565b604082019050919050565b600061303b602a8361386c565b91506130468261413c565b604082019050919050565b600061305e60298361386c565b91506130698261418b565b604082019050919050565b6000613081602e8361386c565b915061308c826141da565b604082019050919050565b60006130a460208361386c565b91506130af82614229565b602082019050919050565b60006130c760318361386c565b91506130d282614252565b604082019050919050565b60006130ea602c8361386c565b91506130f5826142a1565b604082019050919050565b600061310d60288361386c565b9150613118826142f0565b604082019050919050565b600061313060298361386c565b915061313b8261433f565b604082019050919050565b6000613153602f8361386c565b915061315e8261438e565b604082019050919050565b600061317660288361386c565b9150613181826143dd565b604082019050919050565b6000613199602a8361386c565b91506131a48261442c565b604082019050919050565b60006131bc60218361386c565b91506131c78261447b565b604082019050919050565b60006131df60318361386c565b91506131ea826144ca565b604082019050919050565b600061320260258361386c565b915061320d82614519565b604082019050919050565b600060808301600083015161323060008601826132de565b5060208301516132436020860182612de2565b5060408301516132566040860182612e0f565b506060830151848203606086015261326e8282612e2d565b9150508091505092915050565b600060808301600083015161329360008601826132de565b5060208301516132a66020860182612de2565b5060408301516132b96040860182612e0f565b50606083015184820360608601526132d18282612e2d565b9150508091505092915050565b6132e781613c29565b82525050565b6132f681613c29565b82525050565b60006133088285612e9f565b91506133148284612e9f565b91508190509392505050565b60006020820190506133356000830184612d16565b92915050565b60006080820190506133506000830187612d16565b61335d6020830186612d16565b61336a60408301856132ed565b818103606083015261337c8184612da9565b905095945050505050565b600060208201905081810360008301526133a18184612d25565b905092915050565b60006020820190506133be6000830184612d9a565b92915050565b60006020820190506133d96000830184612df1565b92915050565b60006020820190506133f46000830184612e00565b92915050565b600060208201905061340f6000830184612e1e565b92915050565b6000602082019050818103600083015261342f8184612e66565b905092915050565b6000602082019050818103600083015261345081612ed0565b9050919050565b6000602082019050818103600083015261347081612ef3565b9050919050565b6000602082019050818103600083015261349081612f16565b9050919050565b600060208201905081810360008301526134b081612f39565b9050919050565b600060208201905081810360008301526134d081612f5c565b9050919050565b600060208201905081810360008301526134f081612f7f565b9050919050565b6000602082019050818103600083015261351081612fa2565b9050919050565b6000602082019050818103600083015261353081612fc5565b9050919050565b6000602082019050818103600083015261355081612fe8565b9050919050565b600060208201905081810360008301526135708161300b565b9050919050565b600060208201905081810360008301526135908161302e565b9050919050565b600060208201905081810360008301526135b081613051565b9050919050565b600060208201905081810360008301526135d081613074565b9050919050565b600060208201905081810360008301526135f081613097565b9050919050565b60006020820190508181036000830152613610816130ba565b9050919050565b60006020820190508181036000830152613630816130dd565b9050919050565b6000602082019050818103600083015261365081613100565b9050919050565b6000602082019050818103600083015261367081613123565b9050919050565b6000602082019050818103600083015261369081613146565b9050919050565b600060208201905081810360008301526136b081613169565b9050919050565b600060208201905081810360008301526136d08161318c565b9050919050565b600060208201905081810360008301526136f0816131af565b9050919050565b60006020820190508181036000830152613710816131d2565b9050919050565b60006020820190508181036000830152613730816131f5565b9050919050565b60006020820190508181036000830152613751818461327b565b905092915050565b600060208201905061376e60008301846132ed565b92915050565b600061377e61378f565b905061378a8282613ccb565b919050565b6000604051905090565b600067ffffffffffffffff8211156137b4576137b3613e32565b5b6137bd82613e61565b9050602081019050919050565b600067ffffffffffffffff8211156137e5576137e4613e32565b5b6137ee82613e61565b9050602081019050919050565b6000819050602082019050919050565b600081519050919050565b600081519050919050565b600081519050919050565b6000602082019050919050565b600082825260208201905092915050565b600082825260208201905092915050565b600082825260208201905092915050565b600082825260208201905092915050565b600081905092915050565b600061389382613bfc565b915061389e83613bfc565b925081677fffffffffffffff038313600083121516156138c1576138c0613d76565b5b817fffffffffffffffffffffffffffffffffffffffffffffffff80000000000000000383126000831216156138f9576138f8613d76565b5b828201905092915050565b600061390f82613c29565b915061391a83613c29565b9250827fffffffffffffffffffffffffffffffffffffffffffffffffffffffffffffffff0382111561394f5761394e613d76565b5b828201905092915050565b600061396582613bfc565b915061397083613bfc565b9250826139805761397f613da5565b5b600160000383147fffffffffffffffffffffffffffffffffffffffffffffffff8000000000000000831416156139b9576139b8613d76565b5b828205905092915050565b60006139cf82613c29565b91506139da83613c29565b9250826139ea576139e9613da5565b5b828204905092915050565b6000613a0082613bfc565b9150613a0b83613bfc565b925082677fffffffffffffff0482116000841360008413161615613a3257613a31613d76565b5b817fffffffffffffffffffffffffffffffffffffffffffffffff80000000000000000583126000841260008413161615613a6f57613a6e613d76565b5b827fffffffffffffffffffffffffffffffffffffffffffffffff80000000000000000582126000841360008412161615613aac57613aab613d76565b5b82677fffffffffffffff0582126000841260008412161615613ad157613ad0613d76565b5b828202905092915050565b6000613ae782613bfc565b9150613af283613bfc565b9250827fffffffffffffffffffffffffffffffffffffffffffffffff800000000000000001821260008412151615613b2d57613b2c613d76565b5b82677fffffffffffffff018213600084121615613b4d57613b4c613d76565b5b828203905092915050565b6000613b6382613c29565b9150613b6e83613c29565b925082821015613b8157613b80613d76565b5b828203905092915050565b6000613b9782613c09565b9050919050565b60008115159050919050565b60007fffffffff0000000000000000000000000000000000000000000000000000000082169050919050565b6000819050613be482614568565b919050565b6000819050613bf78261457c565b919050565b60008160070b9050919050565b600073ffffffffffffffffffffffffffffffffffffffff82169050919050565b6000819050919050565b6000613c3e82613bd6565b9050919050565b6000613c5082613be9565b9050919050565b82818337600083830152505050565b60005b83811015613c84578082015181840152602081019050613c69565b83811115613c93576000848401525b50505050565b60006002820490506001821680613cb157607f821691505b60208210811415613cc557613cc4613e03565b5b50919050565b613cd482613e61565b810181811067ffffffffffffffff82111715613cf357613cf2613e32565b5b80604052505050565b6000613d0782613c29565b91507fffffffffffffffffffffffffffffffffffffffffffffffffffffffffffffffff821415613d3a57613d39613d76565b5b600182019050919050565b6000613d5082613c29565b9150613d5b83613c29565b925082613d6b57613d6a613da5565b5b828206905092915050565b7f4e487b7100000000000000000000000000000000000000000000000000000000600052601160045260246000fd5b7f4e487b7100000000000000000000000000000000000000000000000000000000600052601260045260246000fd5b7f4e487b7100000000000000000000000000000000000000000000000000000000600052602160045260246000fd5b7f4e487b7100000000000000000000000000000000000000000000000000000000600052602260045260246000fd5b7f4e487b7100000000000000000000000000000000000000000000000000000000600052604160045260246000fd5b6000601f19601f8301169050919050565b7f546f6b656e3a2067657474696e672074797065206f66206e6f6e65786973746560008201527f6e7420746f6b656e000000000000000000000000000000000000000000000000602082015250565b7f4552433732313a207472616e7366657220746f206e6f6e20455243373231526560008201527f63656976657220696d706c656d656e7465720000000000000000000000000000602082015250565b7f4552433732313a20746f6b656e20616c7265616479206d696e74656400000000600082015250565b7f546f6b656e3a2063616c63756c6174696e67207573696e672061204e756d626560008201527f7220746f6b656e00000000000000000000000000000000000000000000000000602082015250565b7f546f6b656e3a2063616c63756c6174696e67207573696e672061206e6f6e657860008201527f697374656e7420746f6b656e0000000000000000000000000000000000000000602082015250565b7f4552433732313a207472616e7366657220746f20746865207a65726f2061646460008201527f7265737300000000000000000000000000000000000000000000000000000000602082015250565b7f4552433732313a20617070726f766520746f2063616c6c657200000000000000600082015250565b7f4552433732313a206f70657261746f7220717565727920666f72206e6f6e657860008201527f697374656e7420746f6b656e0000000000000000000000000000000000000000602082015250565b7f546f6b656e3a2067657474696e67206f70206f66206e6f6e6578697374656e7460008201527f20746f6b656e0000000000000000000000000000000000000000000000000000602082015250565b7f4552433732313a20617070726f76652063616c6c6572206973206e6f74206f7760008201527f6e6572206e6f7220617070726f76656420666f7220616c6c0000000000000000602082015250565b7f4552433732313a2062616c616e636520717565727920666f7220746865207a6560008201527f726f206164647265737300000000000000000000000000000000000000000000602082015250565b7f4552433732313a206f776e657220717565727920666f72206e6f6e657869737460008201527f656e7420746f6b656e0000000000000000000000000000000000000000000000602082015250565b7f45524337323155524953746f726167653a2055524920736574206f66206e6f6e60008201527f6578697374656e7420746f6b656e000000000000000000000000000000000000602082015250565b7f4552433732313a206d696e7420746f20746865207a65726f2061646472657373600082015250565b7f45524337323155524953746f726167653a2055524920717565727920666f722060008201527f6e6f6e6578697374656e7420746f6b656e000000000000000000000000000000602082015250565b7f4552433732313a20617070726f76656420717565727920666f72206e6f6e657860008201527f697374656e7420746f6b656e0000000000000000000000000000000000000000602082015250565b7f546f6b656e3a2067657474696e672074657874206f66206e6f6e65786973746560008201527f6e7420746f6b656e000000000000000000000000000000000000000000000000602082015250565b7f4552433732313a207472616e73666572206f6620746f6b656e2074686174206960008201527f73206e6f74206f776e0000000000000000000000000000000000000000000000602082015250565b7f4552433732314d657461646174613a2055524920717565727920666f72206e6f60008201527f6e6578697374656e7420746f6b656e0000000000000000000000000000000000602082015250565b7f546f6b656e3a2067657474696e6720696e666f206f66206e6f6e65786973746560008201527f6e7420746f6b656e000000000000000000000000000000000000000000000000602082015250565b7f546f6b656e3a2067657474696e67206e756d626572206f66206e6f6e6578697360008201527f74656e7420746f6b656e00000000000000000000000000000000000000000000602082015250565b7f4552433732313a20617070726f76616c20746f2063757272656e74206f776e6560008201527f7200000000000000000000000000000000000000000000000000000000000000602082015250565b7f4552433732313a207472616e736665722063616c6c6572206973206e6f74206f60008201527f776e6572206e6f7220617070726f766564000000000000000000000000000000602082015250565b7f546f6b656e3a2067657474696e6720746578742066726f6d204e756d6265722060008201527f746f6b656e000000000000000000000000000000000000000000000000000000602082015250565b6005811061457957614578613dd4565b5b50565b6002811061458d5761458c613dd4565b5b50565b61459981613b8c565b81146145a457600080fd5b50565b6145b081613b9e565b81146145bb57600080fd5b50565b6145c781613baa565b81146145d257600080fd5b50565b600581106145e257600080fd5b50565b6145ee81613bfc565b81146145f957600080fd5b50565b61460581613c29565b811461461057600080fd5b5056fea2646970667358221220f3af64a816deb908d25e81ee6943b3b6a42d5755fedb340c0d76b41051ffff0164736f6c63430008010033",
  "immutableReferences": {},
  "source": "// SPDX-License-Identifier: MIT\r\npragma solidity ^0.8.0;\r\n\r\nimport \"@openzeppelin/contracts/token/ERC721/extensions/ERC721URIStorage.sol\";\r\nimport \"@openzeppelin/contracts/utils/Counters.sol\";\r\n\r\ncontract Token is ERC721URIStorage {\r\n    event Minted(address indexed addr, uint256 indexed tokenId);\r\n\r\n    using Counters for Counters.Counter;\r\n    Counters.Counter private _tokenIds;\r\n\r\n    enum Type {Operation, Number}\r\n    enum Operation {None,  Add, Sub, Mul, Div }\r\n\r\n    mapping (uint256 => Operation) private _operations;\r\n    mapping (uint256 => int64) private _numbers;\r\n\r\n    struct TokenInfo \r\n    {\r\n        uint256 id;\r\n        Operation operation;\r\n        int64 number;\r\n        string uri;\r\n    }\r\n\r\n    constructor() ERC721(\"ArithmeToken\", \"ARI\") {}\r\n\r\n    function _mint(address addr, string memory uri) internal returns (uint256)\r\n    {\r\n        _tokenIds.increment();\r\n\r\n\r\n        uint256 newTokenId = _tokenIds.current();\r\n        super._mint(addr, newTokenId);\r\n        _setTokenURI(newTokenId, uri);\r\n\r\n        emit Minted(addr, newTokenId);\r\n\r\n        return newTokenId;\r\n    }\r\n\r\n    function getTokenInfo(uint256 tokenId) public view returns (TokenInfo memory) {\r\n        require(_exists(tokenId), \"Token: getting info of nonexistent token\");\r\n\r\n        TokenInfo memory info;\r\n        info.id = tokenId;\r\n        info.operation = getOperation(tokenId);\r\n        info.number = getNumber(tokenId);\r\n        info.uri = tokenURI(tokenId);\r\n\r\n        return info;\r\n    }\r\n\r\n    function getTokenInfos(address addr) public view returns (TokenInfo[] memory) {\r\n        uint256 balance = balanceOf(addr);\r\n        TokenInfo[] memory tokenIds = new TokenInfo[](balance);\r\n        uint256 found = 0;\r\n        \r\n        for (uint256 i=0; found < balance; i++) {\r\n            if (_exists(i) && ownerOf(i) == addr) {\r\n                tokenIds[found] = getTokenInfo(i);\r\n                found++;\r\n            }\r\n        }\r\n\r\n        return tokenIds;\r\n    }\r\n\r\n    function getType(uint256 tokenId) public view returns (Type) {\r\n        require(_exists(tokenId), \"Token: getting type of nonexistent token\");\r\n        if (getOperation(tokenId) != Operation.None) {\r\n            return Type.Operation;\r\n        } else {\r\n            return Type.Number;\r\n        }\r\n    }\r\n\r\n    function getNumber(uint256 tokenId) public view returns (int64) {\r\n        require(_exists(tokenId), \"Token: getting number of nonexistent token\");\r\n        return _numbers[tokenId];\r\n    }\r\n\r\n    function getOperation(uint256 tokenId) public view returns (Operation) {\r\n        require(_exists(tokenId), \"Token: getting op of nonexistent token\");\r\n        return _operations[tokenId];\r\n    }\r\n\r\n    // TODO: remove?\r\n    function getOperationText(uint256 tokenId) public view returns (string memory) {\r\n        require(_exists(tokenId), \"Token: getting text of nonexistent token\");\r\n        require(getType(tokenId) == Type.Operation, \"Token: getting text from Number token\");\r\n        \r\n        Operation op = getOperation(tokenId);\r\n        if (op == Operation.Add) {\r\n            return \"+\";\r\n        } else if (op == Operation.Sub) {\r\n            return \"-\";\r\n        } else if (op == Operation.Mul) {\r\n            return \"*\";\r\n        } else if (op == Operation.Div) {\r\n            return \"/\";\r\n        }\r\n\r\n        return \"\";\r\n    }\r\n\r\n    function runOperation(Operation op, int64 v1, int64 v2) public pure returns (int64) {\r\n        if (op == Operation.Add) {\r\n            return v1 + v2;\r\n        } else if (op == Operation.Sub) {\r\n            return v1 - v2;\r\n        } else if (op == Operation.Mul) {\r\n            return v1 * v2;\r\n        } else if (op == Operation.Div) {\r\n            return v1 / v2;\r\n        }\r\n\r\n        return 0;\r\n    }\r\n\r\n    // TODO: Do we need this one?\r\n    function runOperation(uint256 tokenId, int64 v1, int64 v2) public view returns (int64) {\r\n        require(_exists(tokenId), \"Token: calculating using a nonexistent token\");\r\n        require(getType(tokenId) == Type.Operation, \"Token: calculating using a Number token\");\r\n\r\n        return runOperation(getOperation(tokenId), v1, v2);\r\n    }\r\n\r\n    // TODO Permissions?\r\n    function mintNumber(address acct, string memory uri, int64 number) public returns (uint256)\r\n    {\r\n        uint256 newTokenId = _mint(acct, uri);\r\n        _numbers[newTokenId] = number;\r\n\r\n        return newTokenId;\r\n    }\r\n\r\n    // TODO Permissions?\r\n    function mintOperation(address acct, string memory uri, Operation operation) public returns (uint256)\r\n    {\r\n        uint256 newTokenId = _mint(acct, uri);\r\n        _operations[newTokenId] = operation;\r\n\r\n        return newTokenId;\r\n    }\r\n\r\n\r\n}",
  "sourcePath": "D:\\Blockchain\\Ethereum\\Projects\\arithmetoken\\src\\contracts\\Token.sol",
  "compiler": {
    "name": "solc",
    "version": "0.8.1+commit.df193b15.Emscripten.clang"
  },
  "schemaVersion": "3.4.1",
  "updatedAt": "2021-06-10T08:45:29.845Z",
  "networkType": "ethereum",
  "devdoc": {
    "kind": "dev",
    "methods": {
      "approve(address,uint256)": {
        "details": "See {IERC721-approve}."
      },
      "balanceOf(address)": {
        "details": "See {IERC721-balanceOf}."
      },
      "getApproved(uint256)": {
        "details": "See {IERC721-getApproved}."
      },
      "isApprovedForAll(address,address)": {
        "details": "See {IERC721-isApprovedForAll}."
      },
      "name()": {
        "details": "See {IERC721Metadata-name}."
      },
      "ownerOf(uint256)": {
        "details": "See {IERC721-ownerOf}."
      },
      "safeTransferFrom(address,address,uint256)": {
        "details": "See {IERC721-safeTransferFrom}."
      },
      "safeTransferFrom(address,address,uint256,bytes)": {
        "details": "See {IERC721-safeTransferFrom}."
      },
      "setApprovalForAll(address,bool)": {
        "details": "See {IERC721-setApprovalForAll}."
      },
      "supportsInterface(bytes4)": {
        "details": "See {IERC165-supportsInterface}."
      },
      "symbol()": {
        "details": "See {IERC721Metadata-symbol}."
      },
      "tokenURI(uint256)": {
        "details": "See {IERC721Metadata-tokenURI}."
      },
      "transferFrom(address,address,uint256)": {
        "details": "See {IERC721-transferFrom}."
      }
    },
    "version": 1
  },
  "userdoc": {
    "kind": "user",
    "methods": {},
    "version": 1
  }
}