{
  "contractName": "Token",
  "abi": [
    {
      "inputs": [],
      "stateMutability": "nonpayable",
      "type": "constructor"
    },
    {
      "anonymous": false,
      "inputs": [
        {
          "indexed": true,
          "internalType": "address",
          "name": "owner",
          "type": "address"
        },
        {
          "indexed": true,
          "internalType": "address",
          "name": "approved",
          "type": "address"
        },
        {
          "indexed": true,
          "internalType": "uint256",
          "name": "tokenId",
          "type": "uint256"
        }
      ],
      "name": "Approval",
      "type": "event"
    },
    {
      "anonymous": false,
      "inputs": [
        {
          "indexed": true,
          "internalType": "address",
          "name": "owner",
          "type": "address"
        },
        {
          "indexed": true,
          "internalType": "address",
          "name": "operator",
          "type": "address"
        },
        {
          "indexed": false,
          "internalType": "bool",
          "name": "approved",
          "type": "bool"
        }
      ],
      "name": "ApprovalForAll",
      "type": "event"
    },
    {
      "anonymous": false,
      "inputs": [
        {
          "indexed": true,
          "internalType": "address",
          "name": "addr",
          "type": "address"
        },
        {
          "indexed": true,
          "internalType": "uint256",
          "name": "tokenId",
          "type": "uint256"
        }
      ],
      "name": "Minted",
      "type": "event"
    },
    {
      "anonymous": false,
      "inputs": [
        {
          "indexed": true,
          "internalType": "address",
          "name": "from",
          "type": "address"
        },
        {
          "indexed": true,
          "internalType": "address",
          "name": "to",
          "type": "address"
        },
        {
          "indexed": true,
          "internalType": "uint256",
          "name": "tokenId",
          "type": "uint256"
        }
      ],
      "name": "Transfer",
      "type": "event"
    },
    {
      "inputs": [
        {
          "internalType": "address",
          "name": "to",
          "type": "address"
        },
        {
          "internalType": "uint256",
          "name": "tokenId",
          "type": "uint256"
        }
      ],
      "name": "approve",
      "outputs": [],
      "stateMutability": "nonpayable",
      "type": "function"
    },
    {
      "inputs": [
        {
          "internalType": "address",
          "name": "owner",
          "type": "address"
        }
      ],
      "name": "balanceOf",
      "outputs": [
        {
          "internalType": "uint256",
          "name": "",
          "type": "uint256"
        }
      ],
      "stateMutability": "view",
      "type": "function",
      "constant": true
    },
    {
      "inputs": [
        {
          "internalType": "uint256",
          "name": "tokenId",
          "type": "uint256"
        }
      ],
      "name": "getApproved",
      "outputs": [
        {
          "internalType": "address",
          "name": "",
          "type": "address"
        }
      ],
      "stateMutability": "view",
      "type": "function",
      "constant": true
    },
    {
      "inputs": [
        {
          "internalType": "address",
          "name": "owner",
          "type": "address"
        },
        {
          "internalType": "address",
          "name": "operator",
          "type": "address"
        }
      ],
      "name": "isApprovedForAll",
      "outputs": [
        {
          "internalType": "bool",
          "name": "",
          "type": "bool"
        }
      ],
      "stateMutability": "view",
      "type": "function",
      "constant": true
    },
    {
      "inputs": [],
      "name": "name",
      "outputs": [
        {
          "internalType": "string",
          "name": "",
          "type": "string"
        }
      ],
      "stateMutability": "view",
      "type": "function",
      "constant": true
    },
    {
      "inputs": [
        {
          "internalType": "uint256",
          "name": "tokenId",
          "type": "uint256"
        }
      ],
      "name": "ownerOf",
      "outputs": [
        {
          "internalType": "address",
          "name": "",
          "type": "address"
        }
      ],
      "stateMutability": "view",
      "type": "function",
      "constant": true
    },
    {
      "inputs": [
        {
          "internalType": "address",
          "name": "from",
          "type": "address"
        },
        {
          "internalType": "address",
          "name": "to",
          "type": "address"
        },
        {
          "internalType": "uint256",
          "name": "tokenId",
          "type": "uint256"
        }
      ],
      "name": "safeTransferFrom",
      "outputs": [],
      "stateMutability": "nonpayable",
      "type": "function"
    },
    {
      "inputs": [
        {
          "internalType": "address",
          "name": "from",
          "type": "address"
        },
        {
          "internalType": "address",
          "name": "to",
          "type": "address"
        },
        {
          "internalType": "uint256",
          "name": "tokenId",
          "type": "uint256"
        },
        {
          "internalType": "bytes",
          "name": "_data",
          "type": "bytes"
        }
      ],
      "name": "safeTransferFrom",
      "outputs": [],
      "stateMutability": "nonpayable",
      "type": "function"
    },
    {
      "inputs": [
        {
          "internalType": "address",
          "name": "operator",
          "type": "address"
        },
        {
          "internalType": "bool",
          "name": "approved",
          "type": "bool"
        }
      ],
      "name": "setApprovalForAll",
      "outputs": [],
      "stateMutability": "nonpayable",
      "type": "function"
    },
    {
      "inputs": [
        {
          "internalType": "bytes4",
          "name": "interfaceId",
          "type": "bytes4"
        }
      ],
      "name": "supportsInterface",
      "outputs": [
        {
          "internalType": "bool",
          "name": "",
          "type": "bool"
        }
      ],
      "stateMutability": "view",
      "type": "function",
      "constant": true
    },
    {
      "inputs": [],
      "name": "symbol",
      "outputs": [
        {
          "internalType": "string",
          "name": "",
          "type": "string"
        }
      ],
      "stateMutability": "view",
      "type": "function",
      "constant": true
    },
    {
      "inputs": [
        {
          "internalType": "uint256",
          "name": "tokenId",
          "type": "uint256"
        }
      ],
      "name": "tokenURI",
      "outputs": [
        {
          "internalType": "string",
          "name": "",
          "type": "string"
        }
      ],
      "stateMutability": "view",
      "type": "function",
      "constant": true
    },
    {
      "inputs": [
        {
          "internalType": "address",
          "name": "from",
          "type": "address"
        },
        {
          "internalType": "address",
          "name": "to",
          "type": "address"
        },
        {
          "internalType": "uint256",
          "name": "tokenId",
          "type": "uint256"
        }
      ],
      "name": "transferFrom",
      "outputs": [],
      "stateMutability": "nonpayable",
      "type": "function"
    },
    {
      "inputs": [
        {
          "internalType": "address",
          "name": "addr",
          "type": "address"
        }
      ],
      "name": "getTokensInAddress",
      "outputs": [
        {
          "internalType": "uint256[]",
          "name": "",
          "type": "uint256[]"
        }
      ],
      "stateMutability": "view",
      "type": "function",
      "constant": true
    },
    {
      "inputs": [
        {
          "internalType": "uint256",
          "name": "tokenId",
          "type": "uint256"
        }
      ],
      "name": "getType",
      "outputs": [
        {
          "internalType": "enum Token.Type",
          "name": "",
          "type": "uint8"
        }
      ],
      "stateMutability": "view",
      "type": "function",
      "constant": true
    },
    {
      "inputs": [
        {
          "internalType": "uint256",
          "name": "tokenId",
          "type": "uint256"
        }
      ],
      "name": "getNumber",
      "outputs": [
        {
          "internalType": "int64",
          "name": "",
          "type": "int64"
        }
      ],
      "stateMutability": "view",
      "type": "function",
      "constant": true
    },
    {
      "inputs": [
        {
          "internalType": "uint256",
          "name": "tokenId",
          "type": "uint256"
        }
      ],
      "name": "getOperation",
      "outputs": [
        {
          "internalType": "enum Token.Operation",
          "name": "",
          "type": "uint8"
        }
      ],
      "stateMutability": "view",
      "type": "function",
      "constant": true
    },
    {
      "inputs": [
        {
          "internalType": "uint256",
          "name": "tokenId",
          "type": "uint256"
        }
      ],
      "name": "getOperationText",
      "outputs": [
        {
          "internalType": "string",
          "name": "",
          "type": "string"
        }
      ],
      "stateMutability": "view",
      "type": "function",
      "constant": true
    },
    {
      "inputs": [
        {
          "internalType": "uint256",
          "name": "tokenId",
          "type": "uint256"
        },
        {
          "internalType": "int64",
          "name": "v1",
          "type": "int64"
        },
        {
          "internalType": "int64",
          "name": "v2",
          "type": "int64"
        }
      ],
      "name": "runOperation",
      "outputs": [
        {
          "internalType": "int64",
          "name": "",
          "type": "int64"
        }
      ],
      "stateMutability": "view",
      "type": "function",
      "constant": true
    },
    {
      "inputs": [
        {
          "internalType": "enum Token.Operation",
          "name": "op",
          "type": "uint8"
        },
        {
          "internalType": "int64",
          "name": "v1",
          "type": "int64"
        },
        {
          "internalType": "int64",
          "name": "v2",
          "type": "int64"
        }
      ],
      "name": "runOperation",
      "outputs": [
        {
          "internalType": "int64",
          "name": "",
          "type": "int64"
        }
      ],
      "stateMutability": "pure",
      "type": "function",
      "constant": true
    },
    {
      "inputs": [
        {
          "internalType": "address",
          "name": "acct",
          "type": "address"
        },
        {
          "internalType": "string",
          "name": "uri",
          "type": "string"
        },
        {
          "internalType": "int64",
          "name": "number",
          "type": "int64"
        }
      ],
      "name": "mintNumber",
      "outputs": [
        {
          "internalType": "uint256",
          "name": "",
          "type": "uint256"
        }
      ],
      "stateMutability": "nonpayable",
      "type": "function"
    },
    {
      "inputs": [
        {
          "internalType": "address",
          "name": "acct",
          "type": "address"
        },
        {
          "internalType": "string",
          "name": "uri",
          "type": "string"
        },
        {
          "internalType": "enum Token.Operation",
          "name": "operation",
          "type": "uint8"
        }
      ],
      "name": "mintOperation",
      "outputs": [
        {
          "internalType": "uint256",
          "name": "",
          "type": "uint256"
        }
      ],
      "stateMutability": "nonpayable",
      "type": "function"
    }
  ],
  "bytecode": "0x60806040523480156200001157600080fd5b506040518060400160405280600c81526020017f41726974686d65546f6b656e00000000000000000000000000000000000000008152506040518060400160405280600381526020017f4152490000000000000000000000000000000000000000000000000000000000815250816000908051906020019062000096929190620000b8565b508060019080519060200190620000af929190620000b8565b505050620001cd565b828054620000c69062000168565b90600052602060002090601f016020900481019282620000ea576000855562000136565b82601f106200010557805160ff191683800117855562000136565b8280016001018555821562000136579182015b828111156200013557825182559160200191906001019062000118565b5b50905062000145919062000149565b5090565b5b80821115620001645760008160009055506001016200014a565b5090565b600060028204905060018216806200018157607f821691505b602082108114156200019857620001976200019e565b5b50919050565b7f4e487b7100000000000000000000000000000000000000000000000000000000600052602260045260246000fd5b61457b80620001dd6000396000f3fe608060405234801561001057600080fd5b50600436106101425760003560e01c80638940fd9d116100b8578063bd2ff8c51161007c578063bd2ff8c5146103bf578063c87b56dd146103ef578063dc3804171461041f578063e985e9c51461044f578063ee22fa691461047f578063fc563658146104af57610142565b80638940fd9d1461030957806395d89b4114610339578063a22cb46514610357578063a8802def14610373578063b88d4fde146103a357610142565b806323b872dd1161010a57806323b872dd146102115780634036ab781461022d57806342842e0e1461025d5780636352211e1461027957806370a08231146102a957806382960f98146102d957610142565b806301ffc9a71461014757806306fdde0314610177578063081812fc14610195578063095ea7b3146101c5578063202e3924146101e1575b600080fd5b610161600480360381019061015c9190612bec565b6104df565b60405161016e919061329f565b60405180910390f35b61017f6105c1565b60405161018c919061330b565b60405180910390f35b6101af60048036038101906101aa9190612c8d565b610653565b6040516101bc9190613216565b60405180910390f35b6101df60048036038101906101da9190612bb0565b6106d8565b005b6101fb60048036038101906101f69190612c8d565b6107f0565b60405161020891906132ba565b60405180910390f35b61022b600480360381019061022691906129dc565b61091d565b005b61024760048036038101906102429190612c8d565b61097d565b60405161025491906132d5565b60405180910390f35b610277600480360381019061027291906129dc565b6109ef565b005b610293600480360381019061028e9190612c8d565b610a0f565b6040516102a09190613216565b60405180910390f35b6102c360048036038101906102be9190612977565b610ac1565b6040516102d0919061364d565b60405180910390f35b6102f360048036038101906102ee9190612ae2565b610b79565b604051610300919061364d565b60405180910390f35b610323600480360381019061031e9190612b49565b610c56565b604051610330919061364d565b60405180910390f35b610341610d0f565b60405161034e919061330b565b60405180910390f35b610371600480360381019061036c9190612aa6565b610da1565b005b61038d60048036038101906103889190612c8d565b610f22565b60405161039a919061330b565b60405180910390f35b6103bd60048036038101906103b89190612a2b565b611328565b005b6103d960048036038101906103d49190612cb6565b61138a565b6040516103e691906132f0565b60405180910390f35b61040960048036038101906104049190612c8d565b6114ab565b604051610416919061330b565b60405180910390f35b61043960048036038101906104349190612c3e565b6115fd565b60405161044691906132f0565b60405180910390f35b610469600480360381019061046491906129a0565b611839565b604051610476919061329f565b60405180910390f35b61049960048036038101906104949190612977565b6118cd565b6040516104a6919061327d565b60405180910390f35b6104c960048036038101906104c49190612c8d565b611a1c565b6040516104d691906132f0565b60405180910390f35b60007f80ac58cd000000000000000000000000000000000000000000000000000000007bffffffffffffffffffffffffffffffffffffffffffffffffffffffff1916827bffffffffffffffffffffffffffffffffffffffffffffffffffffffff191614806105aa57507f5b5e139f000000000000000000000000000000000000000000000000000000007bffffffffffffffffffffffffffffffffffffffffffffffffffffffff1916827bffffffffffffffffffffffffffffffffffffffffffffffffffffffff1916145b806105ba57506105b982611b48565b5b9050919050565b6060600080546105d090613b7c565b80601f01602080910402602001604051908101604052809291908181526020018280546105fc90613b7c565b80156106495780601f1061061e57610100808354040283529160200191610649565b820191906000526020600020905b81548152906001019060200180831161062c57829003601f168201915b5050505050905090565b600061065e82611bb2565b61069d576040517f08c379a00000000000000000000000000000000000000000000000000000000081526004016106949061354d565b60405180910390fd5b6004600083815260200190815260200160002060009054906101000a900473ffffffffffffffffffffffffffffffffffffffff169050919050565b60006106e382610a0f565b90508073ffffffffffffffffffffffffffffffffffffffff168373ffffffffffffffffffffffffffffffffffffffff161415610754576040517f08c379a000000000000000000000000000000000000000000000000000000000815260040161074b906135ed565b60405180910390fd5b8073ffffffffffffffffffffffffffffffffffffffff16610773611c1e565b73ffffffffffffffffffffffffffffffffffffffff1614806107a257506107a18161079c611c1e565b611839565b5b6107e1576040517f08c379a00000000000000000000000000000000000000000000000000000000081526004016107d89061348d565b60405180910390fd5b6107eb8383611c26565b505050565b60006107fb82611bb2565b61083a576040517f08c379a00000000000000000000000000000000000000000000000000000000081526004016108319061346d565b60405180910390fd5b60006001811115610874577f4e487b7100000000000000000000000000000000000000000000000000000000600052602160045260246000fd5b61087d8361097d565b60018111156108b5577f4e487b7100000000000000000000000000000000000000000000000000000000600052602160045260246000fd5b146108f5576040517f08c379a00000000000000000000000000000000000000000000000000000000081526004016108ec9061342d565b60405180910390fd5b6009600083815260200190815260200160002060009054906101000a900460ff169050919050565b61092e610928611c1e565b82611cdf565b61096d576040517f08c379a00000000000000000000000000000000000000000000000000000000081526004016109649061360d565b60405180910390fd5b610978838383611dbd565b505050565b600061098882611bb2565b6109c7576040517f08c379a00000000000000000000000000000000000000000000000000000000081526004016109be9061334d565b60405180910390fd5b6008600083815260200190815260200160002060009054906101000a900460ff169050919050565b610a0a83838360405180602001604052806000815250611328565b505050565b6000806002600084815260200190815260200160002060009054906101000a900473ffffffffffffffffffffffffffffffffffffffff169050600073ffffffffffffffffffffffffffffffffffffffff168173ffffffffffffffffffffffffffffffffffffffff161415610ab8576040517f08c379a0000000000000000000000000000000000000000000000000000000008152600401610aaf906134cd565b60405180910390fd5b80915050919050565b60008073ffffffffffffffffffffffffffffffffffffffff168273ffffffffffffffffffffffffffffffffffffffff161415610b32576040517f08c379a0000000000000000000000000000000000000000000000000000000008152600401610b29906134ad565b60405180910390fd5b600360008373ffffffffffffffffffffffffffffffffffffffff1673ffffffffffffffffffffffffffffffffffffffff168152602001908152602001600020549050919050565b600080610b868585612019565b905060006008600083815260200190815260200160002060006101000a81548160ff02191690836001811115610be5577f4e487b7100000000000000000000000000000000000000000000000000000000600052602160045260246000fd5b0217905550826009600083815260200190815260200160002060006101000a81548160ff02191690836003811115610c46577f4e487b7100000000000000000000000000000000000000000000000000000000600052602160045260246000fd5b0217905550809150509392505050565b600080610c638585612019565b905060016008600083815260200190815260200160002060006101000a81548160ff02191690836001811115610cc2577f4e487b7100000000000000000000000000000000000000000000000000000000600052602160045260246000fd5b021790555082600a600083815260200190815260200160002060006101000a81548167ffffffffffffffff021916908360070b67ffffffffffffffff160217905550809150509392505050565b606060018054610d1e90613b7c565b80601f0160208091040260200160405190810160405280929190818152602001828054610d4a90613b7c565b8015610d975780601f10610d6c57610100808354040283529160200191610d97565b820191906000526020600020905b815481529060010190602001808311610d7a57829003601f168201915b5050505050905090565b610da9611c1e565b73ffffffffffffffffffffffffffffffffffffffff168273ffffffffffffffffffffffffffffffffffffffff161415610e17576040517f08c379a0000000000000000000000000000000000000000000000000000000008152600401610e0e9061340d565b60405180910390fd5b8060056000610e24611c1e565b73ffffffffffffffffffffffffffffffffffffffff1673ffffffffffffffffffffffffffffffffffffffff16815260200190815260200160002060008473ffffffffffffffffffffffffffffffffffffffff1673ffffffffffffffffffffffffffffffffffffffff16815260200190815260200160002060006101000a81548160ff0219169083151502179055508173ffffffffffffffffffffffffffffffffffffffff16610ed1611c1e565b73ffffffffffffffffffffffffffffffffffffffff167f17307eab39ab6107e8899845ad3d59bd9653f200f220920489ca2b5937696c3183604051610f16919061329f565b60405180910390a35050565b6060610f2d82611bb2565b610f6c576040517f08c379a0000000000000000000000000000000000000000000000000000000008152600401610f639061356d565b60405180910390fd5b60006001811115610fa6577f4e487b7100000000000000000000000000000000000000000000000000000000600052602160045260246000fd5b610faf8361097d565b6001811115610fe7577f4e487b7100000000000000000000000000000000000000000000000000000000600052602160045260246000fd5b14611027576040517f08c379a000000000000000000000000000000000000000000000000000000000815260040161101e9061362d565b60405180910390fd5b6000611032836107f0565b90506000600381111561106e577f4e487b7100000000000000000000000000000000000000000000000000000000600052602160045260246000fd5b8160038111156110a7577f4e487b7100000000000000000000000000000000000000000000000000000000600052602160045260246000fd5b14156110eb576040518060400160405280600181526020017f2b00000000000000000000000000000000000000000000000000000000000000815250915050611323565b60016003811115611125577f4e487b7100000000000000000000000000000000000000000000000000000000600052602160045260246000fd5b81600381111561115e577f4e487b7100000000000000000000000000000000000000000000000000000000600052602160045260246000fd5b14156111a2576040518060400160405280600181526020017f2d00000000000000000000000000000000000000000000000000000000000000815250915050611323565b600260038111156111dc577f4e487b7100000000000000000000000000000000000000000000000000000000600052602160045260246000fd5b816003811115611215577f4e487b7100000000000000000000000000000000000000000000000000000000600052602160045260246000fd5b1415611259576040518060400160405280600181526020017f2a00000000000000000000000000000000000000000000000000000000000000815250915050611323565b600380811115611292577f4e487b7100000000000000000000000000000000000000000000000000000000600052602160045260246000fd5b8160038111156112cb577f4e487b7100000000000000000000000000000000000000000000000000000000600052602160045260246000fd5b141561130f576040518060400160405280600181526020017f2f00000000000000000000000000000000000000000000000000000000000000815250915050611323565b604051806020016040528060008152509150505b919050565b611339611333611c1e565b83611cdf565b611378576040517f08c379a000000000000000000000000000000000000000000000000000000000815260040161136f9061360d565b60405180910390fd5b61138484848484612095565b50505050565b600061139584611bb2565b6113d4576040517f08c379a00000000000000000000000000000000000000000000000000000000081526004016113cb906133cd565b60405180910390fd5b6000600181111561140e577f4e487b7100000000000000000000000000000000000000000000000000000000600052602160045260246000fd5b6114178561097d565b600181111561144f577f4e487b7100000000000000000000000000000000000000000000000000000000600052602160045260246000fd5b1461148f576040517f08c379a0000000000000000000000000000000000000000000000000000000008152600401611486906133ad565b60405180910390fd5b6114a261149b856107f0565b84846115fd565b90509392505050565b60606114b682611bb2565b6114f5576040517f08c379a00000000000000000000000000000000000000000000000000000000081526004016114ec9061352d565b60405180910390fd5b600060066000848152602001908152602001600020805461151590613b7c565b80601f016020809104026020016040519081016040528092919081815260200182805461154190613b7c565b801561158e5780601f106115635761010080835404028352916020019161158e565b820191906000526020600020905b81548152906001019060200180831161157157829003601f168201915b50505050509050600061159f6120f1565b90506000815114156115b55781925050506115f8565b6000825111156115ea5780826040516020016115d29291906131f2565b604051602081830303815290604052925050506115f8565b6115f384612108565b925050505b919050565b6000806003811115611638577f4e487b7100000000000000000000000000000000000000000000000000000000600052602160045260246000fd5b846003811115611671577f4e487b7100000000000000000000000000000000000000000000000000000000600052602160045260246000fd5b141561168a578183611683919061376b565b9050611832565b600160038111156116c4577f4e487b7100000000000000000000000000000000000000000000000000000000600052602160045260246000fd5b8460038111156116fd577f4e487b7100000000000000000000000000000000000000000000000000000000600052602160045260246000fd5b141561171657818361170f91906139bf565b9050611832565b60026003811115611750577f4e487b7100000000000000000000000000000000000000000000000000000000600052602160045260246000fd5b846003811115611789577f4e487b7100000000000000000000000000000000000000000000000000000000600052602160045260246000fd5b14156117a257818361179b91906138d8565b9050611832565b6003808111156117db577f4e487b7100000000000000000000000000000000000000000000000000000000600052602160045260246000fd5b846003811115611814577f4e487b7100000000000000000000000000000000000000000000000000000000600052602160045260246000fd5b141561182d578183611826919061383d565b9050611832565b600090505b9392505050565b6000600560008473ffffffffffffffffffffffffffffffffffffffff1673ffffffffffffffffffffffffffffffffffffffff16815260200190815260200160002060008373ffffffffffffffffffffffffffffffffffffffff1673ffffffffffffffffffffffffffffffffffffffff16815260200190815260200160002060009054906101000a900460ff16905092915050565b606060006118da83610ac1565b905060008167ffffffffffffffff81111561191e577f4e487b7100000000000000000000000000000000000000000000000000000000600052604160045260246000fd5b60405190808252806020026020018201604052801561194c5781602001602082028036833780820191505090505b5090506000805b83821015611a105761196481611bb2565b80156119a357508573ffffffffffffffffffffffffffffffffffffffff1661198b82610a0f565b73ffffffffffffffffffffffffffffffffffffffff16145b156119fd57808383815181106119e2577f4e487b7100000000000000000000000000000000000000000000000000000000600052603260045260246000fd5b60200260200101818152505081806119f990613bdf565b9250505b8080611a0890613bdf565b915050611953565b50819350505050919050565b6000611a2782611bb2565b611a66576040517f08c379a0000000000000000000000000000000000000000000000000000000008152600401611a5d906135cd565b60405180910390fd5b600180811115611a9f577f4e487b7100000000000000000000000000000000000000000000000000000000600052602160045260246000fd5b611aa88361097d565b6001811115611ae0577f4e487b7100000000000000000000000000000000000000000000000000000000600052602160045260246000fd5b14611b20576040517f08c379a0000000000000000000000000000000000000000000000000000000008152600401611b179061332d565b60405180910390fd5b600a600083815260200190815260200160002060009054906101000a900460070b9050919050565b60007f01ffc9a7000000000000000000000000000000000000000000000000000000007bffffffffffffffffffffffffffffffffffffffffffffffffffffffff1916827bffffffffffffffffffffffffffffffffffffffffffffffffffffffff1916149050919050565b60008073ffffffffffffffffffffffffffffffffffffffff166002600084815260200190815260200160002060009054906101000a900473ffffffffffffffffffffffffffffffffffffffff1673ffffffffffffffffffffffffffffffffffffffff1614159050919050565b600033905090565b816004600083815260200190815260200160002060006101000a81548173ffffffffffffffffffffffffffffffffffffffff021916908373ffffffffffffffffffffffffffffffffffffffff160217905550808273ffffffffffffffffffffffffffffffffffffffff16611c9983610a0f565b73ffffffffffffffffffffffffffffffffffffffff167f8c5be1e5ebec7d5bd14f71427d1e84f3dd0314c0f7b2291e5b200ac8c7c3b92560405160405180910390a45050565b6000611cea82611bb2565b611d29576040517f08c379a0000000000000000000000000000000000000000000000000000000008152600401611d209061344d565b60405180910390fd5b6000611d3483610a0f565b90508073ffffffffffffffffffffffffffffffffffffffff168473ffffffffffffffffffffffffffffffffffffffff161480611da357508373ffffffffffffffffffffffffffffffffffffffff16611d8b84610653565b73ffffffffffffffffffffffffffffffffffffffff16145b80611db45750611db38185611839565b5b91505092915050565b8273ffffffffffffffffffffffffffffffffffffffff16611ddd82610a0f565b73ffffffffffffffffffffffffffffffffffffffff1614611e33576040517f08c379a0000000000000000000000000000000000000000000000000000000008152600401611e2a9061358d565b60405180910390fd5b600073ffffffffffffffffffffffffffffffffffffffff168273ffffffffffffffffffffffffffffffffffffffff161415611ea3576040517f08c379a0000000000000000000000000000000000000000000000000000000008152600401611e9a906133ed565b60405180910390fd5b611eae8383836121af565b611eb9600082611c26565b6001600360008573ffffffffffffffffffffffffffffffffffffffff1673ffffffffffffffffffffffffffffffffffffffff1681526020019081526020016000206000828254611f099190613a3b565b925050819055506001600360008473ffffffffffffffffffffffffffffffffffffffff1673ffffffffffffffffffffffffffffffffffffffff1681526020019081526020016000206000828254611f6091906137e7565b92505081905550816002600083815260200190815260200160002060006101000a81548173ffffffffffffffffffffffffffffffffffffffff021916908373ffffffffffffffffffffffffffffffffffffffff160217905550808273ffffffffffffffffffffffffffffffffffffffff168473ffffffffffffffffffffffffffffffffffffffff167fddf252ad1be2c89b69c2b068fc378daa952ba7f163c4a11628f55a4df523b3ef60405160405180910390a4505050565b600061202560076121b4565b600061203160076121ca565b905061203d84826121d8565b61204781846123a6565b808473ffffffffffffffffffffffffffffffffffffffff167f30385c845b448a36257a6a1716e6ad2e1bc2cbe333cde1e69fe849ad6511adfe60405160405180910390a38091505092915050565b6120a0848484611dbd565b6120ac8484848461241a565b6120eb576040517f08c379a00000000000000000000000000000000000000000000000000000000081526004016120e29061336d565b60405180910390fd5b50505050565b606060405180602001604052806000815250905090565b606061211382611bb2565b612152576040517f08c379a0000000000000000000000000000000000000000000000000000000008152600401612149906135ad565b60405180910390fd5b600061215c6120f1565b9050600081511161217c57604051806020016040528060008152506121a7565b80612186846125b1565b6040516020016121979291906131f2565b6040516020818303038152906040525b915050919050565b505050565b6001816000016000828254019250508190555050565b600081600001549050919050565b600073ffffffffffffffffffffffffffffffffffffffff168273ffffffffffffffffffffffffffffffffffffffff161415612248576040517f08c379a000000000000000000000000000000000000000000000000000000000815260040161223f9061350d565b60405180910390fd5b61225181611bb2565b15612291576040517f08c379a00000000000000000000000000000000000000000000000000000000081526004016122889061338d565b60405180910390fd5b61229d600083836121af565b6001600360008473ffffffffffffffffffffffffffffffffffffffff1673ffffffffffffffffffffffffffffffffffffffff16815260200190815260200160002060008282546122ed91906137e7565b92505081905550816002600083815260200190815260200160002060006101000a81548173ffffffffffffffffffffffffffffffffffffffff021916908373ffffffffffffffffffffffffffffffffffffffff160217905550808273ffffffffffffffffffffffffffffffffffffffff16600073ffffffffffffffffffffffffffffffffffffffff167fddf252ad1be2c89b69c2b068fc378daa952ba7f163c4a11628f55a4df523b3ef60405160405180910390a45050565b6123af82611bb2565b6123ee576040517f08c379a00000000000000000000000000000000000000000000000000000000081526004016123e5906134ed565b60405180910390fd5b80600660008481526020019081526020016000209080519060200190612415929190612771565b505050565b600061243b8473ffffffffffffffffffffffffffffffffffffffff1661275e565b156125a4578373ffffffffffffffffffffffffffffffffffffffff1663150b7a02612464611c1e565b8786866040518563ffffffff1660e01b81526004016124869493929190613231565b602060405180830381600087803b1580156124a057600080fd5b505af19250505080156124d157506040513d601f19601f820116820180604052508101906124ce9190612c15565b60015b612554573d8060008114612501576040519150601f19603f3d011682016040523d82523d6000602084013e612506565b606091505b5060008151141561254c576040517f08c379a00000000000000000000000000000000000000000000000000000000081526004016125439061336d565b60405180910390fd5b805181602001fd5b63150b7a0260e01b7bffffffffffffffffffffffffffffffffffffffffffffffffffffffff1916817bffffffffffffffffffffffffffffffffffffffffffffffffffffffff1916149150506125a9565b600190505b949350505050565b606060008214156125f9576040518060400160405280600181526020017f30000000000000000000000000000000000000000000000000000000000000008152509050612759565b600082905060005b6000821461262b57808061261490613bdf565b915050600a8261262491906138a7565b9150612601565b60008167ffffffffffffffff81111561266d577f4e487b7100000000000000000000000000000000000000000000000000000000600052604160045260246000fd5b6040519080825280601f01601f19166020018201604052801561269f5781602001600182028036833780820191505090505b5090505b60008514612752576001826126b89190613a3b565b9150600a856126c79190613c28565b60306126d391906137e7565b60f81b81838151811061270f577f4e487b7100000000000000000000000000000000000000000000000000000000600052603260045260246000fd5b60200101907effffffffffffffffffffffffffffffffffffffffffffffffffffffffffffff1916908160001a905350600a8561274b91906138a7565b94506126a3565b8093505050505b919050565b600080823b905060008111915050919050565b82805461277d90613b7c565b90600052602060002090601f01602090048101928261279f57600085556127e6565b82601f106127b857805160ff19168380011785556127e6565b828001600101855582156127e6579182015b828111156127e55782518255916020019190600101906127ca565b5b5090506127f391906127f7565b5090565b5b808211156128105760008160009055506001016127f8565b5090565b60006128276128228461368d565b613668565b90508281526020810184848401111561283f57600080fd5b61284a848285613b3a565b509392505050565b6000612865612860846136be565b613668565b90508281526020810184848401111561287d57600080fd5b612888848285613b3a565b509392505050565b60008135905061289f816144c2565b92915050565b6000813590506128b4816144d9565b92915050565b6000813590506128c9816144f0565b92915050565b6000815190506128de816144f0565b92915050565b600082601f8301126128f557600080fd5b8135612905848260208601612814565b91505092915050565b60008135905061291d81614507565b92915050565b60008135905061293281614517565b92915050565b600082601f83011261294957600080fd5b8135612959848260208601612852565b91505092915050565b6000813590506129718161452e565b92915050565b60006020828403121561298957600080fd5b600061299784828501612890565b91505092915050565b600080604083850312156129b357600080fd5b60006129c185828601612890565b92505060206129d285828601612890565b9150509250929050565b6000806000606084860312156129f157600080fd5b60006129ff86828701612890565b9350506020612a1086828701612890565b9250506040612a2186828701612962565b9150509250925092565b60008060008060808587031215612a4157600080fd5b6000612a4f87828801612890565b9450506020612a6087828801612890565b9350506040612a7187828801612962565b925050606085013567ffffffffffffffff811115612a8e57600080fd5b612a9a878288016128e4565b91505092959194509250565b60008060408385031215612ab957600080fd5b6000612ac785828601612890565b9250506020612ad8858286016128a5565b9150509250929050565b600080600060608486031215612af757600080fd5b6000612b0586828701612890565b935050602084013567ffffffffffffffff811115612b2257600080fd5b612b2e86828701612938565b9250506040612b3f8682870161290e565b9150509250925092565b600080600060608486031215612b5e57600080fd5b6000612b6c86828701612890565b935050602084013567ffffffffffffffff811115612b8957600080fd5b612b9586828701612938565b9250506040612ba686828701612923565b9150509250925092565b60008060408385031215612bc357600080fd5b6000612bd185828601612890565b9250506020612be285828601612962565b9150509250929050565b600060208284031215612bfe57600080fd5b6000612c0c848285016128ba565b91505092915050565b600060208284031215612c2757600080fd5b6000612c35848285016128cf565b91505092915050565b600080600060608486031215612c5357600080fd5b6000612c618682870161290e565b9350506020612c7286828701612923565b9250506040612c8386828701612923565b9150509250925092565b600060208284031215612c9f57600080fd5b6000612cad84828501612962565b91505092915050565b600080600060608486031215612ccb57600080fd5b6000612cd986828701612962565b9350506020612cea86828701612923565b9250506040612cfb86828701612923565b9150509250925092565b6000612d1183836131d4565b60208301905092915050565b612d2681613a6f565b82525050565b6000612d37826136ff565b612d41818561372d565b9350612d4c836136ef565b8060005b83811015612d7d578151612d648882612d05565b9750612d6f83613720565b925050600181019050612d50565b5085935050505092915050565b612d9381613a81565b82525050565b6000612da48261370a565b612dae818561373e565b9350612dbe818560208601613b49565b612dc781613d44565b840191505092915050565b612ddb81613b16565b82525050565b612dea81613b28565b82525050565b612df981613adf565b82525050565b6000612e0a82613715565b612e14818561374f565b9350612e24818560208601613b49565b612e2d81613d44565b840191505092915050565b6000612e4382613715565b612e4d8185613760565b9350612e5d818560208601613b49565b80840191505092915050565b6000612e76602a8361374f565b9150612e8182613d55565b604082019050919050565b6000612e9960288361374f565b9150612ea482613da4565b604082019050919050565b6000612ebc60328361374f565b9150612ec782613df3565b604082019050919050565b6000612edf601c8361374f565b9150612eea82613e42565b602082019050919050565b6000612f0260278361374f565b9150612f0d82613e6b565b604082019050919050565b6000612f25602c8361374f565b9150612f3082613eba565b604082019050919050565b6000612f4860248361374f565b9150612f5382613f09565b604082019050919050565b6000612f6b60198361374f565b9150612f7682613f58565b602082019050919050565b6000612f8e602a8361374f565b9150612f9982613f81565b604082019050919050565b6000612fb1602c8361374f565b9150612fbc82613fd0565b604082019050919050565b6000612fd460268361374f565b9150612fdf8261401f565b604082019050919050565b6000612ff760388361374f565b91506130028261406e565b604082019050919050565b600061301a602a8361374f565b9150613025826140bd565b604082019050919050565b600061303d60298361374f565b91506130488261410c565b604082019050919050565b6000613060602e8361374f565b915061306b8261415b565b604082019050919050565b600061308360208361374f565b915061308e826141aa565b602082019050919050565b60006130a660318361374f565b91506130b1826141d3565b604082019050919050565b60006130c9602c8361374f565b91506130d482614222565b604082019050919050565b60006130ec60288361374f565b91506130f782614271565b604082019050919050565b600061310f60298361374f565b915061311a826142c0565b604082019050919050565b6000613132602f8361374f565b915061313d8261430f565b604082019050919050565b6000613155602a8361374f565b91506131608261435e565b604082019050919050565b600061317860218361374f565b9150613183826143ad565b604082019050919050565b600061319b60318361374f565b91506131a6826143fc565b604082019050919050565b60006131be60258361374f565b91506131c98261444b565b604082019050919050565b6131dd81613b0c565b82525050565b6131ec81613b0c565b82525050565b60006131fe8285612e38565b915061320a8284612e38565b91508190509392505050565b600060208201905061322b6000830184612d1d565b92915050565b60006080820190506132466000830187612d1d565b6132536020830186612d1d565b61326060408301856131e3565b81810360608301526132728184612d99565b905095945050505050565b600060208201905081810360008301526132978184612d2c565b905092915050565b60006020820190506132b46000830184612d8a565b92915050565b60006020820190506132cf6000830184612dd2565b92915050565b60006020820190506132ea6000830184612de1565b92915050565b60006020820190506133056000830184612df0565b92915050565b600060208201905081810360008301526133258184612dff565b905092915050565b6000602082019050818103600083015261334681612e69565b9050919050565b6000602082019050818103600083015261336681612e8c565b9050919050565b6000602082019050818103600083015261338681612eaf565b9050919050565b600060208201905081810360008301526133a681612ed2565b9050919050565b600060208201905081810360008301526133c681612ef5565b9050919050565b600060208201905081810360008301526133e681612f18565b9050919050565b6000602082019050818103600083015261340681612f3b565b9050919050565b6000602082019050818103600083015261342681612f5e565b9050919050565b6000602082019050818103600083015261344681612f81565b9050919050565b6000602082019050818103600083015261346681612fa4565b9050919050565b6000602082019050818103600083015261348681612fc7565b9050919050565b600060208201905081810360008301526134a681612fea565b9050919050565b600060208201905081810360008301526134c68161300d565b9050919050565b600060208201905081810360008301526134e681613030565b9050919050565b6000602082019050818103600083015261350681613053565b9050919050565b6000602082019050818103600083015261352681613076565b9050919050565b6000602082019050818103600083015261354681613099565b9050919050565b60006020820190508181036000830152613566816130bc565b9050919050565b60006020820190508181036000830152613586816130df565b9050919050565b600060208201905081810360008301526135a681613102565b9050919050565b600060208201905081810360008301526135c681613125565b9050919050565b600060208201905081810360008301526135e681613148565b9050919050565b600060208201905081810360008301526136068161316b565b9050919050565b600060208201905081810360008301526136268161318e565b9050919050565b60006020820190508181036000830152613646816131b1565b9050919050565b600060208201905061366260008301846131e3565b92915050565b6000613672613683565b905061367e8282613bae565b919050565b6000604051905090565b600067ffffffffffffffff8211156136a8576136a7613d15565b5b6136b182613d44565b9050602081019050919050565b600067ffffffffffffffff8211156136d9576136d8613d15565b5b6136e282613d44565b9050602081019050919050565b6000819050602082019050919050565b600081519050919050565b600081519050919050565b600081519050919050565b6000602082019050919050565b600082825260208201905092915050565b600082825260208201905092915050565b600082825260208201905092915050565b600081905092915050565b600061377682613adf565b915061378183613adf565b925081677fffffffffffffff038313600083121516156137a4576137a3613c59565b5b817fffffffffffffffffffffffffffffffffffffffffffffffff80000000000000000383126000831216156137dc576137db613c59565b5b828201905092915050565b60006137f282613b0c565b91506137fd83613b0c565b9250827fffffffffffffffffffffffffffffffffffffffffffffffffffffffffffffffff0382111561383257613831613c59565b5b828201905092915050565b600061384882613adf565b915061385383613adf565b92508261386357613862613c88565b5b600160000383147fffffffffffffffffffffffffffffffffffffffffffffffff80000000000000008314161561389c5761389b613c59565b5b828205905092915050565b60006138b282613b0c565b91506138bd83613b0c565b9250826138cd576138cc613c88565b5b828204905092915050565b60006138e382613adf565b91506138ee83613adf565b925082677fffffffffffffff048211600084136000841316161561391557613914613c59565b5b817fffffffffffffffffffffffffffffffffffffffffffffffff8000000000000000058312600084126000841316161561395257613951613c59565b5b827fffffffffffffffffffffffffffffffffffffffffffffffff8000000000000000058212600084136000841216161561398f5761398e613c59565b5b82677fffffffffffffff05821260008412600084121616156139b4576139b3613c59565b5b828202905092915050565b60006139ca82613adf565b91506139d583613adf565b9250827fffffffffffffffffffffffffffffffffffffffffffffffff800000000000000001821260008412151615613a1057613a0f613c59565b5b82677fffffffffffffff018213600084121615613a3057613a2f613c59565b5b828203905092915050565b6000613a4682613b0c565b9150613a5183613b0c565b925082821015613a6457613a63613c59565b5b828203905092915050565b6000613a7a82613aec565b9050919050565b60008115159050919050565b60007fffffffff0000000000000000000000000000000000000000000000000000000082169050919050565b6000819050613ac78261449a565b919050565b6000819050613ada826144ae565b919050565b60008160070b9050919050565b600073ffffffffffffffffffffffffffffffffffffffff82169050919050565b6000819050919050565b6000613b2182613ab9565b9050919050565b6000613b3382613acc565b9050919050565b82818337600083830152505050565b60005b83811015613b67578082015181840152602081019050613b4c565b83811115613b76576000848401525b50505050565b60006002820490506001821680613b9457607f821691505b60208210811415613ba857613ba7613ce6565b5b50919050565b613bb782613d44565b810181811067ffffffffffffffff82111715613bd657613bd5613d15565b5b80604052505050565b6000613bea82613b0c565b91507fffffffffffffffffffffffffffffffffffffffffffffffffffffffffffffffff821415613c1d57613c1c613c59565b5b600182019050919050565b6000613c3382613b0c565b9150613c3e83613b0c565b925082613c4e57613c4d613c88565b5b828206905092915050565b7f4e487b7100000000000000000000000000000000000000000000000000000000600052601160045260246000fd5b7f4e487b7100000000000000000000000000000000000000000000000000000000600052601260045260246000fd5b7f4e487b7100000000000000000000000000000000000000000000000000000000600052602160045260246000fd5b7f4e487b7100000000000000000000000000000000000000000000000000000000600052602260045260246000fd5b7f4e487b7100000000000000000000000000000000000000000000000000000000600052604160045260246000fd5b6000601f19601f8301169050919050565b7f546f6b656e3a2067657474696e67206e756d6265722066726f6d204f7065726160008201527f74696f6e20746f6b656e00000000000000000000000000000000000000000000602082015250565b7f546f6b656e3a2067657474696e672074797065206f66206e6f6e65786973746560008201527f6e7420746f6b656e000000000000000000000000000000000000000000000000602082015250565b7f4552433732313a207472616e7366657220746f206e6f6e20455243373231526560008201527f63656976657220696d706c656d656e7465720000000000000000000000000000602082015250565b7f4552433732313a20746f6b656e20616c7265616479206d696e74656400000000600082015250565b7f546f6b656e3a2063616c63756c6174696e67207573696e672061204e756d626560008201527f7220746f6b656e00000000000000000000000000000000000000000000000000602082015250565b7f546f6b656e3a2063616c63756c6174696e67207573696e672061206e6f6e657860008201527f697374656e7420746f6b656e0000000000000000000000000000000000000000602082015250565b7f4552433732313a207472616e7366657220746f20746865207a65726f2061646460008201527f7265737300000000000000000000000000000000000000000000000000000000602082015250565b7f4552433732313a20617070726f766520746f2063616c6c657200000000000000600082015250565b7f546f6b656e3a2067657474696e67206f7065726174696f6e2066726f6d204e7560008201527f6d62657220746f6b656e00000000000000000000000000000000000000000000602082015250565b7f4552433732313a206f70657261746f7220717565727920666f72206e6f6e657860008201527f697374656e7420746f6b656e0000000000000000000000000000000000000000602082015250565b7f546f6b656e3a2067657474696e67206f70206f66206e6f6e6578697374656e7460008201527f20746f6b656e0000000000000000000000000000000000000000000000000000602082015250565b7f4552433732313a20617070726f76652063616c6c6572206973206e6f74206f7760008201527f6e6572206e6f7220617070726f76656420666f7220616c6c0000000000000000602082015250565b7f4552433732313a2062616c616e636520717565727920666f7220746865207a6560008201527f726f206164647265737300000000000000000000000000000000000000000000602082015250565b7f4552433732313a206f776e657220717565727920666f72206e6f6e657869737460008201527f656e7420746f6b656e0000000000000000000000000000000000000000000000602082015250565b7f45524337323155524953746f726167653a2055524920736574206f66206e6f6e60008201527f6578697374656e7420746f6b656e000000000000000000000000000000000000602082015250565b7f4552433732313a206d696e7420746f20746865207a65726f2061646472657373600082015250565b7f45524337323155524953746f726167653a2055524920717565727920666f722060008201527f6e6f6e6578697374656e7420746f6b656e000000000000000000000000000000602082015250565b7f4552433732313a20617070726f76656420717565727920666f72206e6f6e657860008201527f697374656e7420746f6b656e0000000000000000000000000000000000000000602082015250565b7f546f6b656e3a2067657474696e672074657874206f66206e6f6e65786973746560008201527f6e7420746f6b656e000000000000000000000000000000000000000000000000602082015250565b7f4552433732313a207472616e73666572206f6620746f6b656e2074686174206960008201527f73206e6f74206f776e0000000000000000000000000000000000000000000000602082015250565b7f4552433732314d657461646174613a2055524920717565727920666f72206e6f60008201527f6e6578697374656e7420746f6b656e0000000000000000000000000000000000602082015250565b7f546f6b656e3a2067657474696e67206e756d626572206f66206e6f6e6578697360008201527f74656e7420746f6b656e00000000000000000000000000000000000000000000602082015250565b7f4552433732313a20617070726f76616c20746f2063757272656e74206f776e6560008201527f7200000000000000000000000000000000000000000000000000000000000000602082015250565b7f4552433732313a207472616e736665722063616c6c6572206973206e6f74206f60008201527f776e6572206e6f7220617070726f766564000000000000000000000000000000602082015250565b7f546f6b656e3a2067657474696e6720746578742066726f6d204e756d6265722060008201527f746f6b656e000000000000000000000000000000000000000000000000000000602082015250565b600481106144ab576144aa613cb7565b5b50565b600281106144bf576144be613cb7565b5b50565b6144cb81613a6f565b81146144d657600080fd5b50565b6144e281613a81565b81146144ed57600080fd5b50565b6144f981613a8d565b811461450457600080fd5b50565b6004811061451457600080fd5b50565b61452081613adf565b811461452b57600080fd5b50565b61453781613b0c565b811461454257600080fd5b5056fea264697066735822122059468f238266f21fbba1773331f41ca431a24619308da79fe6e261e9488af6cc64736f6c63430008010033",
  "immutableReferences": {},
  "source": "// SPDX-License-Identifier: MIT\r\npragma solidity ^0.8.0;\r\n\r\nimport \"@openzeppelin/contracts/token/ERC721/extensions/ERC721URIStorage.sol\";\r\nimport \"@openzeppelin/contracts/utils/Counters.sol\";\r\n\r\ncontract Token is ERC721URIStorage {\r\n    event Minted(address indexed addr, uint256 indexed tokenId);\r\n\r\n    using Counters for Counters.Counter;\r\n    Counters.Counter private _tokenIds;\r\n\r\n    enum Type {Operation, Number}\r\n    mapping (uint256 => Type) private _types;\r\n    \r\n    enum Operation { Add, Sub, Mul, Div }\r\n    mapping (uint256 => Operation) private _operations;\r\n    \r\n    mapping (uint256 => int64) private _numbers;\r\n\r\n    constructor() ERC721(\"ArithmeToken\", \"ARI\") {}\r\n\r\n    function _mint(address addr, string memory uri) internal returns (uint256)\r\n    {\r\n        _tokenIds.increment();\r\n\r\n        uint256 newTokenId = _tokenIds.current();\r\n        super._mint(addr, newTokenId);\r\n        _setTokenURI(newTokenId, uri);\r\n\r\n        emit Minted(addr, newTokenId);\r\n\r\n        return newTokenId;\r\n    }\r\n\r\n    function getTokensInAddress(address addr) public view returns (uint256[] memory) {\r\n        uint256 balance = balanceOf(addr);\r\n        uint256[] memory tokenIds = new uint256[](balance);\r\n        uint256 found = 0;\r\n        \r\n        for (uint256 i=0; found < balance; i++) {\r\n            if (_exists(i) && ownerOf(i) == addr) {\r\n                tokenIds[found] = i;\r\n                found++;\r\n            }\r\n        }\r\n\r\n        return tokenIds;\r\n    }\r\n\r\n    function getType(uint256 tokenId) public view returns (Type) {\r\n        require(_exists(tokenId), \"Token: getting type of nonexistent token\");\r\n        return _types[tokenId];\r\n    }\r\n\r\n    function getNumber(uint256 tokenId) public view returns (int64) {\r\n        require(_exists(tokenId), \"Token: getting number of nonexistent token\");\r\n        require(getType(tokenId) == Type.Number, \"Token: getting number from Operation token\");\r\n        return _numbers[tokenId];\r\n    }\r\n\r\n    function getOperation(uint256 tokenId) public view returns (Operation) {\r\n        require(_exists(tokenId), \"Token: getting op of nonexistent token\");\r\n        require(getType(tokenId) == Type.Operation, \"Token: getting operation from Number token\");\r\n        return _operations[tokenId];\r\n    }\r\n\r\n    function getOperationText(uint256 tokenId) public view returns (string memory) {\r\n        require(_exists(tokenId), \"Token: getting text of nonexistent token\");\r\n        require(getType(tokenId) == Type.Operation, \"Token: getting text from Number token\");\r\n        \r\n        Operation op = getOperation(tokenId);\r\n        if (op == Operation.Add) {\r\n            return \"+\";\r\n        } else if (op == Operation.Sub) {\r\n            return \"-\";\r\n        } else if (op == Operation.Mul) {\r\n            return \"*\";\r\n        } else if (op == Operation.Div) {\r\n            return \"/\";\r\n        }\r\n\r\n        return \"\";\r\n    }\r\n\r\n    function runOperation(Operation op, int64 v1, int64 v2) public pure returns (int64) {\r\n        if (op == Operation.Add) {\r\n            return v1 + v2;\r\n        } else if (op == Operation.Sub) {\r\n            return v1 - v2;\r\n        } else if (op == Operation.Mul) {\r\n            return v1 * v2;\r\n        } else if (op == Operation.Div) {\r\n            return v1 / v2;\r\n        }\r\n\r\n        return 0;\r\n    }\r\n\r\n    function runOperation(uint256 tokenId, int64 v1, int64 v2) public view returns (int64) {\r\n        require(_exists(tokenId), \"Token: calculating using a nonexistent token\");\r\n        require(getType(tokenId) == Type.Operation, \"Token: calculating using a Number token\");\r\n\r\n        return runOperation(getOperation(tokenId), v1, v2);\r\n    }\r\n\r\n    // TODO Permissions?\r\n    function mintNumber(address acct, string memory uri, int64 number) public returns (uint256)\r\n    {\r\n        uint256 newTokenId = _mint(acct, uri);\r\n        _types[newTokenId] = Type.Number;\r\n        _numbers[newTokenId] = number;\r\n\r\n        return newTokenId;\r\n    }\r\n\r\n    // TODO Permissions?\r\n    function mintOperation(address acct, string memory uri, Operation operation) public returns (uint256)\r\n    {\r\n        uint256 newTokenId = _mint(acct, uri);\r\n        _types[newTokenId] = Type.Operation;\r\n        _operations[newTokenId] = operation;\r\n\r\n        return newTokenId;\r\n    }\r\n\r\n\r\n}",
  "sourcePath": "D:/Blockchain/Ethereum/Projects/arithmetoken/src/contracts/Token.sol",
  "compiler": {
    "name": "solc",
    "version": "0.8.1+commit.df193b15.Emscripten.clang"
  },
  "schemaVersion": "3.4.1",
  "updatedAt": "2021-06-08T05:54:14.939Z",
  "networkType": "ethereum",
  "devdoc": {
    "kind": "dev",
    "methods": {
      "approve(address,uint256)": {
        "details": "See {IERC721-approve}."
      },
      "balanceOf(address)": {
        "details": "See {IERC721-balanceOf}."
      },
      "getApproved(uint256)": {
        "details": "See {IERC721-getApproved}."
      },
      "isApprovedForAll(address,address)": {
        "details": "See {IERC721-isApprovedForAll}."
      },
      "name()": {
        "details": "See {IERC721Metadata-name}."
      },
      "ownerOf(uint256)": {
        "details": "See {IERC721-ownerOf}."
      },
      "safeTransferFrom(address,address,uint256)": {
        "details": "See {IERC721-safeTransferFrom}."
      },
      "safeTransferFrom(address,address,uint256,bytes)": {
        "details": "See {IERC721-safeTransferFrom}."
      },
      "setApprovalForAll(address,bool)": {
        "details": "See {IERC721-setApprovalForAll}."
      },
      "supportsInterface(bytes4)": {
        "details": "See {IERC165-supportsInterface}."
      },
      "symbol()": {
        "details": "See {IERC721Metadata-symbol}."
      },
      "tokenURI(uint256)": {
        "details": "See {IERC721Metadata-tokenURI}."
      },
      "transferFrom(address,address,uint256)": {
        "details": "See {IERC721-transferFrom}."
      }
    },
    "version": 1
  },
  "userdoc": {
    "kind": "user",
    "methods": {},
    "version": 1
  }
}