{
  "contractName": "Token",
  "abi": [
    {
      "inputs": [],
      "stateMutability": "nonpayable",
      "type": "constructor"
    },
    {
      "anonymous": false,
      "inputs": [
        {
          "indexed": true,
          "internalType": "address",
          "name": "owner",
          "type": "address"
        },
        {
          "indexed": true,
          "internalType": "address",
          "name": "approved",
          "type": "address"
        },
        {
          "indexed": true,
          "internalType": "uint256",
          "name": "tokenId",
          "type": "uint256"
        }
      ],
      "name": "Approval",
      "type": "event"
    },
    {
      "anonymous": false,
      "inputs": [
        {
          "indexed": true,
          "internalType": "address",
          "name": "owner",
          "type": "address"
        },
        {
          "indexed": true,
          "internalType": "address",
          "name": "operator",
          "type": "address"
        },
        {
          "indexed": false,
          "internalType": "bool",
          "name": "approved",
          "type": "bool"
        }
      ],
      "name": "ApprovalForAll",
      "type": "event"
    },
    {
      "anonymous": false,
      "inputs": [
        {
          "indexed": true,
          "internalType": "address",
          "name": "addr",
          "type": "address"
        },
        {
          "indexed": true,
          "internalType": "uint256",
          "name": "tokenId",
          "type": "uint256"
        }
      ],
      "name": "Minted",
      "type": "event"
    },
    {
      "anonymous": false,
      "inputs": [
        {
          "indexed": true,
          "internalType": "address",
          "name": "from",
          "type": "address"
        },
        {
          "indexed": true,
          "internalType": "address",
          "name": "to",
          "type": "address"
        },
        {
          "indexed": true,
          "internalType": "uint256",
          "name": "tokenId",
          "type": "uint256"
        }
      ],
      "name": "Transfer",
      "type": "event"
    },
    {
      "anonymous": false,
      "inputs": [
        {
          "indexed": false,
          "internalType": "address",
          "name": "minter",
          "type": "address"
        },
        {
          "indexed": false,
          "internalType": "address",
          "name": "sender",
          "type": "address"
        }
      ],
      "name": "XXX",
      "type": "event"
    },
    {
      "inputs": [],
      "name": "_initialMax",
      "outputs": [
        {
          "internalType": "uint8",
          "name": "",
          "type": "uint8"
        }
      ],
      "stateMutability": "view",
      "type": "function"
    },
    {
      "inputs": [
        {
          "internalType": "address",
          "name": "to",
          "type": "address"
        },
        {
          "internalType": "uint256",
          "name": "tokenId",
          "type": "uint256"
        }
      ],
      "name": "approve",
      "outputs": [],
      "stateMutability": "nonpayable",
      "type": "function"
    },
    {
      "inputs": [
        {
          "internalType": "address",
          "name": "owner",
          "type": "address"
        }
      ],
      "name": "balanceOf",
      "outputs": [
        {
          "internalType": "uint256",
          "name": "",
          "type": "uint256"
        }
      ],
      "stateMutability": "view",
      "type": "function"
    },
    {
      "inputs": [
        {
          "internalType": "uint256",
          "name": "tokenId",
          "type": "uint256"
        }
      ],
      "name": "getApproved",
      "outputs": [
        {
          "internalType": "address",
          "name": "",
          "type": "address"
        }
      ],
      "stateMutability": "view",
      "type": "function"
    },
    {
      "inputs": [
        {
          "internalType": "address",
          "name": "owner",
          "type": "address"
        },
        {
          "internalType": "address",
          "name": "operator",
          "type": "address"
        }
      ],
      "name": "isApprovedForAll",
      "outputs": [
        {
          "internalType": "bool",
          "name": "",
          "type": "bool"
        }
      ],
      "stateMutability": "view",
      "type": "function"
    },
    {
      "inputs": [],
      "name": "name",
      "outputs": [
        {
          "internalType": "string",
          "name": "",
          "type": "string"
        }
      ],
      "stateMutability": "view",
      "type": "function"
    },
    {
      "inputs": [
        {
          "internalType": "uint256",
          "name": "tokenId",
          "type": "uint256"
        }
      ],
      "name": "ownerOf",
      "outputs": [
        {
          "internalType": "address",
          "name": "",
          "type": "address"
        }
      ],
      "stateMutability": "view",
      "type": "function"
    },
    {
      "inputs": [
        {
          "internalType": "address",
          "name": "from",
          "type": "address"
        },
        {
          "internalType": "address",
          "name": "to",
          "type": "address"
        },
        {
          "internalType": "uint256",
          "name": "tokenId",
          "type": "uint256"
        }
      ],
      "name": "safeTransferFrom",
      "outputs": [],
      "stateMutability": "nonpayable",
      "type": "function"
    },
    {
      "inputs": [
        {
          "internalType": "address",
          "name": "from",
          "type": "address"
        },
        {
          "internalType": "address",
          "name": "to",
          "type": "address"
        },
        {
          "internalType": "uint256",
          "name": "tokenId",
          "type": "uint256"
        },
        {
          "internalType": "bytes",
          "name": "_data",
          "type": "bytes"
        }
      ],
      "name": "safeTransferFrom",
      "outputs": [],
      "stateMutability": "nonpayable",
      "type": "function"
    },
    {
      "inputs": [
        {
          "internalType": "address",
          "name": "operator",
          "type": "address"
        },
        {
          "internalType": "bool",
          "name": "approved",
          "type": "bool"
        }
      ],
      "name": "setApprovalForAll",
      "outputs": [],
      "stateMutability": "nonpayable",
      "type": "function"
    },
    {
      "inputs": [
        {
          "internalType": "bytes4",
          "name": "interfaceId",
          "type": "bytes4"
        }
      ],
      "name": "supportsInterface",
      "outputs": [
        {
          "internalType": "bool",
          "name": "",
          "type": "bool"
        }
      ],
      "stateMutability": "view",
      "type": "function"
    },
    {
      "inputs": [],
      "name": "symbol",
      "outputs": [
        {
          "internalType": "string",
          "name": "",
          "type": "string"
        }
      ],
      "stateMutability": "view",
      "type": "function"
    },
    {
      "inputs": [
        {
          "internalType": "uint256",
          "name": "tokenId",
          "type": "uint256"
        }
      ],
      "name": "tokenURI",
      "outputs": [
        {
          "internalType": "string",
          "name": "",
          "type": "string"
        }
      ],
      "stateMutability": "view",
      "type": "function"
    },
    {
      "inputs": [
        {
          "internalType": "address",
          "name": "from",
          "type": "address"
        },
        {
          "internalType": "address",
          "name": "to",
          "type": "address"
        },
        {
          "internalType": "uint256",
          "name": "tokenId",
          "type": "uint256"
        }
      ],
      "name": "transferFrom",
      "outputs": [],
      "stateMutability": "nonpayable",
      "type": "function"
    },
    {
      "inputs": [],
      "name": "getMinter",
      "outputs": [
        {
          "internalType": "address",
          "name": "",
          "type": "address"
        }
      ],
      "stateMutability": "view",
      "type": "function"
    },
    {
      "inputs": [
        {
          "internalType": "address",
          "name": "minter",
          "type": "address"
        }
      ],
      "name": "setMinter",
      "outputs": [
        {
          "internalType": "address",
          "name": "",
          "type": "address"
        }
      ],
      "stateMutability": "nonpayable",
      "type": "function"
    },
    {
      "inputs": [
        {
          "internalType": "uint256",
          "name": "tokenId",
          "type": "uint256"
        }
      ],
      "name": "getTokenInfo",
      "outputs": [
        {
          "components": [
            {
              "internalType": "uint256",
              "name": "id",
              "type": "uint256"
            },
            {
              "internalType": "enum Token.Operation",
              "name": "operation",
              "type": "uint8"
            },
            {
              "internalType": "int64",
              "name": "number",
              "type": "int64"
            },
            {
              "internalType": "string",
              "name": "uri",
              "type": "string"
            }
          ],
          "internalType": "struct Token.TokenInfo",
          "name": "",
          "type": "tuple"
        }
      ],
      "stateMutability": "view",
      "type": "function"
    },
    {
      "inputs": [
        {
          "internalType": "address",
          "name": "addr",
          "type": "address"
        }
      ],
      "name": "getTokenInfos",
      "outputs": [
        {
          "components": [
            {
              "internalType": "uint256",
              "name": "id",
              "type": "uint256"
            },
            {
              "internalType": "enum Token.Operation",
              "name": "operation",
              "type": "uint8"
            },
            {
              "internalType": "int64",
              "name": "number",
              "type": "int64"
            },
            {
              "internalType": "string",
              "name": "uri",
              "type": "string"
            }
          ],
          "internalType": "struct Token.TokenInfo[]",
          "name": "",
          "type": "tuple[]"
        }
      ],
      "stateMutability": "view",
      "type": "function"
    },
    {
      "inputs": [
        {
          "internalType": "uint256",
          "name": "tokenId",
          "type": "uint256"
        }
      ],
      "name": "getType",
      "outputs": [
        {
          "internalType": "enum Token.Type",
          "name": "",
          "type": "uint8"
        }
      ],
      "stateMutability": "view",
      "type": "function"
    },
    {
      "inputs": [
        {
          "internalType": "uint256",
          "name": "tokenId",
          "type": "uint256"
        }
      ],
      "name": "getNumber",
      "outputs": [
        {
          "internalType": "int64",
          "name": "",
          "type": "int64"
        }
      ],
      "stateMutability": "view",
      "type": "function"
    },
    {
      "inputs": [
        {
          "internalType": "uint256",
          "name": "tokenId",
          "type": "uint256"
        }
      ],
      "name": "getOperation",
      "outputs": [
        {
          "internalType": "enum Token.Operation",
          "name": "",
          "type": "uint8"
        }
      ],
      "stateMutability": "view",
      "type": "function"
    },
    {
      "inputs": [
        {
          "internalType": "uint256",
          "name": "tokenId",
          "type": "uint256"
        }
      ],
      "name": "getOperationText",
      "outputs": [
        {
          "internalType": "string",
          "name": "",
          "type": "string"
        }
      ],
      "stateMutability": "view",
      "type": "function"
    },
    {
      "inputs": [
        {
          "internalType": "enum Token.Operation",
          "name": "op",
          "type": "uint8"
        },
        {
          "internalType": "int64",
          "name": "v1",
          "type": "int64"
        },
        {
          "internalType": "int64",
          "name": "v2",
          "type": "int64"
        }
      ],
      "name": "runOperation",
      "outputs": [
        {
          "internalType": "int64",
          "name": "",
          "type": "int64"
        }
      ],
      "stateMutability": "pure",
      "type": "function"
    },
    {
      "inputs": [
        {
          "internalType": "address",
          "name": "acct",
          "type": "address"
        },
        {
          "internalType": "string",
          "name": "uri",
          "type": "string"
        },
        {
          "internalType": "int64",
          "name": "number",
          "type": "int64"
        }
      ],
      "name": "mintNumber",
      "outputs": [
        {
          "internalType": "uint256",
          "name": "",
          "type": "uint256"
        }
      ],
      "stateMutability": "nonpayable",
      "type": "function"
    },
    {
      "inputs": [
        {
          "internalType": "address",
          "name": "acct",
          "type": "address"
        },
        {
          "internalType": "string",
          "name": "uri",
          "type": "string"
        },
        {
          "internalType": "enum Token.Operation",
          "name": "operation",
          "type": "uint8"
        }
      ],
      "name": "mintOperation",
      "outputs": [
        {
          "internalType": "uint256",
          "name": "",
          "type": "uint256"
        }
      ],
      "stateMutability": "nonpayable",
      "type": "function"
    }
  ],
  "bytecode": "0x60806040526000600b60006101000a81548173ffffffffffffffffffffffffffffffffffffffff021916908373ffffffffffffffffffffffffffffffffffffffff1602179055506000600b60146101000a81548160ff0219169083151502179055506000600b60156101000a81548160ff021916908360ff1602179055503480156200008a57600080fd5b506040518060400160405280600c81526020017f41726974686d65546f6b656e00000000000000000000000000000000000000008152506040518060400160405280600381526020017f415249000000000000000000000000000000000000000000000000000000000081525081600090805190602001906200010f92919062000131565b5080600190805190602001906200012892919062000131565b50505062000246565b8280546200013f90620001e1565b90600052602060002090601f016020900481019282620001635760008555620001af565b82601f106200017e57805160ff1916838001178555620001af565b82800160010185558215620001af579182015b82811115620001ae57825182559160200191906001019062000191565b5b509050620001be9190620001c2565b5090565b5b80821115620001dd576000816000905550600101620001c3565b5090565b60006002820490506001821680620001fa57607f821691505b6020821081141562000211576200021062000217565b5b50919050565b7f4e487b7100000000000000000000000000000000000000000000000000000000600052602260045260246000fd5b61496580620002566000396000f3fe608060405234801561001057600080fd5b50600436106101735760003560e01c80638c7a63ae116100de578063c87b56dd11610097578063e985e9c511610071578063e985e9c5146104ce578063f3667517146104fe578063fc5636581461051c578063fca3b5aa1461054c57610173565b8063c87b56dd1461043e578063cdae31301461046e578063dc3804171461049e57610173565b80638c7a63ae1461036a57806395d89b411461039a578063a22cb465146103b8578063a8802def146103d4578063af5898bf14610404578063b88d4fde1461042257610173565b80634036ab78116101305780634036ab781461025e57806342842e0e1461028e5780636352211e146102aa57806370a08231146102da57806382960f981461030a5780638940fd9d1461033a57610173565b806301ffc9a71461017857806306fdde03146101a8578063081812fc146101c6578063095ea7b3146101f6578063202e39241461021257806323b872dd14610242575b600080fd5b610192600480360381019061018d9190612e38565b61057c565b60405161019f9190613604565b60405180910390f35b6101b061065e565b6040516101bd9190613670565b60405180910390f35b6101e060048036038101906101db9190612ed9565b6106f0565b6040516101ed9190613552565b60405180910390f35b610210600480360381019061020b9190612dfc565b610775565b005b61022c60048036038101906102279190612ed9565b61088d565b604051610239919061361f565b60405180910390f35b61025c60048036038101906102579190612c28565b6108ff565b005b61027860048036038101906102739190612ed9565b61095f565b604051610285919061363a565b60405180910390f35b6102a860048036038101906102a39190612c28565b610a3c565b005b6102c460048036038101906102bf9190612ed9565b610a5c565b6040516102d19190613552565b60405180910390f35b6102f460048036038101906102ef9190612bc3565b610b0e565b60405161030191906139d4565b60405180910390f35b610324600480360381019061031f9190612d2e565b610bc6565b60405161033191906139d4565b60405180910390f35b610354600480360381019061034f9190612d95565b610c41565b60405161036191906139d4565b60405180910390f35b610384600480360381019061037f9190612ed9565b610e3a565b60405161039191906139b2565b60405180910390f35b6103a2610f54565b6040516103af9190613670565b60405180910390f35b6103d260048036038101906103cd9190612cf2565b610fe6565b005b6103ee60048036038101906103e99190612ed9565b611167565b6040516103fb9190613670565b60405180910390f35b61040c61156d565b60405161041991906139ef565b60405180910390f35b61043c60048036038101906104379190612c77565b611572565b005b61045860048036038101906104539190612ed9565b6115d4565b6040516104659190613670565b60405180910390f35b61048860048036038101906104839190612bc3565b611726565b60405161049591906135e2565b60405180910390f35b6104b860048036038101906104b39190612e8a565b611887565b6040516104c59190613655565b60405180910390f35b6104e860048036038101906104e39190612bec565b611ac4565b6040516104f59190613604565b60405180910390f35b610506611b58565b6040516105139190613552565b60405180910390f35b61053660048036038101906105319190612ed9565b611b82565b6040516105439190613655565b60405180910390f35b61056660048036038101906105619190612bc3565b611bf4565b6040516105739190613552565b60405180910390f35b60007f80ac58cd000000000000000000000000000000000000000000000000000000007bffffffffffffffffffffffffffffffffffffffffffffffffffffffff1916827bffffffffffffffffffffffffffffffffffffffffffffffffffffffff1916148061064757507f5b5e139f000000000000000000000000000000000000000000000000000000007bffffffffffffffffffffffffffffffffffffffffffffffffffffffff1916827bffffffffffffffffffffffffffffffffffffffffffffffffffffffff1916145b80610657575061065682611ccc565b5b9050919050565b60606000805461066d90613f3c565b80601f016020809104026020016040519081016040528092919081815260200182805461069990613f3c565b80156106e65780601f106106bb576101008083540402835291602001916106e6565b820191906000526020600020905b8154815290600101906020018083116106c957829003601f168201915b5050505050905090565b60006106fb82611d36565b61073a576040517f08c379a000000000000000000000000000000000000000000000000000000000815260040161073190613852565b60405180910390fd5b6004600083815260200190815260200160002060009054906101000a900473ffffffffffffffffffffffffffffffffffffffff169050919050565b600061078082610a5c565b90508073ffffffffffffffffffffffffffffffffffffffff168373ffffffffffffffffffffffffffffffffffffffff1614156107f1576040517f08c379a00000000000000000000000000000000000000000000000000000000081526004016107e890613912565b60405180910390fd5b8073ffffffffffffffffffffffffffffffffffffffff16610810611da2565b73ffffffffffffffffffffffffffffffffffffffff16148061083f575061083e81610839611da2565b611ac4565b5b61087e576040517f08c379a000000000000000000000000000000000000000000000000000000000815260040161087590613772565b60405180910390fd5b6108888383611daa565b505050565b600061089882611d36565b6108d7576040517f08c379a00000000000000000000000000000000000000000000000000000000081526004016108ce90613752565b60405180910390fd5b6008600083815260200190815260200160002060009054906101000a900460ff169050919050565b61091061090a611da2565b82611e63565b61094f576040517f08c379a000000000000000000000000000000000000000000000000000000000815260040161094690613932565b60405180910390fd5b61095a838383611f41565b505050565b600061096a82611d36565b6109a9576040517f08c379a00000000000000000000000000000000000000000000000000000000081526004016109a090613692565b60405180910390fd5b600060048111156109e3577f4e487b7100000000000000000000000000000000000000000000000000000000600052602160045260246000fd5b6109ec8361088d565b6004811115610a24577f4e487b7100000000000000000000000000000000000000000000000000000000600052602160045260246000fd5b14610a325760009050610a37565b600190505b919050565b610a5783838360405180602001604052806000815250611572565b505050565b6000806002600084815260200190815260200160002060009054906101000a900473ffffffffffffffffffffffffffffffffffffffff169050600073ffffffffffffffffffffffffffffffffffffffff168173ffffffffffffffffffffffffffffffffffffffff161415610b05576040517f08c379a0000000000000000000000000000000000000000000000000000000008152600401610afc906137b2565b60405180910390fd5b80915050919050565b60008073ffffffffffffffffffffffffffffffffffffffff168273ffffffffffffffffffffffffffffffffffffffff161415610b7f576040517f08c379a0000000000000000000000000000000000000000000000000000000008152600401610b7690613792565b60405180910390fd5b600360008373ffffffffffffffffffffffffffffffffffffffff1673ffffffffffffffffffffffffffffffffffffffff168152602001908152602001600020549050919050565b600080610bd3858561219d565b9050826008600083815260200190815260200160002060006101000a81548160ff02191690836004811115610c31577f4e487b7100000000000000000000000000000000000000000000000000000000600052602160045260246000fd5b0217905550809150509392505050565b6000610c4c82612219565b15610c8c576040517f08c379a0000000000000000000000000000000000000000000000000000000008152600401610c83906137f2565b60405180910390fd5b600a60ff16600b60159054906101000a900460ff1660ff1610610da3577f6d9f24a45dd4b61050b79071684be5eccb60b53f076f9c74aece7fe231c6b4af600b60009054906101000a900473ffffffffffffffffffffffffffffffffffffffff16610cf5611da2565b604051610d0392919061356d565b60405180910390a1600b60009054906101000a900473ffffffffffffffffffffffffffffffffffffffff1673ffffffffffffffffffffffffffffffffffffffff16610d4c611da2565b73ffffffffffffffffffffffffffffffffffffffff1614610da2576040517f08c379a0000000000000000000000000000000000000000000000000000000008152600401610d9990613952565b60405180910390fd5b5b600b601581819054906101000a900460ff1680929190610dc290613fe8565b91906101000a81548160ff021916908360ff160217905550506000610de7858561219d565b9050826009600083815260200190815260200160002060006101000a81548167ffffffffffffffff021916908360070b67ffffffffffffffff160217905550610e2f83612249565b809150509392505050565b610e4261295a565b610e4b82611d36565b610e8a576040517f08c379a0000000000000000000000000000000000000000000000000000000008152600401610e81906138d2565b60405180910390fd5b610e9261295a565b82816000018181525050610ea58361088d565b81602001906004811115610ee2577f4e487b7100000000000000000000000000000000000000000000000000000000600052602160045260246000fd5b90816004811115610f1c577f4e487b7100000000000000000000000000000000000000000000000000000000600052602160045260246000fd5b81525050610f2983611b82565b816040019060070b908160070b81525050610f43836115d4565b816060018190525080915050919050565b606060018054610f6390613f3c565b80601f0160208091040260200160405190810160405280929190818152602001828054610f8f90613f3c565b8015610fdc5780601f10610fb157610100808354040283529160200191610fdc565b820191906000526020600020905b815481529060010190602001808311610fbf57829003601f168201915b5050505050905090565b610fee611da2565b73ffffffffffffffffffffffffffffffffffffffff168273ffffffffffffffffffffffffffffffffffffffff16141561105c576040517f08c379a000000000000000000000000000000000000000000000000000000000815260040161105390613712565b60405180910390fd5b8060056000611069611da2565b73ffffffffffffffffffffffffffffffffffffffff1673ffffffffffffffffffffffffffffffffffffffff16815260200190815260200160002060008473ffffffffffffffffffffffffffffffffffffffff1673ffffffffffffffffffffffffffffffffffffffff16815260200190815260200160002060006101000a81548160ff0219169083151502179055508173ffffffffffffffffffffffffffffffffffffffff16611116611da2565b73ffffffffffffffffffffffffffffffffffffffff167f17307eab39ab6107e8899845ad3d59bd9653f200f220920489ca2b5937696c318360405161115b9190613604565b60405180910390a35050565b606061117282611d36565b6111b1576040517f08c379a00000000000000000000000000000000000000000000000000000000081526004016111a890613872565b60405180910390fd5b600060018111156111eb577f4e487b7100000000000000000000000000000000000000000000000000000000600052602160045260246000fd5b6111f48361095f565b600181111561122c577f4e487b7100000000000000000000000000000000000000000000000000000000600052602160045260246000fd5b1461126c576040517f08c379a000000000000000000000000000000000000000000000000000000000815260040161126390613972565b60405180910390fd5b60006112778361088d565b9050600160048111156112b3577f4e487b7100000000000000000000000000000000000000000000000000000000600052602160045260246000fd5b8160048111156112ec577f4e487b7100000000000000000000000000000000000000000000000000000000600052602160045260246000fd5b1415611330576040518060400160405280600181526020017f2b00000000000000000000000000000000000000000000000000000000000000815250915050611568565b6002600481111561136a577f4e487b7100000000000000000000000000000000000000000000000000000000600052602160045260246000fd5b8160048111156113a3577f4e487b7100000000000000000000000000000000000000000000000000000000600052602160045260246000fd5b14156113e7576040518060400160405280600181526020017f2d00000000000000000000000000000000000000000000000000000000000000815250915050611568565b60036004811115611421577f4e487b7100000000000000000000000000000000000000000000000000000000600052602160045260246000fd5b81600481111561145a577f4e487b7100000000000000000000000000000000000000000000000000000000600052602160045260246000fd5b141561149e576040518060400160405280600181526020017f2a00000000000000000000000000000000000000000000000000000000000000815250915050611568565b6004808111156114d7577f4e487b7100000000000000000000000000000000000000000000000000000000600052602160045260246000fd5b816004811115611510577f4e487b7100000000000000000000000000000000000000000000000000000000600052602160045260246000fd5b1415611554576040518060400160405280600181526020017f2f00000000000000000000000000000000000000000000000000000000000000815250915050611568565b604051806020016040528060008152509150505b919050565b600a81565b61158361157d611da2565b83611e63565b6115c2576040517f08c379a00000000000000000000000000000000000000000000000000000000081526004016115b990613932565b60405180910390fd5b6115ce8484848461227e565b50505050565b60606115df82611d36565b61161e576040517f08c379a000000000000000000000000000000000000000000000000000000000815260040161161590613832565b60405180910390fd5b600060066000848152602001908152602001600020805461163e90613f3c565b80601f016020809104026020016040519081016040528092919081815260200182805461166a90613f3c565b80156116b75780601f1061168c576101008083540402835291602001916116b7565b820191906000526020600020905b81548152906001019060200180831161169a57829003601f168201915b5050505050905060006116c86122da565b90506000815114156116de578192505050611721565b6000825111156117135780826040516020016116fb92919061352e565b60405160208183030381529060405292505050611721565b61171c846122f1565b925050505b919050565b6060600061173383610b0e565b905060008167ffffffffffffffff811115611777577f4e487b7100000000000000000000000000000000000000000000000000000000600052604160045260246000fd5b6040519080825280602002602001820160405280156117b057816020015b61179d61295a565b8152602001906001900390816117955790505b5090506000805b8382101561187b576117c881611d36565b801561180757508573ffffffffffffffffffffffffffffffffffffffff166117ef82610a5c565b73ffffffffffffffffffffffffffffffffffffffff16145b156118685761181581610e3a565b83838151811061184e577f4e487b7100000000000000000000000000000000000000000000000000000000600052603260045260246000fd5b6020026020010181905250818061186490613f9f565b9250505b808061187390613f9f565b9150506117b7565b50819350505050919050565b6000600160048111156118c3577f4e487b7100000000000000000000000000000000000000000000000000000000600052602160045260246000fd5b8460048111156118fc577f4e487b7100000000000000000000000000000000000000000000000000000000600052602160045260246000fd5b141561191557818361190e9190613b1e565b9050611abd565b6002600481111561194f577f4e487b7100000000000000000000000000000000000000000000000000000000600052602160045260246000fd5b846004811115611988577f4e487b7100000000000000000000000000000000000000000000000000000000600052602160045260246000fd5b14156119a157818361199a9190613d72565b9050611abd565b600360048111156119db577f4e487b7100000000000000000000000000000000000000000000000000000000600052602160045260246000fd5b846004811115611a14577f4e487b7100000000000000000000000000000000000000000000000000000000600052602160045260246000fd5b1415611a2d578183611a269190613c8b565b9050611abd565b600480811115611a66577f4e487b7100000000000000000000000000000000000000000000000000000000600052602160045260246000fd5b846004811115611a9f577f4e487b7100000000000000000000000000000000000000000000000000000000600052602160045260246000fd5b1415611ab8578183611ab19190613bf0565b9050611abd565b600090505b9392505050565b6000600560008473ffffffffffffffffffffffffffffffffffffffff1673ffffffffffffffffffffffffffffffffffffffff16815260200190815260200160002060008373ffffffffffffffffffffffffffffffffffffffff1673ffffffffffffffffffffffffffffffffffffffff16815260200190815260200160002060009054906101000a900460ff16905092915050565b6000600b60009054906101000a900473ffffffffffffffffffffffffffffffffffffffff16905090565b6000611b8d82611d36565b611bcc576040517f08c379a0000000000000000000000000000000000000000000000000000000008152600401611bc3906138f2565b60405180910390fd5b6009600083815260200190815260200160002060009054906101000a900460070b9050919050565b6000600b60149054906101000a900460ff1615611c46576040517f08c379a0000000000000000000000000000000000000000000000000000000008152600401611c3d90613992565b60405180910390fd5b81600b60006101000a81548173ffffffffffffffffffffffffffffffffffffffff021916908373ffffffffffffffffffffffffffffffffffffffff1602179055506001600b60146101000a81548160ff021916908315150217905550600b60009054906101000a900473ffffffffffffffffffffffffffffffffffffffff169050919050565b60007f01ffc9a7000000000000000000000000000000000000000000000000000000007bffffffffffffffffffffffffffffffffffffffffffffffffffffffff1916827bffffffffffffffffffffffffffffffffffffffffffffffffffffffff1916149050919050565b60008073ffffffffffffffffffffffffffffffffffffffff166002600084815260200190815260200160002060009054906101000a900473ffffffffffffffffffffffffffffffffffffffff1673ffffffffffffffffffffffffffffffffffffffff1614159050919050565b600033905090565b816004600083815260200190815260200160002060006101000a81548173ffffffffffffffffffffffffffffffffffffffff021916908373ffffffffffffffffffffffffffffffffffffffff160217905550808273ffffffffffffffffffffffffffffffffffffffff16611e1d83610a5c565b73ffffffffffffffffffffffffffffffffffffffff167f8c5be1e5ebec7d5bd14f71427d1e84f3dd0314c0f7b2291e5b200ac8c7c3b92560405160405180910390a45050565b6000611e6e82611d36565b611ead576040517f08c379a0000000000000000000000000000000000000000000000000000000008152600401611ea490613732565b60405180910390fd5b6000611eb883610a5c565b90508073ffffffffffffffffffffffffffffffffffffffff168473ffffffffffffffffffffffffffffffffffffffff161480611f2757508373ffffffffffffffffffffffffffffffffffffffff16611f0f846106f0565b73ffffffffffffffffffffffffffffffffffffffff16145b80611f385750611f378185611ac4565b5b91505092915050565b8273ffffffffffffffffffffffffffffffffffffffff16611f6182610a5c565b73ffffffffffffffffffffffffffffffffffffffff1614611fb7576040517f08c379a0000000000000000000000000000000000000000000000000000000008152600401611fae90613892565b60405180910390fd5b600073ffffffffffffffffffffffffffffffffffffffff168273ffffffffffffffffffffffffffffffffffffffff161415612027576040517f08c379a000000000000000000000000000000000000000000000000000000000815260040161201e906136f2565b60405180910390fd5b612032838383612398565b61203d600082611daa565b6001600360008573ffffffffffffffffffffffffffffffffffffffff1673ffffffffffffffffffffffffffffffffffffffff168152602001908152602001600020600082825461208d9190613dee565b925050819055506001600360008473ffffffffffffffffffffffffffffffffffffffff1673ffffffffffffffffffffffffffffffffffffffff16815260200190815260200160002060008282546120e49190613b9a565b92505081905550816002600083815260200190815260200160002060006101000a81548173ffffffffffffffffffffffffffffffffffffffff021916908373ffffffffffffffffffffffffffffffffffffffff160217905550808273ffffffffffffffffffffffffffffffffffffffff168473ffffffffffffffffffffffffffffffffffffffff167fddf252ad1be2c89b69c2b068fc378daa952ba7f163c4a11628f55a4df523b3ef60405160405180910390a4505050565b60006121a9600761239d565b60006121b560076123b3565b90506121c184826123c1565b6121cb818461258f565b808473ffffffffffffffffffffffffffffffffffffffff167f30385c845b448a36257a6a1716e6ad2e1bc2cbe333cde1e69fe849ad6511adfe60405160405180910390a38091505092915050565b6000600a60008360070b60070b815260200190815260200160002060009054906101000a900460ff169050919050565b6001600a60008360070b60070b815260200190815260200160002060006101000a81548160ff02191690831515021790555050565b612289848484611f41565b61229584848484612603565b6122d4576040517f08c379a00000000000000000000000000000000000000000000000000000000081526004016122cb906136b2565b60405180910390fd5b50505050565b606060405180602001604052806000815250905090565b60606122fc82611d36565b61233b576040517f08c379a0000000000000000000000000000000000000000000000000000000008152600401612332906138b2565b60405180910390fd5b60006123456122da565b905060008151116123655760405180602001604052806000815250612390565b8061236f8461279a565b60405160200161238092919061352e565b6040516020818303038152906040525b915050919050565b505050565b6001816000016000828254019250508190555050565b600081600001549050919050565b600073ffffffffffffffffffffffffffffffffffffffff168273ffffffffffffffffffffffffffffffffffffffff161415612431576040517f08c379a000000000000000000000000000000000000000000000000000000000815260040161242890613812565b60405180910390fd5b61243a81611d36565b1561247a576040517f08c379a0000000000000000000000000000000000000000000000000000000008152600401612471906136d2565b60405180910390fd5b61248660008383612398565b6001600360008473ffffffffffffffffffffffffffffffffffffffff1673ffffffffffffffffffffffffffffffffffffffff16815260200190815260200160002060008282546124d69190613b9a565b92505081905550816002600083815260200190815260200160002060006101000a81548173ffffffffffffffffffffffffffffffffffffffff021916908373ffffffffffffffffffffffffffffffffffffffff160217905550808273ffffffffffffffffffffffffffffffffffffffff16600073ffffffffffffffffffffffffffffffffffffffff167fddf252ad1be2c89b69c2b068fc378daa952ba7f163c4a11628f55a4df523b3ef60405160405180910390a45050565b61259882611d36565b6125d7576040517f08c379a00000000000000000000000000000000000000000000000000000000081526004016125ce906137d2565b60405180910390fd5b806006600084815260200190815260200160002090805190602001906125fe9291906129bd565b505050565b60006126248473ffffffffffffffffffffffffffffffffffffffff16612947565b1561278d578373ffffffffffffffffffffffffffffffffffffffff1663150b7a0261264d611da2565b8786866040518563ffffffff1660e01b815260040161266f9493929190613596565b602060405180830381600087803b15801561268957600080fd5b505af19250505080156126ba57506040513d601f19601f820116820180604052508101906126b79190612e61565b60015b61273d573d80600081146126ea576040519150601f19603f3d011682016040523d82523d6000602084013e6126ef565b606091505b50600081511415612735576040517f08c379a000000000000000000000000000000000000000000000000000000000815260040161272c906136b2565b60405180910390fd5b805181602001fd5b63150b7a0260e01b7bffffffffffffffffffffffffffffffffffffffffffffffffffffffff1916817bffffffffffffffffffffffffffffffffffffffffffffffffffffffff191614915050612792565b600190505b949350505050565b606060008214156127e2576040518060400160405280600181526020017f30000000000000000000000000000000000000000000000000000000000000008152509050612942565b600082905060005b600082146128145780806127fd90613f9f565b915050600a8261280d9190613c5a565b91506127ea565b60008167ffffffffffffffff811115612856577f4e487b7100000000000000000000000000000000000000000000000000000000600052604160045260246000fd5b6040519080825280601f01601f1916602001820160405280156128885781602001600182028036833780820191505090505b5090505b6000851461293b576001826128a19190613dee565b9150600a856128b09190614012565b60306128bc9190613b9a565b60f81b8183815181106128f8577f4e487b7100000000000000000000000000000000000000000000000000000000600052603260045260246000fd5b60200101907effffffffffffffffffffffffffffffffffffffffffffffffffffffffffffff1916908160001a905350600a856129349190613c5a565b945061288c565b8093505050505b919050565b600080823b905060008111915050919050565b604051806080016040528060008152602001600060048111156129a6577f4e487b7100000000000000000000000000000000000000000000000000000000600052602160045260246000fd5b8152602001600060070b8152602001606081525090565b8280546129c990613f3c565b90600052602060002090601f0160209004810192826129eb5760008555612a32565b82601f10612a0457805160ff1916838001178555612a32565b82800160010185558215612a32579182015b82811115612a31578251825591602001919060010190612a16565b5b509050612a3f9190612a43565b5090565b5b80821115612a5c576000816000905550600101612a44565b5090565b6000612a73612a6e84613a2f565b613a0a565b905082815260208101848484011115612a8b57600080fd5b612a96848285613efa565b509392505050565b6000612ab1612aac84613a60565b613a0a565b905082815260208101848484011115612ac957600080fd5b612ad4848285613efa565b509392505050565b600081359050612aeb816148ac565b92915050565b600081359050612b00816148c3565b92915050565b600081359050612b15816148da565b92915050565b600081519050612b2a816148da565b92915050565b600082601f830112612b4157600080fd5b8135612b51848260208601612a60565b91505092915050565b600081359050612b69816148f1565b92915050565b600081359050612b7e81614901565b92915050565b600082601f830112612b9557600080fd5b8135612ba5848260208601612a9e565b91505092915050565b600081359050612bbd81614918565b92915050565b600060208284031215612bd557600080fd5b6000612be384828501612adc565b91505092915050565b60008060408385031215612bff57600080fd5b6000612c0d85828601612adc565b9250506020612c1e85828601612adc565b9150509250929050565b600080600060608486031215612c3d57600080fd5b6000612c4b86828701612adc565b9350506020612c5c86828701612adc565b9250506040612c6d86828701612bae565b9150509250925092565b60008060008060808587031215612c8d57600080fd5b6000612c9b87828801612adc565b9450506020612cac87828801612adc565b9350506040612cbd87828801612bae565b925050606085013567ffffffffffffffff811115612cda57600080fd5b612ce687828801612b30565b91505092959194509250565b60008060408385031215612d0557600080fd5b6000612d1385828601612adc565b9250506020612d2485828601612af1565b9150509250929050565b600080600060608486031215612d4357600080fd5b6000612d5186828701612adc565b935050602084013567ffffffffffffffff811115612d6e57600080fd5b612d7a86828701612b84565b9250506040612d8b86828701612b5a565b9150509250925092565b600080600060608486031215612daa57600080fd5b6000612db886828701612adc565b935050602084013567ffffffffffffffff811115612dd557600080fd5b612de186828701612b84565b9250506040612df286828701612b6f565b9150509250925092565b60008060408385031215612e0f57600080fd5b6000612e1d85828601612adc565b9250506020612e2e85828601612bae565b9150509250929050565b600060208284031215612e4a57600080fd5b6000612e5884828501612b06565b91505092915050565b600060208284031215612e7357600080fd5b6000612e8184828501612b1b565b91505092915050565b600080600060608486031215612e9f57600080fd5b6000612ead86828701612b5a565b9350506020612ebe86828701612b6f565b9250506040612ecf86828701612b6f565b9150509250925092565b600060208284031215612eeb57600080fd5b6000612ef984828501612bae565b91505092915050565b6000612f0e838361343b565b905092915050565b612f1f81613e22565b82525050565b6000612f3082613aa1565b612f3a8185613acf565b935083602082028501612f4c85613a91565b8060005b85811015612f885784840389528151612f698582612f02565b9450612f7483613ac2565b925060208a01995050600181019050612f50565b50829750879550505050505092915050565b612fa381613e34565b82525050565b6000612fb482613aac565b612fbe8185613ae0565b9350612fce818560208601613f09565b612fd78161412e565b840191505092915050565b612feb81613ed6565b82525050565b612ffa81613ed6565b82525050565b61300981613ee8565b82525050565b61301881613e92565b82525050565b61302781613e92565b82525050565b600061303882613ab7565b6130428185613af1565b9350613052818560208601613f09565b61305b8161412e565b840191505092915050565b600061307182613ab7565b61307b8185613b02565b935061308b818560208601613f09565b6130948161412e565b840191505092915050565b60006130aa82613ab7565b6130b48185613b13565b93506130c4818560208601613f09565b80840191505092915050565b60006130dd602883613b02565b91506130e88261413f565b604082019050919050565b6000613100603283613b02565b915061310b8261418e565b604082019050919050565b6000613123601c83613b02565b915061312e826141dd565b602082019050919050565b6000613146602483613b02565b915061315182614206565b604082019050919050565b6000613169601983613b02565b915061317482614255565b602082019050919050565b600061318c602c83613b02565b91506131978261427e565b604082019050919050565b60006131af602683613b02565b91506131ba826142cd565b604082019050919050565b60006131d2603883613b02565b91506131dd8261431c565b604082019050919050565b60006131f5602a83613b02565b91506132008261436b565b604082019050919050565b6000613218602983613b02565b9150613223826143ba565b604082019050919050565b600061323b602e83613b02565b915061324682614409565b604082019050919050565b600061325e602d83613b02565b915061326982614458565b604082019050919050565b6000613281602083613b02565b915061328c826144a7565b602082019050919050565b60006132a4603183613b02565b91506132af826144d0565b604082019050919050565b60006132c7602c83613b02565b91506132d28261451f565b604082019050919050565b60006132ea602883613b02565b91506132f58261456e565b604082019050919050565b600061330d602983613b02565b9150613318826145bd565b604082019050919050565b6000613330602f83613b02565b915061333b8261460c565b604082019050919050565b6000613353602883613b02565b915061335e8261465b565b604082019050919050565b6000613376602a83613b02565b9150613381826146aa565b604082019050919050565b6000613399602183613b02565b91506133a4826146f9565b604082019050919050565b60006133bc603183613b02565b91506133c782614748565b604082019050919050565b60006133df602c83613b02565b91506133ea82614797565b604082019050919050565b6000613402602583613b02565b915061340d826147e6565b604082019050919050565b6000613425602483613b02565b915061343082614835565b604082019050919050565b60006080830160008301516134536000860182613501565b5060208301516134666020860182612fe2565b506040830151613479604086018261300f565b5060608301518482036060860152613491828261302d565b9150508091505092915050565b60006080830160008301516134b66000860182613501565b5060208301516134c96020860182612fe2565b5060408301516134dc604086018261300f565b50606083015184820360608601526134f4828261302d565b9150508091505092915050565b61350a81613ebf565b82525050565b61351981613ebf565b82525050565b61352881613ec9565b82525050565b600061353a828561309f565b9150613546828461309f565b91508190509392505050565b60006020820190506135676000830184612f16565b92915050565b60006040820190506135826000830185612f16565b61358f6020830184612f16565b9392505050565b60006080820190506135ab6000830187612f16565b6135b86020830186612f16565b6135c56040830185613510565b81810360608301526135d78184612fa9565b905095945050505050565b600060208201905081810360008301526135fc8184612f25565b905092915050565b60006020820190506136196000830184612f9a565b92915050565b60006020820190506136346000830184612ff1565b92915050565b600060208201905061364f6000830184613000565b92915050565b600060208201905061366a600083018461301e565b92915050565b6000602082019050818103600083015261368a8184613066565b905092915050565b600060208201905081810360008301526136ab816130d0565b9050919050565b600060208201905081810360008301526136cb816130f3565b9050919050565b600060208201905081810360008301526136eb81613116565b9050919050565b6000602082019050818103600083015261370b81613139565b9050919050565b6000602082019050818103600083015261372b8161315c565b9050919050565b6000602082019050818103600083015261374b8161317f565b9050919050565b6000602082019050818103600083015261376b816131a2565b9050919050565b6000602082019050818103600083015261378b816131c5565b9050919050565b600060208201905081810360008301526137ab816131e8565b9050919050565b600060208201905081810360008301526137cb8161320b565b9050919050565b600060208201905081810360008301526137eb8161322e565b9050919050565b6000602082019050818103600083015261380b81613251565b9050919050565b6000602082019050818103600083015261382b81613274565b9050919050565b6000602082019050818103600083015261384b81613297565b9050919050565b6000602082019050818103600083015261386b816132ba565b9050919050565b6000602082019050818103600083015261388b816132dd565b9050919050565b600060208201905081810360008301526138ab81613300565b9050919050565b600060208201905081810360008301526138cb81613323565b9050919050565b600060208201905081810360008301526138eb81613346565b9050919050565b6000602082019050818103600083015261390b81613369565b9050919050565b6000602082019050818103600083015261392b8161338c565b9050919050565b6000602082019050818103600083015261394b816133af565b9050919050565b6000602082019050818103600083015261396b816133d2565b9050919050565b6000602082019050818103600083015261398b816133f5565b9050919050565b600060208201905081810360008301526139ab81613418565b9050919050565b600060208201905081810360008301526139cc818461349e565b905092915050565b60006020820190506139e96000830184613510565b92915050565b6000602082019050613a04600083018461351f565b92915050565b6000613a14613a25565b9050613a208282613f6e565b919050565b6000604051905090565b600067ffffffffffffffff821115613a4a57613a496140ff565b5b613a538261412e565b9050602081019050919050565b600067ffffffffffffffff821115613a7b57613a7a6140ff565b5b613a848261412e565b9050602081019050919050565b6000819050602082019050919050565b600081519050919050565b600081519050919050565b600081519050919050565b6000602082019050919050565b600082825260208201905092915050565b600082825260208201905092915050565b600082825260208201905092915050565b600082825260208201905092915050565b600081905092915050565b6000613b2982613e92565b9150613b3483613e92565b925081677fffffffffffffff03831360008312151615613b5757613b56614043565b5b817fffffffffffffffffffffffffffffffffffffffffffffffff8000000000000000038312600083121615613b8f57613b8e614043565b5b828201905092915050565b6000613ba582613ebf565b9150613bb083613ebf565b9250827fffffffffffffffffffffffffffffffffffffffffffffffffffffffffffffffff03821115613be557613be4614043565b5b828201905092915050565b6000613bfb82613e92565b9150613c0683613e92565b925082613c1657613c15614072565b5b600160000383147fffffffffffffffffffffffffffffffffffffffffffffffff800000000000000083141615613c4f57613c4e614043565b5b828205905092915050565b6000613c6582613ebf565b9150613c7083613ebf565b925082613c8057613c7f614072565b5b828204905092915050565b6000613c9682613e92565b9150613ca183613e92565b925082677fffffffffffffff0482116000841360008413161615613cc857613cc7614043565b5b817fffffffffffffffffffffffffffffffffffffffffffffffff80000000000000000583126000841260008413161615613d0557613d04614043565b5b827fffffffffffffffffffffffffffffffffffffffffffffffff80000000000000000582126000841360008412161615613d4257613d41614043565b5b82677fffffffffffffff0582126000841260008412161615613d6757613d66614043565b5b828202905092915050565b6000613d7d82613e92565b9150613d8883613e92565b9250827fffffffffffffffffffffffffffffffffffffffffffffffff800000000000000001821260008412151615613dc357613dc2614043565b5b82677fffffffffffffff018213600084121615613de357613de2614043565b5b828203905092915050565b6000613df982613ebf565b9150613e0483613ebf565b925082821015613e1757613e16614043565b5b828203905092915050565b6000613e2d82613e9f565b9050919050565b60008115159050919050565b60007fffffffff0000000000000000000000000000000000000000000000000000000082169050919050565b6000819050613e7a82614884565b919050565b6000819050613e8d82614898565b919050565b60008160070b9050919050565b600073ffffffffffffffffffffffffffffffffffffffff82169050919050565b6000819050919050565b600060ff82169050919050565b6000613ee182613e6c565b9050919050565b6000613ef382613e7f565b9050919050565b82818337600083830152505050565b60005b83811015613f27578082015181840152602081019050613f0c565b83811115613f36576000848401525b50505050565b60006002820490506001821680613f5457607f821691505b60208210811415613f6857613f676140d0565b5b50919050565b613f778261412e565b810181811067ffffffffffffffff82111715613f9657613f956140ff565b5b80604052505050565b6000613faa82613ebf565b91507fffffffffffffffffffffffffffffffffffffffffffffffffffffffffffffffff821415613fdd57613fdc614043565b5b600182019050919050565b6000613ff382613ec9565b915060ff82141561400757614006614043565b5b600182019050919050565b600061401d82613ebf565b915061402883613ebf565b92508261403857614037614072565b5b828206905092915050565b7f4e487b7100000000000000000000000000000000000000000000000000000000600052601160045260246000fd5b7f4e487b7100000000000000000000000000000000000000000000000000000000600052601260045260246000fd5b7f4e487b7100000000000000000000000000000000000000000000000000000000600052602160045260246000fd5b7f4e487b7100000000000000000000000000000000000000000000000000000000600052602260045260246000fd5b7f4e487b7100000000000000000000000000000000000000000000000000000000600052604160045260246000fd5b6000601f19601f8301169050919050565b7f546f6b656e3a2067657474696e672074797065206f66206e6f6e65786973746560008201527f6e7420746f6b656e000000000000000000000000000000000000000000000000602082015250565b7f4552433732313a207472616e7366657220746f206e6f6e20455243373231526560008201527f63656976657220696d706c656d656e7465720000000000000000000000000000602082015250565b7f4552433732313a20746f6b656e20616c7265616479206d696e74656400000000600082015250565b7f4552433732313a207472616e7366657220746f20746865207a65726f2061646460008201527f7265737300000000000000000000000000000000000000000000000000000000602082015250565b7f4552433732313a20617070726f766520746f2063616c6c657200000000000000600082015250565b7f4552433732313a206f70657261746f7220717565727920666f72206e6f6e657860008201527f697374656e7420746f6b656e0000000000000000000000000000000000000000602082015250565b7f546f6b656e3a2067657474696e67206f70206f66206e6f6e6578697374656e7460008201527f20746f6b656e0000000000000000000000000000000000000000000000000000602082015250565b7f4552433732313a20617070726f76652063616c6c6572206973206e6f74206f7760008201527f6e6572206e6f7220617070726f76656420666f7220616c6c0000000000000000602082015250565b7f4552433732313a2062616c616e636520717565727920666f7220746865207a6560008201527f726f206164647265737300000000000000000000000000000000000000000000602082015250565b7f4552433732313a206f776e657220717565727920666f72206e6f6e657869737460008201527f656e7420746f6b656e0000000000000000000000000000000000000000000000602082015250565b7f45524337323155524953746f726167653a2055524920736574206f66206e6f6e60008201527f6578697374656e7420746f6b656e000000000000000000000000000000000000602082015250565b7f54686520746f6b656e20666f722074686174206e756d6265722077617320616c60008201527f7265616479206d696e7465642e00000000000000000000000000000000000000602082015250565b7f4552433732313a206d696e7420746f20746865207a65726f2061646472657373600082015250565b7f45524337323155524953746f726167653a2055524920717565727920666f722060008201527f6e6f6e6578697374656e7420746f6b656e000000000000000000000000000000602082015250565b7f4552433732313a20617070726f76656420717565727920666f72206e6f6e657860008201527f697374656e7420746f6b656e0000000000000000000000000000000000000000602082015250565b7f546f6b656e3a2067657474696e672074657874206f66206e6f6e65786973746560008201527f6e7420746f6b656e000000000000000000000000000000000000000000000000602082015250565b7f4552433732313a207472616e73666572206f6620746f6b656e2074686174206960008201527f73206e6f74206f776e0000000000000000000000000000000000000000000000602082015250565b7f4552433732314d657461646174613a2055524920717565727920666f72206e6f60008201527f6e6578697374656e7420746f6b656e0000000000000000000000000000000000602082015250565b7f546f6b656e3a2067657474696e6720696e666f206f66206e6f6e65786973746560008201527f6e7420746f6b656e000000000000000000000000000000000000000000000000602082015250565b7f546f6b656e3a2067657474696e67206e756d626572206f66206e6f6e6578697360008201527f74656e7420746f6b656e00000000000000000000000000000000000000000000602082015250565b7f4552433732313a20617070726f76616c20746f2063757272656e74206f776e6560008201527f7200000000000000000000000000000000000000000000000000000000000000602082015250565b7f4552433732313a207472616e736665722063616c6c6572206973206e6f74206f60008201527f776e6572206e6f7220617070726f766564000000000000000000000000000000602082015250565b7f4f6e6c7920746865206d696e74657220616464726573732063616e206d696e7460008201527f206e657720546f6b656e732e0000000000000000000000000000000000000000602082015250565b7f546f6b656e3a2067657474696e6720746578742066726f6d204e756d6265722060008201527f746f6b656e000000000000000000000000000000000000000000000000000000602082015250565b7f7365744d696e74657228292063616e206f6e6c792062652063616c6c6564206f60008201527f6e63652e00000000000000000000000000000000000000000000000000000000602082015250565b60058110614895576148946140a1565b5b50565b600281106148a9576148a86140a1565b5b50565b6148b581613e22565b81146148c057600080fd5b50565b6148cc81613e34565b81146148d757600080fd5b50565b6148e381613e40565b81146148ee57600080fd5b50565b600581106148fe57600080fd5b50565b61490a81613e92565b811461491557600080fd5b50565b61492181613ebf565b811461492c57600080fd5b5056fea264697066735822122086afe7d29b18985ac6ef6b3acb5e714f1d012f2c8dfd53b85dc66c2bbeda6f9164736f6c63430008010033",
  "immutableReferences": {},
  "source": "// SPDX-License-Identifier: MIT\r\npragma solidity ^0.8.0;\r\n\r\nimport \"@openzeppelin/contracts/token/ERC721/extensions/ERC721URIStorage.sol\";\r\nimport \"@openzeppelin/contracts/utils/Counters.sol\";\r\n\r\ncontract Token is ERC721URIStorage {\r\n    event Minted(address indexed addr, uint256 indexed tokenId);\r\n\r\n    using Counters for Counters.Counter;\r\n    Counters.Counter private _tokenIds;\r\n\r\n    enum Type {Operation, Number}\r\n    enum Operation {None,  Add, Sub, Mul, Div }\r\n\r\n    mapping (uint256 => Operation) private _operations;\r\n    mapping (uint256 => int64) private _numbers;\r\n\r\n    mapping (int64 => bool) private _mintedNumbers;\r\n\r\n    address _minter = address(0);\r\n    bool _minterSet = false;\r\n    \r\n    uint8 _initialMinted = 0;\r\n    uint8 public constant _initialMax = 10;    \r\n\r\n    struct TokenInfo \r\n    {\r\n        uint256 id;\r\n        Operation operation;\r\n        int64 number;\r\n        string uri;\r\n    }\r\n\r\n    constructor() ERC721(\"ArithmeToken\", \"ARI\") {}\r\n\r\n    function getMinter() public view returns (address)\r\n    {\r\n        return _minter;\r\n    }\r\n\r\n    function _mint(address addr, string memory uri) internal returns (uint256)\r\n    {\r\n        _tokenIds.increment();\r\n\r\n        uint256 newTokenId = _tokenIds.current();\r\n        super._mint(addr, newTokenId);\r\n        _setTokenURI(newTokenId, uri);\r\n\r\n        emit Minted(addr, newTokenId);\r\n\r\n        return newTokenId;\r\n    }\r\n\r\n    function _isNumberMinted(int64 number) private view returns (bool) {\r\n        return _mintedNumbers[number];\r\n    }\r\n\r\n    function _setNumberMinted(int64 number) private {\r\n        _mintedNumbers[number] = true;\r\n    }\r\n\r\n    function setMinter(address minter) public returns (address) {\r\n        require(!_minterSet, \"setMinter() can only be called once.\");\r\n        _minter = minter;\r\n        _minterSet= true;\r\n\r\n        return _minter;\r\n    }\r\n\r\n    function getTokenInfo(uint256 tokenId) public view returns (TokenInfo memory) {\r\n        require(_exists(tokenId), \"Token: getting info of nonexistent token\");\r\n\r\n        TokenInfo memory info;\r\n        info.id = tokenId;\r\n        info.operation = getOperation(tokenId);\r\n        info.number = getNumber(tokenId);\r\n        info.uri = tokenURI(tokenId);\r\n\r\n        return info;\r\n    }\r\n\r\n    function getTokenInfos(address addr) public view returns (TokenInfo[] memory) {\r\n        uint256 balance = balanceOf(addr);\r\n        TokenInfo[] memory tokenIds = new TokenInfo[](balance);\r\n        uint256 found = 0;\r\n        \r\n        for (uint256 i=0; found < balance; i++) {\r\n            if (_exists(i) && ownerOf(i) == addr) {\r\n                tokenIds[found] = getTokenInfo(i);\r\n                found++;\r\n            }\r\n        }\r\n\r\n        return tokenIds;\r\n    }\r\n\r\n    function getType(uint256 tokenId) public view returns (Type) {\r\n        require(_exists(tokenId), \"Token: getting type of nonexistent token\");\r\n        if (getOperation(tokenId) != Operation.None) {\r\n            return Type.Operation;\r\n        } else {\r\n            return Type.Number;\r\n        }\r\n    }\r\n\r\n    function getNumber(uint256 tokenId) public view returns (int64) {\r\n        require(_exists(tokenId), \"Token: getting number of nonexistent token\");\r\n        return _numbers[tokenId];\r\n    }\r\n\r\n    function getOperation(uint256 tokenId) public view returns (Operation) {\r\n        require(_exists(tokenId), \"Token: getting op of nonexistent token\");\r\n        return _operations[tokenId];\r\n    }\r\n\r\n    // TODO: remove?\r\n    function getOperationText(uint256 tokenId) public view returns (string memory) {\r\n        require(_exists(tokenId), \"Token: getting text of nonexistent token\");\r\n        require(getType(tokenId) == Type.Operation, \"Token: getting text from Number token\");\r\n        \r\n        Operation op = getOperation(tokenId);\r\n        if (op == Operation.Add) {\r\n            return \"+\";\r\n        } else if (op == Operation.Sub) {\r\n            return \"-\";\r\n        } else if (op == Operation.Mul) {\r\n            return \"*\";\r\n        } else if (op == Operation.Div) {\r\n            return \"/\";\r\n        }\r\n\r\n        return \"\";\r\n    }\r\n\r\n    function runOperation(Operation op, int64 v1, int64 v2) public pure returns (int64) {\r\n        if (op == Operation.Add) {\r\n            return v1 + v2;\r\n        } else if (op == Operation.Sub) {\r\n            return v1 - v2;\r\n        } else if (op == Operation.Mul) {\r\n            return v1 * v2;\r\n        } else if (op == Operation.Div) {\r\n            return v1 / v2;\r\n        }\r\n\r\n        return 0;\r\n    }\r\n\r\n    event XXX(address minter, address sender);\r\n\r\n    //todo test minter\r\n    function mintNumber(address acct, string memory uri, int64 number) public returns (uint256)\r\n    {\r\n        require(!_isNumberMinted(number), \"The token for that number was already minted.\");\r\n\r\n        // After the initial tokens are minted, only the minter address will be able to mint more.\r\n        if (_initialMinted >= _initialMax) {\r\n            emit XXX(_minter, _msgSender());\r\n            require(_msgSender() == _minter, \"Only the minter address can mint new Tokens.\");\r\n        }\r\n        _initialMinted++;\r\n\r\n        uint256 newTokenId = _mint(acct, uri);\r\n        _numbers[newTokenId] = number;\r\n        _setNumberMinted(number);\r\n\r\n        return newTokenId;\r\n    }\r\n\r\n    function mintOperation(address acct, string memory uri, Operation operation) public returns (uint256)\r\n    {\r\n        uint256 newTokenId = _mint(acct, uri);\r\n        _operations[newTokenId] = operation;\r\n\r\n        return newTokenId;\r\n    }\r\n\r\n\r\n}",
  "sourcePath": "D:/Blockchain/Ethereum/Projects/arithmetoken/src/contracts/Token.sol",
  "compiler": {
    "name": "solc",
    "version": "0.8.1+commit.df193b15.Emscripten.clang"
  },
  "schemaVersion": "3.4.1",
  "updatedAt": "2021-06-30T07:21:00.585Z",
  "devdoc": {
    "kind": "dev",
    "methods": {
      "approve(address,uint256)": {
        "details": "See {IERC721-approve}."
      },
      "balanceOf(address)": {
        "details": "See {IERC721-balanceOf}."
      },
      "getApproved(uint256)": {
        "details": "See {IERC721-getApproved}."
      },
      "isApprovedForAll(address,address)": {
        "details": "See {IERC721-isApprovedForAll}."
      },
      "name()": {
        "details": "See {IERC721Metadata-name}."
      },
      "ownerOf(uint256)": {
        "details": "See {IERC721-ownerOf}."
      },
      "safeTransferFrom(address,address,uint256)": {
        "details": "See {IERC721-safeTransferFrom}."
      },
      "safeTransferFrom(address,address,uint256,bytes)": {
        "details": "See {IERC721-safeTransferFrom}."
      },
      "setApprovalForAll(address,bool)": {
        "details": "See {IERC721-setApprovalForAll}."
      },
      "supportsInterface(bytes4)": {
        "details": "See {IERC165-supportsInterface}."
      },
      "symbol()": {
        "details": "See {IERC721Metadata-symbol}."
      },
      "tokenURI(uint256)": {
        "details": "See {IERC721Metadata-tokenURI}."
      },
      "transferFrom(address,address,uint256)": {
        "details": "See {IERC721-transferFrom}."
      }
    },
    "version": 1
  },
  "userdoc": {
    "kind": "user",
    "methods": {},
    "version": 1
  }
}