{
  "contractName": "Token",
  "abi": [
    {
      "inputs": [],
      "stateMutability": "nonpayable",
      "type": "constructor"
    },
    {
      "anonymous": false,
      "inputs": [
        {
          "indexed": true,
          "internalType": "address",
          "name": "owner",
          "type": "address"
        },
        {
          "indexed": true,
          "internalType": "address",
          "name": "approved",
          "type": "address"
        },
        {
          "indexed": true,
          "internalType": "uint256",
          "name": "tokenId",
          "type": "uint256"
        }
      ],
      "name": "Approval",
      "type": "event"
    },
    {
      "anonymous": false,
      "inputs": [
        {
          "indexed": true,
          "internalType": "address",
          "name": "owner",
          "type": "address"
        },
        {
          "indexed": true,
          "internalType": "address",
          "name": "operator",
          "type": "address"
        },
        {
          "indexed": false,
          "internalType": "bool",
          "name": "approved",
          "type": "bool"
        }
      ],
      "name": "ApprovalForAll",
      "type": "event"
    },
    {
      "anonymous": false,
      "inputs": [
        {
          "indexed": true,
          "internalType": "address",
          "name": "addr",
          "type": "address"
        },
        {
          "indexed": true,
          "internalType": "uint256",
          "name": "tokenId",
          "type": "uint256"
        }
      ],
      "name": "Minted",
      "type": "event"
    },
    {
      "anonymous": false,
      "inputs": [
        {
          "indexed": true,
          "internalType": "address",
          "name": "from",
          "type": "address"
        },
        {
          "indexed": true,
          "internalType": "address",
          "name": "to",
          "type": "address"
        },
        {
          "indexed": true,
          "internalType": "uint256",
          "name": "tokenId",
          "type": "uint256"
        }
      ],
      "name": "Transfer",
      "type": "event"
    },
    {
      "inputs": [
        {
          "internalType": "address",
          "name": "to",
          "type": "address"
        },
        {
          "internalType": "uint256",
          "name": "tokenId",
          "type": "uint256"
        }
      ],
      "name": "approve",
      "outputs": [],
      "stateMutability": "nonpayable",
      "type": "function"
    },
    {
      "inputs": [
        {
          "internalType": "address",
          "name": "owner",
          "type": "address"
        }
      ],
      "name": "balanceOf",
      "outputs": [
        {
          "internalType": "uint256",
          "name": "",
          "type": "uint256"
        }
      ],
      "stateMutability": "view",
      "type": "function"
    },
    {
      "inputs": [
        {
          "internalType": "uint256",
          "name": "tokenId",
          "type": "uint256"
        }
      ],
      "name": "getApproved",
      "outputs": [
        {
          "internalType": "address",
          "name": "",
          "type": "address"
        }
      ],
      "stateMutability": "view",
      "type": "function"
    },
    {
      "inputs": [
        {
          "internalType": "address",
          "name": "owner",
          "type": "address"
        },
        {
          "internalType": "address",
          "name": "operator",
          "type": "address"
        }
      ],
      "name": "isApprovedForAll",
      "outputs": [
        {
          "internalType": "bool",
          "name": "",
          "type": "bool"
        }
      ],
      "stateMutability": "view",
      "type": "function"
    },
    {
      "inputs": [],
      "name": "name",
      "outputs": [
        {
          "internalType": "string",
          "name": "",
          "type": "string"
        }
      ],
      "stateMutability": "view",
      "type": "function"
    },
    {
      "inputs": [
        {
          "internalType": "uint256",
          "name": "tokenId",
          "type": "uint256"
        }
      ],
      "name": "ownerOf",
      "outputs": [
        {
          "internalType": "address",
          "name": "",
          "type": "address"
        }
      ],
      "stateMutability": "view",
      "type": "function"
    },
    {
      "inputs": [
        {
          "internalType": "address",
          "name": "from",
          "type": "address"
        },
        {
          "internalType": "address",
          "name": "to",
          "type": "address"
        },
        {
          "internalType": "uint256",
          "name": "tokenId",
          "type": "uint256"
        }
      ],
      "name": "safeTransferFrom",
      "outputs": [],
      "stateMutability": "nonpayable",
      "type": "function"
    },
    {
      "inputs": [
        {
          "internalType": "address",
          "name": "from",
          "type": "address"
        },
        {
          "internalType": "address",
          "name": "to",
          "type": "address"
        },
        {
          "internalType": "uint256",
          "name": "tokenId",
          "type": "uint256"
        },
        {
          "internalType": "bytes",
          "name": "_data",
          "type": "bytes"
        }
      ],
      "name": "safeTransferFrom",
      "outputs": [],
      "stateMutability": "nonpayable",
      "type": "function"
    },
    {
      "inputs": [
        {
          "internalType": "address",
          "name": "operator",
          "type": "address"
        },
        {
          "internalType": "bool",
          "name": "approved",
          "type": "bool"
        }
      ],
      "name": "setApprovalForAll",
      "outputs": [],
      "stateMutability": "nonpayable",
      "type": "function"
    },
    {
      "inputs": [
        {
          "internalType": "bytes4",
          "name": "interfaceId",
          "type": "bytes4"
        }
      ],
      "name": "supportsInterface",
      "outputs": [
        {
          "internalType": "bool",
          "name": "",
          "type": "bool"
        }
      ],
      "stateMutability": "view",
      "type": "function"
    },
    {
      "inputs": [],
      "name": "symbol",
      "outputs": [
        {
          "internalType": "string",
          "name": "",
          "type": "string"
        }
      ],
      "stateMutability": "view",
      "type": "function"
    },
    {
      "inputs": [
        {
          "internalType": "uint256",
          "name": "tokenId",
          "type": "uint256"
        }
      ],
      "name": "tokenURI",
      "outputs": [
        {
          "internalType": "string",
          "name": "",
          "type": "string"
        }
      ],
      "stateMutability": "view",
      "type": "function"
    },
    {
      "inputs": [
        {
          "internalType": "address",
          "name": "from",
          "type": "address"
        },
        {
          "internalType": "address",
          "name": "to",
          "type": "address"
        },
        {
          "internalType": "uint256",
          "name": "tokenId",
          "type": "uint256"
        }
      ],
      "name": "transferFrom",
      "outputs": [],
      "stateMutability": "nonpayable",
      "type": "function"
    },
    {
      "inputs": [
        {
          "internalType": "int64",
          "name": "number",
          "type": "int64"
        }
      ],
      "name": "isNumberMinted",
      "outputs": [
        {
          "internalType": "bool",
          "name": "",
          "type": "bool"
        }
      ],
      "stateMutability": "view",
      "type": "function"
    },
    {
      "inputs": [
        {
          "internalType": "address",
          "name": "minter",
          "type": "address"
        }
      ],
      "name": "setMinter",
      "outputs": [
        {
          "internalType": "address",
          "name": "",
          "type": "address"
        }
      ],
      "stateMutability": "nonpayable",
      "type": "function"
    },
    {
      "inputs": [
        {
          "internalType": "uint256",
          "name": "tokenId",
          "type": "uint256"
        }
      ],
      "name": "getTokenInfo",
      "outputs": [
        {
          "components": [
            {
              "internalType": "uint256",
              "name": "id",
              "type": "uint256"
            },
            {
              "internalType": "enum Token.Operation",
              "name": "operation",
              "type": "uint8"
            },
            {
              "internalType": "int64",
              "name": "number",
              "type": "int64"
            },
            {
              "internalType": "string",
              "name": "uri",
              "type": "string"
            }
          ],
          "internalType": "struct Token.TokenInfo",
          "name": "",
          "type": "tuple"
        }
      ],
      "stateMutability": "view",
      "type": "function"
    },
    {
      "inputs": [
        {
          "internalType": "address",
          "name": "addr",
          "type": "address"
        }
      ],
      "name": "getTokenInfos",
      "outputs": [
        {
          "components": [
            {
              "internalType": "uint256",
              "name": "id",
              "type": "uint256"
            },
            {
              "internalType": "enum Token.Operation",
              "name": "operation",
              "type": "uint8"
            },
            {
              "internalType": "int64",
              "name": "number",
              "type": "int64"
            },
            {
              "internalType": "string",
              "name": "uri",
              "type": "string"
            }
          ],
          "internalType": "struct Token.TokenInfo[]",
          "name": "",
          "type": "tuple[]"
        }
      ],
      "stateMutability": "view",
      "type": "function"
    },
    {
      "inputs": [
        {
          "internalType": "uint256",
          "name": "tokenId",
          "type": "uint256"
        }
      ],
      "name": "getType",
      "outputs": [
        {
          "internalType": "enum Token.Type",
          "name": "",
          "type": "uint8"
        }
      ],
      "stateMutability": "view",
      "type": "function"
    },
    {
      "inputs": [
        {
          "internalType": "uint256",
          "name": "tokenId",
          "type": "uint256"
        }
      ],
      "name": "getNumber",
      "outputs": [
        {
          "internalType": "int64",
          "name": "",
          "type": "int64"
        }
      ],
      "stateMutability": "view",
      "type": "function"
    },
    {
      "inputs": [
        {
          "internalType": "uint256",
          "name": "tokenId",
          "type": "uint256"
        }
      ],
      "name": "getOperation",
      "outputs": [
        {
          "internalType": "enum Token.Operation",
          "name": "",
          "type": "uint8"
        }
      ],
      "stateMutability": "view",
      "type": "function"
    },
    {
      "inputs": [
        {
          "internalType": "uint256",
          "name": "tokenId",
          "type": "uint256"
        }
      ],
      "name": "getOperationText",
      "outputs": [
        {
          "internalType": "string",
          "name": "",
          "type": "string"
        }
      ],
      "stateMutability": "view",
      "type": "function"
    },
    {
      "inputs": [
        {
          "internalType": "enum Token.Operation",
          "name": "op",
          "type": "uint8"
        },
        {
          "internalType": "int64",
          "name": "v1",
          "type": "int64"
        },
        {
          "internalType": "int64",
          "name": "v2",
          "type": "int64"
        }
      ],
      "name": "runOperation",
      "outputs": [
        {
          "internalType": "int64",
          "name": "",
          "type": "int64"
        }
      ],
      "stateMutability": "pure",
      "type": "function"
    },
    {
      "inputs": [
        {
          "internalType": "address",
          "name": "acct",
          "type": "address"
        },
        {
          "internalType": "string",
          "name": "uri",
          "type": "string"
        },
        {
          "internalType": "int64",
          "name": "number",
          "type": "int64"
        }
      ],
      "name": "mintNumber",
      "outputs": [
        {
          "internalType": "uint256",
          "name": "",
          "type": "uint256"
        }
      ],
      "stateMutability": "nonpayable",
      "type": "function"
    },
    {
      "inputs": [
        {
          "internalType": "address",
          "name": "acct",
          "type": "address"
        },
        {
          "internalType": "int64[]",
          "name": "numbers",
          "type": "int64[]"
        },
        {
          "internalType": "string[]",
          "name": "uris",
          "type": "string[]"
        }
      ],
      "name": "mintInitialNumbers",
      "outputs": [],
      "stateMutability": "nonpayable",
      "type": "function"
    },
    {
      "inputs": [
        {
          "internalType": "address",
          "name": "acct",
          "type": "address"
        },
        {
          "internalType": "string",
          "name": "uri",
          "type": "string"
        },
        {
          "internalType": "enum Token.Operation",
          "name": "operation",
          "type": "uint8"
        }
      ],
      "name": "mintOperation",
      "outputs": [
        {
          "internalType": "uint256",
          "name": "",
          "type": "uint256"
        }
      ],
      "stateMutability": "nonpayable",
      "type": "function"
    }
  ],
  "bytecode": "0x60806040526000600b60006101000a81548173ffffffffffffffffffffffffffffffffffffffff021916908373ffffffffffffffffffffffffffffffffffffffff1602179055506000600b60146101000a81548160ff0219169083151502179055503480156200006e57600080fd5b506040518060400160405280600c81526020017f41726974686d65546f6b656e00000000000000000000000000000000000000008152506040518060400160405280600381526020017f41524900000000000000000000000000000000000000000000000000000000008152508160009080519060200190620000f392919062000115565b5080600190805190602001906200010c92919062000115565b5050506200022a565b8280546200012390620001c5565b90600052602060002090601f01602090048101928262000147576000855562000193565b82601f106200016257805160ff191683800117855562000193565b8280016001018555821562000193579182015b828111156200019257825182559160200191906001019062000175565b5b509050620001a29190620001a6565b5090565b5b80821115620001c1576000816000905550600101620001a7565b5090565b60006002820490506001821680620001de57607f821691505b60208210811415620001f557620001f4620001fb565b5b50919050565b7f4e487b7100000000000000000000000000000000000000000000000000000000600052602260045260246000fd5b614ce5806200023a6000396000f3fe608060405234801561001057600080fd5b50600436106101735760003560e01c8063885806e3116100de578063b88d4fde11610097578063dc38041711610071578063dc380417146104cc578063e985e9c5146104fc578063fc5636581461052c578063fca3b5aa1461055c57610173565b8063b88d4fde14610450578063c87b56dd1461046c578063cdae31301461049c57610173565b8063885806e31461036a5780638940fd9d146103865780638c7a63ae146103b657806395d89b41146103e6578063a22cb46514610404578063a8802def1461042057610173565b806323b872dd1161013057806323b872dd146102725780634036ab781461028e57806342842e0e146102be5780636352211e146102da57806370a082311461030a57806382960f981461033a57610173565b806301ffc9a71461017857806306fdde03146101a8578063081812fc146101c6578063095ea7b3146101f65780631a639ec014610212578063202e392414610242575b600080fd5b610192600480360381019061018d919061309d565b61058c565b60405161019f91906138a0565b60405180910390f35b6101b061066e565b6040516101bd919061390c565b60405180910390f35b6101e060048036038101906101db9190613167565b610700565b6040516101ed9190613817565b60405180910390f35b610210600480360381019061020b9190613061565b610785565b005b61022c6004803603810190610227919061313e565b61089d565b60405161023991906138a0565b60405180910390f35b61025c60048036038101906102579190613167565b6108cd565b60405161026991906138bb565b60405180910390f35b61028c60048036038101906102879190612e0e565b61093f565b005b6102a860048036038101906102a39190613167565b61099f565b6040516102b591906138d6565b60405180910390f35b6102d860048036038101906102d39190612e0e565b610a7c565b005b6102f460048036038101906102ef9190613167565b610a9c565b6040516103019190613817565b60405180910390f35b610324600480360381019061031f9190612da9565b610b4e565b6040516103319190613cb0565b60405180910390f35b610354600480360381019061034f9190612f93565b610c06565b6040516103619190613cb0565b60405180910390f35b610384600480360381019061037f9190612ed8565b610c81565b005b6103a0600480360381019061039b9190612ffa565b610de1565b6040516103ad9190613cb0565b60405180910390f35b6103d060048036038101906103cb9190613167565b610e8e565b6040516103dd9190613c8e565b60405180910390f35b6103ee610fa8565b6040516103fb919061390c565b60405180910390f35b61041e60048036038101906104199190612f57565b61103a565b005b61043a60048036038101906104359190613167565b6111bb565b604051610447919061390c565b60405180910390f35b61046a60048036038101906104659190612e5d565b6115c1565b005b61048660048036038101906104819190613167565b611623565b604051610493919061390c565b60405180910390f35b6104b660048036038101906104b19190612da9565b611775565b6040516104c3919061387e565b60405180910390f35b6104e660048036038101906104e191906130ef565b6118d6565b6040516104f391906138f1565b60405180910390f35b61051660048036038101906105119190612dd2565b611b13565b60405161052391906138a0565b60405180910390f35b61054660048036038101906105419190613167565b611ba7565b60405161055391906138f1565b60405180910390f35b61057660048036038101906105719190612da9565b611c19565b6040516105839190613817565b60405180910390f35b60007f80ac58cd000000000000000000000000000000000000000000000000000000007bffffffffffffffffffffffffffffffffffffffffffffffffffffffff1916827bffffffffffffffffffffffffffffffffffffffffffffffffffffffff1916148061065757507f5b5e139f000000000000000000000000000000000000000000000000000000007bffffffffffffffffffffffffffffffffffffffffffffffffffffffff1916827bffffffffffffffffffffffffffffffffffffffffffffffffffffffff1916145b80610667575061066682611cce565b5b9050919050565b60606000805461067d90614248565b80601f01602080910402602001604051908101604052809291908181526020018280546106a990614248565b80156106f65780601f106106cb576101008083540402835291602001916106f6565b820191906000526020600020905b8154815290600101906020018083116106d957829003601f168201915b5050505050905090565b600061070b82611d38565b61074a576040517f08c379a000000000000000000000000000000000000000000000000000000000815260040161074190613aee565b60405180910390fd5b6004600083815260200190815260200160002060009054906101000a900473ffffffffffffffffffffffffffffffffffffffff169050919050565b600061079082610a9c565b90508073ffffffffffffffffffffffffffffffffffffffff168373ffffffffffffffffffffffffffffffffffffffff161415610801576040517f08c379a00000000000000000000000000000000000000000000000000000000081526004016107f890613bee565b60405180910390fd5b8073ffffffffffffffffffffffffffffffffffffffff16610820611da4565b73ffffffffffffffffffffffffffffffffffffffff16148061084f575061084e81610849611da4565b611b13565b5b61088e576040517f08c379a000000000000000000000000000000000000000000000000000000000815260040161088590613a0e565b60405180910390fd5b6108988383611dac565b505050565b6000600a60008360070b60070b815260200190815260200160002060009054906101000a900460ff169050919050565b60006108d882611d38565b610917576040517f08c379a000000000000000000000000000000000000000000000000000000000815260040161090e906139ee565b60405180910390fd5b6008600083815260200190815260200160002060009054906101000a900460ff169050919050565b61095061094a611da4565b82611e65565b61098f576040517f08c379a000000000000000000000000000000000000000000000000000000000815260040161098690613c0e565b60405180910390fd5b61099a838383611f43565b505050565b60006109aa82611d38565b6109e9576040517f08c379a00000000000000000000000000000000000000000000000000000000081526004016109e09061392e565b60405180910390fd5b60006004811115610a23577f4e487b7100000000000000000000000000000000000000000000000000000000600052602160045260246000fd5b610a2c836108cd565b6004811115610a64577f4e487b7100000000000000000000000000000000000000000000000000000000600052602160045260246000fd5b14610a725760009050610a77565b600190505b919050565b610a97838383604051806020016040528060008152506115c1565b505050565b6000806002600084815260200190815260200160002060009054906101000a900473ffffffffffffffffffffffffffffffffffffffff169050600073ffffffffffffffffffffffffffffffffffffffff168173ffffffffffffffffffffffffffffffffffffffff161415610b45576040517f08c379a0000000000000000000000000000000000000000000000000000000008152600401610b3c90613a4e565b60405180910390fd5b80915050919050565b60008073ffffffffffffffffffffffffffffffffffffffff168273ffffffffffffffffffffffffffffffffffffffff161415610bbf576040517f08c379a0000000000000000000000000000000000000000000000000000000008152600401610bb690613a2e565b60405180910390fd5b600360008373ffffffffffffffffffffffffffffffffffffffff1673ffffffffffffffffffffffffffffffffffffffff168152602001908152602001600020549050919050565b600080610c13858561219f565b9050826008600083815260200190815260200160002060006101000a81548160ff02191690836004811115610c71577f4e487b7100000000000000000000000000000000000000000000000000000000600052602160045260246000fd5b0217905550809150509392505050565b600b60149054906101000a900460ff1615610cd1576040517f08c379a0000000000000000000000000000000000000000000000000000000008152600401610cc890613b4e565b60405180910390fd5b8051825114610d15576040517f08c379a0000000000000000000000000000000000000000000000000000000008152600401610d0c90613b8e565b60405180910390fd5b60005b8251811015610dc057610dac84838381518110610d5e577f4e487b7100000000000000000000000000000000000000000000000000000000600052603260045260246000fd5b6020026020010151858481518110610d9f577f4e487b7100000000000000000000000000000000000000000000000000000000600052603260045260246000fd5b602002602001015161221b565b508080610db8906142ab565b915050610d18565b506001600b60146101000a81548160ff021916908315150217905550505050565b6000600b60009054906101000a900473ffffffffffffffffffffffffffffffffffffffff1673ffffffffffffffffffffffffffffffffffffffff16610e24611da4565b73ffffffffffffffffffffffffffffffffffffffff1614610e7a576040517f08c379a0000000000000000000000000000000000000000000000000000000008152600401610e7190613c2e565b60405180910390fd5b610e8584848461221b565b90509392505050565b610e96612a23565b610e9f82611d38565b610ede576040517f08c379a0000000000000000000000000000000000000000000000000000000008152600401610ed590613bae565b60405180910390fd5b610ee6612a23565b82816000018181525050610ef9836108cd565b81602001906004811115610f36577f4e487b7100000000000000000000000000000000000000000000000000000000600052602160045260246000fd5b90816004811115610f70577f4e487b7100000000000000000000000000000000000000000000000000000000600052602160045260246000fd5b81525050610f7d83611ba7565b816040019060070b908160070b81525050610f9783611623565b816060018190525080915050919050565b606060018054610fb790614248565b80601f0160208091040260200160405190810160405280929190818152602001828054610fe390614248565b80156110305780601f1061100557610100808354040283529160200191611030565b820191906000526020600020905b81548152906001019060200180831161101357829003601f168201915b5050505050905090565b611042611da4565b73ffffffffffffffffffffffffffffffffffffffff168273ffffffffffffffffffffffffffffffffffffffff1614156110b0576040517f08c379a00000000000000000000000000000000000000000000000000000000081526004016110a7906139ae565b60405180910390fd5b80600560006110bd611da4565b73ffffffffffffffffffffffffffffffffffffffff1673ffffffffffffffffffffffffffffffffffffffff16815260200190815260200160002060008473ffffffffffffffffffffffffffffffffffffffff1673ffffffffffffffffffffffffffffffffffffffff16815260200190815260200160002060006101000a81548160ff0219169083151502179055508173ffffffffffffffffffffffffffffffffffffffff1661116a611da4565b73ffffffffffffffffffffffffffffffffffffffff167f17307eab39ab6107e8899845ad3d59bd9653f200f220920489ca2b5937696c31836040516111af91906138a0565b60405180910390a35050565b60606111c682611d38565b611205576040517f08c379a00000000000000000000000000000000000000000000000000000000081526004016111fc90613b0e565b60405180910390fd5b6000600181111561123f577f4e487b7100000000000000000000000000000000000000000000000000000000600052602160045260246000fd5b6112488361099f565b6001811115611280577f4e487b7100000000000000000000000000000000000000000000000000000000600052602160045260246000fd5b146112c0576040517f08c379a00000000000000000000000000000000000000000000000000000000081526004016112b790613c4e565b60405180910390fd5b60006112cb836108cd565b905060016004811115611307577f4e487b7100000000000000000000000000000000000000000000000000000000600052602160045260246000fd5b816004811115611340577f4e487b7100000000000000000000000000000000000000000000000000000000600052602160045260246000fd5b1415611384576040518060400160405280600181526020017f2b000000000000000000000000000000000000000000000000000000000000008152509150506115bc565b600260048111156113be577f4e487b7100000000000000000000000000000000000000000000000000000000600052602160045260246000fd5b8160048111156113f7577f4e487b7100000000000000000000000000000000000000000000000000000000600052602160045260246000fd5b141561143b576040518060400160405280600181526020017f2d000000000000000000000000000000000000000000000000000000000000008152509150506115bc565b60036004811115611475577f4e487b7100000000000000000000000000000000000000000000000000000000600052602160045260246000fd5b8160048111156114ae577f4e487b7100000000000000000000000000000000000000000000000000000000600052602160045260246000fd5b14156114f2576040518060400160405280600181526020017f2a000000000000000000000000000000000000000000000000000000000000008152509150506115bc565b60048081111561152b577f4e487b7100000000000000000000000000000000000000000000000000000000600052602160045260246000fd5b816004811115611564577f4e487b7100000000000000000000000000000000000000000000000000000000600052602160045260246000fd5b14156115a8576040518060400160405280600181526020017f2f000000000000000000000000000000000000000000000000000000000000008152509150506115bc565b604051806020016040528060008152509150505b919050565b6115d26115cc611da4565b83611e65565b611611576040517f08c379a000000000000000000000000000000000000000000000000000000000815260040161160890613c0e565b60405180910390fd5b61161d848484846122ee565b50505050565b606061162e82611d38565b61166d576040517f08c379a000000000000000000000000000000000000000000000000000000000815260040161166490613ace565b60405180910390fd5b600060066000848152602001908152602001600020805461168d90614248565b80601f01602080910402602001604051908101604052809291908181526020018280546116b990614248565b80156117065780601f106116db57610100808354040283529160200191611706565b820191906000526020600020905b8154815290600101906020018083116116e957829003601f168201915b50505050509050600061171761234a565b905060008151141561172d578192505050611770565b60008251111561176257808260405160200161174a9291906137f3565b60405160208183030381529060405292505050611770565b61176b84612361565b925050505b919050565b6060600061178283610b4e565b905060008167ffffffffffffffff8111156117c6577f4e487b7100000000000000000000000000000000000000000000000000000000600052604160045260246000fd5b6040519080825280602002602001820160405280156117ff57816020015b6117ec612a23565b8152602001906001900390816117e45790505b5090506000805b838210156118ca5761181781611d38565b801561185657508573ffffffffffffffffffffffffffffffffffffffff1661183e82610a9c565b73ffffffffffffffffffffffffffffffffffffffff16145b156118b75761186481610e8e565b83838151811061189d577f4e487b7100000000000000000000000000000000000000000000000000000000600052603260045260246000fd5b602002602001018190525081806118b3906142ab565b9250505b80806118c2906142ab565b915050611806565b50819350505050919050565b600060016004811115611912577f4e487b7100000000000000000000000000000000000000000000000000000000600052602160045260246000fd5b84600481111561194b577f4e487b7100000000000000000000000000000000000000000000000000000000600052602160045260246000fd5b141561196457818361195d9190613e37565b9050611b0c565b6002600481111561199e577f4e487b7100000000000000000000000000000000000000000000000000000000600052602160045260246000fd5b8460048111156119d7577f4e487b7100000000000000000000000000000000000000000000000000000000600052602160045260246000fd5b14156119f05781836119e9919061408b565b9050611b0c565b60036004811115611a2a577f4e487b7100000000000000000000000000000000000000000000000000000000600052602160045260246000fd5b846004811115611a63577f4e487b7100000000000000000000000000000000000000000000000000000000600052602160045260246000fd5b1415611a7c578183611a759190613fa4565b9050611b0c565b600480811115611ab5577f4e487b7100000000000000000000000000000000000000000000000000000000600052602160045260246000fd5b846004811115611aee577f4e487b7100000000000000000000000000000000000000000000000000000000600052602160045260246000fd5b1415611b07578183611b009190613f09565b9050611b0c565b600090505b9392505050565b6000600560008473ffffffffffffffffffffffffffffffffffffffff1673ffffffffffffffffffffffffffffffffffffffff16815260200190815260200160002060008373ffffffffffffffffffffffffffffffffffffffff1673ffffffffffffffffffffffffffffffffffffffff16815260200190815260200160002060009054906101000a900460ff16905092915050565b6000611bb282611d38565b611bf1576040517f08c379a0000000000000000000000000000000000000000000000000000000008152600401611be890613bce565b60405180910390fd5b6009600083815260200190815260200160002060009054906101000a900460070b9050919050565b6000611c23612408565b15611c63576040517f08c379a0000000000000000000000000000000000000000000000000000000008152600401611c5a90613c6e565b60405180910390fd5b81600b60006101000a81548173ffffffffffffffffffffffffffffffffffffffff021916908373ffffffffffffffffffffffffffffffffffffffff160217905550600b60009054906101000a900473ffffffffffffffffffffffffffffffffffffffff169050919050565b60007f01ffc9a7000000000000000000000000000000000000000000000000000000007bffffffffffffffffffffffffffffffffffffffffffffffffffffffff1916827bffffffffffffffffffffffffffffffffffffffffffffffffffffffff1916149050919050565b60008073ffffffffffffffffffffffffffffffffffffffff166002600084815260200190815260200160002060009054906101000a900473ffffffffffffffffffffffffffffffffffffffff1673ffffffffffffffffffffffffffffffffffffffff1614159050919050565b600033905090565b816004600083815260200190815260200160002060006101000a81548173ffffffffffffffffffffffffffffffffffffffff021916908373ffffffffffffffffffffffffffffffffffffffff160217905550808273ffffffffffffffffffffffffffffffffffffffff16611e1f83610a9c565b73ffffffffffffffffffffffffffffffffffffffff167f8c5be1e5ebec7d5bd14f71427d1e84f3dd0314c0f7b2291e5b200ac8c7c3b92560405160405180910390a45050565b6000611e7082611d38565b611eaf576040517f08c379a0000000000000000000000000000000000000000000000000000000008152600401611ea6906139ce565b60405180910390fd5b6000611eba83610a9c565b90508073ffffffffffffffffffffffffffffffffffffffff168473ffffffffffffffffffffffffffffffffffffffff161480611f2957508373ffffffffffffffffffffffffffffffffffffffff16611f1184610700565b73ffffffffffffffffffffffffffffffffffffffff16145b80611f3a5750611f398185611b13565b5b91505092915050565b8273ffffffffffffffffffffffffffffffffffffffff16611f6382610a9c565b73ffffffffffffffffffffffffffffffffffffffff1614611fb9576040517f08c379a0000000000000000000000000000000000000000000000000000000008152600401611fb090613b2e565b60405180910390fd5b600073ffffffffffffffffffffffffffffffffffffffff168273ffffffffffffffffffffffffffffffffffffffff161415612029576040517f08c379a00000000000000000000000000000000000000000000000000000000081526004016120209061398e565b60405180910390fd5b612034838383612461565b61203f600082611dac565b6001600360008573ffffffffffffffffffffffffffffffffffffffff1673ffffffffffffffffffffffffffffffffffffffff168152602001908152602001600020600082825461208f9190614107565b925050819055506001600360008473ffffffffffffffffffffffffffffffffffffffff1673ffffffffffffffffffffffffffffffffffffffff16815260200190815260200160002060008282546120e69190613eb3565b92505081905550816002600083815260200190815260200160002060006101000a81548173ffffffffffffffffffffffffffffffffffffffff021916908373ffffffffffffffffffffffffffffffffffffffff160217905550808273ffffffffffffffffffffffffffffffffffffffff168473ffffffffffffffffffffffffffffffffffffffff167fddf252ad1be2c89b69c2b068fc378daa952ba7f163c4a11628f55a4df523b3ef60405160405180910390a4505050565b60006121ab6007612466565b60006121b7600761247c565b90506121c3848261248a565b6121cd8184612658565b808473ffffffffffffffffffffffffffffffffffffffff167f30385c845b448a36257a6a1716e6ad2e1bc2cbe333cde1e69fe849ad6511adfe60405160405180910390a38091505092915050565b60006122268261089d565b15612266576040517f08c379a000000000000000000000000000000000000000000000000000000000815260040161225d90613a8e565b60405180910390fd5b6000612272858561219f565b9050826009600083815260200190815260200160002060006101000a81548167ffffffffffffffff021916908360070b67ffffffffffffffff1602179055506001600a60008560070b60070b815260200190815260200160002060006101000a81548160ff021916908315150217905550809150509392505050565b6122f9848484611f43565b612305848484846126cc565b612344576040517f08c379a000000000000000000000000000000000000000000000000000000000815260040161233b9061394e565b60405180910390fd5b50505050565b606060405180602001604052806000815250905090565b606061236c82611d38565b6123ab576040517f08c379a00000000000000000000000000000000000000000000000000000000081526004016123a290613b6e565b60405180910390fd5b60006123b561234a565b905060008151116123d55760405180602001604052806000815250612400565b806123df84612863565b6040516020016123f09291906137f3565b6040516020818303038152906040525b915050919050565b60008073ffffffffffffffffffffffffffffffffffffffff16600b60009054906101000a900473ffffffffffffffffffffffffffffffffffffffff1673ffffffffffffffffffffffffffffffffffffffff161415905090565b505050565b6001816000016000828254019250508190555050565b600081600001549050919050565b600073ffffffffffffffffffffffffffffffffffffffff168273ffffffffffffffffffffffffffffffffffffffff1614156124fa576040517f08c379a00000000000000000000000000000000000000000000000000000000081526004016124f190613aae565b60405180910390fd5b61250381611d38565b15612543576040517f08c379a000000000000000000000000000000000000000000000000000000000815260040161253a9061396e565b60405180910390fd5b61254f60008383612461565b6001600360008473ffffffffffffffffffffffffffffffffffffffff1673ffffffffffffffffffffffffffffffffffffffff168152602001908152602001600020600082825461259f9190613eb3565b92505081905550816002600083815260200190815260200160002060006101000a81548173ffffffffffffffffffffffffffffffffffffffff021916908373ffffffffffffffffffffffffffffffffffffffff160217905550808273ffffffffffffffffffffffffffffffffffffffff16600073ffffffffffffffffffffffffffffffffffffffff167fddf252ad1be2c89b69c2b068fc378daa952ba7f163c4a11628f55a4df523b3ef60405160405180910390a45050565b61266182611d38565b6126a0576040517f08c379a000000000000000000000000000000000000000000000000000000000815260040161269790613a6e565b60405180910390fd5b806006600084815260200190815260200160002090805190602001906126c7929190612a86565b505050565b60006126ed8473ffffffffffffffffffffffffffffffffffffffff16612a10565b15612856578373ffffffffffffffffffffffffffffffffffffffff1663150b7a02612716611da4565b8786866040518563ffffffff1660e01b81526004016127389493929190613832565b602060405180830381600087803b15801561275257600080fd5b505af192505050801561278357506040513d601f19601f8201168201806040525081019061278091906130c6565b60015b612806573d80600081146127b3576040519150601f19603f3d011682016040523d82523d6000602084013e6127b8565b606091505b506000815114156127fe576040517f08c379a00000000000000000000000000000000000000000000000000000000081526004016127f59061394e565b60405180910390fd5b805181602001fd5b63150b7a0260e01b7bffffffffffffffffffffffffffffffffffffffffffffffffffffffff1916817bffffffffffffffffffffffffffffffffffffffffffffffffffffffff19161491505061285b565b600190505b949350505050565b606060008214156128ab576040518060400160405280600181526020017f30000000000000000000000000000000000000000000000000000000000000008152509050612a0b565b600082905060005b600082146128dd5780806128c6906142ab565b915050600a826128d69190613f73565b91506128b3565b60008167ffffffffffffffff81111561291f577f4e487b7100000000000000000000000000000000000000000000000000000000600052604160045260246000fd5b6040519080825280601f01601f1916602001820160405280156129515781602001600182028036833780820191505090505b5090505b60008514612a045760018261296a9190614107565b9150600a8561297991906142f4565b60306129859190613eb3565b60f81b8183815181106129c1577f4e487b7100000000000000000000000000000000000000000000000000000000600052603260045260246000fd5b60200101907effffffffffffffffffffffffffffffffffffffffffffffffffffffffffffff1916908160001a905350600a856129fd9190613f73565b9450612955565b8093505050505b919050565b600080823b905060008111915050919050565b60405180608001604052806000815260200160006004811115612a6f577f4e487b7100000000000000000000000000000000000000000000000000000000600052602160045260246000fd5b8152602001600060070b8152602001606081525090565b828054612a9290614248565b90600052602060002090601f016020900481019282612ab45760008555612afb565b82601f10612acd57805160ff1916838001178555612afb565b82800160010185558215612afb579182015b82811115612afa578251825591602001919060010190612adf565b5b509050612b089190612b0c565b5090565b5b80821115612b25576000816000905550600101612b0d565b5090565b6000612b3c612b3784613cf0565b613ccb565b90508083825260208201905082856020860282011115612b5b57600080fd5b60005b85811015612b8b5781612b718882612d55565b845260208401935060208301925050600181019050612b5e565b5050509392505050565b6000612ba8612ba384613d1c565b613ccb565b9050808382526020820190508260005b85811015612be85781358501612bce8882612d6a565b845260208401935060208301925050600181019050612bb8565b5050509392505050565b6000612c05612c0084613d48565b613ccb565b905082815260208101848484011115612c1d57600080fd5b612c28848285614206565b509392505050565b6000612c43612c3e84613d79565b613ccb565b905082815260208101848484011115612c5b57600080fd5b612c66848285614206565b509392505050565b600081359050612c7d81614c2c565b92915050565b600082601f830112612c9457600080fd5b8135612ca4848260208601612b29565b91505092915050565b600082601f830112612cbe57600080fd5b8135612cce848260208601612b95565b91505092915050565b600081359050612ce681614c43565b92915050565b600081359050612cfb81614c5a565b92915050565b600081519050612d1081614c5a565b92915050565b600082601f830112612d2757600080fd5b8135612d37848260208601612bf2565b91505092915050565b600081359050612d4f81614c71565b92915050565b600081359050612d6481614c81565b92915050565b600082601f830112612d7b57600080fd5b8135612d8b848260208601612c30565b91505092915050565b600081359050612da381614c98565b92915050565b600060208284031215612dbb57600080fd5b6000612dc984828501612c6e565b91505092915050565b60008060408385031215612de557600080fd5b6000612df385828601612c6e565b9250506020612e0485828601612c6e565b9150509250929050565b600080600060608486031215612e2357600080fd5b6000612e3186828701612c6e565b9350506020612e4286828701612c6e565b9250506040612e5386828701612d94565b9150509250925092565b60008060008060808587031215612e7357600080fd5b6000612e8187828801612c6e565b9450506020612e9287828801612c6e565b9350506040612ea387828801612d94565b925050606085013567ffffffffffffffff811115612ec057600080fd5b612ecc87828801612d16565b91505092959194509250565b600080600060608486031215612eed57600080fd5b6000612efb86828701612c6e565b935050602084013567ffffffffffffffff811115612f1857600080fd5b612f2486828701612c83565b925050604084013567ffffffffffffffff811115612f4157600080fd5b612f4d86828701612cad565b9150509250925092565b60008060408385031215612f6a57600080fd5b6000612f7885828601612c6e565b9250506020612f8985828601612cd7565b9150509250929050565b600080600060608486031215612fa857600080fd5b6000612fb686828701612c6e565b935050602084013567ffffffffffffffff811115612fd357600080fd5b612fdf86828701612d6a565b9250506040612ff086828701612d40565b9150509250925092565b60008060006060848603121561300f57600080fd5b600061301d86828701612c6e565b935050602084013567ffffffffffffffff81111561303a57600080fd5b61304686828701612d6a565b925050604061305786828701612d55565b9150509250925092565b6000806040838503121561307457600080fd5b600061308285828601612c6e565b925050602061309385828601612d94565b9150509250929050565b6000602082840312156130af57600080fd5b60006130bd84828501612cec565b91505092915050565b6000602082840312156130d857600080fd5b60006130e684828501612d01565b91505092915050565b60008060006060848603121561310457600080fd5b600061311286828701612d40565b935050602061312386828701612d55565b925050604061313486828701612d55565b9150509250925092565b60006020828403121561315057600080fd5b600061315e84828501612d55565b91505092915050565b60006020828403121561317957600080fd5b600061318784828501612d94565b91505092915050565b600061319c838361370f565b905092915050565b6131ad8161413b565b82525050565b60006131be82613dba565b6131c88185613de8565b9350836020820285016131da85613daa565b8060005b8581101561321657848403895281516131f78582613190565b945061320283613ddb565b925060208a019950506001810190506131de565b50829750879550505050505092915050565b6132318161414d565b82525050565b600061324282613dc5565b61324c8185613df9565b935061325c818560208601614215565b61326581614410565b840191505092915050565b613279816141e2565b82525050565b613288816141e2565b82525050565b613297816141f4565b82525050565b6132a6816141ab565b82525050565b6132b5816141ab565b82525050565b60006132c682613dd0565b6132d08185613e0a565b93506132e0818560208601614215565b6132e981614410565b840191505092915050565b60006132ff82613dd0565b6133098185613e1b565b9350613319818560208601614215565b61332281614410565b840191505092915050565b600061333882613dd0565b6133428185613e2c565b9350613352818560208601614215565b80840191505092915050565b600061336b602883613e1b565b915061337682614421565b604082019050919050565b600061338e603283613e1b565b915061339982614470565b604082019050919050565b60006133b1601c83613e1b565b91506133bc826144bf565b602082019050919050565b60006133d4602483613e1b565b91506133df826144e8565b604082019050919050565b60006133f7601983613e1b565b915061340282614537565b602082019050919050565b600061341a602c83613e1b565b915061342582614560565b604082019050919050565b600061343d602683613e1b565b9150613448826145af565b604082019050919050565b6000613460603883613e1b565b915061346b826145fe565b604082019050919050565b6000613483602a83613e1b565b915061348e8261464d565b604082019050919050565b60006134a6602983613e1b565b91506134b18261469c565b604082019050919050565b60006134c9602e83613e1b565b91506134d4826146eb565b604082019050919050565b60006134ec602d83613e1b565b91506134f78261473a565b604082019050919050565b600061350f602083613e1b565b915061351a82614789565b602082019050919050565b6000613532603183613e1b565b915061353d826147b2565b604082019050919050565b6000613555602c83613e1b565b915061356082614801565b604082019050919050565b6000613578602883613e1b565b915061358382614850565b604082019050919050565b600061359b602983613e1b565b91506135a68261489f565b604082019050919050565b60006135be602983613e1b565b91506135c9826148ee565b604082019050919050565b60006135e1602f83613e1b565b91506135ec8261493d565b604082019050919050565b6000613604603b83613e1b565b915061360f8261498c565b604082019050919050565b6000613627602883613e1b565b9150613632826149db565b604082019050919050565b600061364a602a83613e1b565b915061365582614a2a565b604082019050919050565b600061366d602183613e1b565b915061367882614a79565b604082019050919050565b6000613690603183613e1b565b915061369b82614ac8565b604082019050919050565b60006136b3602c83613e1b565b91506136be82614b17565b604082019050919050565b60006136d6602583613e1b565b91506136e182614b66565b604082019050919050565b60006136f9602483613e1b565b915061370482614bb5565b604082019050919050565b600060808301600083015161372760008601826137d5565b50602083015161373a6020860182613270565b50604083015161374d604086018261329d565b506060830151848203606086015261376582826132bb565b9150508091505092915050565b600060808301600083015161378a60008601826137d5565b50602083015161379d6020860182613270565b5060408301516137b0604086018261329d565b50606083015184820360608601526137c882826132bb565b9150508091505092915050565b6137de816141d8565b82525050565b6137ed816141d8565b82525050565b60006137ff828561332d565b915061380b828461332d565b91508190509392505050565b600060208201905061382c60008301846131a4565b92915050565b600060808201905061384760008301876131a4565b61385460208301866131a4565b61386160408301856137e4565b81810360608301526138738184613237565b905095945050505050565b6000602082019050818103600083015261389881846131b3565b905092915050565b60006020820190506138b56000830184613228565b92915050565b60006020820190506138d0600083018461327f565b92915050565b60006020820190506138eb600083018461328e565b92915050565b600060208201905061390660008301846132ac565b92915050565b6000602082019050818103600083015261392681846132f4565b905092915050565b600060208201905081810360008301526139478161335e565b9050919050565b6000602082019050818103600083015261396781613381565b9050919050565b60006020820190508181036000830152613987816133a4565b9050919050565b600060208201905081810360008301526139a7816133c7565b9050919050565b600060208201905081810360008301526139c7816133ea565b9050919050565b600060208201905081810360008301526139e78161340d565b9050919050565b60006020820190508181036000830152613a0781613430565b9050919050565b60006020820190508181036000830152613a2781613453565b9050919050565b60006020820190508181036000830152613a4781613476565b9050919050565b60006020820190508181036000830152613a6781613499565b9050919050565b60006020820190508181036000830152613a87816134bc565b9050919050565b60006020820190508181036000830152613aa7816134df565b9050919050565b60006020820190508181036000830152613ac781613502565b9050919050565b60006020820190508181036000830152613ae781613525565b9050919050565b60006020820190508181036000830152613b0781613548565b9050919050565b60006020820190508181036000830152613b278161356b565b9050919050565b60006020820190508181036000830152613b478161358e565b9050919050565b60006020820190508181036000830152613b67816135b1565b9050919050565b60006020820190508181036000830152613b87816135d4565b9050919050565b60006020820190508181036000830152613ba7816135f7565b9050919050565b60006020820190508181036000830152613bc78161361a565b9050919050565b60006020820190508181036000830152613be78161363d565b9050919050565b60006020820190508181036000830152613c0781613660565b9050919050565b60006020820190508181036000830152613c2781613683565b9050919050565b60006020820190508181036000830152613c47816136a6565b9050919050565b60006020820190508181036000830152613c67816136c9565b9050919050565b60006020820190508181036000830152613c87816136ec565b9050919050565b60006020820190508181036000830152613ca88184613772565b905092915050565b6000602082019050613cc560008301846137e4565b92915050565b6000613cd5613ce6565b9050613ce1828261427a565b919050565b6000604051905090565b600067ffffffffffffffff821115613d0b57613d0a6143e1565b5b602082029050602081019050919050565b600067ffffffffffffffff821115613d3757613d366143e1565b5b602082029050602081019050919050565b600067ffffffffffffffff821115613d6357613d626143e1565b5b613d6c82614410565b9050602081019050919050565b600067ffffffffffffffff821115613d9457613d936143e1565b5b613d9d82614410565b9050602081019050919050565b6000819050602082019050919050565b600081519050919050565b600081519050919050565b600081519050919050565b6000602082019050919050565b600082825260208201905092915050565b600082825260208201905092915050565b600082825260208201905092915050565b600082825260208201905092915050565b600081905092915050565b6000613e42826141ab565b9150613e4d836141ab565b925081677fffffffffffffff03831360008312151615613e7057613e6f614325565b5b817fffffffffffffffffffffffffffffffffffffffffffffffff8000000000000000038312600083121615613ea857613ea7614325565b5b828201905092915050565b6000613ebe826141d8565b9150613ec9836141d8565b9250827fffffffffffffffffffffffffffffffffffffffffffffffffffffffffffffffff03821115613efe57613efd614325565b5b828201905092915050565b6000613f14826141ab565b9150613f1f836141ab565b925082613f2f57613f2e614354565b5b600160000383147fffffffffffffffffffffffffffffffffffffffffffffffff800000000000000083141615613f6857613f67614325565b5b828205905092915050565b6000613f7e826141d8565b9150613f89836141d8565b925082613f9957613f98614354565b5b828204905092915050565b6000613faf826141ab565b9150613fba836141ab565b925082677fffffffffffffff0482116000841360008413161615613fe157613fe0614325565b5b817fffffffffffffffffffffffffffffffffffffffffffffffff8000000000000000058312600084126000841316161561401e5761401d614325565b5b827fffffffffffffffffffffffffffffffffffffffffffffffff8000000000000000058212600084136000841216161561405b5761405a614325565b5b82677fffffffffffffff05821260008412600084121616156140805761407f614325565b5b828202905092915050565b6000614096826141ab565b91506140a1836141ab565b9250827fffffffffffffffffffffffffffffffffffffffffffffffff8000000000000000018212600084121516156140dc576140db614325565b5b82677fffffffffffffff0182136000841216156140fc576140fb614325565b5b828203905092915050565b6000614112826141d8565b915061411d836141d8565b9250828210156141305761412f614325565b5b828203905092915050565b6000614146826141b8565b9050919050565b60008115159050919050565b60007fffffffff0000000000000000000000000000000000000000000000000000000082169050919050565b600081905061419382614c04565b919050565b60008190506141a682614c18565b919050565b60008160070b9050919050565b600073ffffffffffffffffffffffffffffffffffffffff82169050919050565b6000819050919050565b60006141ed82614185565b9050919050565b60006141ff82614198565b9050919050565b82818337600083830152505050565b60005b83811015614233578082015181840152602081019050614218565b83811115614242576000848401525b50505050565b6000600282049050600182168061426057607f821691505b60208210811415614274576142736143b2565b5b50919050565b61428382614410565b810181811067ffffffffffffffff821117156142a2576142a16143e1565b5b80604052505050565b60006142b6826141d8565b91507fffffffffffffffffffffffffffffffffffffffffffffffffffffffffffffffff8214156142e9576142e8614325565b5b600182019050919050565b60006142ff826141d8565b915061430a836141d8565b92508261431a57614319614354565b5b828206905092915050565b7f4e487b7100000000000000000000000000000000000000000000000000000000600052601160045260246000fd5b7f4e487b7100000000000000000000000000000000000000000000000000000000600052601260045260246000fd5b7f4e487b7100000000000000000000000000000000000000000000000000000000600052602160045260246000fd5b7f4e487b7100000000000000000000000000000000000000000000000000000000600052602260045260246000fd5b7f4e487b7100000000000000000000000000000000000000000000000000000000600052604160045260246000fd5b6000601f19601f8301169050919050565b7f546f6b656e3a2067657474696e672074797065206f66206e6f6e65786973746560008201527f6e7420746f6b656e000000000000000000000000000000000000000000000000602082015250565b7f4552433732313a207472616e7366657220746f206e6f6e20455243373231526560008201527f63656976657220696d706c656d656e7465720000000000000000000000000000602082015250565b7f4552433732313a20746f6b656e20616c7265616479206d696e74656400000000600082015250565b7f4552433732313a207472616e7366657220746f20746865207a65726f2061646460008201527f7265737300000000000000000000000000000000000000000000000000000000602082015250565b7f4552433732313a20617070726f766520746f2063616c6c657200000000000000600082015250565b7f4552433732313a206f70657261746f7220717565727920666f72206e6f6e657860008201527f697374656e7420746f6b656e0000000000000000000000000000000000000000602082015250565b7f546f6b656e3a2067657474696e67206f70206f66206e6f6e6578697374656e7460008201527f20746f6b656e0000000000000000000000000000000000000000000000000000602082015250565b7f4552433732313a20617070726f76652063616c6c6572206973206e6f74206f7760008201527f6e6572206e6f7220617070726f76656420666f7220616c6c0000000000000000602082015250565b7f4552433732313a2062616c616e636520717565727920666f7220746865207a6560008201527f726f206164647265737300000000000000000000000000000000000000000000602082015250565b7f4552433732313a206f776e657220717565727920666f72206e6f6e657869737460008201527f656e7420746f6b656e0000000000000000000000000000000000000000000000602082015250565b7f45524337323155524953746f726167653a2055524920736574206f66206e6f6e60008201527f6578697374656e7420746f6b656e000000000000000000000000000000000000602082015250565b7f54686520746f6b656e20666f722074686174206e756d6265722077617320616c60008201527f7265616479206d696e7465642e00000000000000000000000000000000000000602082015250565b7f4552433732313a206d696e7420746f20746865207a65726f2061646472657373600082015250565b7f45524337323155524953746f726167653a2055524920717565727920666f722060008201527f6e6f6e6578697374656e7420746f6b656e000000000000000000000000000000602082015250565b7f4552433732313a20617070726f76656420717565727920666f72206e6f6e657860008201527f697374656e7420746f6b656e0000000000000000000000000000000000000000602082015250565b7f546f6b656e3a2067657474696e672074657874206f66206e6f6e65786973746560008201527f6e7420746f6b656e000000000000000000000000000000000000000000000000602082015250565b7f4552433732313a207472616e73666572206f6620746f6b656e2074686174206960008201527f73206e6f74206f776e0000000000000000000000000000000000000000000000602082015250565b7f416c7265616479206d696e7465642074686520696e697469616c206e756d626560008201527f7220746f6b656e732e0000000000000000000000000000000000000000000000602082015250565b7f4552433732314d657461646174613a2055524920717565727920666f72206e6f60008201527f6e6578697374656e7420746f6b656e0000000000000000000000000000000000602082015250565b7f4c656e677468206f66207572697320646f65736e2774206d617463682074686560008201527f206c656e677468206f6620696e697469616c206e756d626572732e0000000000602082015250565b7f546f6b656e3a2067657474696e6720696e666f206f66206e6f6e65786973746560008201527f6e7420746f6b656e000000000000000000000000000000000000000000000000602082015250565b7f546f6b656e3a2067657474696e67206e756d626572206f66206e6f6e6578697360008201527f74656e7420746f6b656e00000000000000000000000000000000000000000000602082015250565b7f4552433732313a20617070726f76616c20746f2063757272656e74206f776e6560008201527f7200000000000000000000000000000000000000000000000000000000000000602082015250565b7f4552433732313a207472616e736665722063616c6c6572206973206e6f74206f60008201527f776e6572206e6f7220617070726f766564000000000000000000000000000000602082015250565b7f4f6e6c7920746865206d696e74657220616464726573732063616e206d696e7460008201527f206e657720546f6b656e732e0000000000000000000000000000000000000000602082015250565b7f546f6b656e3a2067657474696e6720746578742066726f6d204e756d6265722060008201527f746f6b656e000000000000000000000000000000000000000000000000000000602082015250565b7f7365744d696e74657228292063616e206f6e6c792062652063616c6c6564206f60008201527f6e63652e00000000000000000000000000000000000000000000000000000000602082015250565b60058110614c1557614c14614383565b5b50565b60028110614c2957614c28614383565b5b50565b614c358161413b565b8114614c4057600080fd5b50565b614c4c8161414d565b8114614c5757600080fd5b50565b614c6381614159565b8114614c6e57600080fd5b50565b60058110614c7e57600080fd5b50565b614c8a816141ab565b8114614c9557600080fd5b50565b614ca1816141d8565b8114614cac57600080fd5b5056fea26469706673582212204cc47b71797aebd90ee015fe47d80eb2e20b3eb4a378ad413b410f6b0747f5fb64736f6c63430008010033",
  "immutableReferences": {},
  "source": "// SPDX-License-Identifier: MIT\r\npragma solidity ^0.8.0;\r\n\r\nimport \"@openzeppelin/contracts/token/ERC721/extensions/ERC721URIStorage.sol\";\r\nimport \"@openzeppelin/contracts/utils/Counters.sol\";\r\n\r\ncontract Token is ERC721URIStorage {\r\n    event Minted(address indexed addr, uint256 indexed tokenId);\r\n\r\n    using Counters for Counters.Counter;\r\n    Counters.Counter private _info;\r\n\r\n    enum Type {Operation, Number}\r\n    enum Operation {None,  Add, Sub, Mul, Div }\r\n\r\n    mapping (uint256 => Operation) private _operations;\r\n    mapping (uint256 => int64) private _numbers;\r\n\r\n    mapping (int64 => bool) private _mintedNumbers;\r\n\r\n    address _minter = address(0);\r\n\r\n    bool _initialWereMinted = false;\r\n\r\n    struct TokenInfo \r\n    {\r\n        uint256 id;\r\n        Operation operation;\r\n        int64 number;\r\n        string uri;\r\n    }\r\n\r\n    constructor() ERC721(\"ArithmeToken\", \"ARI\") {}\r\n\r\n    function _mint(address addr, string memory uri) internal returns (uint256)\r\n    {\r\n        _info.increment();\r\n\r\n        uint256 newTokenId = _info.current();\r\n        super._mint(addr, newTokenId);\r\n        _setTokenURI(newTokenId, uri);\r\n\r\n        emit Minted(addr, newTokenId);\r\n\r\n        return newTokenId;\r\n    }\r\n\r\n    function _isMinterSet() internal view returns (bool)\r\n    {\r\n        return _minter != address(0);\r\n    }\r\n\r\n    function _mintNumber(address acct, string memory uri, int64 number) private returns (uint256)\r\n    {\r\n        require(!isNumberMinted(number), \"The token for that number was already minted.\");\r\n\r\n        uint256 newTokenId = _mint(acct, uri);\r\n        _numbers[newTokenId] = number;\r\n        _mintedNumbers[number] = true;\r\n\r\n        return newTokenId;\r\n    }\r\n\r\n    function isNumberMinted(int64 number) public view returns (bool) {\r\n        return _mintedNumbers[number];\r\n    }\r\n\r\n    // TODO add test\r\n    function setMinter(address minter) public returns (address) {\r\n        require(!_isMinterSet(), \"setMinter() can only be called once.\");\r\n        _minter = minter;\r\n\r\n        return _minter;\r\n    }\r\n\r\n    function getTokenInfo(uint256 tokenId) public view returns (TokenInfo memory) {\r\n        require(_exists(tokenId), \"Token: getting info of nonexistent token\");\r\n\r\n        TokenInfo memory info;\r\n        info.id = tokenId;\r\n        info.operation = getOperation(tokenId);\r\n        info.number = getNumber(tokenId);\r\n        info.uri = tokenURI(tokenId);\r\n\r\n        return info;\r\n    }\r\n\r\n    function getTokenInfos(address addr) public view returns (TokenInfo[] memory) {\r\n        uint256 balance = balanceOf(addr);\r\n        TokenInfo[] memory info = new TokenInfo[](balance);\r\n        uint256 found = 0;\r\n        \r\n        // TODO: use ownership map?\r\n        for (uint256 i=0; found < balance; i++) {\r\n            if (_exists(i) && ownerOf(i) == addr) {\r\n                info[found] = getTokenInfo(i);\r\n                found++;\r\n            }\r\n        }\r\n\r\n        return info;\r\n    }\r\n\r\n    function getType(uint256 tokenId) public view returns (Type) {\r\n        require(_exists(tokenId), \"Token: getting type of nonexistent token\");\r\n        if (getOperation(tokenId) != Operation.None) {\r\n            return Type.Operation;\r\n        } else {\r\n            return Type.Number;\r\n        }\r\n    }\r\n\r\n    function getNumber(uint256 tokenId) public view returns (int64) {\r\n        require(_exists(tokenId), \"Token: getting number of nonexistent token\");\r\n        return _numbers[tokenId];\r\n    }\r\n\r\n    function getOperation(uint256 tokenId) public view returns (Operation) {\r\n        require(_exists(tokenId), \"Token: getting op of nonexistent token\");\r\n        return _operations[tokenId];\r\n    }\r\n\r\n    // TODO: remove?\r\n    function getOperationText(uint256 tokenId) public view returns (string memory) {\r\n        require(_exists(tokenId), \"Token: getting text of nonexistent token\");\r\n        require(getType(tokenId) == Type.Operation, \"Token: getting text from Number token\");\r\n        \r\n        Operation op = getOperation(tokenId);\r\n        if (op == Operation.Add) {\r\n            return \"+\";\r\n        } else if (op == Operation.Sub) {\r\n            return \"-\";\r\n        } else if (op == Operation.Mul) {\r\n            return \"*\";\r\n        } else if (op == Operation.Div) {\r\n            return \"/\";\r\n        }\r\n\r\n        return \"\";\r\n    }\r\n\r\n    function runOperation(Operation op, int64 v1, int64 v2) public pure returns (int64) {\r\n        if (op == Operation.Add) {\r\n            return v1 + v2;\r\n        } else if (op == Operation.Sub) {\r\n            return v1 - v2;\r\n        } else if (op == Operation.Mul) {\r\n            return v1 * v2;\r\n        } else if (op == Operation.Div) {\r\n            return v1 / v2;\r\n        }\r\n\r\n        return 0;\r\n    }\r\n\r\n    function mintNumber(address acct, string memory uri, int64 number) public returns (uint256)\r\n    {\r\n        // Only the minter address will be able to mint number tokens.\r\n        require(_msgSender() == _minter,\r\n            \"Only the minter address can mint new Tokens.\");\r\n\r\n        return _mintNumber(acct, uri, number);\r\n    }\r\n\r\n    function mintInitialNumbers(\r\n        address acct,\r\n        int64[] memory numbers,\r\n        string[] memory uris\r\n    ) public{\r\n        require(!_initialWereMinted , \"Already minted the initial number tokens.\");\r\n\r\n        require(numbers.length == uris.length, \"Length of uris doesn't match the length of initial numbers.\");\r\n        \r\n        for (uint256 i = 0; i < numbers.length; i++) {\r\n            _mintNumber(acct, uris[i], numbers[i]);\r\n        }\r\n\r\n        _initialWereMinted = true;\r\n    }\r\n\r\n    function mintOperation(address acct, string memory uri, Operation operation) public returns (uint256)\r\n    {\r\n        uint256 newTokenId = _mint(acct, uri);\r\n        _operations[newTokenId] = operation;\r\n\r\n        return newTokenId;\r\n    }\r\n\r\n\r\n}",
  "sourcePath": "D:\\Blockchain\\Ethereum\\Projects\\arithmetoken\\src\\contracts\\Token.sol",
  "compiler": {
    "name": "solc",
    "version": "0.8.1+commit.df193b15.Emscripten.clang"
  },
  "schemaVersion": "3.4.1",
  "updatedAt": "2021-07-20T04:06:42.175Z",
  "devdoc": {
    "kind": "dev",
    "methods": {
      "approve(address,uint256)": {
        "details": "See {IERC721-approve}."
      },
      "balanceOf(address)": {
        "details": "See {IERC721-balanceOf}."
      },
      "getApproved(uint256)": {
        "details": "See {IERC721-getApproved}."
      },
      "isApprovedForAll(address,address)": {
        "details": "See {IERC721-isApprovedForAll}."
      },
      "name()": {
        "details": "See {IERC721Metadata-name}."
      },
      "ownerOf(uint256)": {
        "details": "See {IERC721-ownerOf}."
      },
      "safeTransferFrom(address,address,uint256)": {
        "details": "See {IERC721-safeTransferFrom}."
      },
      "safeTransferFrom(address,address,uint256,bytes)": {
        "details": "See {IERC721-safeTransferFrom}."
      },
      "setApprovalForAll(address,bool)": {
        "details": "See {IERC721-setApprovalForAll}."
      },
      "supportsInterface(bytes4)": {
        "details": "See {IERC165-supportsInterface}."
      },
      "symbol()": {
        "details": "See {IERC721Metadata-symbol}."
      },
      "tokenURI(uint256)": {
        "details": "See {IERC721Metadata-tokenURI}."
      },
      "transferFrom(address,address,uint256)": {
        "details": "See {IERC721-transferFrom}."
      }
    },
    "version": 1
  },
  "userdoc": {
    "kind": "user",
    "methods": {},
    "version": 1
  }
}