{
  "contractName": "Token",
  "abi": [
    {
      "inputs": [],
      "stateMutability": "nonpayable",
      "type": "constructor"
    },
    {
      "anonymous": false,
      "inputs": [
        {
          "indexed": true,
          "internalType": "address",
          "name": "owner",
          "type": "address"
        },
        {
          "indexed": true,
          "internalType": "address",
          "name": "approved",
          "type": "address"
        },
        {
          "indexed": true,
          "internalType": "uint256",
          "name": "tokenId",
          "type": "uint256"
        }
      ],
      "name": "Approval",
      "type": "event"
    },
    {
      "anonymous": false,
      "inputs": [
        {
          "indexed": true,
          "internalType": "address",
          "name": "owner",
          "type": "address"
        },
        {
          "indexed": true,
          "internalType": "address",
          "name": "operator",
          "type": "address"
        },
        {
          "indexed": false,
          "internalType": "bool",
          "name": "approved",
          "type": "bool"
        }
      ],
      "name": "ApprovalForAll",
      "type": "event"
    },
    {
      "anonymous": false,
      "inputs": [
        {
          "indexed": true,
          "internalType": "address",
          "name": "addr",
          "type": "address"
        },
        {
          "indexed": true,
          "internalType": "uint256",
          "name": "tokenId",
          "type": "uint256"
        }
      ],
      "name": "Minted",
      "type": "event"
    },
    {
      "anonymous": false,
      "inputs": [
        {
          "indexed": true,
          "internalType": "address",
          "name": "from",
          "type": "address"
        },
        {
          "indexed": true,
          "internalType": "address",
          "name": "to",
          "type": "address"
        },
        {
          "indexed": true,
          "internalType": "uint256",
          "name": "tokenId",
          "type": "uint256"
        }
      ],
      "name": "Transfer",
      "type": "event"
    },
    {
      "inputs": [],
      "name": "_initialMax",
      "outputs": [
        {
          "internalType": "uint8",
          "name": "",
          "type": "uint8"
        }
      ],
      "stateMutability": "view",
      "type": "function",
      "constant": true
    },
    {
      "inputs": [
        {
          "internalType": "address",
          "name": "to",
          "type": "address"
        },
        {
          "internalType": "uint256",
          "name": "tokenId",
          "type": "uint256"
        }
      ],
      "name": "approve",
      "outputs": [],
      "stateMutability": "nonpayable",
      "type": "function"
    },
    {
      "inputs": [
        {
          "internalType": "address",
          "name": "owner",
          "type": "address"
        }
      ],
      "name": "balanceOf",
      "outputs": [
        {
          "internalType": "uint256",
          "name": "",
          "type": "uint256"
        }
      ],
      "stateMutability": "view",
      "type": "function",
      "constant": true
    },
    {
      "inputs": [
        {
          "internalType": "uint256",
          "name": "tokenId",
          "type": "uint256"
        }
      ],
      "name": "getApproved",
      "outputs": [
        {
          "internalType": "address",
          "name": "",
          "type": "address"
        }
      ],
      "stateMutability": "view",
      "type": "function",
      "constant": true
    },
    {
      "inputs": [
        {
          "internalType": "address",
          "name": "owner",
          "type": "address"
        },
        {
          "internalType": "address",
          "name": "operator",
          "type": "address"
        }
      ],
      "name": "isApprovedForAll",
      "outputs": [
        {
          "internalType": "bool",
          "name": "",
          "type": "bool"
        }
      ],
      "stateMutability": "view",
      "type": "function",
      "constant": true
    },
    {
      "inputs": [],
      "name": "name",
      "outputs": [
        {
          "internalType": "string",
          "name": "",
          "type": "string"
        }
      ],
      "stateMutability": "view",
      "type": "function",
      "constant": true
    },
    {
      "inputs": [
        {
          "internalType": "uint256",
          "name": "tokenId",
          "type": "uint256"
        }
      ],
      "name": "ownerOf",
      "outputs": [
        {
          "internalType": "address",
          "name": "",
          "type": "address"
        }
      ],
      "stateMutability": "view",
      "type": "function",
      "constant": true
    },
    {
      "inputs": [
        {
          "internalType": "address",
          "name": "from",
          "type": "address"
        },
        {
          "internalType": "address",
          "name": "to",
          "type": "address"
        },
        {
          "internalType": "uint256",
          "name": "tokenId",
          "type": "uint256"
        }
      ],
      "name": "safeTransferFrom",
      "outputs": [],
      "stateMutability": "nonpayable",
      "type": "function"
    },
    {
      "inputs": [
        {
          "internalType": "address",
          "name": "from",
          "type": "address"
        },
        {
          "internalType": "address",
          "name": "to",
          "type": "address"
        },
        {
          "internalType": "uint256",
          "name": "tokenId",
          "type": "uint256"
        },
        {
          "internalType": "bytes",
          "name": "_data",
          "type": "bytes"
        }
      ],
      "name": "safeTransferFrom",
      "outputs": [],
      "stateMutability": "nonpayable",
      "type": "function"
    },
    {
      "inputs": [
        {
          "internalType": "address",
          "name": "operator",
          "type": "address"
        },
        {
          "internalType": "bool",
          "name": "approved",
          "type": "bool"
        }
      ],
      "name": "setApprovalForAll",
      "outputs": [],
      "stateMutability": "nonpayable",
      "type": "function"
    },
    {
      "inputs": [
        {
          "internalType": "bytes4",
          "name": "interfaceId",
          "type": "bytes4"
        }
      ],
      "name": "supportsInterface",
      "outputs": [
        {
          "internalType": "bool",
          "name": "",
          "type": "bool"
        }
      ],
      "stateMutability": "view",
      "type": "function",
      "constant": true
    },
    {
      "inputs": [],
      "name": "symbol",
      "outputs": [
        {
          "internalType": "string",
          "name": "",
          "type": "string"
        }
      ],
      "stateMutability": "view",
      "type": "function",
      "constant": true
    },
    {
      "inputs": [
        {
          "internalType": "uint256",
          "name": "tokenId",
          "type": "uint256"
        }
      ],
      "name": "tokenURI",
      "outputs": [
        {
          "internalType": "string",
          "name": "",
          "type": "string"
        }
      ],
      "stateMutability": "view",
      "type": "function",
      "constant": true
    },
    {
      "inputs": [
        {
          "internalType": "address",
          "name": "from",
          "type": "address"
        },
        {
          "internalType": "address",
          "name": "to",
          "type": "address"
        },
        {
          "internalType": "uint256",
          "name": "tokenId",
          "type": "uint256"
        }
      ],
      "name": "transferFrom",
      "outputs": [],
      "stateMutability": "nonpayable",
      "type": "function"
    },
    {
      "inputs": [
        {
          "internalType": "address",
          "name": "minter",
          "type": "address"
        }
      ],
      "name": "setMinter",
      "outputs": [
        {
          "internalType": "address",
          "name": "",
          "type": "address"
        }
      ],
      "stateMutability": "nonpayable",
      "type": "function"
    },
    {
      "inputs": [
        {
          "internalType": "uint256",
          "name": "tokenId",
          "type": "uint256"
        }
      ],
      "name": "getTokenInfo",
      "outputs": [
        {
          "components": [
            {
              "internalType": "uint256",
              "name": "id",
              "type": "uint256"
            },
            {
              "internalType": "enum Token.Operation",
              "name": "operation",
              "type": "uint8"
            },
            {
              "internalType": "int64",
              "name": "number",
              "type": "int64"
            },
            {
              "internalType": "string",
              "name": "uri",
              "type": "string"
            }
          ],
          "internalType": "struct Token.TokenInfo",
          "name": "",
          "type": "tuple"
        }
      ],
      "stateMutability": "view",
      "type": "function",
      "constant": true
    },
    {
      "inputs": [
        {
          "internalType": "address",
          "name": "addr",
          "type": "address"
        }
      ],
      "name": "getTokenInfos",
      "outputs": [
        {
          "components": [
            {
              "internalType": "uint256",
              "name": "id",
              "type": "uint256"
            },
            {
              "internalType": "enum Token.Operation",
              "name": "operation",
              "type": "uint8"
            },
            {
              "internalType": "int64",
              "name": "number",
              "type": "int64"
            },
            {
              "internalType": "string",
              "name": "uri",
              "type": "string"
            }
          ],
          "internalType": "struct Token.TokenInfo[]",
          "name": "",
          "type": "tuple[]"
        }
      ],
      "stateMutability": "view",
      "type": "function",
      "constant": true
    },
    {
      "inputs": [
        {
          "internalType": "uint256",
          "name": "tokenId",
          "type": "uint256"
        }
      ],
      "name": "getType",
      "outputs": [
        {
          "internalType": "enum Token.Type",
          "name": "",
          "type": "uint8"
        }
      ],
      "stateMutability": "view",
      "type": "function",
      "constant": true
    },
    {
      "inputs": [
        {
          "internalType": "uint256",
          "name": "tokenId",
          "type": "uint256"
        }
      ],
      "name": "getNumber",
      "outputs": [
        {
          "internalType": "int64",
          "name": "",
          "type": "int64"
        }
      ],
      "stateMutability": "view",
      "type": "function",
      "constant": true
    },
    {
      "inputs": [
        {
          "internalType": "uint256",
          "name": "tokenId",
          "type": "uint256"
        }
      ],
      "name": "getOperation",
      "outputs": [
        {
          "internalType": "enum Token.Operation",
          "name": "",
          "type": "uint8"
        }
      ],
      "stateMutability": "view",
      "type": "function",
      "constant": true
    },
    {
      "inputs": [
        {
          "internalType": "uint256",
          "name": "tokenId",
          "type": "uint256"
        }
      ],
      "name": "getOperationText",
      "outputs": [
        {
          "internalType": "string",
          "name": "",
          "type": "string"
        }
      ],
      "stateMutability": "view",
      "type": "function",
      "constant": true
    },
    {
      "inputs": [
        {
          "internalType": "enum Token.Operation",
          "name": "op",
          "type": "uint8"
        },
        {
          "internalType": "int64",
          "name": "v1",
          "type": "int64"
        },
        {
          "internalType": "int64",
          "name": "v2",
          "type": "int64"
        }
      ],
      "name": "runOperation",
      "outputs": [
        {
          "internalType": "int64",
          "name": "",
          "type": "int64"
        }
      ],
      "stateMutability": "pure",
      "type": "function",
      "constant": true
    },
    {
      "inputs": [
        {
          "internalType": "address",
          "name": "acct",
          "type": "address"
        },
        {
          "internalType": "string",
          "name": "uri",
          "type": "string"
        },
        {
          "internalType": "int64",
          "name": "number",
          "type": "int64"
        }
      ],
      "name": "mintNumber",
      "outputs": [
        {
          "internalType": "uint256",
          "name": "",
          "type": "uint256"
        }
      ],
      "stateMutability": "nonpayable",
      "type": "function"
    },
    {
      "inputs": [
        {
          "internalType": "address",
          "name": "acct",
          "type": "address"
        },
        {
          "internalType": "string",
          "name": "uri",
          "type": "string"
        },
        {
          "internalType": "enum Token.Operation",
          "name": "operation",
          "type": "uint8"
        }
      ],
      "name": "mintOperation",
      "outputs": [
        {
          "internalType": "uint256",
          "name": "",
          "type": "uint256"
        }
      ],
      "stateMutability": "nonpayable",
      "type": "function"
    }
  ],
  "bytecode": "0x60806040526000600b60006101000a81548173ffffffffffffffffffffffffffffffffffffffff021916908373ffffffffffffffffffffffffffffffffffffffff1602179055506000600b60146101000a81548160ff0219169083151502179055506000600b60156101000a81548160ff021916908360ff1602179055503480156200008a57600080fd5b506040518060400160405280600c81526020017f41726974686d65546f6b656e00000000000000000000000000000000000000008152506040518060400160405280600381526020017f415249000000000000000000000000000000000000000000000000000000000081525081600090805190602001906200010f92919062000131565b5080600190805190602001906200012892919062000131565b50505062000246565b8280546200013f90620001e1565b90600052602060002090601f016020900481019282620001635760008555620001af565b82601f106200017e57805160ff1916838001178555620001af565b82800160010185558215620001af579182015b82811115620001ae57825182559160200191906001019062000191565b5b509050620001be9190620001c2565b5090565b5b80821115620001dd576000816000905550600101620001c3565b5090565b60006002820490506001821680620001fa57607f821691505b6020821081141562000211576200021062000217565b5b50919050565b7f4e487b7100000000000000000000000000000000000000000000000000000000600052602260045260246000fd5b61487780620002566000396000f3fe608060405234801561001057600080fd5b50600436106101585760003560e01c80638c7a63ae116100c3578063c87b56dd1161007c578063c87b56dd14610423578063cdae313014610453578063dc38041714610483578063e985e9c5146104b3578063fc563658146104e3578063fca3b5aa1461051357610158565b80638c7a63ae1461034f57806395d89b411461037f578063a22cb4651461039d578063a8802def146103b9578063af5898bf146103e9578063b88d4fde1461040757610158565b80634036ab78116101155780634036ab781461024357806342842e0e146102735780636352211e1461028f57806370a08231146102bf57806382960f98146102ef5780638940fd9d1461031f57610158565b806301ffc9a71461015d57806306fdde031461018d578063081812fc146101ab578063095ea7b3146101db578063202e3924146101f757806323b872dd14610227575b600080fd5b61017760048036038101906101729190612d73565b610543565b6040516101849190613516565b60405180910390f35b610195610625565b6040516101a29190613582565b60405180910390f35b6101c560048036038101906101c09190612e14565b6106b7565b6040516101d2919061348d565b60405180910390f35b6101f560048036038101906101f09190612d37565b61073c565b005b610211600480360381019061020c9190612e14565b610854565b60405161021e9190613531565b60405180910390f35b610241600480360381019061023c9190612b63565b6108c6565b005b61025d60048036038101906102589190612e14565b610926565b60405161026a919061354c565b60405180910390f35b61028d60048036038101906102889190612b63565b610a03565b005b6102a960048036038101906102a49190612e14565b610a23565b6040516102b6919061348d565b60405180910390f35b6102d960048036038101906102d49190612afe565b610ad5565b6040516102e691906138e6565b60405180910390f35b61030960048036038101906103049190612c69565b610b8d565b60405161031691906138e6565b60405180910390f35b61033960048036038101906103349190612cd0565b610c08565b60405161034691906138e6565b60405180910390f35b61036960048036038101906103649190612e14565b610d9f565b60405161037691906138c4565b60405180910390f35b610387610eb9565b6040516103949190613582565b60405180910390f35b6103b760048036038101906103b29190612c2d565b610f4b565b005b6103d360048036038101906103ce9190612e14565b6110cc565b6040516103e09190613582565b60405180910390f35b6103f16114d2565b6040516103fe9190613901565b60405180910390f35b610421600480360381019061041c9190612bb2565b6114d7565b005b61043d60048036038101906104389190612e14565b611539565b60405161044a9190613582565b60405180910390f35b61046d60048036038101906104689190612afe565b61168b565b60405161047a91906134f4565b60405180910390f35b61049d60048036038101906104989190612dc5565b6117ec565b6040516104aa9190613567565b60405180910390f35b6104cd60048036038101906104c89190612b27565b611a29565b6040516104da9190613516565b60405180910390f35b6104fd60048036038101906104f89190612e14565b611abd565b60405161050a9190613567565b60405180910390f35b61052d60048036038101906105289190612afe565b611b2f565b60405161053a919061348d565b60405180910390f35b60007f80ac58cd000000000000000000000000000000000000000000000000000000007bffffffffffffffffffffffffffffffffffffffffffffffffffffffff1916827bffffffffffffffffffffffffffffffffffffffffffffffffffffffff1916148061060e57507f5b5e139f000000000000000000000000000000000000000000000000000000007bffffffffffffffffffffffffffffffffffffffffffffffffffffffff1916827bffffffffffffffffffffffffffffffffffffffffffffffffffffffff1916145b8061061e575061061d82611c07565b5b9050919050565b60606000805461063490613e4e565b80601f016020809104026020016040519081016040528092919081815260200182805461066090613e4e565b80156106ad5780601f10610682576101008083540402835291602001916106ad565b820191906000526020600020905b81548152906001019060200180831161069057829003601f168201915b5050505050905090565b60006106c282611c71565b610701576040517f08c379a00000000000000000000000000000000000000000000000000000000081526004016106f890613764565b60405180910390fd5b6004600083815260200190815260200160002060009054906101000a900473ffffffffffffffffffffffffffffffffffffffff169050919050565b600061074782610a23565b90508073ffffffffffffffffffffffffffffffffffffffff168373ffffffffffffffffffffffffffffffffffffffff1614156107b8576040517f08c379a00000000000000000000000000000000000000000000000000000000081526004016107af90613824565b60405180910390fd5b8073ffffffffffffffffffffffffffffffffffffffff166107d7611cdd565b73ffffffffffffffffffffffffffffffffffffffff161480610806575061080581610800611cdd565b611a29565b5b610845576040517f08c379a000000000000000000000000000000000000000000000000000000000815260040161083c90613684565b60405180910390fd5b61084f8383611ce5565b505050565b600061085f82611c71565b61089e576040517f08c379a000000000000000000000000000000000000000000000000000000000815260040161089590613664565b60405180910390fd5b6008600083815260200190815260200160002060009054906101000a900460ff169050919050565b6108d76108d1611cdd565b82611d9e565b610916576040517f08c379a000000000000000000000000000000000000000000000000000000000815260040161090d90613844565b60405180910390fd5b610921838383611e7c565b505050565b600061093182611c71565b610970576040517f08c379a0000000000000000000000000000000000000000000000000000000008152600401610967906135a4565b60405180910390fd5b600060048111156109aa577f4e487b7100000000000000000000000000000000000000000000000000000000600052602160045260246000fd5b6109b383610854565b60048111156109eb577f4e487b7100000000000000000000000000000000000000000000000000000000600052602160045260246000fd5b146109f957600090506109fe565b600190505b919050565b610a1e838383604051806020016040528060008152506114d7565b505050565b6000806002600084815260200190815260200160002060009054906101000a900473ffffffffffffffffffffffffffffffffffffffff169050600073ffffffffffffffffffffffffffffffffffffffff168173ffffffffffffffffffffffffffffffffffffffff161415610acc576040517f08c379a0000000000000000000000000000000000000000000000000000000008152600401610ac3906136c4565b60405180910390fd5b80915050919050565b60008073ffffffffffffffffffffffffffffffffffffffff168273ffffffffffffffffffffffffffffffffffffffff161415610b46576040517f08c379a0000000000000000000000000000000000000000000000000000000008152600401610b3d906136a4565b60405180910390fd5b600360008373ffffffffffffffffffffffffffffffffffffffff1673ffffffffffffffffffffffffffffffffffffffff168152602001908152602001600020549050919050565b600080610b9a85856120d8565b9050826008600083815260200190815260200160002060006101000a81548160ff02191690836004811115610bf8577f4e487b7100000000000000000000000000000000000000000000000000000000600052602160045260246000fd5b0217905550809150509392505050565b6000610c1382612154565b15610c53576040517f08c379a0000000000000000000000000000000000000000000000000000000008152600401610c4a90613704565b60405180910390fd5b600a60ff16600b60159054906101000a900460ff1660ff1610610d0857600b60009054906101000a900473ffffffffffffffffffffffffffffffffffffffff1673ffffffffffffffffffffffffffffffffffffffff16610cb1611cdd565b73ffffffffffffffffffffffffffffffffffffffff1614610d07576040517f08c379a0000000000000000000000000000000000000000000000000000000008152600401610cfe90613864565b60405180910390fd5b5b600b601581819054906101000a900460ff1680929190610d2790613efa565b91906101000a81548160ff021916908360ff160217905550506000610d4c85856120d8565b9050826009600083815260200190815260200160002060006101000a81548167ffffffffffffffff021916908360070b67ffffffffffffffff160217905550610d9483612184565b809150509392505050565b610da7612895565b610db082611c71565b610def576040517f08c379a0000000000000000000000000000000000000000000000000000000008152600401610de6906137e4565b60405180910390fd5b610df7612895565b82816000018181525050610e0a83610854565b81602001906004811115610e47577f4e487b7100000000000000000000000000000000000000000000000000000000600052602160045260246000fd5b90816004811115610e81577f4e487b7100000000000000000000000000000000000000000000000000000000600052602160045260246000fd5b81525050610e8e83611abd565b816040019060070b908160070b81525050610ea883611539565b816060018190525080915050919050565b606060018054610ec890613e4e565b80601f0160208091040260200160405190810160405280929190818152602001828054610ef490613e4e565b8015610f415780601f10610f1657610100808354040283529160200191610f41565b820191906000526020600020905b815481529060010190602001808311610f2457829003601f168201915b5050505050905090565b610f53611cdd565b73ffffffffffffffffffffffffffffffffffffffff168273ffffffffffffffffffffffffffffffffffffffff161415610fc1576040517f08c379a0000000000000000000000000000000000000000000000000000000008152600401610fb890613624565b60405180910390fd5b8060056000610fce611cdd565b73ffffffffffffffffffffffffffffffffffffffff1673ffffffffffffffffffffffffffffffffffffffff16815260200190815260200160002060008473ffffffffffffffffffffffffffffffffffffffff1673ffffffffffffffffffffffffffffffffffffffff16815260200190815260200160002060006101000a81548160ff0219169083151502179055508173ffffffffffffffffffffffffffffffffffffffff1661107b611cdd565b73ffffffffffffffffffffffffffffffffffffffff167f17307eab39ab6107e8899845ad3d59bd9653f200f220920489ca2b5937696c31836040516110c09190613516565b60405180910390a35050565b60606110d782611c71565b611116576040517f08c379a000000000000000000000000000000000000000000000000000000000815260040161110d90613784565b60405180910390fd5b60006001811115611150577f4e487b7100000000000000000000000000000000000000000000000000000000600052602160045260246000fd5b61115983610926565b6001811115611191577f4e487b7100000000000000000000000000000000000000000000000000000000600052602160045260246000fd5b146111d1576040517f08c379a00000000000000000000000000000000000000000000000000000000081526004016111c890613884565b60405180910390fd5b60006111dc83610854565b905060016004811115611218577f4e487b7100000000000000000000000000000000000000000000000000000000600052602160045260246000fd5b816004811115611251577f4e487b7100000000000000000000000000000000000000000000000000000000600052602160045260246000fd5b1415611295576040518060400160405280600181526020017f2b000000000000000000000000000000000000000000000000000000000000008152509150506114cd565b600260048111156112cf577f4e487b7100000000000000000000000000000000000000000000000000000000600052602160045260246000fd5b816004811115611308577f4e487b7100000000000000000000000000000000000000000000000000000000600052602160045260246000fd5b141561134c576040518060400160405280600181526020017f2d000000000000000000000000000000000000000000000000000000000000008152509150506114cd565b60036004811115611386577f4e487b7100000000000000000000000000000000000000000000000000000000600052602160045260246000fd5b8160048111156113bf577f4e487b7100000000000000000000000000000000000000000000000000000000600052602160045260246000fd5b1415611403576040518060400160405280600181526020017f2a000000000000000000000000000000000000000000000000000000000000008152509150506114cd565b60048081111561143c577f4e487b7100000000000000000000000000000000000000000000000000000000600052602160045260246000fd5b816004811115611475577f4e487b7100000000000000000000000000000000000000000000000000000000600052602160045260246000fd5b14156114b9576040518060400160405280600181526020017f2f000000000000000000000000000000000000000000000000000000000000008152509150506114cd565b604051806020016040528060008152509150505b919050565b600a81565b6114e86114e2611cdd565b83611d9e565b611527576040517f08c379a000000000000000000000000000000000000000000000000000000000815260040161151e90613844565b60405180910390fd5b611533848484846121b9565b50505050565b606061154482611c71565b611583576040517f08c379a000000000000000000000000000000000000000000000000000000000815260040161157a90613744565b60405180910390fd5b60006006600084815260200190815260200160002080546115a390613e4e565b80601f01602080910402602001604051908101604052809291908181526020018280546115cf90613e4e565b801561161c5780601f106115f15761010080835404028352916020019161161c565b820191906000526020600020905b8154815290600101906020018083116115ff57829003601f168201915b50505050509050600061162d612215565b9050600081511415611643578192505050611686565b600082511115611678578082604051602001611660929190613469565b60405160208183030381529060405292505050611686565b6116818461222c565b925050505b919050565b6060600061169883610ad5565b905060008167ffffffffffffffff8111156116dc577f4e487b7100000000000000000000000000000000000000000000000000000000600052604160045260246000fd5b60405190808252806020026020018201604052801561171557816020015b611702612895565b8152602001906001900390816116fa5790505b5090506000805b838210156117e05761172d81611c71565b801561176c57508573ffffffffffffffffffffffffffffffffffffffff1661175482610a23565b73ffffffffffffffffffffffffffffffffffffffff16145b156117cd5761177a81610d9f565b8383815181106117b3577f4e487b7100000000000000000000000000000000000000000000000000000000600052603260045260246000fd5b602002602001018190525081806117c990613eb1565b9250505b80806117d890613eb1565b91505061171c565b50819350505050919050565b600060016004811115611828577f4e487b7100000000000000000000000000000000000000000000000000000000600052602160045260246000fd5b846004811115611861577f4e487b7100000000000000000000000000000000000000000000000000000000600052602160045260246000fd5b141561187a5781836118739190613a30565b9050611a22565b600260048111156118b4577f4e487b7100000000000000000000000000000000000000000000000000000000600052602160045260246000fd5b8460048111156118ed577f4e487b7100000000000000000000000000000000000000000000000000000000600052602160045260246000fd5b14156119065781836118ff9190613c84565b9050611a22565b60036004811115611940577f4e487b7100000000000000000000000000000000000000000000000000000000600052602160045260246000fd5b846004811115611979577f4e487b7100000000000000000000000000000000000000000000000000000000600052602160045260246000fd5b141561199257818361198b9190613b9d565b9050611a22565b6004808111156119cb577f4e487b7100000000000000000000000000000000000000000000000000000000600052602160045260246000fd5b846004811115611a04577f4e487b7100000000000000000000000000000000000000000000000000000000600052602160045260246000fd5b1415611a1d578183611a169190613b02565b9050611a22565b600090505b9392505050565b6000600560008473ffffffffffffffffffffffffffffffffffffffff1673ffffffffffffffffffffffffffffffffffffffff16815260200190815260200160002060008373ffffffffffffffffffffffffffffffffffffffff1673ffffffffffffffffffffffffffffffffffffffff16815260200190815260200160002060009054906101000a900460ff16905092915050565b6000611ac882611c71565b611b07576040517f08c379a0000000000000000000000000000000000000000000000000000000008152600401611afe90613804565b60405180910390fd5b6009600083815260200190815260200160002060009054906101000a900460070b9050919050565b6000600b60149054906101000a900460ff1615611b81576040517f08c379a0000000000000000000000000000000000000000000000000000000008152600401611b78906138a4565b60405180910390fd5b81600b60006101000a81548173ffffffffffffffffffffffffffffffffffffffff021916908373ffffffffffffffffffffffffffffffffffffffff1602179055506001600b60146101000a81548160ff021916908315150217905550600b60009054906101000a900473ffffffffffffffffffffffffffffffffffffffff169050919050565b60007f01ffc9a7000000000000000000000000000000000000000000000000000000007bffffffffffffffffffffffffffffffffffffffffffffffffffffffff1916827bffffffffffffffffffffffffffffffffffffffffffffffffffffffff1916149050919050565b60008073ffffffffffffffffffffffffffffffffffffffff166002600084815260200190815260200160002060009054906101000a900473ffffffffffffffffffffffffffffffffffffffff1673ffffffffffffffffffffffffffffffffffffffff1614159050919050565b600033905090565b816004600083815260200190815260200160002060006101000a81548173ffffffffffffffffffffffffffffffffffffffff021916908373ffffffffffffffffffffffffffffffffffffffff160217905550808273ffffffffffffffffffffffffffffffffffffffff16611d5883610a23565b73ffffffffffffffffffffffffffffffffffffffff167f8c5be1e5ebec7d5bd14f71427d1e84f3dd0314c0f7b2291e5b200ac8c7c3b92560405160405180910390a45050565b6000611da982611c71565b611de8576040517f08c379a0000000000000000000000000000000000000000000000000000000008152600401611ddf90613644565b60405180910390fd5b6000611df383610a23565b90508073ffffffffffffffffffffffffffffffffffffffff168473ffffffffffffffffffffffffffffffffffffffff161480611e6257508373ffffffffffffffffffffffffffffffffffffffff16611e4a846106b7565b73ffffffffffffffffffffffffffffffffffffffff16145b80611e735750611e728185611a29565b5b91505092915050565b8273ffffffffffffffffffffffffffffffffffffffff16611e9c82610a23565b73ffffffffffffffffffffffffffffffffffffffff1614611ef2576040517f08c379a0000000000000000000000000000000000000000000000000000000008152600401611ee9906137a4565b60405180910390fd5b600073ffffffffffffffffffffffffffffffffffffffff168273ffffffffffffffffffffffffffffffffffffffff161415611f62576040517f08c379a0000000000000000000000000000000000000000000000000000000008152600401611f5990613604565b60405180910390fd5b611f6d8383836122d3565b611f78600082611ce5565b6001600360008573ffffffffffffffffffffffffffffffffffffffff1673ffffffffffffffffffffffffffffffffffffffff1681526020019081526020016000206000828254611fc89190613d00565b925050819055506001600360008473ffffffffffffffffffffffffffffffffffffffff1673ffffffffffffffffffffffffffffffffffffffff168152602001908152602001600020600082825461201f9190613aac565b92505081905550816002600083815260200190815260200160002060006101000a81548173ffffffffffffffffffffffffffffffffffffffff021916908373ffffffffffffffffffffffffffffffffffffffff160217905550808273ffffffffffffffffffffffffffffffffffffffff168473ffffffffffffffffffffffffffffffffffffffff167fddf252ad1be2c89b69c2b068fc378daa952ba7f163c4a11628f55a4df523b3ef60405160405180910390a4505050565b60006120e460076122d8565b60006120f060076122ee565b90506120fc84826122fc565b61210681846124ca565b808473ffffffffffffffffffffffffffffffffffffffff167f30385c845b448a36257a6a1716e6ad2e1bc2cbe333cde1e69fe849ad6511adfe60405160405180910390a38091505092915050565b6000600a60008360070b60070b815260200190815260200160002060009054906101000a900460ff169050919050565b6001600a60008360070b60070b815260200190815260200160002060006101000a81548160ff02191690831515021790555050565b6121c4848484611e7c565b6121d08484848461253e565b61220f576040517f08c379a0000000000000000000000000000000000000000000000000000000008152600401612206906135c4565b60405180910390fd5b50505050565b606060405180602001604052806000815250905090565b606061223782611c71565b612276576040517f08c379a000000000000000000000000000000000000000000000000000000000815260040161226d906137c4565b60405180910390fd5b6000612280612215565b905060008151116122a057604051806020016040528060008152506122cb565b806122aa846126d5565b6040516020016122bb929190613469565b6040516020818303038152906040525b915050919050565b505050565b6001816000016000828254019250508190555050565b600081600001549050919050565b600073ffffffffffffffffffffffffffffffffffffffff168273ffffffffffffffffffffffffffffffffffffffff16141561236c576040517f08c379a000000000000000000000000000000000000000000000000000000000815260040161236390613724565b60405180910390fd5b61237581611c71565b156123b5576040517f08c379a00000000000000000000000000000000000000000000000000000000081526004016123ac906135e4565b60405180910390fd5b6123c1600083836122d3565b6001600360008473ffffffffffffffffffffffffffffffffffffffff1673ffffffffffffffffffffffffffffffffffffffff16815260200190815260200160002060008282546124119190613aac565b92505081905550816002600083815260200190815260200160002060006101000a81548173ffffffffffffffffffffffffffffffffffffffff021916908373ffffffffffffffffffffffffffffffffffffffff160217905550808273ffffffffffffffffffffffffffffffffffffffff16600073ffffffffffffffffffffffffffffffffffffffff167fddf252ad1be2c89b69c2b068fc378daa952ba7f163c4a11628f55a4df523b3ef60405160405180910390a45050565b6124d382611c71565b612512576040517f08c379a0000000000000000000000000000000000000000000000000000000008152600401612509906136e4565b60405180910390fd5b806006600084815260200190815260200160002090805190602001906125399291906128f8565b505050565b600061255f8473ffffffffffffffffffffffffffffffffffffffff16612882565b156126c8578373ffffffffffffffffffffffffffffffffffffffff1663150b7a02612588611cdd565b8786866040518563ffffffff1660e01b81526004016125aa94939291906134a8565b602060405180830381600087803b1580156125c457600080fd5b505af19250505080156125f557506040513d601f19601f820116820180604052508101906125f29190612d9c565b60015b612678573d8060008114612625576040519150601f19603f3d011682016040523d82523d6000602084013e61262a565b606091505b50600081511415612670576040517f08c379a0000000000000000000000000000000000000000000000000000000008152600401612667906135c4565b60405180910390fd5b805181602001fd5b63150b7a0260e01b7bffffffffffffffffffffffffffffffffffffffffffffffffffffffff1916817bffffffffffffffffffffffffffffffffffffffffffffffffffffffff1916149150506126cd565b600190505b949350505050565b6060600082141561271d576040518060400160405280600181526020017f3000000000000000000000000000000000000000000000000000000000000000815250905061287d565b600082905060005b6000821461274f57808061273890613eb1565b915050600a826127489190613b6c565b9150612725565b60008167ffffffffffffffff811115612791577f4e487b7100000000000000000000000000000000000000000000000000000000600052604160045260246000fd5b6040519080825280601f01601f1916602001820160405280156127c35781602001600182028036833780820191505090505b5090505b60008514612876576001826127dc9190613d00565b9150600a856127eb9190613f24565b60306127f79190613aac565b60f81b818381518110612833577f4e487b7100000000000000000000000000000000000000000000000000000000600052603260045260246000fd5b60200101907effffffffffffffffffffffffffffffffffffffffffffffffffffffffffffff1916908160001a905350600a8561286f9190613b6c565b94506127c7565b8093505050505b919050565b600080823b905060008111915050919050565b604051806080016040528060008152602001600060048111156128e1577f4e487b7100000000000000000000000000000000000000000000000000000000600052602160045260246000fd5b8152602001600060070b8152602001606081525090565b82805461290490613e4e565b90600052602060002090601f016020900481019282612926576000855561296d565b82601f1061293f57805160ff191683800117855561296d565b8280016001018555821561296d579182015b8281111561296c578251825591602001919060010190612951565b5b50905061297a919061297e565b5090565b5b8082111561299757600081600090555060010161297f565b5090565b60006129ae6129a984613941565b61391c565b9050828152602081018484840111156129c657600080fd5b6129d1848285613e0c565b509392505050565b60006129ec6129e784613972565b61391c565b905082815260208101848484011115612a0457600080fd5b612a0f848285613e0c565b509392505050565b600081359050612a26816147be565b92915050565b600081359050612a3b816147d5565b92915050565b600081359050612a50816147ec565b92915050565b600081519050612a65816147ec565b92915050565b600082601f830112612a7c57600080fd5b8135612a8c84826020860161299b565b91505092915050565b600081359050612aa481614803565b92915050565b600081359050612ab981614813565b92915050565b600082601f830112612ad057600080fd5b8135612ae08482602086016129d9565b91505092915050565b600081359050612af88161482a565b92915050565b600060208284031215612b1057600080fd5b6000612b1e84828501612a17565b91505092915050565b60008060408385031215612b3a57600080fd5b6000612b4885828601612a17565b9250506020612b5985828601612a17565b9150509250929050565b600080600060608486031215612b7857600080fd5b6000612b8686828701612a17565b9350506020612b9786828701612a17565b9250506040612ba886828701612ae9565b9150509250925092565b60008060008060808587031215612bc857600080fd5b6000612bd687828801612a17565b9450506020612be787828801612a17565b9350506040612bf887828801612ae9565b925050606085013567ffffffffffffffff811115612c1557600080fd5b612c2187828801612a6b565b91505092959194509250565b60008060408385031215612c4057600080fd5b6000612c4e85828601612a17565b9250506020612c5f85828601612a2c565b9150509250929050565b600080600060608486031215612c7e57600080fd5b6000612c8c86828701612a17565b935050602084013567ffffffffffffffff811115612ca957600080fd5b612cb586828701612abf565b9250506040612cc686828701612a95565b9150509250925092565b600080600060608486031215612ce557600080fd5b6000612cf386828701612a17565b935050602084013567ffffffffffffffff811115612d1057600080fd5b612d1c86828701612abf565b9250506040612d2d86828701612aaa565b9150509250925092565b60008060408385031215612d4a57600080fd5b6000612d5885828601612a17565b9250506020612d6985828601612ae9565b9150509250929050565b600060208284031215612d8557600080fd5b6000612d9384828501612a41565b91505092915050565b600060208284031215612dae57600080fd5b6000612dbc84828501612a56565b91505092915050565b600080600060608486031215612dda57600080fd5b6000612de886828701612a95565b9350506020612df986828701612aaa565b9250506040612e0a86828701612aaa565b9150509250925092565b600060208284031215612e2657600080fd5b6000612e3484828501612ae9565b91505092915050565b6000612e498383613376565b905092915050565b612e5a81613d34565b82525050565b6000612e6b826139b3565b612e7581856139e1565b935083602082028501612e87856139a3565b8060005b85811015612ec35784840389528151612ea48582612e3d565b9450612eaf836139d4565b925060208a01995050600181019050612e8b565b50829750879550505050505092915050565b612ede81613d46565b82525050565b6000612eef826139be565b612ef981856139f2565b9350612f09818560208601613e1b565b612f1281614040565b840191505092915050565b612f2681613de8565b82525050565b612f3581613de8565b82525050565b612f4481613dfa565b82525050565b612f5381613da4565b82525050565b612f6281613da4565b82525050565b6000612f73826139c9565b612f7d8185613a03565b9350612f8d818560208601613e1b565b612f9681614040565b840191505092915050565b6000612fac826139c9565b612fb68185613a14565b9350612fc6818560208601613e1b565b612fcf81614040565b840191505092915050565b6000612fe5826139c9565b612fef8185613a25565b9350612fff818560208601613e1b565b80840191505092915050565b6000613018602883613a14565b915061302382614051565b604082019050919050565b600061303b603283613a14565b9150613046826140a0565b604082019050919050565b600061305e601c83613a14565b9150613069826140ef565b602082019050919050565b6000613081602483613a14565b915061308c82614118565b604082019050919050565b60006130a4601983613a14565b91506130af82614167565b602082019050919050565b60006130c7602c83613a14565b91506130d282614190565b604082019050919050565b60006130ea602683613a14565b91506130f5826141df565b604082019050919050565b600061310d603883613a14565b91506131188261422e565b604082019050919050565b6000613130602a83613a14565b915061313b8261427d565b604082019050919050565b6000613153602983613a14565b915061315e826142cc565b604082019050919050565b6000613176602e83613a14565b91506131818261431b565b604082019050919050565b6000613199602d83613a14565b91506131a48261436a565b604082019050919050565b60006131bc602083613a14565b91506131c7826143b9565b602082019050919050565b60006131df603183613a14565b91506131ea826143e2565b604082019050919050565b6000613202602c83613a14565b915061320d82614431565b604082019050919050565b6000613225602883613a14565b915061323082614480565b604082019050919050565b6000613248602983613a14565b9150613253826144cf565b604082019050919050565b600061326b602f83613a14565b91506132768261451e565b604082019050919050565b600061328e602883613a14565b91506132998261456d565b604082019050919050565b60006132b1602a83613a14565b91506132bc826145bc565b604082019050919050565b60006132d4602183613a14565b91506132df8261460b565b604082019050919050565b60006132f7603183613a14565b91506133028261465a565b604082019050919050565b600061331a602c83613a14565b9150613325826146a9565b604082019050919050565b600061333d602583613a14565b9150613348826146f8565b604082019050919050565b6000613360602483613a14565b915061336b82614747565b604082019050919050565b600060808301600083015161338e600086018261343c565b5060208301516133a16020860182612f1d565b5060408301516133b46040860182612f4a565b50606083015184820360608601526133cc8282612f68565b9150508091505092915050565b60006080830160008301516133f1600086018261343c565b5060208301516134046020860182612f1d565b5060408301516134176040860182612f4a565b506060830151848203606086015261342f8282612f68565b9150508091505092915050565b61344581613dd1565b82525050565b61345481613dd1565b82525050565b61346381613ddb565b82525050565b60006134758285612fda565b91506134818284612fda565b91508190509392505050565b60006020820190506134a26000830184612e51565b92915050565b60006080820190506134bd6000830187612e51565b6134ca6020830186612e51565b6134d7604083018561344b565b81810360608301526134e98184612ee4565b905095945050505050565b6000602082019050818103600083015261350e8184612e60565b905092915050565b600060208201905061352b6000830184612ed5565b92915050565b60006020820190506135466000830184612f2c565b92915050565b60006020820190506135616000830184612f3b565b92915050565b600060208201905061357c6000830184612f59565b92915050565b6000602082019050818103600083015261359c8184612fa1565b905092915050565b600060208201905081810360008301526135bd8161300b565b9050919050565b600060208201905081810360008301526135dd8161302e565b9050919050565b600060208201905081810360008301526135fd81613051565b9050919050565b6000602082019050818103600083015261361d81613074565b9050919050565b6000602082019050818103600083015261363d81613097565b9050919050565b6000602082019050818103600083015261365d816130ba565b9050919050565b6000602082019050818103600083015261367d816130dd565b9050919050565b6000602082019050818103600083015261369d81613100565b9050919050565b600060208201905081810360008301526136bd81613123565b9050919050565b600060208201905081810360008301526136dd81613146565b9050919050565b600060208201905081810360008301526136fd81613169565b9050919050565b6000602082019050818103600083015261371d8161318c565b9050919050565b6000602082019050818103600083015261373d816131af565b9050919050565b6000602082019050818103600083015261375d816131d2565b9050919050565b6000602082019050818103600083015261377d816131f5565b9050919050565b6000602082019050818103600083015261379d81613218565b9050919050565b600060208201905081810360008301526137bd8161323b565b9050919050565b600060208201905081810360008301526137dd8161325e565b9050919050565b600060208201905081810360008301526137fd81613281565b9050919050565b6000602082019050818103600083015261381d816132a4565b9050919050565b6000602082019050818103600083015261383d816132c7565b9050919050565b6000602082019050818103600083015261385d816132ea565b9050919050565b6000602082019050818103600083015261387d8161330d565b9050919050565b6000602082019050818103600083015261389d81613330565b9050919050565b600060208201905081810360008301526138bd81613353565b9050919050565b600060208201905081810360008301526138de81846133d9565b905092915050565b60006020820190506138fb600083018461344b565b92915050565b6000602082019050613916600083018461345a565b92915050565b6000613926613937565b90506139328282613e80565b919050565b6000604051905090565b600067ffffffffffffffff82111561395c5761395b614011565b5b61396582614040565b9050602081019050919050565b600067ffffffffffffffff82111561398d5761398c614011565b5b61399682614040565b9050602081019050919050565b6000819050602082019050919050565b600081519050919050565b600081519050919050565b600081519050919050565b6000602082019050919050565b600082825260208201905092915050565b600082825260208201905092915050565b600082825260208201905092915050565b600082825260208201905092915050565b600081905092915050565b6000613a3b82613da4565b9150613a4683613da4565b925081677fffffffffffffff03831360008312151615613a6957613a68613f55565b5b817fffffffffffffffffffffffffffffffffffffffffffffffff8000000000000000038312600083121615613aa157613aa0613f55565b5b828201905092915050565b6000613ab782613dd1565b9150613ac283613dd1565b9250827fffffffffffffffffffffffffffffffffffffffffffffffffffffffffffffffff03821115613af757613af6613f55565b5b828201905092915050565b6000613b0d82613da4565b9150613b1883613da4565b925082613b2857613b27613f84565b5b600160000383147fffffffffffffffffffffffffffffffffffffffffffffffff800000000000000083141615613b6157613b60613f55565b5b828205905092915050565b6000613b7782613dd1565b9150613b8283613dd1565b925082613b9257613b91613f84565b5b828204905092915050565b6000613ba882613da4565b9150613bb383613da4565b925082677fffffffffffffff0482116000841360008413161615613bda57613bd9613f55565b5b817fffffffffffffffffffffffffffffffffffffffffffffffff80000000000000000583126000841260008413161615613c1757613c16613f55565b5b827fffffffffffffffffffffffffffffffffffffffffffffffff80000000000000000582126000841360008412161615613c5457613c53613f55565b5b82677fffffffffffffff0582126000841260008412161615613c7957613c78613f55565b5b828202905092915050565b6000613c8f82613da4565b9150613c9a83613da4565b9250827fffffffffffffffffffffffffffffffffffffffffffffffff800000000000000001821260008412151615613cd557613cd4613f55565b5b82677fffffffffffffff018213600084121615613cf557613cf4613f55565b5b828203905092915050565b6000613d0b82613dd1565b9150613d1683613dd1565b925082821015613d2957613d28613f55565b5b828203905092915050565b6000613d3f82613db1565b9050919050565b60008115159050919050565b60007fffffffff0000000000000000000000000000000000000000000000000000000082169050919050565b6000819050613d8c82614796565b919050565b6000819050613d9f826147aa565b919050565b60008160070b9050919050565b600073ffffffffffffffffffffffffffffffffffffffff82169050919050565b6000819050919050565b600060ff82169050919050565b6000613df382613d7e565b9050919050565b6000613e0582613d91565b9050919050565b82818337600083830152505050565b60005b83811015613e39578082015181840152602081019050613e1e565b83811115613e48576000848401525b50505050565b60006002820490506001821680613e6657607f821691505b60208210811415613e7a57613e79613fe2565b5b50919050565b613e8982614040565b810181811067ffffffffffffffff82111715613ea857613ea7614011565b5b80604052505050565b6000613ebc82613dd1565b91507fffffffffffffffffffffffffffffffffffffffffffffffffffffffffffffffff821415613eef57613eee613f55565b5b600182019050919050565b6000613f0582613ddb565b915060ff821415613f1957613f18613f55565b5b600182019050919050565b6000613f2f82613dd1565b9150613f3a83613dd1565b925082613f4a57613f49613f84565b5b828206905092915050565b7f4e487b7100000000000000000000000000000000000000000000000000000000600052601160045260246000fd5b7f4e487b7100000000000000000000000000000000000000000000000000000000600052601260045260246000fd5b7f4e487b7100000000000000000000000000000000000000000000000000000000600052602160045260246000fd5b7f4e487b7100000000000000000000000000000000000000000000000000000000600052602260045260246000fd5b7f4e487b7100000000000000000000000000000000000000000000000000000000600052604160045260246000fd5b6000601f19601f8301169050919050565b7f546f6b656e3a2067657474696e672074797065206f66206e6f6e65786973746560008201527f6e7420746f6b656e000000000000000000000000000000000000000000000000602082015250565b7f4552433732313a207472616e7366657220746f206e6f6e20455243373231526560008201527f63656976657220696d706c656d656e7465720000000000000000000000000000602082015250565b7f4552433732313a20746f6b656e20616c7265616479206d696e74656400000000600082015250565b7f4552433732313a207472616e7366657220746f20746865207a65726f2061646460008201527f7265737300000000000000000000000000000000000000000000000000000000602082015250565b7f4552433732313a20617070726f766520746f2063616c6c657200000000000000600082015250565b7f4552433732313a206f70657261746f7220717565727920666f72206e6f6e657860008201527f697374656e7420746f6b656e0000000000000000000000000000000000000000602082015250565b7f546f6b656e3a2067657474696e67206f70206f66206e6f6e6578697374656e7460008201527f20746f6b656e0000000000000000000000000000000000000000000000000000602082015250565b7f4552433732313a20617070726f76652063616c6c6572206973206e6f74206f7760008201527f6e6572206e6f7220617070726f76656420666f7220616c6c0000000000000000602082015250565b7f4552433732313a2062616c616e636520717565727920666f7220746865207a6560008201527f726f206164647265737300000000000000000000000000000000000000000000602082015250565b7f4552433732313a206f776e657220717565727920666f72206e6f6e657869737460008201527f656e7420746f6b656e0000000000000000000000000000000000000000000000602082015250565b7f45524337323155524953746f726167653a2055524920736574206f66206e6f6e60008201527f6578697374656e7420746f6b656e000000000000000000000000000000000000602082015250565b7f54686520746f6b656e20666f722074686174206e756d6265722077617320616c60008201527f7265616479206d696e7465642e00000000000000000000000000000000000000602082015250565b7f4552433732313a206d696e7420746f20746865207a65726f2061646472657373600082015250565b7f45524337323155524953746f726167653a2055524920717565727920666f722060008201527f6e6f6e6578697374656e7420746f6b656e000000000000000000000000000000602082015250565b7f4552433732313a20617070726f76656420717565727920666f72206e6f6e657860008201527f697374656e7420746f6b656e0000000000000000000000000000000000000000602082015250565b7f546f6b656e3a2067657474696e672074657874206f66206e6f6e65786973746560008201527f6e7420746f6b656e000000000000000000000000000000000000000000000000602082015250565b7f4552433732313a207472616e73666572206f6620746f6b656e2074686174206960008201527f73206e6f74206f776e0000000000000000000000000000000000000000000000602082015250565b7f4552433732314d657461646174613a2055524920717565727920666f72206e6f60008201527f6e6578697374656e7420746f6b656e0000000000000000000000000000000000602082015250565b7f546f6b656e3a2067657474696e6720696e666f206f66206e6f6e65786973746560008201527f6e7420746f6b656e000000000000000000000000000000000000000000000000602082015250565b7f546f6b656e3a2067657474696e67206e756d626572206f66206e6f6e6578697360008201527f74656e7420746f6b656e00000000000000000000000000000000000000000000602082015250565b7f4552433732313a20617070726f76616c20746f2063757272656e74206f776e6560008201527f7200000000000000000000000000000000000000000000000000000000000000602082015250565b7f4552433732313a207472616e736665722063616c6c6572206973206e6f74206f60008201527f776e6572206e6f7220617070726f766564000000000000000000000000000000602082015250565b7f4f6e6c7920746865206d696e74657220616464726573732063616e206d696e7460008201527f206e657720546f6b656e732e0000000000000000000000000000000000000000602082015250565b7f546f6b656e3a2067657474696e6720746578742066726f6d204e756d6265722060008201527f746f6b656e000000000000000000000000000000000000000000000000000000602082015250565b7f7365744d696e74657228292063616e206f6e6c792062652063616c6c6564206f60008201527f6e63652e00000000000000000000000000000000000000000000000000000000602082015250565b600581106147a7576147a6613fb3565b5b50565b600281106147bb576147ba613fb3565b5b50565b6147c781613d34565b81146147d257600080fd5b50565b6147de81613d46565b81146147e957600080fd5b50565b6147f581613d52565b811461480057600080fd5b50565b6005811061481057600080fd5b50565b61481c81613da4565b811461482757600080fd5b50565b61483381613dd1565b811461483e57600080fd5b5056fea2646970667358221220ea5163a2a00d82f5635a53b3f246a874dbff750f211ae21f4bef5e0b2813756b64736f6c63430008010033",
  "immutableReferences": {},
  "source": "// SPDX-License-Identifier: MIT\r\npragma solidity ^0.8.0;\r\n\r\nimport \"@openzeppelin/contracts/token/ERC721/extensions/ERC721URIStorage.sol\";\r\nimport \"@openzeppelin/contracts/utils/Counters.sol\";\r\n\r\ncontract Token is ERC721URIStorage {\r\n    event Minted(address indexed addr, uint256 indexed tokenId);\r\n\r\n    using Counters for Counters.Counter;\r\n    Counters.Counter private _info;\r\n\r\n    enum Type {Operation, Number}\r\n    enum Operation {None,  Add, Sub, Mul, Div }\r\n\r\n    mapping (uint256 => Operation) private _operations;\r\n    mapping (uint256 => int64) private _numbers;\r\n\r\n    mapping (int64 => bool) private _mintedNumbers;\r\n\r\n    address _minter = address(0);\r\n    bool _minterSet = false;\r\n    \r\n    uint8 _initialMinted = 0;\r\n    uint8 public constant _initialMax = 10;    \r\n\r\n    struct TokenInfo \r\n    {\r\n        uint256 id;\r\n        Operation operation;\r\n        int64 number;\r\n        string uri;\r\n    }\r\n\r\n    constructor() ERC721(\"ArithmeToken\", \"ARI\") {}\r\n\r\n    function _mint(address addr, string memory uri) internal returns (uint256)\r\n    {\r\n        _info.increment();\r\n\r\n        uint256 newTokenId = _info.current();\r\n        super._mint(addr, newTokenId);\r\n        _setTokenURI(newTokenId, uri);\r\n\r\n        emit Minted(addr, newTokenId);\r\n\r\n        return newTokenId;\r\n    }\r\n\r\n    function _isNumberMinted(int64 number) private view returns (bool) {\r\n        return _mintedNumbers[number];\r\n    }\r\n\r\n    function _setNumberMinted(int64 number) private {\r\n        _mintedNumbers[number] = true;\r\n    }\r\n\r\n    function setMinter(address minter) public returns (address) {\r\n        require(!_minterSet, \"setMinter() can only be called once.\");\r\n        _minter = minter;\r\n        _minterSet= true;\r\n\r\n        return _minter;\r\n    }\r\n\r\n    function getTokenInfo(uint256 tokenId) public view returns (TokenInfo memory) {\r\n        require(_exists(tokenId), \"Token: getting info of nonexistent token\");\r\n\r\n        TokenInfo memory info;\r\n        info.id = tokenId;\r\n        info.operation = getOperation(tokenId);\r\n        info.number = getNumber(tokenId);\r\n        info.uri = tokenURI(tokenId);\r\n\r\n        return info;\r\n    }\r\n\r\n    function getTokenInfos(address addr) public view returns (TokenInfo[] memory) {\r\n        uint256 balance = balanceOf(addr);\r\n        TokenInfo[] memory info = new TokenInfo[](balance);\r\n        uint256 found = 0;\r\n        \r\n        for (uint256 i=0; found < balance; i++) {\r\n            if (_exists(i) && ownerOf(i) == addr) {\r\n                info[found] = getTokenInfo(i);\r\n                found++;\r\n            }\r\n        }\r\n\r\n        return info;\r\n    }\r\n\r\n    function getType(uint256 tokenId) public view returns (Type) {\r\n        require(_exists(tokenId), \"Token: getting type of nonexistent token\");\r\n        if (getOperation(tokenId) != Operation.None) {\r\n            return Type.Operation;\r\n        } else {\r\n            return Type.Number;\r\n        }\r\n    }\r\n\r\n    function getNumber(uint256 tokenId) public view returns (int64) {\r\n        require(_exists(tokenId), \"Token: getting number of nonexistent token\");\r\n        return _numbers[tokenId];\r\n    }\r\n\r\n    function getOperation(uint256 tokenId) public view returns (Operation) {\r\n        require(_exists(tokenId), \"Token: getting op of nonexistent token\");\r\n        return _operations[tokenId];\r\n    }\r\n\r\n    // TODO: remove?\r\n    function getOperationText(uint256 tokenId) public view returns (string memory) {\r\n        require(_exists(tokenId), \"Token: getting text of nonexistent token\");\r\n        require(getType(tokenId) == Type.Operation, \"Token: getting text from Number token\");\r\n        \r\n        Operation op = getOperation(tokenId);\r\n        if (op == Operation.Add) {\r\n            return \"+\";\r\n        } else if (op == Operation.Sub) {\r\n            return \"-\";\r\n        } else if (op == Operation.Mul) {\r\n            return \"*\";\r\n        } else if (op == Operation.Div) {\r\n            return \"/\";\r\n        }\r\n\r\n        return \"\";\r\n    }\r\n\r\n    function runOperation(Operation op, int64 v1, int64 v2) public pure returns (int64) {\r\n        if (op == Operation.Add) {\r\n            return v1 + v2;\r\n        } else if (op == Operation.Sub) {\r\n            return v1 - v2;\r\n        } else if (op == Operation.Mul) {\r\n            return v1 * v2;\r\n        } else if (op == Operation.Div) {\r\n            return v1 / v2;\r\n        }\r\n\r\n        return 0;\r\n    }\r\n\r\n    function mintNumber(address acct, string memory uri, int64 number) public returns (uint256)\r\n    {\r\n        require(!_isNumberMinted(number), \"The token for that number was already minted.\");\r\n\r\n        // After the initial tokens are minted, only the minter address will be able to mint more.\r\n        if (_initialMinted >= _initialMax) {\r\n            require(_msgSender() == _minter, \"Only the minter address can mint new Tokens.\");\r\n        }\r\n        _initialMinted++;\r\n\r\n        uint256 newTokenId = _mint(acct, uri);\r\n        _numbers[newTokenId] = number;\r\n        _setNumberMinted(number);\r\n\r\n        return newTokenId;\r\n    }\r\n\r\n    function mintOperation(address acct, string memory uri, Operation operation) public returns (uint256)\r\n    {\r\n        uint256 newTokenId = _mint(acct, uri);\r\n        _operations[newTokenId] = operation;\r\n\r\n        return newTokenId;\r\n    }\r\n\r\n\r\n}",
  "sourcePath": "D:\\Blockchain\\Ethereum\\Projects\\arithmetoken\\src\\contracts\\Token.sol",
  "compiler": {
    "name": "solc",
    "version": "0.8.1+commit.df193b15.Emscripten.clang"
  },
  "schemaVersion": "3.4.1",
  "updatedAt": "2021-07-02T06:54:51.217Z",
  "networkType": "ethereum",
  "devdoc": {
    "kind": "dev",
    "methods": {
      "approve(address,uint256)": {
        "details": "See {IERC721-approve}."
      },
      "balanceOf(address)": {
        "details": "See {IERC721-balanceOf}."
      },
      "getApproved(uint256)": {
        "details": "See {IERC721-getApproved}."
      },
      "isApprovedForAll(address,address)": {
        "details": "See {IERC721-isApprovedForAll}."
      },
      "name()": {
        "details": "See {IERC721Metadata-name}."
      },
      "ownerOf(uint256)": {
        "details": "See {IERC721-ownerOf}."
      },
      "safeTransferFrom(address,address,uint256)": {
        "details": "See {IERC721-safeTransferFrom}."
      },
      "safeTransferFrom(address,address,uint256,bytes)": {
        "details": "See {IERC721-safeTransferFrom}."
      },
      "setApprovalForAll(address,bool)": {
        "details": "See {IERC721-setApprovalForAll}."
      },
      "supportsInterface(bytes4)": {
        "details": "See {IERC165-supportsInterface}."
      },
      "symbol()": {
        "details": "See {IERC721Metadata-symbol}."
      },
      "tokenURI(uint256)": {
        "details": "See {IERC721Metadata-tokenURI}."
      },
      "transferFrom(address,address,uint256)": {
        "details": "See {IERC721-transferFrom}."
      }
    },
    "version": 1
  },
  "userdoc": {
    "kind": "user",
    "methods": {},
    "version": 1
  }
}