{
  "contractName": "Token",
  "abi": [
    {
      "inputs": [],
      "stateMutability": "nonpayable",
      "type": "constructor"
    },
    {
      "anonymous": false,
      "inputs": [
        {
          "indexed": true,
          "internalType": "address",
          "name": "owner",
          "type": "address"
        },
        {
          "indexed": true,
          "internalType": "address",
          "name": "approved",
          "type": "address"
        },
        {
          "indexed": true,
          "internalType": "uint256",
          "name": "tokenId",
          "type": "uint256"
        }
      ],
      "name": "Approval",
      "type": "event"
    },
    {
      "anonymous": false,
      "inputs": [
        {
          "indexed": true,
          "internalType": "address",
          "name": "owner",
          "type": "address"
        },
        {
          "indexed": true,
          "internalType": "address",
          "name": "operator",
          "type": "address"
        },
        {
          "indexed": false,
          "internalType": "bool",
          "name": "approved",
          "type": "bool"
        }
      ],
      "name": "ApprovalForAll",
      "type": "event"
    },
    {
      "anonymous": false,
      "inputs": [
        {
          "indexed": true,
          "internalType": "address",
          "name": "from",
          "type": "address"
        },
        {
          "indexed": true,
          "internalType": "address",
          "name": "to",
          "type": "address"
        },
        {
          "indexed": true,
          "internalType": "uint256",
          "name": "tokenId",
          "type": "uint256"
        }
      ],
      "name": "Transfer",
      "type": "event"
    },
    {
      "inputs": [
        {
          "internalType": "address",
          "name": "to",
          "type": "address"
        },
        {
          "internalType": "uint256",
          "name": "tokenId",
          "type": "uint256"
        }
      ],
      "name": "approve",
      "outputs": [],
      "stateMutability": "nonpayable",
      "type": "function"
    },
    {
      "inputs": [
        {
          "internalType": "address",
          "name": "owner",
          "type": "address"
        }
      ],
      "name": "balanceOf",
      "outputs": [
        {
          "internalType": "uint256",
          "name": "",
          "type": "uint256"
        }
      ],
      "stateMutability": "view",
      "type": "function",
      "constant": true
    },
    {
      "inputs": [
        {
          "internalType": "uint256",
          "name": "tokenId",
          "type": "uint256"
        }
      ],
      "name": "getApproved",
      "outputs": [
        {
          "internalType": "address",
          "name": "",
          "type": "address"
        }
      ],
      "stateMutability": "view",
      "type": "function",
      "constant": true
    },
    {
      "inputs": [
        {
          "internalType": "address",
          "name": "owner",
          "type": "address"
        },
        {
          "internalType": "address",
          "name": "operator",
          "type": "address"
        }
      ],
      "name": "isApprovedForAll",
      "outputs": [
        {
          "internalType": "bool",
          "name": "",
          "type": "bool"
        }
      ],
      "stateMutability": "view",
      "type": "function",
      "constant": true
    },
    {
      "inputs": [],
      "name": "name",
      "outputs": [
        {
          "internalType": "string",
          "name": "",
          "type": "string"
        }
      ],
      "stateMutability": "view",
      "type": "function",
      "constant": true
    },
    {
      "inputs": [
        {
          "internalType": "uint256",
          "name": "tokenId",
          "type": "uint256"
        }
      ],
      "name": "ownerOf",
      "outputs": [
        {
          "internalType": "address",
          "name": "",
          "type": "address"
        }
      ],
      "stateMutability": "view",
      "type": "function",
      "constant": true
    },
    {
      "inputs": [
        {
          "internalType": "address",
          "name": "from",
          "type": "address"
        },
        {
          "internalType": "address",
          "name": "to",
          "type": "address"
        },
        {
          "internalType": "uint256",
          "name": "tokenId",
          "type": "uint256"
        }
      ],
      "name": "safeTransferFrom",
      "outputs": [],
      "stateMutability": "nonpayable",
      "type": "function"
    },
    {
      "inputs": [
        {
          "internalType": "address",
          "name": "from",
          "type": "address"
        },
        {
          "internalType": "address",
          "name": "to",
          "type": "address"
        },
        {
          "internalType": "uint256",
          "name": "tokenId",
          "type": "uint256"
        },
        {
          "internalType": "bytes",
          "name": "_data",
          "type": "bytes"
        }
      ],
      "name": "safeTransferFrom",
      "outputs": [],
      "stateMutability": "nonpayable",
      "type": "function"
    },
    {
      "inputs": [
        {
          "internalType": "address",
          "name": "operator",
          "type": "address"
        },
        {
          "internalType": "bool",
          "name": "approved",
          "type": "bool"
        }
      ],
      "name": "setApprovalForAll",
      "outputs": [],
      "stateMutability": "nonpayable",
      "type": "function"
    },
    {
      "inputs": [
        {
          "internalType": "bytes4",
          "name": "interfaceId",
          "type": "bytes4"
        }
      ],
      "name": "supportsInterface",
      "outputs": [
        {
          "internalType": "bool",
          "name": "",
          "type": "bool"
        }
      ],
      "stateMutability": "view",
      "type": "function",
      "constant": true
    },
    {
      "inputs": [],
      "name": "symbol",
      "outputs": [
        {
          "internalType": "string",
          "name": "",
          "type": "string"
        }
      ],
      "stateMutability": "view",
      "type": "function",
      "constant": true
    },
    {
      "inputs": [
        {
          "internalType": "uint256",
          "name": "tokenId",
          "type": "uint256"
        }
      ],
      "name": "tokenURI",
      "outputs": [
        {
          "internalType": "string",
          "name": "",
          "type": "string"
        }
      ],
      "stateMutability": "view",
      "type": "function",
      "constant": true
    },
    {
      "inputs": [
        {
          "internalType": "address",
          "name": "from",
          "type": "address"
        },
        {
          "internalType": "address",
          "name": "to",
          "type": "address"
        },
        {
          "internalType": "uint256",
          "name": "tokenId",
          "type": "uint256"
        }
      ],
      "name": "transferFrom",
      "outputs": [],
      "stateMutability": "nonpayable",
      "type": "function"
    },
    {
      "inputs": [
        {
          "internalType": "address",
          "name": "addr",
          "type": "address"
        }
      ],
      "name": "getTokensInAddress",
      "outputs": [
        {
          "internalType": "uint256[]",
          "name": "",
          "type": "uint256[]"
        }
      ],
      "stateMutability": "view",
      "type": "function",
      "constant": true
    },
    {
      "inputs": [
        {
          "internalType": "uint256",
          "name": "tokenId",
          "type": "uint256"
        }
      ],
      "name": "getType",
      "outputs": [
        {
          "internalType": "enum Token.Type",
          "name": "",
          "type": "uint8"
        }
      ],
      "stateMutability": "view",
      "type": "function",
      "constant": true
    },
    {
      "inputs": [
        {
          "internalType": "uint256",
          "name": "tokenId",
          "type": "uint256"
        }
      ],
      "name": "getNumber",
      "outputs": [
        {
          "internalType": "int64",
          "name": "",
          "type": "int64"
        }
      ],
      "stateMutability": "view",
      "type": "function",
      "constant": true
    },
    {
      "inputs": [
        {
          "internalType": "uint256",
          "name": "tokenId",
          "type": "uint256"
        }
      ],
      "name": "getOperation",
      "outputs": [
        {
          "internalType": "enum Token.Operation",
          "name": "",
          "type": "uint8"
        }
      ],
      "stateMutability": "view",
      "type": "function",
      "constant": true
    },
    {
      "inputs": [
        {
          "internalType": "uint256",
          "name": "tokenId",
          "type": "uint256"
        }
      ],
      "name": "getOperationText",
      "outputs": [
        {
          "internalType": "string",
          "name": "",
          "type": "string"
        }
      ],
      "stateMutability": "view",
      "type": "function",
      "constant": true
    },
    {
      "inputs": [
        {
          "internalType": "uint256",
          "name": "tokenId",
          "type": "uint256"
        },
        {
          "internalType": "int64",
          "name": "v1",
          "type": "int64"
        },
        {
          "internalType": "int64",
          "name": "v2",
          "type": "int64"
        }
      ],
      "name": "runOperation",
      "outputs": [
        {
          "internalType": "int64",
          "name": "",
          "type": "int64"
        }
      ],
      "stateMutability": "view",
      "type": "function",
      "constant": true
    },
    {
      "inputs": [
        {
          "internalType": "enum Token.Operation",
          "name": "op",
          "type": "uint8"
        },
        {
          "internalType": "int64",
          "name": "v1",
          "type": "int64"
        },
        {
          "internalType": "int64",
          "name": "v2",
          "type": "int64"
        }
      ],
      "name": "runOperation",
      "outputs": [
        {
          "internalType": "int64",
          "name": "",
          "type": "int64"
        }
      ],
      "stateMutability": "pure",
      "type": "function",
      "constant": true
    },
    {
      "inputs": [
        {
          "internalType": "address",
          "name": "acct",
          "type": "address"
        },
        {
          "internalType": "string",
          "name": "uri",
          "type": "string"
        },
        {
          "internalType": "int64",
          "name": "number",
          "type": "int64"
        }
      ],
      "name": "mintNumber",
      "outputs": [
        {
          "internalType": "uint256",
          "name": "",
          "type": "uint256"
        }
      ],
      "stateMutability": "nonpayable",
      "type": "function"
    },
    {
      "inputs": [
        {
          "internalType": "address",
          "name": "acct",
          "type": "address"
        },
        {
          "internalType": "string",
          "name": "uri",
          "type": "string"
        },
        {
          "internalType": "enum Token.Operation",
          "name": "operation",
          "type": "uint8"
        }
      ],
      "name": "mintOperation",
      "outputs": [
        {
          "internalType": "uint256",
          "name": "",
          "type": "uint256"
        }
      ],
      "stateMutability": "nonpayable",
      "type": "function"
    }
  ],
  "bytecode": "0x60806040523480156200001157600080fd5b506040518060400160405280600c81526020017f41726974686d65546f6b656e00000000000000000000000000000000000000008152506040518060400160405280600381526020017f4152490000000000000000000000000000000000000000000000000000000000815250816000908051906020019062000096929190620000b8565b508060019080519060200190620000af929190620000b8565b505050620001cd565b828054620000c69062000168565b90600052602060002090601f016020900481019282620000ea576000855562000136565b82601f106200010557805160ff191683800117855562000136565b8280016001018555821562000136579182015b828111156200013557825182559160200191906001019062000118565b5b50905062000145919062000149565b5090565b5b80821115620001645760008160009055506001016200014a565b5090565b600060028204905060018216806200018157607f821691505b602082108114156200019857620001976200019e565b5b50919050565b7f4e487b7100000000000000000000000000000000000000000000000000000000600052602260045260246000fd5b61453780620001dd6000396000f3fe608060405234801561001057600080fd5b50600436106101425760003560e01c80638940fd9d116100b8578063bd2ff8c51161007c578063bd2ff8c5146103bf578063c87b56dd146103ef578063dc3804171461041f578063e985e9c51461044f578063ee22fa691461047f578063fc563658146104af57610142565b80638940fd9d1461030957806395d89b4114610339578063a22cb46514610357578063a8802def14610373578063b88d4fde146103a357610142565b806323b872dd1161010a57806323b872dd146102115780634036ab781461022d57806342842e0e1461025d5780636352211e1461027957806370a08231146102a957806382960f98146102d957610142565b806301ffc9a71461014757806306fdde0314610177578063081812fc14610195578063095ea7b3146101c5578063202e3924146101e1575b600080fd5b610161600480360381019061015c9190612ba8565b6104df565b60405161016e919061325b565b60405180910390f35b61017f6105c1565b60405161018c91906132c7565b60405180910390f35b6101af60048036038101906101aa9190612c49565b610653565b6040516101bc91906131d2565b60405180910390f35b6101df60048036038101906101da9190612b6c565b6106d8565b005b6101fb60048036038101906101f69190612c49565b6107f0565b6040516102089190613276565b60405180910390f35b61022b60048036038101906102269190612998565b61091d565b005b61024760048036038101906102429190612c49565b61097d565b6040516102549190613291565b60405180910390f35b61027760048036038101906102729190612998565b6109ef565b005b610293600480360381019061028e9190612c49565b610a0f565b6040516102a091906131d2565b60405180910390f35b6102c360048036038101906102be9190612933565b610ac1565b6040516102d09190613609565b60405180910390f35b6102f360048036038101906102ee9190612a9e565b610b79565b6040516103009190613609565b60405180910390f35b610323600480360381019061031e9190612b05565b610c56565b6040516103309190613609565b60405180910390f35b610341610d0f565b60405161034e91906132c7565b60405180910390f35b610371600480360381019061036c9190612a62565b610da1565b005b61038d60048036038101906103889190612c49565b610f22565b60405161039a91906132c7565b60405180910390f35b6103bd60048036038101906103b891906129e7565b611328565b005b6103d960048036038101906103d49190612c72565b61138a565b6040516103e691906132ac565b60405180910390f35b61040960048036038101906104049190612c49565b6114ab565b60405161041691906132c7565b60405180910390f35b61043960048036038101906104349190612bfa565b6115fd565b60405161044691906132ac565b60405180910390f35b6104696004803603810190610464919061295c565b611839565b604051610476919061325b565b60405180910390f35b61049960048036038101906104949190612933565b6118cd565b6040516104a69190613239565b60405180910390f35b6104c960048036038101906104c49190612c49565b611a1c565b6040516104d691906132ac565b60405180910390f35b60007f80ac58cd000000000000000000000000000000000000000000000000000000007bffffffffffffffffffffffffffffffffffffffffffffffffffffffff1916827bffffffffffffffffffffffffffffffffffffffffffffffffffffffff191614806105aa57507f5b5e139f000000000000000000000000000000000000000000000000000000007bffffffffffffffffffffffffffffffffffffffffffffffffffffffff1916827bffffffffffffffffffffffffffffffffffffffffffffffffffffffff1916145b806105ba57506105b982611b48565b5b9050919050565b6060600080546105d090613b38565b80601f01602080910402602001604051908101604052809291908181526020018280546105fc90613b38565b80156106495780601f1061061e57610100808354040283529160200191610649565b820191906000526020600020905b81548152906001019060200180831161062c57829003601f168201915b5050505050905090565b600061065e82611bb2565b61069d576040517f08c379a000000000000000000000000000000000000000000000000000000000815260040161069490613509565b60405180910390fd5b6004600083815260200190815260200160002060009054906101000a900473ffffffffffffffffffffffffffffffffffffffff169050919050565b60006106e382610a0f565b90508073ffffffffffffffffffffffffffffffffffffffff168373ffffffffffffffffffffffffffffffffffffffff161415610754576040517f08c379a000000000000000000000000000000000000000000000000000000000815260040161074b906135a9565b60405180910390fd5b8073ffffffffffffffffffffffffffffffffffffffff16610773611c1e565b73ffffffffffffffffffffffffffffffffffffffff1614806107a257506107a18161079c611c1e565b611839565b5b6107e1576040517f08c379a00000000000000000000000000000000000000000000000000000000081526004016107d890613449565b60405180910390fd5b6107eb8383611c26565b505050565b60006107fb82611bb2565b61083a576040517f08c379a000000000000000000000000000000000000000000000000000000000815260040161083190613429565b60405180910390fd5b60006001811115610874577f4e487b7100000000000000000000000000000000000000000000000000000000600052602160045260246000fd5b61087d8361097d565b60018111156108b5577f4e487b7100000000000000000000000000000000000000000000000000000000600052602160045260246000fd5b146108f5576040517f08c379a00000000000000000000000000000000000000000000000000000000081526004016108ec906133e9565b60405180910390fd5b6009600083815260200190815260200160002060009054906101000a900460ff169050919050565b61092e610928611c1e565b82611cdf565b61096d576040517f08c379a0000000000000000000000000000000000000000000000000000000008152600401610964906135c9565b60405180910390fd5b610978838383611dbd565b505050565b600061098882611bb2565b6109c7576040517f08c379a00000000000000000000000000000000000000000000000000000000081526004016109be90613309565b60405180910390fd5b6008600083815260200190815260200160002060009054906101000a900460ff169050919050565b610a0a83838360405180602001604052806000815250611328565b505050565b6000806002600084815260200190815260200160002060009054906101000a900473ffffffffffffffffffffffffffffffffffffffff169050600073ffffffffffffffffffffffffffffffffffffffff168173ffffffffffffffffffffffffffffffffffffffff161415610ab8576040517f08c379a0000000000000000000000000000000000000000000000000000000008152600401610aaf90613489565b60405180910390fd5b80915050919050565b60008073ffffffffffffffffffffffffffffffffffffffff168273ffffffffffffffffffffffffffffffffffffffff161415610b32576040517f08c379a0000000000000000000000000000000000000000000000000000000008152600401610b2990613469565b60405180910390fd5b600360008373ffffffffffffffffffffffffffffffffffffffff1673ffffffffffffffffffffffffffffffffffffffff168152602001908152602001600020549050919050565b600080610b868585612019565b905060006008600083815260200190815260200160002060006101000a81548160ff02191690836001811115610be5577f4e487b7100000000000000000000000000000000000000000000000000000000600052602160045260246000fd5b0217905550826009600083815260200190815260200160002060006101000a81548160ff02191690836003811115610c46577f4e487b7100000000000000000000000000000000000000000000000000000000600052602160045260246000fd5b0217905550809150509392505050565b600080610c638585612019565b905060016008600083815260200190815260200160002060006101000a81548160ff02191690836001811115610cc2577f4e487b7100000000000000000000000000000000000000000000000000000000600052602160045260246000fd5b021790555082600a600083815260200190815260200160002060006101000a81548167ffffffffffffffff021916908360070b67ffffffffffffffff160217905550809150509392505050565b606060018054610d1e90613b38565b80601f0160208091040260200160405190810160405280929190818152602001828054610d4a90613b38565b8015610d975780601f10610d6c57610100808354040283529160200191610d97565b820191906000526020600020905b815481529060010190602001808311610d7a57829003601f168201915b5050505050905090565b610da9611c1e565b73ffffffffffffffffffffffffffffffffffffffff168273ffffffffffffffffffffffffffffffffffffffff161415610e17576040517f08c379a0000000000000000000000000000000000000000000000000000000008152600401610e0e906133c9565b60405180910390fd5b8060056000610e24611c1e565b73ffffffffffffffffffffffffffffffffffffffff1673ffffffffffffffffffffffffffffffffffffffff16815260200190815260200160002060008473ffffffffffffffffffffffffffffffffffffffff1673ffffffffffffffffffffffffffffffffffffffff16815260200190815260200160002060006101000a81548160ff0219169083151502179055508173ffffffffffffffffffffffffffffffffffffffff16610ed1611c1e565b73ffffffffffffffffffffffffffffffffffffffff167f17307eab39ab6107e8899845ad3d59bd9653f200f220920489ca2b5937696c3183604051610f16919061325b565b60405180910390a35050565b6060610f2d82611bb2565b610f6c576040517f08c379a0000000000000000000000000000000000000000000000000000000008152600401610f6390613529565b60405180910390fd5b60006001811115610fa6577f4e487b7100000000000000000000000000000000000000000000000000000000600052602160045260246000fd5b610faf8361097d565b6001811115610fe7577f4e487b7100000000000000000000000000000000000000000000000000000000600052602160045260246000fd5b14611027576040517f08c379a000000000000000000000000000000000000000000000000000000000815260040161101e906135e9565b60405180910390fd5b6000611032836107f0565b90506000600381111561106e577f4e487b7100000000000000000000000000000000000000000000000000000000600052602160045260246000fd5b8160038111156110a7577f4e487b7100000000000000000000000000000000000000000000000000000000600052602160045260246000fd5b14156110eb576040518060400160405280600181526020017f2b00000000000000000000000000000000000000000000000000000000000000815250915050611323565b60016003811115611125577f4e487b7100000000000000000000000000000000000000000000000000000000600052602160045260246000fd5b81600381111561115e577f4e487b7100000000000000000000000000000000000000000000000000000000600052602160045260246000fd5b14156111a2576040518060400160405280600181526020017f2d00000000000000000000000000000000000000000000000000000000000000815250915050611323565b600260038111156111dc577f4e487b7100000000000000000000000000000000000000000000000000000000600052602160045260246000fd5b816003811115611215577f4e487b7100000000000000000000000000000000000000000000000000000000600052602160045260246000fd5b1415611259576040518060400160405280600181526020017f2a00000000000000000000000000000000000000000000000000000000000000815250915050611323565b600380811115611292577f4e487b7100000000000000000000000000000000000000000000000000000000600052602160045260246000fd5b8160038111156112cb577f4e487b7100000000000000000000000000000000000000000000000000000000600052602160045260246000fd5b141561130f576040518060400160405280600181526020017f2f00000000000000000000000000000000000000000000000000000000000000815250915050611323565b604051806020016040528060008152509150505b919050565b611339611333611c1e565b83611cdf565b611378576040517f08c379a000000000000000000000000000000000000000000000000000000000815260040161136f906135c9565b60405180910390fd5b61138484848484612051565b50505050565b600061139584611bb2565b6113d4576040517f08c379a00000000000000000000000000000000000000000000000000000000081526004016113cb90613389565b60405180910390fd5b6000600181111561140e577f4e487b7100000000000000000000000000000000000000000000000000000000600052602160045260246000fd5b6114178561097d565b600181111561144f577f4e487b7100000000000000000000000000000000000000000000000000000000600052602160045260246000fd5b1461148f576040517f08c379a000000000000000000000000000000000000000000000000000000000815260040161148690613369565b60405180910390fd5b6114a261149b856107f0565b84846115fd565b90509392505050565b60606114b682611bb2565b6114f5576040517f08c379a00000000000000000000000000000000000000000000000000000000081526004016114ec906134e9565b60405180910390fd5b600060066000848152602001908152602001600020805461151590613b38565b80601f016020809104026020016040519081016040528092919081815260200182805461154190613b38565b801561158e5780601f106115635761010080835404028352916020019161158e565b820191906000526020600020905b81548152906001019060200180831161157157829003601f168201915b50505050509050600061159f6120ad565b90506000815114156115b55781925050506115f8565b6000825111156115ea5780826040516020016115d29291906131ae565b604051602081830303815290604052925050506115f8565b6115f3846120c4565b925050505b919050565b6000806003811115611638577f4e487b7100000000000000000000000000000000000000000000000000000000600052602160045260246000fd5b846003811115611671577f4e487b7100000000000000000000000000000000000000000000000000000000600052602160045260246000fd5b141561168a5781836116839190613727565b9050611832565b600160038111156116c4577f4e487b7100000000000000000000000000000000000000000000000000000000600052602160045260246000fd5b8460038111156116fd577f4e487b7100000000000000000000000000000000000000000000000000000000600052602160045260246000fd5b141561171657818361170f919061397b565b9050611832565b60026003811115611750577f4e487b7100000000000000000000000000000000000000000000000000000000600052602160045260246000fd5b846003811115611789577f4e487b7100000000000000000000000000000000000000000000000000000000600052602160045260246000fd5b14156117a257818361179b9190613894565b9050611832565b6003808111156117db577f4e487b7100000000000000000000000000000000000000000000000000000000600052602160045260246000fd5b846003811115611814577f4e487b7100000000000000000000000000000000000000000000000000000000600052602160045260246000fd5b141561182d57818361182691906137f9565b9050611832565b600090505b9392505050565b6000600560008473ffffffffffffffffffffffffffffffffffffffff1673ffffffffffffffffffffffffffffffffffffffff16815260200190815260200160002060008373ffffffffffffffffffffffffffffffffffffffff1673ffffffffffffffffffffffffffffffffffffffff16815260200190815260200160002060009054906101000a900460ff16905092915050565b606060006118da83610ac1565b905060008167ffffffffffffffff81111561191e577f4e487b7100000000000000000000000000000000000000000000000000000000600052604160045260246000fd5b60405190808252806020026020018201604052801561194c5781602001602082028036833780820191505090505b5090506000805b83821015611a105761196481611bb2565b80156119a357508573ffffffffffffffffffffffffffffffffffffffff1661198b82610a0f565b73ffffffffffffffffffffffffffffffffffffffff16145b156119fd57808383815181106119e2577f4e487b7100000000000000000000000000000000000000000000000000000000600052603260045260246000fd5b60200260200101818152505081806119f990613b9b565b9250505b8080611a0890613b9b565b915050611953565b50819350505050919050565b6000611a2782611bb2565b611a66576040517f08c379a0000000000000000000000000000000000000000000000000000000008152600401611a5d90613589565b60405180910390fd5b600180811115611a9f577f4e487b7100000000000000000000000000000000000000000000000000000000600052602160045260246000fd5b611aa88361097d565b6001811115611ae0577f4e487b7100000000000000000000000000000000000000000000000000000000600052602160045260246000fd5b14611b20576040517f08c379a0000000000000000000000000000000000000000000000000000000008152600401611b17906132e9565b60405180910390fd5b600a600083815260200190815260200160002060009054906101000a900460070b9050919050565b60007f01ffc9a7000000000000000000000000000000000000000000000000000000007bffffffffffffffffffffffffffffffffffffffffffffffffffffffff1916827bffffffffffffffffffffffffffffffffffffffffffffffffffffffff1916149050919050565b60008073ffffffffffffffffffffffffffffffffffffffff166002600084815260200190815260200160002060009054906101000a900473ffffffffffffffffffffffffffffffffffffffff1673ffffffffffffffffffffffffffffffffffffffff1614159050919050565b600033905090565b816004600083815260200190815260200160002060006101000a81548173ffffffffffffffffffffffffffffffffffffffff021916908373ffffffffffffffffffffffffffffffffffffffff160217905550808273ffffffffffffffffffffffffffffffffffffffff16611c9983610a0f565b73ffffffffffffffffffffffffffffffffffffffff167f8c5be1e5ebec7d5bd14f71427d1e84f3dd0314c0f7b2291e5b200ac8c7c3b92560405160405180910390a45050565b6000611cea82611bb2565b611d29576040517f08c379a0000000000000000000000000000000000000000000000000000000008152600401611d2090613409565b60405180910390fd5b6000611d3483610a0f565b90508073ffffffffffffffffffffffffffffffffffffffff168473ffffffffffffffffffffffffffffffffffffffff161480611da357508373ffffffffffffffffffffffffffffffffffffffff16611d8b84610653565b73ffffffffffffffffffffffffffffffffffffffff16145b80611db45750611db38185611839565b5b91505092915050565b8273ffffffffffffffffffffffffffffffffffffffff16611ddd82610a0f565b73ffffffffffffffffffffffffffffffffffffffff1614611e33576040517f08c379a0000000000000000000000000000000000000000000000000000000008152600401611e2a90613549565b60405180910390fd5b600073ffffffffffffffffffffffffffffffffffffffff168273ffffffffffffffffffffffffffffffffffffffff161415611ea3576040517f08c379a0000000000000000000000000000000000000000000000000000000008152600401611e9a906133a9565b60405180910390fd5b611eae83838361216b565b611eb9600082611c26565b6001600360008573ffffffffffffffffffffffffffffffffffffffff1673ffffffffffffffffffffffffffffffffffffffff1681526020019081526020016000206000828254611f0991906139f7565b925050819055506001600360008473ffffffffffffffffffffffffffffffffffffffff1673ffffffffffffffffffffffffffffffffffffffff1681526020019081526020016000206000828254611f6091906137a3565b92505081905550816002600083815260200190815260200160002060006101000a81548173ffffffffffffffffffffffffffffffffffffffff021916908373ffffffffffffffffffffffffffffffffffffffff160217905550808273ffffffffffffffffffffffffffffffffffffffff168473ffffffffffffffffffffffffffffffffffffffff167fddf252ad1be2c89b69c2b068fc378daa952ba7f163c4a11628f55a4df523b3ef60405160405180910390a4505050565b60006120256007612170565b60006120316007612186565b905061203d8482612194565b6120478184612362565b8091505092915050565b61205c848484611dbd565b612068848484846123d6565b6120a7576040517f08c379a000000000000000000000000000000000000000000000000000000000815260040161209e90613329565b60405180910390fd5b50505050565b606060405180602001604052806000815250905090565b60606120cf82611bb2565b61210e576040517f08c379a000000000000000000000000000000000000000000000000000000000815260040161210590613569565b60405180910390fd5b60006121186120ad565b905060008151116121385760405180602001604052806000815250612163565b806121428461256d565b6040516020016121539291906131ae565b6040516020818303038152906040525b915050919050565b505050565b6001816000016000828254019250508190555050565b600081600001549050919050565b600073ffffffffffffffffffffffffffffffffffffffff168273ffffffffffffffffffffffffffffffffffffffff161415612204576040517f08c379a00000000000000000000000000000000000000000000000000000000081526004016121fb906134c9565b60405180910390fd5b61220d81611bb2565b1561224d576040517f08c379a000000000000000000000000000000000000000000000000000000000815260040161224490613349565b60405180910390fd5b6122596000838361216b565b6001600360008473ffffffffffffffffffffffffffffffffffffffff1673ffffffffffffffffffffffffffffffffffffffff16815260200190815260200160002060008282546122a991906137a3565b92505081905550816002600083815260200190815260200160002060006101000a81548173ffffffffffffffffffffffffffffffffffffffff021916908373ffffffffffffffffffffffffffffffffffffffff160217905550808273ffffffffffffffffffffffffffffffffffffffff16600073ffffffffffffffffffffffffffffffffffffffff167fddf252ad1be2c89b69c2b068fc378daa952ba7f163c4a11628f55a4df523b3ef60405160405180910390a45050565b61236b82611bb2565b6123aa576040517f08c379a00000000000000000000000000000000000000000000000000000000081526004016123a1906134a9565b60405180910390fd5b806006600084815260200190815260200160002090805190602001906123d192919061272d565b505050565b60006123f78473ffffffffffffffffffffffffffffffffffffffff1661271a565b15612560578373ffffffffffffffffffffffffffffffffffffffff1663150b7a02612420611c1e565b8786866040518563ffffffff1660e01b815260040161244294939291906131ed565b602060405180830381600087803b15801561245c57600080fd5b505af192505050801561248d57506040513d601f19601f8201168201806040525081019061248a9190612bd1565b60015b612510573d80600081146124bd576040519150601f19603f3d011682016040523d82523d6000602084013e6124c2565b606091505b50600081511415612508576040517f08c379a00000000000000000000000000000000000000000000000000000000081526004016124ff90613329565b60405180910390fd5b805181602001fd5b63150b7a0260e01b7bffffffffffffffffffffffffffffffffffffffffffffffffffffffff1916817bffffffffffffffffffffffffffffffffffffffffffffffffffffffff191614915050612565565b600190505b949350505050565b606060008214156125b5576040518060400160405280600181526020017f30000000000000000000000000000000000000000000000000000000000000008152509050612715565b600082905060005b600082146125e75780806125d090613b9b565b915050600a826125e09190613863565b91506125bd565b60008167ffffffffffffffff811115612629577f4e487b7100000000000000000000000000000000000000000000000000000000600052604160045260246000fd5b6040519080825280601f01601f19166020018201604052801561265b5781602001600182028036833780820191505090505b5090505b6000851461270e5760018261267491906139f7565b9150600a856126839190613be4565b603061268f91906137a3565b60f81b8183815181106126cb577f4e487b7100000000000000000000000000000000000000000000000000000000600052603260045260246000fd5b60200101907effffffffffffffffffffffffffffffffffffffffffffffffffffffffffffff1916908160001a905350600a856127079190613863565b945061265f565b8093505050505b919050565b600080823b905060008111915050919050565b82805461273990613b38565b90600052602060002090601f01602090048101928261275b57600085556127a2565b82601f1061277457805160ff19168380011785556127a2565b828001600101855582156127a2579182015b828111156127a1578251825591602001919060010190612786565b5b5090506127af91906127b3565b5090565b5b808211156127cc5760008160009055506001016127b4565b5090565b60006127e36127de84613649565b613624565b9050828152602081018484840111156127fb57600080fd5b612806848285613af6565b509392505050565b600061282161281c8461367a565b613624565b90508281526020810184848401111561283957600080fd5b612844848285613af6565b509392505050565b60008135905061285b8161447e565b92915050565b60008135905061287081614495565b92915050565b600081359050612885816144ac565b92915050565b60008151905061289a816144ac565b92915050565b600082601f8301126128b157600080fd5b81356128c18482602086016127d0565b91505092915050565b6000813590506128d9816144c3565b92915050565b6000813590506128ee816144d3565b92915050565b600082601f83011261290557600080fd5b813561291584826020860161280e565b91505092915050565b60008135905061292d816144ea565b92915050565b60006020828403121561294557600080fd5b60006129538482850161284c565b91505092915050565b6000806040838503121561296f57600080fd5b600061297d8582860161284c565b925050602061298e8582860161284c565b9150509250929050565b6000806000606084860312156129ad57600080fd5b60006129bb8682870161284c565b93505060206129cc8682870161284c565b92505060406129dd8682870161291e565b9150509250925092565b600080600080608085870312156129fd57600080fd5b6000612a0b8782880161284c565b9450506020612a1c8782880161284c565b9350506040612a2d8782880161291e565b925050606085013567ffffffffffffffff811115612a4a57600080fd5b612a56878288016128a0565b91505092959194509250565b60008060408385031215612a7557600080fd5b6000612a838582860161284c565b9250506020612a9485828601612861565b9150509250929050565b600080600060608486031215612ab357600080fd5b6000612ac18682870161284c565b935050602084013567ffffffffffffffff811115612ade57600080fd5b612aea868287016128f4565b9250506040612afb868287016128ca565b9150509250925092565b600080600060608486031215612b1a57600080fd5b6000612b288682870161284c565b935050602084013567ffffffffffffffff811115612b4557600080fd5b612b51868287016128f4565b9250506040612b62868287016128df565b9150509250925092565b60008060408385031215612b7f57600080fd5b6000612b8d8582860161284c565b9250506020612b9e8582860161291e565b9150509250929050565b600060208284031215612bba57600080fd5b6000612bc884828501612876565b91505092915050565b600060208284031215612be357600080fd5b6000612bf18482850161288b565b91505092915050565b600080600060608486031215612c0f57600080fd5b6000612c1d868287016128ca565b9350506020612c2e868287016128df565b9250506040612c3f868287016128df565b9150509250925092565b600060208284031215612c5b57600080fd5b6000612c698482850161291e565b91505092915050565b600080600060608486031215612c8757600080fd5b6000612c958682870161291e565b9350506020612ca6868287016128df565b9250506040612cb7868287016128df565b9150509250925092565b6000612ccd8383613190565b60208301905092915050565b612ce281613a2b565b82525050565b6000612cf3826136bb565b612cfd81856136e9565b9350612d08836136ab565b8060005b83811015612d39578151612d208882612cc1565b9750612d2b836136dc565b925050600181019050612d0c565b5085935050505092915050565b612d4f81613a3d565b82525050565b6000612d60826136c6565b612d6a81856136fa565b9350612d7a818560208601613b05565b612d8381613d00565b840191505092915050565b612d9781613ad2565b82525050565b612da681613ae4565b82525050565b612db581613a9b565b82525050565b6000612dc6826136d1565b612dd0818561370b565b9350612de0818560208601613b05565b612de981613d00565b840191505092915050565b6000612dff826136d1565b612e09818561371c565b9350612e19818560208601613b05565b80840191505092915050565b6000612e32602a8361370b565b9150612e3d82613d11565b604082019050919050565b6000612e5560288361370b565b9150612e6082613d60565b604082019050919050565b6000612e7860328361370b565b9150612e8382613daf565b604082019050919050565b6000612e9b601c8361370b565b9150612ea682613dfe565b602082019050919050565b6000612ebe60278361370b565b9150612ec982613e27565b604082019050919050565b6000612ee1602c8361370b565b9150612eec82613e76565b604082019050919050565b6000612f0460248361370b565b9150612f0f82613ec5565b604082019050919050565b6000612f2760198361370b565b9150612f3282613f14565b602082019050919050565b6000612f4a602a8361370b565b9150612f5582613f3d565b604082019050919050565b6000612f6d602c8361370b565b9150612f7882613f8c565b604082019050919050565b6000612f9060268361370b565b9150612f9b82613fdb565b604082019050919050565b6000612fb360388361370b565b9150612fbe8261402a565b604082019050919050565b6000612fd6602a8361370b565b9150612fe182614079565b604082019050919050565b6000612ff960298361370b565b9150613004826140c8565b604082019050919050565b600061301c602e8361370b565b915061302782614117565b604082019050919050565b600061303f60208361370b565b915061304a82614166565b602082019050919050565b600061306260318361370b565b915061306d8261418f565b604082019050919050565b6000613085602c8361370b565b9150613090826141de565b604082019050919050565b60006130a860288361370b565b91506130b38261422d565b604082019050919050565b60006130cb60298361370b565b91506130d68261427c565b604082019050919050565b60006130ee602f8361370b565b91506130f9826142cb565b604082019050919050565b6000613111602a8361370b565b915061311c8261431a565b604082019050919050565b600061313460218361370b565b915061313f82614369565b604082019050919050565b600061315760318361370b565b9150613162826143b8565b604082019050919050565b600061317a60258361370b565b915061318582614407565b604082019050919050565b61319981613ac8565b82525050565b6131a881613ac8565b82525050565b60006131ba8285612df4565b91506131c68284612df4565b91508190509392505050565b60006020820190506131e76000830184612cd9565b92915050565b60006080820190506132026000830187612cd9565b61320f6020830186612cd9565b61321c604083018561319f565b818103606083015261322e8184612d55565b905095945050505050565b600060208201905081810360008301526132538184612ce8565b905092915050565b60006020820190506132706000830184612d46565b92915050565b600060208201905061328b6000830184612d8e565b92915050565b60006020820190506132a66000830184612d9d565b92915050565b60006020820190506132c16000830184612dac565b92915050565b600060208201905081810360008301526132e18184612dbb565b905092915050565b6000602082019050818103600083015261330281612e25565b9050919050565b6000602082019050818103600083015261332281612e48565b9050919050565b6000602082019050818103600083015261334281612e6b565b9050919050565b6000602082019050818103600083015261336281612e8e565b9050919050565b6000602082019050818103600083015261338281612eb1565b9050919050565b600060208201905081810360008301526133a281612ed4565b9050919050565b600060208201905081810360008301526133c281612ef7565b9050919050565b600060208201905081810360008301526133e281612f1a565b9050919050565b6000602082019050818103600083015261340281612f3d565b9050919050565b6000602082019050818103600083015261342281612f60565b9050919050565b6000602082019050818103600083015261344281612f83565b9050919050565b6000602082019050818103600083015261346281612fa6565b9050919050565b6000602082019050818103600083015261348281612fc9565b9050919050565b600060208201905081810360008301526134a281612fec565b9050919050565b600060208201905081810360008301526134c28161300f565b9050919050565b600060208201905081810360008301526134e281613032565b9050919050565b6000602082019050818103600083015261350281613055565b9050919050565b6000602082019050818103600083015261352281613078565b9050919050565b600060208201905081810360008301526135428161309b565b9050919050565b60006020820190508181036000830152613562816130be565b9050919050565b60006020820190508181036000830152613582816130e1565b9050919050565b600060208201905081810360008301526135a281613104565b9050919050565b600060208201905081810360008301526135c281613127565b9050919050565b600060208201905081810360008301526135e28161314a565b9050919050565b600060208201905081810360008301526136028161316d565b9050919050565b600060208201905061361e600083018461319f565b92915050565b600061362e61363f565b905061363a8282613b6a565b919050565b6000604051905090565b600067ffffffffffffffff82111561366457613663613cd1565b5b61366d82613d00565b9050602081019050919050565b600067ffffffffffffffff82111561369557613694613cd1565b5b61369e82613d00565b9050602081019050919050565b6000819050602082019050919050565b600081519050919050565b600081519050919050565b600081519050919050565b6000602082019050919050565b600082825260208201905092915050565b600082825260208201905092915050565b600082825260208201905092915050565b600081905092915050565b600061373282613a9b565b915061373d83613a9b565b925081677fffffffffffffff038313600083121516156137605761375f613c15565b5b817fffffffffffffffffffffffffffffffffffffffffffffffff800000000000000003831260008312161561379857613797613c15565b5b828201905092915050565b60006137ae82613ac8565b91506137b983613ac8565b9250827fffffffffffffffffffffffffffffffffffffffffffffffffffffffffffffffff038211156137ee576137ed613c15565b5b828201905092915050565b600061380482613a9b565b915061380f83613a9b565b92508261381f5761381e613c44565b5b600160000383147fffffffffffffffffffffffffffffffffffffffffffffffff80000000000000008314161561385857613857613c15565b5b828205905092915050565b600061386e82613ac8565b915061387983613ac8565b92508261388957613888613c44565b5b828204905092915050565b600061389f82613a9b565b91506138aa83613a9b565b925082677fffffffffffffff04821160008413600084131616156138d1576138d0613c15565b5b817fffffffffffffffffffffffffffffffffffffffffffffffff8000000000000000058312600084126000841316161561390e5761390d613c15565b5b827fffffffffffffffffffffffffffffffffffffffffffffffff8000000000000000058212600084136000841216161561394b5761394a613c15565b5b82677fffffffffffffff05821260008412600084121616156139705761396f613c15565b5b828202905092915050565b600061398682613a9b565b915061399183613a9b565b9250827fffffffffffffffffffffffffffffffffffffffffffffffff8000000000000000018212600084121516156139cc576139cb613c15565b5b82677fffffffffffffff0182136000841216156139ec576139eb613c15565b5b828203905092915050565b6000613a0282613ac8565b9150613a0d83613ac8565b925082821015613a2057613a1f613c15565b5b828203905092915050565b6000613a3682613aa8565b9050919050565b60008115159050919050565b60007fffffffff0000000000000000000000000000000000000000000000000000000082169050919050565b6000819050613a8382614456565b919050565b6000819050613a968261446a565b919050565b60008160070b9050919050565b600073ffffffffffffffffffffffffffffffffffffffff82169050919050565b6000819050919050565b6000613add82613a75565b9050919050565b6000613aef82613a88565b9050919050565b82818337600083830152505050565b60005b83811015613b23578082015181840152602081019050613b08565b83811115613b32576000848401525b50505050565b60006002820490506001821680613b5057607f821691505b60208210811415613b6457613b63613ca2565b5b50919050565b613b7382613d00565b810181811067ffffffffffffffff82111715613b9257613b91613cd1565b5b80604052505050565b6000613ba682613ac8565b91507fffffffffffffffffffffffffffffffffffffffffffffffffffffffffffffffff821415613bd957613bd8613c15565b5b600182019050919050565b6000613bef82613ac8565b9150613bfa83613ac8565b925082613c0a57613c09613c44565b5b828206905092915050565b7f4e487b7100000000000000000000000000000000000000000000000000000000600052601160045260246000fd5b7f4e487b7100000000000000000000000000000000000000000000000000000000600052601260045260246000fd5b7f4e487b7100000000000000000000000000000000000000000000000000000000600052602160045260246000fd5b7f4e487b7100000000000000000000000000000000000000000000000000000000600052602260045260246000fd5b7f4e487b7100000000000000000000000000000000000000000000000000000000600052604160045260246000fd5b6000601f19601f8301169050919050565b7f546f6b656e3a2067657474696e67206e756d6265722066726f6d204f7065726160008201527f74696f6e20746f6b656e00000000000000000000000000000000000000000000602082015250565b7f546f6b656e3a2067657474696e672074797065206f66206e6f6e65786973746560008201527f6e7420746f6b656e000000000000000000000000000000000000000000000000602082015250565b7f4552433732313a207472616e7366657220746f206e6f6e20455243373231526560008201527f63656976657220696d706c656d656e7465720000000000000000000000000000602082015250565b7f4552433732313a20746f6b656e20616c7265616479206d696e74656400000000600082015250565b7f546f6b656e3a2063616c63756c6174696e67207573696e672061204e756d626560008201527f7220746f6b656e00000000000000000000000000000000000000000000000000602082015250565b7f546f6b656e3a2063616c63756c6174696e67207573696e672061206e6f6e657860008201527f697374656e7420746f6b656e0000000000000000000000000000000000000000602082015250565b7f4552433732313a207472616e7366657220746f20746865207a65726f2061646460008201527f7265737300000000000000000000000000000000000000000000000000000000602082015250565b7f4552433732313a20617070726f766520746f2063616c6c657200000000000000600082015250565b7f546f6b656e3a2067657474696e67206f7065726174696f6e2066726f6d204e7560008201527f6d62657220746f6b656e00000000000000000000000000000000000000000000602082015250565b7f4552433732313a206f70657261746f7220717565727920666f72206e6f6e657860008201527f697374656e7420746f6b656e0000000000000000000000000000000000000000602082015250565b7f546f6b656e3a2067657474696e67206f70206f66206e6f6e6578697374656e7460008201527f20746f6b656e0000000000000000000000000000000000000000000000000000602082015250565b7f4552433732313a20617070726f76652063616c6c6572206973206e6f74206f7760008201527f6e6572206e6f7220617070726f76656420666f7220616c6c0000000000000000602082015250565b7f4552433732313a2062616c616e636520717565727920666f7220746865207a6560008201527f726f206164647265737300000000000000000000000000000000000000000000602082015250565b7f4552433732313a206f776e657220717565727920666f72206e6f6e657869737460008201527f656e7420746f6b656e0000000000000000000000000000000000000000000000602082015250565b7f45524337323155524953746f726167653a2055524920736574206f66206e6f6e60008201527f6578697374656e7420746f6b656e000000000000000000000000000000000000602082015250565b7f4552433732313a206d696e7420746f20746865207a65726f2061646472657373600082015250565b7f45524337323155524953746f726167653a2055524920717565727920666f722060008201527f6e6f6e6578697374656e7420746f6b656e000000000000000000000000000000602082015250565b7f4552433732313a20617070726f76656420717565727920666f72206e6f6e657860008201527f697374656e7420746f6b656e0000000000000000000000000000000000000000602082015250565b7f546f6b656e3a2067657474696e672074657874206f66206e6f6e65786973746560008201527f6e7420746f6b656e000000000000000000000000000000000000000000000000602082015250565b7f4552433732313a207472616e73666572206f6620746f6b656e2074686174206960008201527f73206e6f74206f776e0000000000000000000000000000000000000000000000602082015250565b7f4552433732314d657461646174613a2055524920717565727920666f72206e6f60008201527f6e6578697374656e7420746f6b656e0000000000000000000000000000000000602082015250565b7f546f6b656e3a2067657474696e67206e756d626572206f66206e6f6e6578697360008201527f74656e7420746f6b656e00000000000000000000000000000000000000000000602082015250565b7f4552433732313a20617070726f76616c20746f2063757272656e74206f776e6560008201527f7200000000000000000000000000000000000000000000000000000000000000602082015250565b7f4552433732313a207472616e736665722063616c6c6572206973206e6f74206f60008201527f776e6572206e6f7220617070726f766564000000000000000000000000000000602082015250565b7f546f6b656e3a2067657474696e6720746578742066726f6d204e756d6265722060008201527f746f6b656e000000000000000000000000000000000000000000000000000000602082015250565b6004811061446757614466613c73565b5b50565b6002811061447b5761447a613c73565b5b50565b61448781613a2b565b811461449257600080fd5b50565b61449e81613a3d565b81146144a957600080fd5b50565b6144b581613a49565b81146144c057600080fd5b50565b600481106144d057600080fd5b50565b6144dc81613a9b565b81146144e757600080fd5b50565b6144f381613ac8565b81146144fe57600080fd5b5056fea26469706673582212209b5e43d54ee26f241108c150c9ef97afa48f97a83e56eed8e4f317413c2a418164736f6c63430008010033",
  "immutableReferences": {},
  "source": "// SPDX-License-Identifier: MIT\r\npragma solidity ^0.8.0;\r\n\r\nimport \"@openzeppelin/contracts/token/ERC721/extensions/ERC721URIStorage.sol\";\r\nimport \"@openzeppelin/contracts/utils/Counters.sol\";\r\n\r\ncontract Token is ERC721URIStorage {\r\n    using Counters for Counters.Counter;\r\n    Counters.Counter private _tokenIds;\r\n\r\n    enum Type {Operation, Number}\r\n    mapping (uint256 => Type) private _types;\r\n    \r\n    enum Operation { Add, Sub, Mul, Div }\r\n    mapping (uint256 => Operation) private _operations;\r\n    \r\n    mapping (uint256 => int64) private _numbers;\r\n\r\n    constructor() ERC721(\"ArithmeToken\", \"ARI\") {}\r\n\r\n    function _mint(address addr, string memory uri) internal returns (uint256)\r\n    {\r\n        _tokenIds.increment();\r\n\r\n        uint256 newTokenId = _tokenIds.current();\r\n        super._mint(addr, newTokenId);\r\n        _setTokenURI(newTokenId, uri);\r\n\r\n        return newTokenId;\r\n    }\r\n\r\n    function getTokensInAddress(address addr) public view returns (uint256[] memory) {\r\n        uint256 balance = balanceOf(addr);\r\n        uint256[] memory tokenIds = new uint256[](balance);\r\n        uint256 found = 0;\r\n        \r\n        for (uint256 i=0; found < balance; i++) {\r\n            if (_exists(i) && ownerOf(i) == addr) {\r\n                tokenIds[found] = i;\r\n                found++;\r\n            }\r\n        }\r\n\r\n        return tokenIds;\r\n    }\r\n\r\n    function getType(uint256 tokenId) public view returns (Type) {\r\n        require(_exists(tokenId), \"Token: getting type of nonexistent token\");\r\n        return _types[tokenId];\r\n    }\r\n\r\n    function getNumber(uint256 tokenId) public view returns (int64) {\r\n        require(_exists(tokenId), \"Token: getting number of nonexistent token\");\r\n        require(getType(tokenId) == Type.Number, \"Token: getting number from Operation token\");\r\n        return _numbers[tokenId];\r\n    }\r\n\r\n    function getOperation(uint256 tokenId) public view returns (Operation) {\r\n        require(_exists(tokenId), \"Token: getting op of nonexistent token\");\r\n        require(getType(tokenId) == Type.Operation, \"Token: getting operation from Number token\");\r\n        return _operations[tokenId];\r\n    }\r\n\r\n    function getOperationText(uint256 tokenId) public view returns (string memory) {\r\n        require(_exists(tokenId), \"Token: getting text of nonexistent token\");\r\n        require(getType(tokenId) == Type.Operation, \"Token: getting text from Number token\");\r\n        \r\n        Operation op = getOperation(tokenId);\r\n        if (op == Operation.Add) {\r\n            return \"+\";\r\n        } else if (op == Operation.Sub) {\r\n            return \"-\";\r\n        } else if (op == Operation.Mul) {\r\n            return \"*\";\r\n        } else if (op == Operation.Div) {\r\n            return \"/\";\r\n        }\r\n\r\n        return \"\";\r\n    }\r\n\r\n    function runOperation(Operation op, int64 v1, int64 v2) public pure returns (int64) {\r\n        if (op == Operation.Add) {\r\n            return v1 + v2;\r\n        } else if (op == Operation.Sub) {\r\n            return v1 - v2;\r\n        } else if (op == Operation.Mul) {\r\n            return v1 * v2;\r\n        } else if (op == Operation.Div) {\r\n            return v1 / v2;\r\n        }\r\n\r\n        return 0;\r\n    }\r\n\r\n    function runOperation(uint256 tokenId, int64 v1, int64 v2) public view returns (int64) {\r\n        require(_exists(tokenId), \"Token: calculating using a nonexistent token\");\r\n        require(getType(tokenId) == Type.Operation, \"Token: calculating using a Number token\");\r\n\r\n        return runOperation(getOperation(tokenId), v1, v2);\r\n    }\r\n\r\n    // TODO Permissions?\r\n    function mintNumber(address acct, string memory uri, int64 number) public returns (uint256)\r\n    {\r\n        uint256 newTokenId = _mint(acct, uri);\r\n        _types[newTokenId] = Type.Number;\r\n        _numbers[newTokenId] = number;\r\n\r\n        return newTokenId;\r\n    }\r\n\r\n    // TODO Permissions?\r\n    function mintOperation(address acct, string memory uri, Operation operation) public returns (uint256)\r\n    {\r\n        uint256 newTokenId = _mint(acct, uri);\r\n        _types[newTokenId] = Type.Operation;\r\n        _operations[newTokenId] = operation;\r\n\r\n        return newTokenId;\r\n    }\r\n\r\n\r\n}",
  "sourcePath": "D:/Blockchain/Ethereum/Projects/arithmetoken/src/contracts/Token.sol",
  "compiler": {
    "name": "solc",
    "version": "0.8.1+commit.df193b15.Emscripten.clang"
  },
  "schemaVersion": "3.4.1",
  "updatedAt": "2021-06-04T05:56:28.458Z",
  "networkType": "ethereum",
  "devdoc": {
    "kind": "dev",
    "methods": {
      "approve(address,uint256)": {
        "details": "See {IERC721-approve}."
      },
      "balanceOf(address)": {
        "details": "See {IERC721-balanceOf}."
      },
      "getApproved(uint256)": {
        "details": "See {IERC721-getApproved}."
      },
      "isApprovedForAll(address,address)": {
        "details": "See {IERC721-isApprovedForAll}."
      },
      "name()": {
        "details": "See {IERC721Metadata-name}."
      },
      "ownerOf(uint256)": {
        "details": "See {IERC721-ownerOf}."
      },
      "safeTransferFrom(address,address,uint256)": {
        "details": "See {IERC721-safeTransferFrom}."
      },
      "safeTransferFrom(address,address,uint256,bytes)": {
        "details": "See {IERC721-safeTransferFrom}."
      },
      "setApprovalForAll(address,bool)": {
        "details": "See {IERC721-setApprovalForAll}."
      },
      "supportsInterface(bytes4)": {
        "details": "See {IERC165-supportsInterface}."
      },
      "symbol()": {
        "details": "See {IERC721Metadata-symbol}."
      },
      "tokenURI(uint256)": {
        "details": "See {IERC721Metadata-tokenURI}."
      },
      "transferFrom(address,address,uint256)": {
        "details": "See {IERC721-transferFrom}."
      }
    },
    "version": 1
  },
  "userdoc": {
    "kind": "user",
    "methods": {},
    "version": 1
  }
}